{
  "contractName": "AECoin",
  "abi": [
    {
      "inputs": [],
      "stateMutability": "nonpayable",
      "type": "constructor"
    },
    {
      "inputs": [
        {
          "internalType": "address",
          "name": "spender",
          "type": "address"
        },
        {
          "internalType": "uint256",
          "name": "allowance",
          "type": "uint256"
        },
        {
          "internalType": "uint256",
          "name": "needed",
          "type": "uint256"
        }
      ],
      "name": "ERC20InsufficientAllowance",
      "type": "error"
    },
    {
      "inputs": [
        {
          "internalType": "address",
          "name": "sender",
          "type": "address"
        },
        {
          "internalType": "uint256",
          "name": "balance",
          "type": "uint256"
        },
        {
          "internalType": "uint256",
          "name": "needed",
          "type": "uint256"
        }
      ],
      "name": "ERC20InsufficientBalance",
      "type": "error"
    },
    {
      "inputs": [
        {
          "internalType": "address",
          "name": "approver",
          "type": "address"
        }
      ],
      "name": "ERC20InvalidApprover",
      "type": "error"
    },
    {
      "inputs": [
        {
          "internalType": "address",
          "name": "receiver",
          "type": "address"
        }
      ],
      "name": "ERC20InvalidReceiver",
      "type": "error"
    },
    {
      "inputs": [
        {
          "internalType": "address",
          "name": "sender",
          "type": "address"
        }
      ],
      "name": "ERC20InvalidSender",
      "type": "error"
    },
    {
      "inputs": [
        {
          "internalType": "address",
          "name": "spender",
          "type": "address"
        }
      ],
      "name": "ERC20InvalidSpender",
      "type": "error"
    },
    {
      "anonymous": false,
      "inputs": [
        {
          "indexed": true,
          "internalType": "address",
          "name": "owner",
          "type": "address"
        },
        {
          "indexed": true,
          "internalType": "address",
          "name": "spender",
          "type": "address"
        },
        {
          "indexed": false,
          "internalType": "uint256",
          "name": "value",
          "type": "uint256"
        }
      ],
      "name": "Approval",
      "type": "event"
    },
    {
      "anonymous": false,
      "inputs": [
        {
          "indexed": false,
          "internalType": "address",
          "name": "account",
          "type": "address"
        },
        {
          "indexed": false,
          "internalType": "uint256",
          "name": "amount",
          "type": "uint256"
        }
      ],
      "name": "Burn",
      "type": "event"
    },
    {
      "anonymous": false,
      "inputs": [
        {
          "indexed": false,
          "internalType": "address",
          "name": "buyer",
          "type": "address"
        },
        {
          "indexed": false,
          "internalType": "uint256",
          "name": "amount",
          "type": "uint256"
        },
        {
          "indexed": false,
          "internalType": "uint256",
          "name": "cost",
          "type": "uint256"
        }
      ],
      "name": "Purchase",
      "type": "event"
    },
    {
      "anonymous": false,
      "inputs": [
        {
          "indexed": true,
          "internalType": "address",
          "name": "from",
          "type": "address"
        },
        {
          "indexed": true,
          "internalType": "address",
          "name": "to",
          "type": "address"
        },
        {
          "indexed": false,
          "internalType": "uint256",
          "name": "value",
          "type": "uint256"
        }
      ],
      "name": "Transfer",
      "type": "event"
    },
    {
      "inputs": [
        {
          "internalType": "address",
          "name": "owner",
          "type": "address"
        },
        {
          "internalType": "address",
          "name": "spender",
          "type": "address"
        }
      ],
      "name": "allowance",
      "outputs": [
        {
          "internalType": "uint256",
          "name": "",
          "type": "uint256"
        }
      ],
      "stateMutability": "view",
      "type": "function"
    },
    {
      "inputs": [
        {
          "internalType": "address",
          "name": "spender",
          "type": "address"
        },
        {
          "internalType": "uint256",
          "name": "value",
          "type": "uint256"
        }
      ],
      "name": "approve",
      "outputs": [
        {
          "internalType": "bool",
          "name": "",
          "type": "bool"
        }
      ],
      "stateMutability": "nonpayable",
      "type": "function"
    },
    {
      "inputs": [
        {
          "internalType": "address",
          "name": "account",
          "type": "address"
        }
      ],
      "name": "balanceOf",
      "outputs": [
        {
          "internalType": "uint256",
          "name": "",
          "type": "uint256"
        }
      ],
      "stateMutability": "view",
      "type": "function"
    },
    {
      "inputs": [
        {
          "internalType": "uint256",
          "name": "value",
          "type": "uint256"
        }
      ],
      "name": "burn",
      "outputs": [],
      "stateMutability": "nonpayable",
      "type": "function"
    },
    {
      "inputs": [
        {
          "internalType": "address",
          "name": "account",
          "type": "address"
        },
        {
          "internalType": "uint256",
          "name": "value",
          "type": "uint256"
        }
      ],
      "name": "burnFrom",
      "outputs": [],
      "stateMutability": "nonpayable",
      "type": "function"
    },
    {
      "inputs": [],
      "name": "decimals",
      "outputs": [
        {
          "internalType": "uint8",
          "name": "",
          "type": "uint8"
        }
      ],
      "stateMutability": "view",
      "type": "function"
    },
    {
      "inputs": [],
      "name": "name",
      "outputs": [
        {
          "internalType": "string",
          "name": "",
          "type": "string"
        }
      ],
      "stateMutability": "view",
      "type": "function"
    },
    {
      "inputs": [],
      "name": "symbol",
      "outputs": [
        {
          "internalType": "string",
          "name": "",
          "type": "string"
        }
      ],
      "stateMutability": "view",
      "type": "function"
    },
    {
      "inputs": [],
      "name": "totalSupply",
      "outputs": [
        {
          "internalType": "uint256",
          "name": "",
          "type": "uint256"
        }
      ],
      "stateMutability": "view",
      "type": "function"
    },
    {
      "inputs": [
        {
          "internalType": "address",
          "name": "to",
          "type": "address"
        },
        {
          "internalType": "uint256",
          "name": "value",
          "type": "uint256"
        }
      ],
      "name": "transfer",
      "outputs": [
        {
          "internalType": "bool",
          "name": "",
          "type": "bool"
        }
      ],
      "stateMutability": "nonpayable",
      "type": "function"
    },
    {
      "inputs": [
        {
          "internalType": "address",
          "name": "from",
          "type": "address"
        },
        {
          "internalType": "address",
          "name": "to",
          "type": "address"
        },
        {
          "internalType": "uint256",
          "name": "value",
          "type": "uint256"
        }
      ],
      "name": "transferFrom",
      "outputs": [
        {
          "internalType": "bool",
          "name": "",
          "type": "bool"
        }
      ],
      "stateMutability": "nonpayable",
      "type": "function"
    },
    {
      "inputs": [
        {
          "internalType": "uint256",
          "name": "numberOfCoins",
          "type": "uint256"
        }
      ],
      "name": "purchaseCoins",
      "outputs": [],
      "stateMutability": "payable",
      "type": "function"
    },
    {
      "inputs": [
        {
          "internalType": "address",
          "name": "account",
          "type": "address"
        },
        {
          "internalType": "uint256",
          "name": "amount",
          "type": "uint256"
        }
      ],
      "name": "burnFromGame",
      "outputs": [],
      "stateMutability": "nonpayable",
      "type": "function"
    }
  ],
  "bytecode": "0x60806040523480156200001157600080fd5b506040518060400160405280600681526020017f4145436f696e00000000000000000000000000000000000000000000000000008152506040518060400160405280600381526020017f414543000000000000000000000000000000000000000000000000000000000081525081600390816200008f919062000381565b508060049081620000a1919062000381565b50505033600560006101000a81548173ffffffffffffffffffffffffffffffffffffffff021916908373ffffffffffffffffffffffffffffffffffffffff160217905550600a600560146101000a81548160ff021916908360ff16021790555062000468565b600081519050919050565b7f4e487b7100000000000000000000000000000000000000000000000000000000600052604160045260246000fd5b7f4e487b7100000000000000000000000000000000000000000000000000000000600052602260045260246000fd5b600060028204905060018216806200018957607f821691505b6020821081036200019f576200019e62000141565b5b50919050565b60008190508160005260206000209050919050565b60006020601f8301049050919050565b600082821b905092915050565b600060088302620002097fffffffffffffffffffffffffffffffffffffffffffffffffffffffffffffffff82620001ca565b620002158683620001ca565b95508019841693508086168417925050509392505050565b6000819050919050565b6000819050919050565b6000620002626200025c62000256846200022d565b62000237565b6200022d565b9050919050565b6000819050919050565b6200027e8362000241565b620002966200028d8262000269565b848454620001d7565b825550505050565b600090565b620002ad6200029e565b620002ba81848462000273565b505050565b5b81811015620002e257620002d6600082620002a3565b600181019050620002c0565b5050565b601f8211156200033157620002fb81620001a5565b6200030684620001ba565b8101602085101562000316578190505b6200032e6200032585620001ba565b830182620002bf565b50505b505050565b600082821c905092915050565b6000620003566000198460080262000336565b1980831691505092915050565b600062000371838362000343565b9150826002028217905092915050565b6200038c8262000107565b67ffffffffffffffff811115620003a857620003a762000112565b5b620003b4825462000170565b620003c1828285620002e6565b600060209050601f831160018114620003f95760008415620003e4578287015190505b620003f0858262000363565b86555062000460565b601f1984166200040986620001a5565b60005b8281101562000433578489015182556001820191506020850194506020810190506200040c565b868310156200045357848901516200044f601f89168262000343565b8355505b6001600288020188555050505b505050505050565b6113de80620004786000396000f3fe6080604052600436106100c25760003560e01c80633c8c72121161007f57806379cc67901161005957806379cc67901461026d57806395d89b4114610296578063a9059cbb146102c1578063dd62ed3e146102fe576100c2565b80633c8c7212146101eb57806342966c681461020757806370a0823114610230576100c2565b806306fdde03146100c7578063095ea7b3146100f257806317fed4351461012f57806318160ddd1461015857806323b872dd14610183578063313ce567146101c0575b600080fd5b3480156100d357600080fd5b506100dc61033b565b6040516100e99190610ec5565b60405180910390f35b3480156100fe57600080fd5b5061011960048036038101906101149190610f80565b6103cd565b6040516101269190610fdb565b60405180910390f35b34801561013b57600080fd5b5061015660048036038101906101519190610f80565b6103f0565b005b34801561016457600080fd5b5061016d61048e565b60405161017a9190611005565b60405180910390f35b34801561018f57600080fd5b506101aa60048036038101906101a59190611020565b610498565b6040516101b79190610fdb565b60405180910390f35b3480156101cc57600080fd5b506101d56104c7565b6040516101e2919061108f565b60405180910390f35b610205600480360381019061020091906110aa565b6104d0565b005b34801561021357600080fd5b5061022e600480360381019061022991906110aa565b6105db565b005b34801561023c57600080fd5b50610257600480360381019061025291906110d7565b6105ef565b6040516102649190611005565b60405180910390f35b34801561027957600080fd5b50610294600480360381019061028f9190610f80565b610637565b005b3480156102a257600080fd5b506102ab610657565b6040516102b89190610ec5565b60405180910390f35b3480156102cd57600080fd5b506102e860048036038101906102e39190610f80565b6106e9565b6040516102f59190610fdb565b60405180910390f35b34801561030a57600080fd5b5061032560048036038101906103209190611104565b61070c565b6040516103329190611005565b60405180910390f35b60606003805461034a90611173565b80601f016020809104026020016040519081016040528092919081815260200182805461037690611173565b80156103c35780601f10610398576101008083540402835291602001916103c3565b820191906000526020600020905b8154815290600101906020018083116103a657829003601f168201915b5050505050905090565b6000806103d8610793565b90506103e581858561079b565b600191505092915050565b600560009054906101000a900473ffffffffffffffffffffffffffffffffffffffff1673ffffffffffffffffffffffffffffffffffffffff163373ffffffffffffffffffffffffffffffffffffffff1614610480576040517f08c379a000000000000000000000000000000000000000000000000000000000815260040161047790611216565b60405180910390fd5b61048a82826107ad565b5050565b6000600254905090565b6000806104a3610793565b90506104b085828561082f565b6104bb8585856108c3565b60019150509392505050565b60006012905090565b6000652d79883d2000826104e49190611265565b905080341015610529576040517f08c379a0000000000000000000000000000000000000000000000000000000008152600401610520906112f3565b60405180910390fd5b61053333836109b7565b600560009054906101000a900473ffffffffffffffffffffffffffffffffffffffff1673ffffffffffffffffffffffffffffffffffffffff166108fc349081150290604051600060405180830381858888f1935050505015801561059b573d6000803e3d6000fd5b507f12cb4648cf3058b17ceeb33e579f8b0bc269fe0843f3900b8e24b6c54871703c3383836040516105cf93929190611322565b60405180910390a15050565b6105ec6105e6610793565b826107ad565b50565b60008060008373ffffffffffffffffffffffffffffffffffffffff1673ffffffffffffffffffffffffffffffffffffffff168152602001908152602001600020549050919050565b61064982610643610793565b8361082f565b61065382826107ad565b5050565b60606004805461066690611173565b80601f016020809104026020016040519081016040528092919081815260200182805461069290611173565b80156106df5780601f106106b4576101008083540402835291602001916106df565b820191906000526020600020905b8154815290600101906020018083116106c257829003601f168201915b5050505050905090565b6000806106f4610793565b90506107018185856108c3565b600191505092915050565b6000600160008473ffffffffffffffffffffffffffffffffffffffff1673ffffffffffffffffffffffffffffffffffffffff16815260200190815260200160002060008373ffffffffffffffffffffffffffffffffffffffff1673ffffffffffffffffffffffffffffffffffffffff16815260200190815260200160002054905092915050565b600033905090565b6107a88383836001610a39565b505050565b600073ffffffffffffffffffffffffffffffffffffffff168273ffffffffffffffffffffffffffffffffffffffff160361081f5760006040517f96c6fd1e0000000000000000000000000000000000000000000000000000000081526004016108169190611359565b60405180910390fd5b61082b82600083610c10565b5050565b600061083b848461070c565b90507fffffffffffffffffffffffffffffffffffffffffffffffffffffffffffffffff81146108bd57818110156108ad578281836040517ffb8f41b20000000000000000000000000000000000000000000000000000000081526004016108a493929190611322565b60405180910390fd5b6108bc84848484036000610a39565b5b50505050565b600073ffffffffffffffffffffffffffffffffffffffff168373ffffffffffffffffffffffffffffffffffffffff16036109355760006040517f96c6fd1e00000000000000000000000000000000000000000000000000000000815260040161092c9190611359565b60405180910390fd5b600073ffffffffffffffffffffffffffffffffffffffff168273ffffffffffffffffffffffffffffffffffffffff16036109a75760006040517fec442f0500000000000000000000000000000000000000000000000000000000815260040161099e9190611359565b60405180910390fd5b6109b2838383610c10565b505050565b600073ffffffffffffffffffffffffffffffffffffffff168273ffffffffffffffffffffffffffffffffffffffff1603610a295760006040517fec442f05000000000000000000000000000000000000000000000000000000008152600401610a209190611359565b60405180910390fd5b610a3560008383610c10565b5050565b600073ffffffffffffffffffffffffffffffffffffffff168473ffffffffffffffffffffffffffffffffffffffff1603610aab5760006040517fe602df05000000000000000000000000000000000000000000000000000000008152600401610aa29190611359565b60405180910390fd5b600073ffffffffffffffffffffffffffffffffffffffff168373ffffffffffffffffffffffffffffffffffffffff1603610b1d5760006040517f94280d62000000000000000000000000000000000000000000000000000000008152600401610b149190611359565b60405180910390fd5b81600160008673ffffffffffffffffffffffffffffffffffffffff1673ffffffffffffffffffffffffffffffffffffffff16815260200190815260200160002060008573ffffffffffffffffffffffffffffffffffffffff1673ffffffffffffffffffffffffffffffffffffffff168152602001908152602001600020819055508015610c0a578273ffffffffffffffffffffffffffffffffffffffff168473ffffffffffffffffffffffffffffffffffffffff167f8c5be1e5ebec7d5bd14f71427d1e84f3dd0314c0f7b2291e5b200ac8c7c3b92584604051610c019190611005565b60405180910390a35b50505050565b600073ffffffffffffffffffffffffffffffffffffffff168373ffffffffffffffffffffffffffffffffffffffff1603610c62578060026000828254610c569190611374565b92505081905550610d35565b60008060008573ffffffffffffffffffffffffffffffffffffffff1673ffffffffffffffffffffffffffffffffffffffff16815260200190815260200160002054905081811015610cee578381836040517fe450d38c000000000000000000000000000000000000000000000000000000008152600401610ce593929190611322565b60405180910390fd5b8181036000808673ffffffffffffffffffffffffffffffffffffffff1673ffffffffffffffffffffffffffffffffffffffff16815260200190815260200160002081905550505b600073ffffffffffffffffffffffffffffffffffffffff168273ffffffffffffffffffffffffffffffffffffffff1603610d7e5780600260008282540392505081905550610dcb565b806000808473ffffffffffffffffffffffffffffffffffffffff1673ffffffffffffffffffffffffffffffffffffffff168152602001908152602001600020600082825401925050819055505b8173ffffffffffffffffffffffffffffffffffffffff168373ffffffffffffffffffffffffffffffffffffffff167fddf252ad1be2c89b69c2b068fc378daa952ba7f163c4a11628f55a4df523b3ef83604051610e289190611005565b60405180910390a3505050565b600081519050919050565b600082825260208201905092915050565b60005b83811015610e6f578082015181840152602081019050610e54565b60008484015250505050565b6000601f19601f8301169050919050565b6000610e9782610e35565b610ea18185610e40565b9350610eb1818560208601610e51565b610eba81610e7b565b840191505092915050565b60006020820190508181036000830152610edf8184610e8c565b905092915050565b600080fd5b600073ffffffffffffffffffffffffffffffffffffffff82169050919050565b6000610f1782610eec565b9050919050565b610f2781610f0c565b8114610f3257600080fd5b50565b600081359050610f4481610f1e565b92915050565b6000819050919050565b610f5d81610f4a565b8114610f6857600080fd5b50565b600081359050610f7a81610f54565b92915050565b60008060408385031215610f9757610f96610ee7565b5b6000610fa585828601610f35565b9250506020610fb685828601610f6b565b9150509250929050565b60008115159050919050565b610fd581610fc0565b82525050565b6000602082019050610ff06000830184610fcc565b92915050565b610fff81610f4a565b82525050565b600060208201905061101a6000830184610ff6565b92915050565b60008060006060848603121561103957611038610ee7565b5b600061104786828701610f35565b935050602061105886828701610f35565b925050604061106986828701610f6b565b9150509250925092565b600060ff82169050919050565b61108981611073565b82525050565b60006020820190506110a46000830184611080565b92915050565b6000602082840312156110c0576110bf610ee7565b5b60006110ce84828501610f6b565b91505092915050565b6000602082840312156110ed576110ec610ee7565b5b60006110fb84828501610f35565b91505092915050565b6000806040838503121561111b5761111a610ee7565b5b600061112985828601610f35565b925050602061113a85828601610f35565b9150509250929050565b7f4e487b7100000000000000000000000000000000000000000000000000000000600052602260045260246000fd5b6000600282049050600182168061118b57607f821691505b60208210810361119e5761119d611144565b5b50919050565b7f46756e6374696f6e2063616c6c61626c65206f6e6c792066726f6d206f776e6560008201527f7200000000000000000000000000000000000000000000000000000000000000602082015250565b6000611200602183610e40565b915061120b826111a4565b604082019050919050565b6000602082019050818103600083015261122f816111f3565b9050919050565b7f4e487b7100000000000000000000000000000000000000000000000000000000600052601160045260246000fd5b600061127082610f4a565b915061127b83610f4a565b925082820261128981610f4a565b915082820484148315176112a05761129f611236565b5b5092915050565b7f496e73756666696369656e74204554482073656e740000000000000000000000600082015250565b60006112dd601583610e40565b91506112e8826112a7565b602082019050919050565b6000602082019050818103600083015261130c816112d0565b9050919050565b61131c81610f0c565b82525050565b60006060820190506113376000830186611313565b6113446020830185610ff6565b6113516040830184610ff6565b949350505050565b600060208201905061136e6000830184611313565b92915050565b600061137f82610f4a565b915061138a83610f4a565b92508282019050808211156113a2576113a1611236565b5b9291505056fea264697066735822122050e4f18d6d7817004bbacf532b25320501239f878cda42886d2e94be6e66a66264736f6c63430008130033",
  "immutableReferences": {},
  "source": "// SPDX-License-Identifier: MIT \r\npragma solidity ^0.8.18;\r\n\r\n\r\nimport \"../node_modules/@openzeppelin/contracts/token/ERC20/extensions/ERC20Burnable.sol\";\r\n\r\ncontract AECoin is ERC20Burnable{\r\n\r\n    //Creatore del contratto : Tecnicamente colui che si becca i soldi della dapp\r\n    address private owner;\r\n    uint8 private reward;       //The number of token received as reward at the end of a battle\r\n\r\n    //Chiamo il costruttore di ERC20 settando nome e simbolo per il token\r\n    constructor() ERC20(\"AECoin\", \"AEC\") {\r\n        owner = msg.sender;     //Setto l'owner quando effettuo il deploy del contratto\r\n        reward = 10;            \r\n    }   \r\n\r\n    //Modifier per garantire che alcune funzionalit siano solo usufruibili al creatore del contratto\r\n    //Assumo che il creatore di questo contratto sia anche lo stesso del contratto che gestice l'intero gioco \r\n\r\n    modifier onlyOwner(){\r\n        require(msg.sender == owner,\"Function callable only from owner\");\r\n        _;\r\n    }\r\n\r\n    //Evento quando l'utente acquista nuove monete\r\n    event Purchase(address buyer,uint256 amount,uint256 cost);\r\n    //Evento quando l'utente spende nuove monete\r\n    event Burn(address account, uint256 amount);\r\n\r\n\r\n    //NOTA : Ricorda che in Ethereum viene utilizzato il Wei ( 1eth = 1e18wei = 10^18wei)\r\n    //NOTA : Ricorda che msg.value  espresso in wei\r\n    //Funzione che consente all'utente di acquistare monente di gioco (100AEC = 0.005 ETH) => 1Coin = (0.005 / 100 eth) = 0.00005 eth\r\n    function purchaseCoins(uint256 numberOfCoins) public payable {\r\n        //Calcola il costo in eth delle monete richieste\r\n        uint256 costInEth = (numberOfCoins * 5e13); \r\n\r\n        //Verifica che l'importo inviato sia sufficente\r\n        require(msg.value >= costInEth, \"Insufficient ETH sent\");\r\n\r\n        //Emette nuove monete per l'acquirente\r\n        _mint(msg.sender, numberOfCoins);\r\n\r\n        //Invia i guadagni al proprietario del contratto\r\n        payable(owner).transfer(msg.value); //Se metti pi soldi li perdi :)\r\n\r\n        //Emessione evento di acquisto\r\n        emit Purchase(msg.sender, numberOfCoins , costInEth);\r\n    }\r\n\r\n\r\n    //Funzione da chiamare quando un utente vince una battaglia ( e quindi guadagna monete)\r\n    function getReward(address winner) internal{\r\n        _mint(winner, reward);\r\n    }     \r\n\r\n    \r\n    //Utile quando un utente spende i token                         //? Si potrebbe sostituire con internal \r\n    function burnFromGame(address account, uint256 amount) external onlyOwner {\r\n        // Chiama la funzione burn di ERC20Burnable\r\n        _burn(account, amount);\r\n    }\r\n\r\n}",
  "sourcePath": "C:\\Users\\HP\\Desktop\\Universit\\Magistrale\\2 anno\\1 Semestre\\Blockchain & DLT\\Truffle\\AEtherMon\\contracts\\AE-Coin.sol",
  "compiler": {
    "name": "solc",
    "version": "0.8.19+commit.7dd6d404.Emscripten.clang"
  },
  "schemaVersion": "3.4.16",
  "updatedAt": "2023-12-13T13:43:01.106Z",
  "devdoc": {
    "errors": {
      "ERC20InsufficientAllowance(address,uint256,uint256)": [
        {
          "details": "Indicates a failure with the `spender`s `allowance`. Used in transfers.",
          "params": {
            "allowance": "Amount of tokens a `spender` is allowed to operate with.",
            "needed": "Minimum amount required to perform a transfer.",
            "spender": "Address that may be allowed to operate on tokens without being their owner."
          }
        }
      ],
      "ERC20InsufficientBalance(address,uint256,uint256)": [
        {
          "details": "Indicates an error related to the current `balance` of a `sender`. Used in transfers.",
          "params": {
            "balance": "Current balance for the interacting account.",
            "needed": "Minimum amount required to perform a transfer.",
            "sender": "Address whose tokens are being transferred."
          }
        }
      ],
      "ERC20InvalidApprover(address)": [
        {
          "details": "Indicates a failure with the `approver` of a token to be approved. Used in approvals.",
          "params": {
            "approver": "Address initiating an approval operation."
          }
        }
      ],
      "ERC20InvalidReceiver(address)": [
        {
          "details": "Indicates a failure with the token `receiver`. Used in transfers.",
          "params": {
            "receiver": "Address to which tokens are being transferred."
          }
        }
      ],
      "ERC20InvalidSender(address)": [
        {
          "details": "Indicates a failure with the token `sender`. Used in transfers.",
          "params": {
            "sender": "Address whose tokens are being transferred."
          }
        }
      ],
      "ERC20InvalidSpender(address)": [
        {
          "details": "Indicates a failure with the `spender` to be approved. Used in approvals.",
          "params": {
            "spender": "Address that may be allowed to operate on tokens without being their owner."
          }
        }
      ]
    },
    "events": {
      "Approval(address,address,uint256)": {
        "details": "Emitted when the allowance of a `spender` for an `owner` is set by a call to {approve}. `value` is the new allowance."
      },
      "Transfer(address,address,uint256)": {
        "details": "Emitted when `value` tokens are moved from one account (`from`) to another (`to`). Note that `value` may be zero."
      }
    },
    "kind": "dev",
    "methods": {
      "allowance(address,address)": {
        "details": "See {IERC20-allowance}."
      },
      "approve(address,uint256)": {
        "details": "See {IERC20-approve}. NOTE: If `value` is the maximum `uint256`, the allowance is not updated on `transferFrom`. This is semantically equivalent to an infinite approval. Requirements: - `spender` cannot be the zero address."
      },
      "balanceOf(address)": {
        "details": "See {IERC20-balanceOf}."
      },
      "burn(uint256)": {
        "details": "Destroys a `value` amount of tokens from the caller. See {ERC20-_burn}."
      },
      "burnFrom(address,uint256)": {
        "details": "Destroys a `value` amount of tokens from `account`, deducting from the caller's allowance. See {ERC20-_burn} and {ERC20-allowance}. Requirements: - the caller must have allowance for ``accounts``'s tokens of at least `value`."
      },
      "decimals()": {
        "details": "Returns the number of decimals used to get its user representation. For example, if `decimals` equals `2`, a balance of `505` tokens should be displayed to a user as `5.05` (`505 / 10 ** 2`). Tokens usually opt for a value of 18, imitating the relationship between Ether and Wei. This is the default value returned by this function, unless it's overridden. NOTE: This information is only used for _display_ purposes: it in no way affects any of the arithmetic of the contract, including {IERC20-balanceOf} and {IERC20-transfer}."
      },
      "name()": {
        "details": "Returns the name of the token."
      },
      "symbol()": {
        "details": "Returns the symbol of the token, usually a shorter version of the name."
      },
      "totalSupply()": {
        "details": "See {IERC20-totalSupply}."
      },
      "transfer(address,uint256)": {
        "details": "See {IERC20-transfer}. Requirements: - `to` cannot be the zero address. - the caller must have a balance of at least `value`."
      },
      "transferFrom(address,address,uint256)": {
        "details": "See {IERC20-transferFrom}. Emits an {Approval} event indicating the updated allowance. This is not required by the EIP. See the note at the beginning of {ERC20}. NOTE: Does not update the allowance if the current allowance is the maximum `uint256`. Requirements: - `from` and `to` cannot be the zero address. - `from` must have a balance of at least `value`. - the caller must have allowance for ``from``'s tokens of at least `value`."
      }
    },
    "version": 1
  },
  "userdoc": {
    "kind": "user",
    "methods": {},
    "version": 1
  }
}