{
  "contractName": "AECoinFT",
  "abi": [
    {
      "inputs": [
        {
          "internalType": "address",
          "name": "_gameContractAddress",
          "type": "address"
        }
      ],
      "stateMutability": "nonpayable",
      "type": "constructor"
    },
    {
      "inputs": [
        {
          "internalType": "address",
          "name": "spender",
          "type": "address"
        },
        {
          "internalType": "uint256",
          "name": "allowance",
          "type": "uint256"
        },
        {
          "internalType": "uint256",
          "name": "needed",
          "type": "uint256"
        }
      ],
      "name": "ERC20InsufficientAllowance",
      "type": "error"
    },
    {
      "inputs": [
        {
          "internalType": "address",
          "name": "sender",
          "type": "address"
        },
        {
          "internalType": "uint256",
          "name": "balance",
          "type": "uint256"
        },
        {
          "internalType": "uint256",
          "name": "needed",
          "type": "uint256"
        }
      ],
      "name": "ERC20InsufficientBalance",
      "type": "error"
    },
    {
      "inputs": [
        {
          "internalType": "address",
          "name": "approver",
          "type": "address"
        }
      ],
      "name": "ERC20InvalidApprover",
      "type": "error"
    },
    {
      "inputs": [
        {
          "internalType": "address",
          "name": "receiver",
          "type": "address"
        }
      ],
      "name": "ERC20InvalidReceiver",
      "type": "error"
    },
    {
      "inputs": [
        {
          "internalType": "address",
          "name": "sender",
          "type": "address"
        }
      ],
      "name": "ERC20InvalidSender",
      "type": "error"
    },
    {
      "inputs": [
        {
          "internalType": "address",
          "name": "spender",
          "type": "address"
        }
      ],
      "name": "ERC20InvalidSpender",
      "type": "error"
    },
    {
      "anonymous": false,
      "inputs": [
        {
          "indexed": true,
          "internalType": "address",
          "name": "owner",
          "type": "address"
        },
        {
          "indexed": true,
          "internalType": "address",
          "name": "spender",
          "type": "address"
        },
        {
          "indexed": false,
          "internalType": "uint256",
          "name": "value",
          "type": "uint256"
        }
      ],
      "name": "Approval",
      "type": "event"
    },
    {
      "anonymous": false,
      "inputs": [
        {
          "indexed": false,
          "internalType": "address",
          "name": "account",
          "type": "address"
        },
        {
          "indexed": false,
          "internalType": "uint256",
          "name": "amount",
          "type": "uint256"
        }
      ],
      "name": "Burn",
      "type": "event"
    },
    {
      "anonymous": false,
      "inputs": [
        {
          "indexed": false,
          "internalType": "address",
          "name": "buyer",
          "type": "address"
        },
        {
          "indexed": false,
          "internalType": "uint256",
          "name": "amount",
          "type": "uint256"
        }
      ],
      "name": "Purchase",
      "type": "event"
    },
    {
      "anonymous": false,
      "inputs": [
        {
          "indexed": true,
          "internalType": "address",
          "name": "from",
          "type": "address"
        },
        {
          "indexed": true,
          "internalType": "address",
          "name": "to",
          "type": "address"
        },
        {
          "indexed": false,
          "internalType": "uint256",
          "name": "value",
          "type": "uint256"
        }
      ],
      "name": "Transfer",
      "type": "event"
    },
    {
      "anonymous": false,
      "inputs": [
        {
          "indexed": false,
          "internalType": "address",
          "name": "account",
          "type": "address"
        },
        {
          "indexed": false,
          "internalType": "uint256",
          "name": "amount",
          "type": "uint256"
        }
      ],
      "name": "Win",
      "type": "event"
    },
    {
      "inputs": [
        {
          "internalType": "address",
          "name": "owner",
          "type": "address"
        },
        {
          "internalType": "address",
          "name": "spender",
          "type": "address"
        }
      ],
      "name": "allowance",
      "outputs": [
        {
          "internalType": "uint256",
          "name": "",
          "type": "uint256"
        }
      ],
      "stateMutability": "view",
      "type": "function"
    },
    {
      "inputs": [
        {
          "internalType": "address",
          "name": "spender",
          "type": "address"
        },
        {
          "internalType": "uint256",
          "name": "value",
          "type": "uint256"
        }
      ],
      "name": "approve",
      "outputs": [
        {
          "internalType": "bool",
          "name": "",
          "type": "bool"
        }
      ],
      "stateMutability": "nonpayable",
      "type": "function"
    },
    {
      "inputs": [
        {
          "internalType": "address",
          "name": "account",
          "type": "address"
        }
      ],
      "name": "balanceOf",
      "outputs": [
        {
          "internalType": "uint256",
          "name": "",
          "type": "uint256"
        }
      ],
      "stateMutability": "view",
      "type": "function"
    },
    {
      "inputs": [
        {
          "internalType": "uint256",
          "name": "value",
          "type": "uint256"
        }
      ],
      "name": "burn",
      "outputs": [],
      "stateMutability": "nonpayable",
      "type": "function"
    },
    {
      "inputs": [
        {
          "internalType": "address",
          "name": "account",
          "type": "address"
        },
        {
          "internalType": "uint256",
          "name": "value",
          "type": "uint256"
        }
      ],
      "name": "burnFrom",
      "outputs": [],
      "stateMutability": "nonpayable",
      "type": "function"
    },
    {
      "inputs": [],
      "name": "decimals",
      "outputs": [
        {
          "internalType": "uint8",
          "name": "",
          "type": "uint8"
        }
      ],
      "stateMutability": "view",
      "type": "function"
    },
    {
      "inputs": [],
      "name": "gameContractAddress",
      "outputs": [
        {
          "internalType": "address",
          "name": "",
          "type": "address"
        }
      ],
      "stateMutability": "view",
      "type": "function"
    },
    {
      "inputs": [],
      "name": "name",
      "outputs": [
        {
          "internalType": "string",
          "name": "",
          "type": "string"
        }
      ],
      "stateMutability": "view",
      "type": "function"
    },
    {
      "inputs": [],
      "name": "symbol",
      "outputs": [
        {
          "internalType": "string",
          "name": "",
          "type": "string"
        }
      ],
      "stateMutability": "view",
      "type": "function"
    },
    {
      "inputs": [],
      "name": "totalSupply",
      "outputs": [
        {
          "internalType": "uint256",
          "name": "",
          "type": "uint256"
        }
      ],
      "stateMutability": "view",
      "type": "function"
    },
    {
      "inputs": [
        {
          "internalType": "address",
          "name": "to",
          "type": "address"
        },
        {
          "internalType": "uint256",
          "name": "value",
          "type": "uint256"
        }
      ],
      "name": "transfer",
      "outputs": [
        {
          "internalType": "bool",
          "name": "",
          "type": "bool"
        }
      ],
      "stateMutability": "nonpayable",
      "type": "function"
    },
    {
      "inputs": [
        {
          "internalType": "address",
          "name": "from",
          "type": "address"
        },
        {
          "internalType": "address",
          "name": "to",
          "type": "address"
        },
        {
          "internalType": "uint256",
          "name": "value",
          "type": "uint256"
        }
      ],
      "name": "transferFrom",
      "outputs": [
        {
          "internalType": "bool",
          "name": "",
          "type": "bool"
        }
      ],
      "stateMutability": "nonpayable",
      "type": "function"
    },
    {
      "inputs": [
        {
          "internalType": "address",
          "name": "buyer",
          "type": "address"
        },
        {
          "internalType": "uint256",
          "name": "numberOfCoins",
          "type": "uint256"
        }
      ],
      "name": "purchaseCoins",
      "outputs": [],
      "stateMutability": "nonpayable",
      "type": "function"
    },
    {
      "inputs": [
        {
          "internalType": "address",
          "name": "buyer",
          "type": "address"
        },
        {
          "internalType": "address",
          "name": "seller",
          "type": "address"
        },
        {
          "internalType": "uint256",
          "name": "amount",
          "type": "uint256"
        }
      ],
      "name": "transferCoinsFrom",
      "outputs": [],
      "stateMutability": "nonpayable",
      "type": "function"
    },
    {
      "inputs": [
        {
          "internalType": "address",
          "name": "winner",
          "type": "address"
        }
      ],
      "name": "getReward",
      "outputs": [],
      "stateMutability": "nonpayable",
      "type": "function"
    },
    {
      "inputs": [
        {
          "internalType": "address",
          "name": "account",
          "type": "address"
        },
        {
          "internalType": "uint256",
          "name": "amount",
          "type": "uint256"
        }
      ],
      "name": "burnFromGame",
      "outputs": [],
      "stateMutability": "nonpayable",
      "type": "function"
    },
    {
      "inputs": [],
      "name": "destroy",
      "outputs": [],
      "stateMutability": "nonpayable",
      "type": "function"
    }
  ],
  "bytecode": "0x60806040523480156200001157600080fd5b5060405162000daa38038062000daa8339810160408190526200003491620000c1565b6040518060400160405280600681526020016520a2a1b7b4b760d11b8152506040518060400160405280600381526020016241454360e81b815250816003908162000080919062000198565b5060046200008f828262000198565b5050600580546001600160a01b03909316610100026001600160a81b031990931692909217600a179091555062000264565b600060208284031215620000d457600080fd5b81516001600160a01b0381168114620000ec57600080fd5b9392505050565b634e487b7160e01b600052604160045260246000fd5b600181811c908216806200011e57607f821691505b6020821081036200013f57634e487b7160e01b600052602260045260246000fd5b50919050565b601f8211156200019357600081815260208120601f850160051c810160208610156200016e5750805b601f850160051c820191505b818110156200018f578281556001016200017a565b5050505b505050565b81516001600160401b03811115620001b457620001b4620000f3565b620001cc81620001c5845462000109565b8462000145565b602080601f831160018114620002045760008415620001eb5750858301515b600019600386901b1c1916600185901b1785556200018f565b600085815260208120601f198616915b82811015620002355788860151825594840194600190910190840162000214565b5085821015620002545787850151600019600388901b60f8161c191681555b5050505050600190811b01905550565b610b3680620002746000396000f3fe608060405234801561001057600080fd5b506004361061010b5760003560e01c806370a08231116100a257806395d89b411161007157806395d89b41146102345780639b7417711461023c578063a9059cbb1461024f578063c00007b014610262578063dd62ed3e1461027557600080fd5b806370a08231146101dd57806371c34d331461020657806379cc67901461021957806383197ef01461022c57600080fd5b806323b872dd116100de57806323b872dd14610178578063313ce5671461018b57806342966c681461019a57806363df0ef7146101ad57600080fd5b806306fdde0314610110578063095ea7b31461012e57806317fed4351461015157806318160ddd14610166575b600080fd5b6101186102ae565b604051610125919061091a565b60405180910390f35b61014161013c366004610984565b610340565b6040519015158152602001610125565b61016461015f366004610984565b61035a565b005b6002545b604051908152602001610125565b6101416101863660046109ae565b6103e3565b60405160128152602001610125565b6101646101a83660046109ea565b610407565b6005546101c59061010090046001600160a01b031681565b6040516001600160a01b039091168152602001610125565b61016a6101eb366004610a03565b6001600160a01b031660009081526020819052604090205490565b6101646102143660046109ae565b610414565b610164610227366004610984565b610453565b61016461046c565b6101186104ae565b61016461024a366004610984565b6104bd565b61014161025d366004610984565b61052c565b610164610270366004610a03565b61053a565b61016a610283366004610a25565b6001600160a01b03918216600090815260016020908152604080832093909416825291909152205490565b6060600380546102bd90610a58565b80601f01602080910402602001604051908101604052809291908181526020018280546102e990610a58565b80156103365780601f1061030b57610100808354040283529160200191610336565b820191906000526020600020905b81548152906001019060200180831161031957829003601f168201915b5050505050905090565b60003361034e8185856105c5565b60019150505b92915050565b60055461010090046001600160a01b031633146103925760405162461bcd60e51b815260040161038990610a92565b60405180910390fd5b61039c82826105d2565b604080516001600160a01b0384168152602081018390527fcc16f5dbb4873280815c1ee09dbd06736cffcc184412cf7a71a0fdb75d397ca591015b60405180910390a15050565b6000336103f1858285610608565b6103fc858585610686565b506001949350505050565b61041133826105d2565b50565b60055461010090046001600160a01b031633146104435760405162461bcd60e51b815260040161038990610a92565b61044e838383610686565b505050565b61045e823383610608565b61046882826105d2565b5050565b60055461010090046001600160a01b0316331461049b5760405162461bcd60e51b815260040161038990610a92565b60055461010090046001600160a01b0316ff5b6060600480546102bd90610a58565b60055461010090046001600160a01b031633146104ec5760405162461bcd60e51b815260040161038990610a92565b6104f682826106e5565b60408051338152602081018390527f2499a5330ab0979cc612135e7883ebc3cd5c9f7a8508f042540c34723348f63291016103d7565b60003361034e818585610686565b60055461010090046001600160a01b031633146105695760405162461bcd60e51b815260040161038990610a92565b60055461057a90829060ff166106e5565b600554604080516001600160a01b038416815260ff90921660208301527f6747c18256028de8cd2fa276e75d6b4193ac34c1b55fa8e71797ac132d32ad39910160405180910390a150565b61044e838383600161071b565b6001600160a01b0382166105fc57604051634b637e8f60e11b815260006004820152602401610389565b610468826000836107f0565b6001600160a01b038381166000908152600160209081526040808320938616835292905220546000198114610680578181101561067157604051637dc7a0d960e11b81526001600160a01b03841660048201526024810182905260448101839052606401610389565b6106808484848403600061071b565b50505050565b6001600160a01b0383166106b057604051634b637e8f60e11b815260006004820152602401610389565b6001600160a01b0382166106da5760405163ec442f0560e01b815260006004820152602401610389565b61044e8383836107f0565b6001600160a01b03821661070f5760405163ec442f0560e01b815260006004820152602401610389565b610468600083836107f0565b6001600160a01b0384166107455760405163e602df0560e01b815260006004820152602401610389565b6001600160a01b03831661076f57604051634a1406b160e11b815260006004820152602401610389565b6001600160a01b038085166000908152600160209081526040808320938716835292905220829055801561068057826001600160a01b0316846001600160a01b03167f8c5be1e5ebec7d5bd14f71427d1e84f3dd0314c0f7b2291e5b200ac8c7c3b925846040516107e291815260200190565b60405180910390a350505050565b6001600160a01b03831661081b5780600260008282546108109190610adf565b9091555061088d9050565b6001600160a01b0383166000908152602081905260409020548181101561086e5760405163391434e360e21b81526001600160a01b03851660048201526024810182905260448101839052606401610389565b6001600160a01b03841660009081526020819052604090209082900390555b6001600160a01b0382166108a9576002805482900390556108c8565b6001600160a01b03821660009081526020819052604090208054820190555b816001600160a01b0316836001600160a01b03167fddf252ad1be2c89b69c2b068fc378daa952ba7f163c4a11628f55a4df523b3ef8360405161090d91815260200190565b60405180910390a3505050565b600060208083528351808285015260005b818110156109475785810183015185820160400152820161092b565b506000604082860101526040601f19601f8301168501019250505092915050565b80356001600160a01b038116811461097f57600080fd5b919050565b6000806040838503121561099757600080fd5b6109a083610968565b946020939093013593505050565b6000806000606084860312156109c357600080fd5b6109cc84610968565b92506109da60208501610968565b9150604084013590509250925092565b6000602082840312156109fc57600080fd5b5035919050565b600060208284031215610a1557600080fd5b610a1e82610968565b9392505050565b60008060408385031215610a3857600080fd5b610a4183610968565b9150610a4f60208401610968565b90509250929050565b600181811c90821680610a6c57607f821691505b602082108103610a8c57634e487b7160e01b600052602260045260246000fd5b50919050565b6020808252602d908201527f4f6e6c79207468652067616d6520636f6e74726163742063616e2063616c6c2060408201526c3a3434b990333ab731ba34b7b760991b606082015260800190565b8082018082111561035457634e487b7160e01b600052601160045260246000fdfea2646970667358221220eb22ce122d1b7183faffd2551ca4e8a99caccc8814f738ee01a6f5020d1ffea864736f6c63430008130033",
  "immutableReferences": {},
  "source": "// SPDX-License-Identifier: MIT \r\npragma solidity ^0.8.18;\r\n\r\n\r\nimport \"../node_modules/@openzeppelin/contracts/token/ERC20/extensions/ERC20Burnable.sol\";\r\n\r\ncontract AECoinFT is ERC20Burnable{\r\n    //*--------------State variables--------------\r\n    uint8 private reward;                                       //The number of token received as reward at the end of a battle\r\n\r\n    address public gameContractAddress;                         //The address of the contract that manages all the dapp\r\n\r\n    //Chiamo il costruttore di ERC20 settando nome e simbolo per il token\r\n    constructor(address _gameContractAddress) ERC20(\"AECoin\", \"AEC\") {\r\n        reward = 10;     \r\n        gameContractAddress = _gameContractAddress;       \r\n    }   \r\n\r\n\r\n    //*--------------Modifiers--------------\r\n    modifier onlyGameContract(){\r\n        require(msg.sender == gameContractAddress,\"Only the game contract can call this function\");\r\n        _;\r\n    }\r\n\r\n    //*--------------Events--------------\r\n    event Purchase(address buyer, uint256 amount);           //Evento quando l'utente acquista nuove monete\r\n    event Burn(address account, uint256 amount);            //Evento quando l'utente spende nuove monete\r\n    event Win(address account, uint256 amount);\r\n\r\n    //*--------------Main functionalities--------------\r\n\r\n    //Function to mint coin for a user\r\n    function purchaseCoins(address buyer,uint256 numberOfCoins) public onlyGameContract{\r\n        //Emette nuove monete per l'acquirente\r\n        _mint(buyer, numberOfCoins);\r\n\r\n        //Emessione evento di acquisto\r\n        emit Purchase(msg.sender, numberOfCoins);\r\n    }\r\n\r\n    //Needed to allow the payment between players when they exchange monsters using the market\r\n    function transferCoinsFrom(address buyer, address seller, uint256 amount) public onlyGameContract{\r\n        _transfer(buyer, seller, amount);\r\n    }\r\n\r\n    //Funzione da chiamare quando un utente vince una battaglia ( e quindi guadagna monete)\r\n    function getReward(address winner) external onlyGameContract{\r\n        _mint(winner, reward);\r\n        emit Win(winner, reward);\r\n    }     \r\n\r\n    \r\n    //Utile quando un utente spende i token                         \r\n    function burnFromGame(address account, uint256 amount) external onlyGameContract {\r\n        // Chiama la funzione burn di ERC20Burnable\r\n        _burn(account, amount);    \r\n        emit Burn(account, amount);         \r\n    }\r\n\r\n    //Only the game contract can call this function\r\n    function destroy() public onlyGameContract{\r\n        selfdestruct(payable(gameContractAddress));\r\n    }\r\n\r\n}",
  "sourcePath": "C:\\Users\\HP\\Desktop\\Universit\\Magistrale\\2 anno\\1 Semestre\\Blockchain & DLT\\Progetto\\src\\AEtherMon\\contracts\\AECoin.sol",
  "compiler": {
    "name": "solc",
    "version": "0.8.19+commit.7dd6d404.Emscripten.clang"
  },
  "schemaVersion": "3.4.16",
  "updatedAt": "2024-02-06T14:29:42.789Z",
  "devdoc": {
    "errors": {
      "ERC20InsufficientAllowance(address,uint256,uint256)": [
        {
          "details": "Indicates a failure with the `spender`s `allowance`. Used in transfers.",
          "params": {
            "allowance": "Amount of tokens a `spender` is allowed to operate with.",
            "needed": "Minimum amount required to perform a transfer.",
            "spender": "Address that may be allowed to operate on tokens without being their owner."
          }
        }
      ],
      "ERC20InsufficientBalance(address,uint256,uint256)": [
        {
          "details": "Indicates an error related to the current `balance` of a `sender`. Used in transfers.",
          "params": {
            "balance": "Current balance for the interacting account.",
            "needed": "Minimum amount required to perform a transfer.",
            "sender": "Address whose tokens are being transferred."
          }
        }
      ],
      "ERC20InvalidApprover(address)": [
        {
          "details": "Indicates a failure with the `approver` of a token to be approved. Used in approvals.",
          "params": {
            "approver": "Address initiating an approval operation."
          }
        }
      ],
      "ERC20InvalidReceiver(address)": [
        {
          "details": "Indicates a failure with the token `receiver`. Used in transfers.",
          "params": {
            "receiver": "Address to which tokens are being transferred."
          }
        }
      ],
      "ERC20InvalidSender(address)": [
        {
          "details": "Indicates a failure with the token `sender`. Used in transfers.",
          "params": {
            "sender": "Address whose tokens are being transferred."
          }
        }
      ],
      "ERC20InvalidSpender(address)": [
        {
          "details": "Indicates a failure with the `spender` to be approved. Used in approvals.",
          "params": {
            "spender": "Address that may be allowed to operate on tokens without being their owner."
          }
        }
      ]
    },
    "events": {
      "Approval(address,address,uint256)": {
        "details": "Emitted when the allowance of a `spender` for an `owner` is set by a call to {approve}. `value` is the new allowance."
      },
      "Transfer(address,address,uint256)": {
        "details": "Emitted when `value` tokens are moved from one account (`from`) to another (`to`). Note that `value` may be zero."
      }
    },
    "kind": "dev",
    "methods": {
      "allowance(address,address)": {
        "details": "See {IERC20-allowance}."
      },
      "approve(address,uint256)": {
        "details": "See {IERC20-approve}. NOTE: If `value` is the maximum `uint256`, the allowance is not updated on `transferFrom`. This is semantically equivalent to an infinite approval. Requirements: - `spender` cannot be the zero address."
      },
      "balanceOf(address)": {
        "details": "See {IERC20-balanceOf}."
      },
      "burn(uint256)": {
        "details": "Destroys a `value` amount of tokens from the caller. See {ERC20-_burn}."
      },
      "burnFrom(address,uint256)": {
        "details": "Destroys a `value` amount of tokens from `account`, deducting from the caller's allowance. See {ERC20-_burn} and {ERC20-allowance}. Requirements: - the caller must have allowance for ``accounts``'s tokens of at least `value`."
      },
      "decimals()": {
        "details": "Returns the number of decimals used to get its user representation. For example, if `decimals` equals `2`, a balance of `505` tokens should be displayed to a user as `5.05` (`505 / 10 ** 2`). Tokens usually opt for a value of 18, imitating the relationship between Ether and Wei. This is the default value returned by this function, unless it's overridden. NOTE: This information is only used for _display_ purposes: it in no way affects any of the arithmetic of the contract, including {IERC20-balanceOf} and {IERC20-transfer}."
      },
      "name()": {
        "details": "Returns the name of the token."
      },
      "symbol()": {
        "details": "Returns the symbol of the token, usually a shorter version of the name."
      },
      "totalSupply()": {
        "details": "See {IERC20-totalSupply}."
      },
      "transfer(address,uint256)": {
        "details": "See {IERC20-transfer}. Requirements: - `to` cannot be the zero address. - the caller must have a balance of at least `value`."
      },
      "transferFrom(address,address,uint256)": {
        "details": "See {IERC20-transferFrom}. Emits an {Approval} event indicating the updated allowance. This is not required by the EIP. See the note at the beginning of {ERC20}. NOTE: Does not update the allowance if the current allowance is the maximum `uint256`. Requirements: - `from` and `to` cannot be the zero address. - `from` must have a balance of at least `value`. - the caller must have allowance for ``from``'s tokens of at least `value`."
      }
    },
    "version": 1
  },
  "userdoc": {
    "kind": "user",
    "methods": {},
    "version": 1
  }
}