{
  "contractName": "AECoinFT",
  "abi": [
    {
      "inputs": [
        {
          "internalType": "address",
          "name": "_gameContractAddress",
          "type": "address"
        }
      ],
      "stateMutability": "nonpayable",
      "type": "constructor"
    },
    {
      "inputs": [
        {
          "internalType": "address",
          "name": "spender",
          "type": "address"
        },
        {
          "internalType": "uint256",
          "name": "allowance",
          "type": "uint256"
        },
        {
          "internalType": "uint256",
          "name": "needed",
          "type": "uint256"
        }
      ],
      "name": "ERC20InsufficientAllowance",
      "type": "error"
    },
    {
      "inputs": [
        {
          "internalType": "address",
          "name": "sender",
          "type": "address"
        },
        {
          "internalType": "uint256",
          "name": "balance",
          "type": "uint256"
        },
        {
          "internalType": "uint256",
          "name": "needed",
          "type": "uint256"
        }
      ],
      "name": "ERC20InsufficientBalance",
      "type": "error"
    },
    {
      "inputs": [
        {
          "internalType": "address",
          "name": "approver",
          "type": "address"
        }
      ],
      "name": "ERC20InvalidApprover",
      "type": "error"
    },
    {
      "inputs": [
        {
          "internalType": "address",
          "name": "receiver",
          "type": "address"
        }
      ],
      "name": "ERC20InvalidReceiver",
      "type": "error"
    },
    {
      "inputs": [
        {
          "internalType": "address",
          "name": "sender",
          "type": "address"
        }
      ],
      "name": "ERC20InvalidSender",
      "type": "error"
    },
    {
      "inputs": [
        {
          "internalType": "address",
          "name": "spender",
          "type": "address"
        }
      ],
      "name": "ERC20InvalidSpender",
      "type": "error"
    },
    {
      "anonymous": false,
      "inputs": [
        {
          "indexed": true,
          "internalType": "address",
          "name": "owner",
          "type": "address"
        },
        {
          "indexed": true,
          "internalType": "address",
          "name": "spender",
          "type": "address"
        },
        {
          "indexed": false,
          "internalType": "uint256",
          "name": "value",
          "type": "uint256"
        }
      ],
      "name": "Approval",
      "type": "event"
    },
    {
      "anonymous": false,
      "inputs": [
        {
          "indexed": false,
          "internalType": "address",
          "name": "account",
          "type": "address"
        },
        {
          "indexed": false,
          "internalType": "uint256",
          "name": "amount",
          "type": "uint256"
        }
      ],
      "name": "Burn",
      "type": "event"
    },
    {
      "anonymous": false,
      "inputs": [
        {
          "indexed": false,
          "internalType": "address",
          "name": "buyer",
          "type": "address"
        },
        {
          "indexed": false,
          "internalType": "uint256",
          "name": "amount",
          "type": "uint256"
        }
      ],
      "name": "Purchase",
      "type": "event"
    },
    {
      "anonymous": false,
      "inputs": [
        {
          "indexed": true,
          "internalType": "address",
          "name": "from",
          "type": "address"
        },
        {
          "indexed": true,
          "internalType": "address",
          "name": "to",
          "type": "address"
        },
        {
          "indexed": false,
          "internalType": "uint256",
          "name": "value",
          "type": "uint256"
        }
      ],
      "name": "Transfer",
      "type": "event"
    },
    {
      "anonymous": false,
      "inputs": [
        {
          "indexed": false,
          "internalType": "address",
          "name": "account",
          "type": "address"
        },
        {
          "indexed": false,
          "internalType": "uint256",
          "name": "amount",
          "type": "uint256"
        }
      ],
      "name": "Win",
      "type": "event"
    },
    {
      "inputs": [
        {
          "internalType": "address",
          "name": "owner",
          "type": "address"
        },
        {
          "internalType": "address",
          "name": "spender",
          "type": "address"
        }
      ],
      "name": "allowance",
      "outputs": [
        {
          "internalType": "uint256",
          "name": "",
          "type": "uint256"
        }
      ],
      "stateMutability": "view",
      "type": "function"
    },
    {
      "inputs": [
        {
          "internalType": "address",
          "name": "spender",
          "type": "address"
        },
        {
          "internalType": "uint256",
          "name": "value",
          "type": "uint256"
        }
      ],
      "name": "approve",
      "outputs": [
        {
          "internalType": "bool",
          "name": "",
          "type": "bool"
        }
      ],
      "stateMutability": "nonpayable",
      "type": "function"
    },
    {
      "inputs": [
        {
          "internalType": "address",
          "name": "account",
          "type": "address"
        }
      ],
      "name": "balanceOf",
      "outputs": [
        {
          "internalType": "uint256",
          "name": "",
          "type": "uint256"
        }
      ],
      "stateMutability": "view",
      "type": "function"
    },
    {
      "inputs": [
        {
          "internalType": "uint256",
          "name": "value",
          "type": "uint256"
        }
      ],
      "name": "burn",
      "outputs": [],
      "stateMutability": "nonpayable",
      "type": "function"
    },
    {
      "inputs": [
        {
          "internalType": "address",
          "name": "account",
          "type": "address"
        },
        {
          "internalType": "uint256",
          "name": "value",
          "type": "uint256"
        }
      ],
      "name": "burnFrom",
      "outputs": [],
      "stateMutability": "nonpayable",
      "type": "function"
    },
    {
      "inputs": [],
      "name": "decimals",
      "outputs": [
        {
          "internalType": "uint8",
          "name": "",
          "type": "uint8"
        }
      ],
      "stateMutability": "view",
      "type": "function"
    },
    {
      "inputs": [],
      "name": "gameContractAddress",
      "outputs": [
        {
          "internalType": "address",
          "name": "",
          "type": "address"
        }
      ],
      "stateMutability": "view",
      "type": "function"
    },
    {
      "inputs": [],
      "name": "name",
      "outputs": [
        {
          "internalType": "string",
          "name": "",
          "type": "string"
        }
      ],
      "stateMutability": "view",
      "type": "function"
    },
    {
      "inputs": [],
      "name": "symbol",
      "outputs": [
        {
          "internalType": "string",
          "name": "",
          "type": "string"
        }
      ],
      "stateMutability": "view",
      "type": "function"
    },
    {
      "inputs": [],
      "name": "totalSupply",
      "outputs": [
        {
          "internalType": "uint256",
          "name": "",
          "type": "uint256"
        }
      ],
      "stateMutability": "view",
      "type": "function"
    },
    {
      "inputs": [
        {
          "internalType": "address",
          "name": "to",
          "type": "address"
        },
        {
          "internalType": "uint256",
          "name": "value",
          "type": "uint256"
        }
      ],
      "name": "transfer",
      "outputs": [
        {
          "internalType": "bool",
          "name": "",
          "type": "bool"
        }
      ],
      "stateMutability": "nonpayable",
      "type": "function"
    },
    {
      "inputs": [
        {
          "internalType": "address",
          "name": "from",
          "type": "address"
        },
        {
          "internalType": "address",
          "name": "to",
          "type": "address"
        },
        {
          "internalType": "uint256",
          "name": "value",
          "type": "uint256"
        }
      ],
      "name": "transferFrom",
      "outputs": [
        {
          "internalType": "bool",
          "name": "",
          "type": "bool"
        }
      ],
      "stateMutability": "nonpayable",
      "type": "function"
    },
    {
      "inputs": [
        {
          "internalType": "address",
          "name": "buyer",
          "type": "address"
        },
        {
          "internalType": "uint256",
          "name": "numberOfCoins",
          "type": "uint256"
        }
      ],
      "name": "purchaseCoins",
      "outputs": [],
      "stateMutability": "nonpayable",
      "type": "function"
    },
    {
      "inputs": [
        {
          "internalType": "address",
          "name": "buyer",
          "type": "address"
        },
        {
          "internalType": "address",
          "name": "seller",
          "type": "address"
        },
        {
          "internalType": "uint256",
          "name": "amount",
          "type": "uint256"
        }
      ],
      "name": "transferCoinsFrom",
      "outputs": [],
      "stateMutability": "nonpayable",
      "type": "function"
    },
    {
      "inputs": [
        {
          "internalType": "address",
          "name": "winner",
          "type": "address"
        }
      ],
      "name": "getReward",
      "outputs": [],
      "stateMutability": "nonpayable",
      "type": "function"
    },
    {
      "inputs": [
        {
          "internalType": "address",
          "name": "account",
          "type": "address"
        },
        {
          "internalType": "uint256",
          "name": "amount",
          "type": "uint256"
        }
      ],
      "name": "burnFromGame",
      "outputs": [],
      "stateMutability": "nonpayable",
      "type": "function"
    }
  ],
  "bytecode": "0x60806040523480156200001157600080fd5b5060405162000d5538038062000d558339810160408190526200003491620000c1565b6040518060400160405280600681526020016520a2a1b7b4b760d11b8152506040518060400160405280600381526020016241454360e81b815250816003908162000080919062000198565b5060046200008f828262000198565b5050600580546001600160a01b03909316610100026001600160a81b031990931692909217600a179091555062000264565b600060208284031215620000d457600080fd5b81516001600160a01b0381168114620000ec57600080fd5b9392505050565b634e487b7160e01b600052604160045260246000fd5b600181811c908216806200011e57607f821691505b6020821081036200013f57634e487b7160e01b600052602260045260246000fd5b50919050565b601f8211156200019357600081815260208120601f850160051c810160208610156200016e5750805b601f850160051c820191505b818110156200018f578281556001016200017a565b5050505b505050565b81516001600160401b03811115620001b457620001b4620000f3565b620001cc81620001c5845462000109565b8462000145565b602080601f831160018114620002045760008415620001eb5750858301515b600019600386901b1c1916600185901b1785556200018f565b600085815260208120601f198616915b82811015620002355788860151825594840194600190910190840162000214565b5085821015620002545787850151600019600388901b60f8161c191681555b5050505050600190811b01905550565b610ae180620002746000396000f3fe608060405234801561001057600080fd5b50600436106101005760003560e01c806370a08231116100975780639b741771116100665780639b74177114610229578063a9059cbb1461023c578063c00007b01461024f578063dd62ed3e1461026257600080fd5b806370a08231146101d257806371c34d33146101fb57806379cc67901461020e57806395d89b411461022157600080fd5b806323b872dd116100d357806323b872dd1461016d578063313ce5671461018057806342966c681461018f57806363df0ef7146101a257600080fd5b806306fdde0314610105578063095ea7b31461012357806317fed4351461014657806318160ddd1461015b575b600080fd5b61010d61029b565b60405161011a91906108c5565b60405180910390f35b61013661013136600461092f565b61032d565b604051901515815260200161011a565b61015961015436600461092f565b610347565b005b6002545b60405190815260200161011a565b61013661017b366004610959565b6103d0565b6040516012815260200161011a565b61015961019d366004610995565b6103f4565b6005546101ba9061010090046001600160a01b031681565b6040516001600160a01b03909116815260200161011a565b61015f6101e03660046109ae565b6001600160a01b031660009081526020819052604090205490565b610159610209366004610959565b610401565b61015961021c36600461092f565b610440565b61010d610459565b61015961023736600461092f565b610468565b61013661024a36600461092f565b6104d7565b61015961025d3660046109ae565b6104e5565b61015f6102703660046109d0565b6001600160a01b03918216600090815260016020908152604080832093909416825291909152205490565b6060600380546102aa90610a03565b80601f01602080910402602001604051908101604052809291908181526020018280546102d690610a03565b80156103235780601f106102f857610100808354040283529160200191610323565b820191906000526020600020905b81548152906001019060200180831161030657829003601f168201915b5050505050905090565b60003361033b818585610570565b60019150505b92915050565b60055461010090046001600160a01b0316331461037f5760405162461bcd60e51b815260040161037690610a3d565b60405180910390fd5b610389828261057d565b604080516001600160a01b0384168152602081018390527fcc16f5dbb4873280815c1ee09dbd06736cffcc184412cf7a71a0fdb75d397ca591015b60405180910390a15050565b6000336103de8582856105b3565b6103e9858585610631565b506001949350505050565b6103fe338261057d565b50565b60055461010090046001600160a01b031633146104305760405162461bcd60e51b815260040161037690610a3d565b61043b838383610631565b505050565b61044b8233836105b3565b610455828261057d565b5050565b6060600480546102aa90610a03565b60055461010090046001600160a01b031633146104975760405162461bcd60e51b815260040161037690610a3d565b6104a18282610690565b60408051338152602081018390527f2499a5330ab0979cc612135e7883ebc3cd5c9f7a8508f042540c34723348f63291016103c4565b60003361033b818585610631565b60055461010090046001600160a01b031633146105145760405162461bcd60e51b815260040161037690610a3d565b60055461052590829060ff16610690565b600554604080516001600160a01b038416815260ff90921660208301527f6747c18256028de8cd2fa276e75d6b4193ac34c1b55fa8e71797ac132d32ad39910160405180910390a150565b61043b83838360016106c6565b6001600160a01b0382166105a757604051634b637e8f60e11b815260006004820152602401610376565b6104558260008361079b565b6001600160a01b03838116600090815260016020908152604080832093861683529290522054600019811461062b578181101561061c57604051637dc7a0d960e11b81526001600160a01b03841660048201526024810182905260448101839052606401610376565b61062b848484840360006106c6565b50505050565b6001600160a01b03831661065b57604051634b637e8f60e11b815260006004820152602401610376565b6001600160a01b0382166106855760405163ec442f0560e01b815260006004820152602401610376565b61043b83838361079b565b6001600160a01b0382166106ba5760405163ec442f0560e01b815260006004820152602401610376565b6104556000838361079b565b6001600160a01b0384166106f05760405163e602df0560e01b815260006004820152602401610376565b6001600160a01b03831661071a57604051634a1406b160e11b815260006004820152602401610376565b6001600160a01b038085166000908152600160209081526040808320938716835292905220829055801561062b57826001600160a01b0316846001600160a01b03167f8c5be1e5ebec7d5bd14f71427d1e84f3dd0314c0f7b2291e5b200ac8c7c3b9258460405161078d91815260200190565b60405180910390a350505050565b6001600160a01b0383166107c65780600260008282546107bb9190610a8a565b909155506108389050565b6001600160a01b038316600090815260208190526040902054818110156108195760405163391434e360e21b81526001600160a01b03851660048201526024810182905260448101839052606401610376565b6001600160a01b03841660009081526020819052604090209082900390555b6001600160a01b03821661085457600280548290039055610873565b6001600160a01b03821660009081526020819052604090208054820190555b816001600160a01b0316836001600160a01b03167fddf252ad1be2c89b69c2b068fc378daa952ba7f163c4a11628f55a4df523b3ef836040516108b891815260200190565b60405180910390a3505050565b600060208083528351808285015260005b818110156108f2578581018301518582016040015282016108d6565b506000604082860101526040601f19601f8301168501019250505092915050565b80356001600160a01b038116811461092a57600080fd5b919050565b6000806040838503121561094257600080fd5b61094b83610913565b946020939093013593505050565b60008060006060848603121561096e57600080fd5b61097784610913565b925061098560208501610913565b9150604084013590509250925092565b6000602082840312156109a757600080fd5b5035919050565b6000602082840312156109c057600080fd5b6109c982610913565b9392505050565b600080604083850312156109e357600080fd5b6109ec83610913565b91506109fa60208401610913565b90509250929050565b600181811c90821680610a1757607f821691505b602082108103610a3757634e487b7160e01b600052602260045260246000fd5b50919050565b6020808252602d908201527f4f6e6c79207468652067616d6520636f6e74726163742063616e2063616c6c2060408201526c3a3434b990333ab731ba34b7b760991b606082015260800190565b8082018082111561034157634e487b7160e01b600052601160045260246000fdfea26469706673582212207db0b2d0d4a3717bea58e9251df27376d63b475943bfa39043238b64f9cc24ce64736f6c63430008130033",
  "immutableReferences": {},
  "source": "// SPDX-License-Identifier: MIT \r\npragma solidity ^0.8.18;\r\n\r\n\r\nimport \"../node_modules/@openzeppelin/contracts/token/ERC20/extensions/ERC20Burnable.sol\";\r\n\r\ncontract AECoinFT is ERC20Burnable{\r\n    //*--------------State variables--------------\r\n    uint8 private reward;                                       //The number of token received as reward at the end of a battle\r\n\r\n    address public gameContractAddress;                         //The address of the contract that manages all the dapp\r\n\r\n    //Chiamo il costruttore di ERC20 settando nome e simbolo per il token\r\n    constructor(address _gameContractAddress) ERC20(\"AECoin\", \"AEC\") {\r\n        reward = 10;     \r\n        gameContractAddress = _gameContractAddress;       \r\n    }   \r\n\r\n\r\n    //*--------------Modifiers--------------\r\n    modifier onlyGameContract(){\r\n        require(msg.sender == gameContractAddress,\"Only the game contract can call this function\");\r\n        _;\r\n    }\r\n\r\n    //*--------------Events--------------\r\n    event Purchase(address buyer, uint256 amount);           //Evento quando l'utente acquista nuove monete\r\n    event Burn(address account, uint256 amount);            //Evento quando l'utente spende nuove monete\r\n    event Win(address account, uint256 amount);\r\n\r\n    //*--------------Main functionalities--------------\r\n\r\n    //Function to mint coin for a user\r\n    function purchaseCoins(address buyer,uint256 numberOfCoins) public onlyGameContract{\r\n        //Emette nuove monete per l'acquirente\r\n        _mint(buyer, numberOfCoins);\r\n\r\n        //Emessione evento di acquisto\r\n        emit Purchase(msg.sender, numberOfCoins);\r\n    }\r\n\r\n    //Needed to allow the payment between players when they exchange monsters using the market\r\n    function transferCoinsFrom(address buyer, address seller, uint256 amount) public onlyGameContract{\r\n        _transfer(buyer, seller, amount);\r\n    }\r\n\r\n    //Funzione da chiamare quando un utente vince una battaglia ( e quindi guadagna monete)\r\n    function getReward(address winner) external onlyGameContract{\r\n        _mint(winner, reward);\r\n        emit Win(winner, reward);\r\n    }     \r\n\r\n    \r\n    //Utile quando un utente spende i token                         \r\n    function burnFromGame(address account, uint256 amount) external onlyGameContract {\r\n        // Chiama la funzione burn di ERC20Burnable\r\n        _burn(account, amount);    \r\n        emit Burn(account, amount);         \r\n    }\r\n\r\n\r\n}",
  "sourcePath": "C:\\Users\\HP\\Desktop\\Universit\\Magistrale\\2 anno\\1 Semestre\\Blockchain & DLT\\Progetto\\src\\AEtherMon\\contracts\\AECoin.sol",
  "compiler": {
    "name": "solc",
    "version": "0.8.19+commit.7dd6d404.Emscripten.clang"
  },
  "schemaVersion": "3.4.16",
  "updatedAt": "2024-02-03T19:29:20.472Z",
  "devdoc": {
    "errors": {
      "ERC20InsufficientAllowance(address,uint256,uint256)": [
        {
          "details": "Indicates a failure with the `spender`s `allowance`. Used in transfers.",
          "params": {
            "allowance": "Amount of tokens a `spender` is allowed to operate with.",
            "needed": "Minimum amount required to perform a transfer.",
            "spender": "Address that may be allowed to operate on tokens without being their owner."
          }
        }
      ],
      "ERC20InsufficientBalance(address,uint256,uint256)": [
        {
          "details": "Indicates an error related to the current `balance` of a `sender`. Used in transfers.",
          "params": {
            "balance": "Current balance for the interacting account.",
            "needed": "Minimum amount required to perform a transfer.",
            "sender": "Address whose tokens are being transferred."
          }
        }
      ],
      "ERC20InvalidApprover(address)": [
        {
          "details": "Indicates a failure with the `approver` of a token to be approved. Used in approvals.",
          "params": {
            "approver": "Address initiating an approval operation."
          }
        }
      ],
      "ERC20InvalidReceiver(address)": [
        {
          "details": "Indicates a failure with the token `receiver`. Used in transfers.",
          "params": {
            "receiver": "Address to which tokens are being transferred."
          }
        }
      ],
      "ERC20InvalidSender(address)": [
        {
          "details": "Indicates a failure with the token `sender`. Used in transfers.",
          "params": {
            "sender": "Address whose tokens are being transferred."
          }
        }
      ],
      "ERC20InvalidSpender(address)": [
        {
          "details": "Indicates a failure with the `spender` to be approved. Used in approvals.",
          "params": {
            "spender": "Address that may be allowed to operate on tokens without being their owner."
          }
        }
      ]
    },
    "events": {
      "Approval(address,address,uint256)": {
        "details": "Emitted when the allowance of a `spender` for an `owner` is set by a call to {approve}. `value` is the new allowance."
      },
      "Transfer(address,address,uint256)": {
        "details": "Emitted when `value` tokens are moved from one account (`from`) to another (`to`). Note that `value` may be zero."
      }
    },
    "kind": "dev",
    "methods": {
      "allowance(address,address)": {
        "details": "See {IERC20-allowance}."
      },
      "approve(address,uint256)": {
        "details": "See {IERC20-approve}. NOTE: If `value` is the maximum `uint256`, the allowance is not updated on `transferFrom`. This is semantically equivalent to an infinite approval. Requirements: - `spender` cannot be the zero address."
      },
      "balanceOf(address)": {
        "details": "See {IERC20-balanceOf}."
      },
      "burn(uint256)": {
        "details": "Destroys a `value` amount of tokens from the caller. See {ERC20-_burn}."
      },
      "burnFrom(address,uint256)": {
        "details": "Destroys a `value` amount of tokens from `account`, deducting from the caller's allowance. See {ERC20-_burn} and {ERC20-allowance}. Requirements: - the caller must have allowance for ``accounts``'s tokens of at least `value`."
      },
      "decimals()": {
        "details": "Returns the number of decimals used to get its user representation. For example, if `decimals` equals `2`, a balance of `505` tokens should be displayed to a user as `5.05` (`505 / 10 ** 2`). Tokens usually opt for a value of 18, imitating the relationship between Ether and Wei. This is the default value returned by this function, unless it's overridden. NOTE: This information is only used for _display_ purposes: it in no way affects any of the arithmetic of the contract, including {IERC20-balanceOf} and {IERC20-transfer}."
      },
      "name()": {
        "details": "Returns the name of the token."
      },
      "symbol()": {
        "details": "Returns the symbol of the token, usually a shorter version of the name."
      },
      "totalSupply()": {
        "details": "See {IERC20-totalSupply}."
      },
      "transfer(address,uint256)": {
        "details": "See {IERC20-transfer}. Requirements: - `to` cannot be the zero address. - the caller must have a balance of at least `value`."
      },
      "transferFrom(address,address,uint256)": {
        "details": "See {IERC20-transferFrom}. Emits an {Approval} event indicating the updated allowance. This is not required by the EIP. See the note at the beginning of {ERC20}. NOTE: Does not update the allowance if the current allowance is the maximum `uint256`. Requirements: - `from` and `to` cannot be the zero address. - `from` must have a balance of at least `value`. - the caller must have allowance for ``from``'s tokens of at least `value`."
      }
    },
    "version": 1
  },
  "userdoc": {
    "kind": "user",
    "methods": {},
    "version": 1
  }
}