{
  "contractName": "AECoinFT",
  "abi": [
    {
      "inputs": [
        {
          "internalType": "address",
          "name": "_gameContractAddress",
          "type": "address"
        }
      ],
      "stateMutability": "nonpayable",
      "type": "constructor"
    },
    {
      "inputs": [
        {
          "internalType": "address",
          "name": "spender",
          "type": "address"
        },
        {
          "internalType": "uint256",
          "name": "allowance",
          "type": "uint256"
        },
        {
          "internalType": "uint256",
          "name": "needed",
          "type": "uint256"
        }
      ],
      "name": "ERC20InsufficientAllowance",
      "type": "error"
    },
    {
      "inputs": [
        {
          "internalType": "address",
          "name": "sender",
          "type": "address"
        },
        {
          "internalType": "uint256",
          "name": "balance",
          "type": "uint256"
        },
        {
          "internalType": "uint256",
          "name": "needed",
          "type": "uint256"
        }
      ],
      "name": "ERC20InsufficientBalance",
      "type": "error"
    },
    {
      "inputs": [
        {
          "internalType": "address",
          "name": "approver",
          "type": "address"
        }
      ],
      "name": "ERC20InvalidApprover",
      "type": "error"
    },
    {
      "inputs": [
        {
          "internalType": "address",
          "name": "receiver",
          "type": "address"
        }
      ],
      "name": "ERC20InvalidReceiver",
      "type": "error"
    },
    {
      "inputs": [
        {
          "internalType": "address",
          "name": "sender",
          "type": "address"
        }
      ],
      "name": "ERC20InvalidSender",
      "type": "error"
    },
    {
      "inputs": [
        {
          "internalType": "address",
          "name": "spender",
          "type": "address"
        }
      ],
      "name": "ERC20InvalidSpender",
      "type": "error"
    },
    {
      "anonymous": false,
      "inputs": [
        {
          "indexed": true,
          "internalType": "address",
          "name": "owner",
          "type": "address"
        },
        {
          "indexed": true,
          "internalType": "address",
          "name": "spender",
          "type": "address"
        },
        {
          "indexed": false,
          "internalType": "uint256",
          "name": "value",
          "type": "uint256"
        }
      ],
      "name": "Approval",
      "type": "event"
    },
    {
      "anonymous": false,
      "inputs": [
        {
          "indexed": false,
          "internalType": "address",
          "name": "account",
          "type": "address"
        },
        {
          "indexed": false,
          "internalType": "uint256",
          "name": "amount",
          "type": "uint256"
        }
      ],
      "name": "Burn",
      "type": "event"
    },
    {
      "anonymous": false,
      "inputs": [
        {
          "indexed": false,
          "internalType": "address",
          "name": "buyer",
          "type": "address"
        },
        {
          "indexed": false,
          "internalType": "uint256",
          "name": "amount",
          "type": "uint256"
        }
      ],
      "name": "Purchase",
      "type": "event"
    },
    {
      "anonymous": false,
      "inputs": [
        {
          "indexed": true,
          "internalType": "address",
          "name": "from",
          "type": "address"
        },
        {
          "indexed": true,
          "internalType": "address",
          "name": "to",
          "type": "address"
        },
        {
          "indexed": false,
          "internalType": "uint256",
          "name": "value",
          "type": "uint256"
        }
      ],
      "name": "Transfer",
      "type": "event"
    },
    {
      "anonymous": false,
      "inputs": [
        {
          "indexed": false,
          "internalType": "address",
          "name": "account",
          "type": "address"
        },
        {
          "indexed": false,
          "internalType": "uint256",
          "name": "amount",
          "type": "uint256"
        }
      ],
      "name": "Win",
      "type": "event"
    },
    {
      "inputs": [
        {
          "internalType": "address",
          "name": "owner",
          "type": "address"
        },
        {
          "internalType": "address",
          "name": "spender",
          "type": "address"
        }
      ],
      "name": "allowance",
      "outputs": [
        {
          "internalType": "uint256",
          "name": "",
          "type": "uint256"
        }
      ],
      "stateMutability": "view",
      "type": "function"
    },
    {
      "inputs": [
        {
          "internalType": "address",
          "name": "spender",
          "type": "address"
        },
        {
          "internalType": "uint256",
          "name": "value",
          "type": "uint256"
        }
      ],
      "name": "approve",
      "outputs": [
        {
          "internalType": "bool",
          "name": "",
          "type": "bool"
        }
      ],
      "stateMutability": "nonpayable",
      "type": "function"
    },
    {
      "inputs": [
        {
          "internalType": "address",
          "name": "account",
          "type": "address"
        }
      ],
      "name": "balanceOf",
      "outputs": [
        {
          "internalType": "uint256",
          "name": "",
          "type": "uint256"
        }
      ],
      "stateMutability": "view",
      "type": "function"
    },
    {
      "inputs": [
        {
          "internalType": "uint256",
          "name": "value",
          "type": "uint256"
        }
      ],
      "name": "burn",
      "outputs": [],
      "stateMutability": "nonpayable",
      "type": "function"
    },
    {
      "inputs": [
        {
          "internalType": "address",
          "name": "account",
          "type": "address"
        },
        {
          "internalType": "uint256",
          "name": "value",
          "type": "uint256"
        }
      ],
      "name": "burnFrom",
      "outputs": [],
      "stateMutability": "nonpayable",
      "type": "function"
    },
    {
      "inputs": [],
      "name": "decimals",
      "outputs": [
        {
          "internalType": "uint8",
          "name": "",
          "type": "uint8"
        }
      ],
      "stateMutability": "view",
      "type": "function"
    },
    {
      "inputs": [],
      "name": "gameContractAddress",
      "outputs": [
        {
          "internalType": "address",
          "name": "",
          "type": "address"
        }
      ],
      "stateMutability": "view",
      "type": "function"
    },
    {
      "inputs": [],
      "name": "getOwner",
      "outputs": [
        {
          "internalType": "address",
          "name": "",
          "type": "address"
        }
      ],
      "stateMutability": "view",
      "type": "function"
    },
    {
      "inputs": [],
      "name": "name",
      "outputs": [
        {
          "internalType": "string",
          "name": "",
          "type": "string"
        }
      ],
      "stateMutability": "view",
      "type": "function"
    },
    {
      "inputs": [],
      "name": "symbol",
      "outputs": [
        {
          "internalType": "string",
          "name": "",
          "type": "string"
        }
      ],
      "stateMutability": "view",
      "type": "function"
    },
    {
      "inputs": [],
      "name": "totalSupply",
      "outputs": [
        {
          "internalType": "uint256",
          "name": "",
          "type": "uint256"
        }
      ],
      "stateMutability": "view",
      "type": "function"
    },
    {
      "inputs": [
        {
          "internalType": "address",
          "name": "to",
          "type": "address"
        },
        {
          "internalType": "uint256",
          "name": "value",
          "type": "uint256"
        }
      ],
      "name": "transfer",
      "outputs": [
        {
          "internalType": "bool",
          "name": "",
          "type": "bool"
        }
      ],
      "stateMutability": "nonpayable",
      "type": "function"
    },
    {
      "inputs": [
        {
          "internalType": "address",
          "name": "from",
          "type": "address"
        },
        {
          "internalType": "address",
          "name": "to",
          "type": "address"
        },
        {
          "internalType": "uint256",
          "name": "value",
          "type": "uint256"
        }
      ],
      "name": "transferFrom",
      "outputs": [
        {
          "internalType": "bool",
          "name": "",
          "type": "bool"
        }
      ],
      "stateMutability": "nonpayable",
      "type": "function"
    },
    {
      "inputs": [
        {
          "internalType": "address",
          "name": "newOwner",
          "type": "address"
        }
      ],
      "name": "transferOwnership",
      "outputs": [],
      "stateMutability": "nonpayable",
      "type": "function"
    },
    {
      "inputs": [
        {
          "internalType": "address",
          "name": "buyer",
          "type": "address"
        },
        {
          "internalType": "uint256",
          "name": "numberOfCoins",
          "type": "uint256"
        }
      ],
      "name": "purchaseCoins",
      "outputs": [],
      "stateMutability": "nonpayable",
      "type": "function"
    },
    {
      "inputs": [
        {
          "internalType": "address",
          "name": "buyer",
          "type": "address"
        },
        {
          "internalType": "address",
          "name": "seller",
          "type": "address"
        },
        {
          "internalType": "uint256",
          "name": "amount",
          "type": "uint256"
        }
      ],
      "name": "transferCoinsFrom",
      "outputs": [],
      "stateMutability": "nonpayable",
      "type": "function"
    },
    {
      "inputs": [
        {
          "internalType": "address",
          "name": "winner",
          "type": "address"
        }
      ],
      "name": "getReward",
      "outputs": [],
      "stateMutability": "nonpayable",
      "type": "function"
    },
    {
      "inputs": [
        {
          "internalType": "address",
          "name": "account",
          "type": "address"
        },
        {
          "internalType": "uint256",
          "name": "amount",
          "type": "uint256"
        }
      ],
      "name": "burnFromGame",
      "outputs": [],
      "stateMutability": "nonpayable",
      "type": "function"
    }
  ],
  "bytecode": "0x60806040523480156200001157600080fd5b5060405162001cd238038062001cd28339818101604052810190620000379190620001d8565b6040518060400160405280600681526020017f4145436f696e00000000000000000000000000000000000000000000000000008152506040518060400160405280600381526020017f41454300000000000000000000000000000000000000000000000000000000008152508160039081620000b4919062000484565b508060049081620000c6919062000484565b50505033600560006101000a81548173ffffffffffffffffffffffffffffffffffffffff021916908373ffffffffffffffffffffffffffffffffffffffff160217905550600a600560146101000a81548160ff021916908360ff16021790555080600660006101000a81548173ffffffffffffffffffffffffffffffffffffffff021916908373ffffffffffffffffffffffffffffffffffffffff160217905550506200056b565b600080fd5b600073ffffffffffffffffffffffffffffffffffffffff82169050919050565b6000620001a08262000173565b9050919050565b620001b28162000193565b8114620001be57600080fd5b50565b600081519050620001d281620001a7565b92915050565b600060208284031215620001f157620001f06200016e565b5b60006200020184828501620001c1565b91505092915050565b600081519050919050565b7f4e487b7100000000000000000000000000000000000000000000000000000000600052604160045260246000fd5b7f4e487b7100000000000000000000000000000000000000000000000000000000600052602260045260246000fd5b600060028204905060018216806200028c57607f821691505b602082108103620002a257620002a162000244565b5b50919050565b60008190508160005260206000209050919050565b60006020601f8301049050919050565b600082821b905092915050565b6000600883026200030c7fffffffffffffffffffffffffffffffffffffffffffffffffffffffffffffffff82620002cd565b620003188683620002cd565b95508019841693508086168417925050509392505050565b6000819050919050565b6000819050919050565b6000620003656200035f620003598462000330565b6200033a565b62000330565b9050919050565b6000819050919050565b620003818362000344565b6200039962000390826200036c565b848454620002da565b825550505050565b600090565b620003b0620003a1565b620003bd81848462000376565b505050565b5b81811015620003e557620003d9600082620003a6565b600181019050620003c3565b5050565b601f8211156200043457620003fe81620002a8565b6200040984620002bd565b8101602085101562000419578190505b620004316200042885620002bd565b830182620003c2565b50505b505050565b600082821c905092915050565b6000620004596000198460080262000439565b1980831691505092915050565b600062000474838362000446565b9150826002028217905092915050565b6200048f826200020a565b67ffffffffffffffff811115620004ab57620004aa62000215565b5b620004b7825462000273565b620004c4828285620003e9565b600060209050601f831160018114620004fc5760008415620004e7578287015190505b620004f3858262000466565b86555062000563565b601f1984166200050c86620002a8565b60005b8281101562000536578489015182556001820191506020850194506020810190506200050f565b8683101562000556578489015162000552601f89168262000446565b8355505b6001600288020188555050505b505050505050565b611757806200057b6000396000f3fe608060405234801561001057600080fd5b50600436106101165760003560e01c806371c34d33116100a25780639b741771116100715780639b741771146102cf578063a9059cbb146102eb578063c00007b01461031b578063dd62ed3e14610337578063f2fde38b1461036757610116565b806371c34d331461025b57806379cc679014610277578063893d20e81461029357806395d89b41146102b157610116565b806323b872dd116100e957806323b872dd146101a3578063313ce567146101d357806342966c68146101f157806363df0ef71461020d57806370a082311461022b57610116565b806306fdde031461011b578063095ea7b31461013957806317fed4351461016957806318160ddd14610185575b600080fd5b610123610383565b60405161013091906111cd565b60405180910390f35b610153600480360381019061014e9190611288565b610415565b60405161016091906112e3565b60405180910390f35b610183600480360381019061017e9190611288565b610438565b005b61018d61050f565b60405161019a919061130d565b60405180910390f35b6101bd60048036038101906101b89190611328565b610519565b6040516101ca91906112e3565b60405180910390f35b6101db610548565b6040516101e89190611397565b60405180910390f35b61020b600480360381019061020691906113b2565b610551565b005b610215610565565b60405161022291906113ee565b60405180910390f35b61024560048036038101906102409190611409565b61058b565b604051610252919061130d565b60405180910390f35b61027560048036038101906102709190611328565b6105d3565b005b610291600480360381019061028c9190611288565b610673565b005b61029b610693565b6040516102a891906113ee565b60405180910390f35b6102b96106bd565b6040516102c691906111cd565b60405180910390f35b6102e960048036038101906102e49190611288565b61074f565b005b61030560048036038101906103009190611288565b610826565b60405161031291906112e3565b60405180910390f35b61033560048036038101906103309190611409565b610849565b005b610351600480360381019061034c9190611436565b610940565b60405161035e919061130d565b60405180910390f35b610381600480360381019061037c9190611409565b6109c7565b005b606060038054610392906114a5565b80601f01602080910402602001604051908101604052809291908181526020018280546103be906114a5565b801561040b5780601f106103e05761010080835404028352916020019161040b565b820191906000526020600020905b8154815290600101906020018083116103ee57829003601f168201915b5050505050905090565b600080610420610a9b565b905061042d818585610aa3565b600191505092915050565b600660009054906101000a900473ffffffffffffffffffffffffffffffffffffffff1673ffffffffffffffffffffffffffffffffffffffff163373ffffffffffffffffffffffffffffffffffffffff16146104c8576040517f08c379a00000000000000000000000000000000000000000000000000000000081526004016104bf90611548565b60405180910390fd5b6104d28282610ab5565b7fcc16f5dbb4873280815c1ee09dbd06736cffcc184412cf7a71a0fdb75d397ca58282604051610503929190611568565b60405180910390a15050565b6000600254905090565b600080610524610a9b565b9050610531858285610b37565b61053c858585610bcb565b60019150509392505050565b60006012905090565b61056261055c610a9b565b82610ab5565b50565b600660009054906101000a900473ffffffffffffffffffffffffffffffffffffffff1681565b60008060008373ffffffffffffffffffffffffffffffffffffffff1673ffffffffffffffffffffffffffffffffffffffff168152602001908152602001600020549050919050565b600660009054906101000a900473ffffffffffffffffffffffffffffffffffffffff1673ffffffffffffffffffffffffffffffffffffffff163373ffffffffffffffffffffffffffffffffffffffff1614610663576040517f08c379a000000000000000000000000000000000000000000000000000000000815260040161065a90611548565b60405180910390fd5b61066e838383610bcb565b505050565b6106858261067f610a9b565b83610b37565b61068f8282610ab5565b5050565b6000600560009054906101000a900473ffffffffffffffffffffffffffffffffffffffff16905090565b6060600480546106cc906114a5565b80601f01602080910402602001604051908101604052809291908181526020018280546106f8906114a5565b80156107455780601f1061071a57610100808354040283529160200191610745565b820191906000526020600020905b81548152906001019060200180831161072857829003601f168201915b5050505050905090565b600660009054906101000a900473ffffffffffffffffffffffffffffffffffffffff1673ffffffffffffffffffffffffffffffffffffffff163373ffffffffffffffffffffffffffffffffffffffff16146107df576040517f08c379a00000000000000000000000000000000000000000000000000000000081526004016107d690611548565b60405180910390fd5b6107e98282610cbf565b7f2499a5330ab0979cc612135e7883ebc3cd5c9f7a8508f042540c34723348f632338260405161081a929190611568565b60405180910390a15050565b600080610831610a9b565b905061083e818585610bcb565b600191505092915050565b600660009054906101000a900473ffffffffffffffffffffffffffffffffffffffff1673ffffffffffffffffffffffffffffffffffffffff163373ffffffffffffffffffffffffffffffffffffffff16146108d9576040517f08c379a00000000000000000000000000000000000000000000000000000000081526004016108d090611548565b60405180910390fd5b6108f581600560149054906101000a900460ff1660ff16610cbf565b7f6747c18256028de8cd2fa276e75d6b4193ac34c1b55fa8e71797ac132d32ad3981600560149054906101000a900460ff166040516109359291906115cc565b60405180910390a150565b6000600160008473ffffffffffffffffffffffffffffffffffffffff1673ffffffffffffffffffffffffffffffffffffffff16815260200190815260200160002060008373ffffffffffffffffffffffffffffffffffffffff1673ffffffffffffffffffffffffffffffffffffffff16815260200190815260200160002054905092915050565b600560009054906101000a900473ffffffffffffffffffffffffffffffffffffffff1673ffffffffffffffffffffffffffffffffffffffff163373ffffffffffffffffffffffffffffffffffffffff1614610a57576040517f08c379a0000000000000000000000000000000000000000000000000000000008152600401610a4e90611667565b60405180910390fd5b80600560006101000a81548173ffffffffffffffffffffffffffffffffffffffff021916908373ffffffffffffffffffffffffffffffffffffffff16021790555050565b600033905090565b610ab08383836001610d41565b505050565b600073ffffffffffffffffffffffffffffffffffffffff168273ffffffffffffffffffffffffffffffffffffffff1603610b275760006040517f96c6fd1e000000000000000000000000000000000000000000000000000000008152600401610b1e91906113ee565b60405180910390fd5b610b3382600083610f18565b5050565b6000610b438484610940565b90507fffffffffffffffffffffffffffffffffffffffffffffffffffffffffffffffff8114610bc55781811015610bb5578281836040517ffb8f41b2000000000000000000000000000000000000000000000000000000008152600401610bac93929190611687565b60405180910390fd5b610bc484848484036000610d41565b5b50505050565b600073ffffffffffffffffffffffffffffffffffffffff168373ffffffffffffffffffffffffffffffffffffffff1603610c3d5760006040517f96c6fd1e000000000000000000000000000000000000000000000000000000008152600401610c3491906113ee565b60405180910390fd5b600073ffffffffffffffffffffffffffffffffffffffff168273ffffffffffffffffffffffffffffffffffffffff1603610caf5760006040517fec442f05000000000000000000000000000000000000000000000000000000008152600401610ca691906113ee565b60405180910390fd5b610cba838383610f18565b505050565b600073ffffffffffffffffffffffffffffffffffffffff168273ffffffffffffffffffffffffffffffffffffffff1603610d315760006040517fec442f05000000000000000000000000000000000000000000000000000000008152600401610d2891906113ee565b60405180910390fd5b610d3d60008383610f18565b5050565b600073ffffffffffffffffffffffffffffffffffffffff168473ffffffffffffffffffffffffffffffffffffffff1603610db35760006040517fe602df05000000000000000000000000000000000000000000000000000000008152600401610daa91906113ee565b60405180910390fd5b600073ffffffffffffffffffffffffffffffffffffffff168373ffffffffffffffffffffffffffffffffffffffff1603610e255760006040517f94280d62000000000000000000000000000000000000000000000000000000008152600401610e1c91906113ee565b60405180910390fd5b81600160008673ffffffffffffffffffffffffffffffffffffffff1673ffffffffffffffffffffffffffffffffffffffff16815260200190815260200160002060008573ffffffffffffffffffffffffffffffffffffffff1673ffffffffffffffffffffffffffffffffffffffff168152602001908152602001600020819055508015610f12578273ffffffffffffffffffffffffffffffffffffffff168473ffffffffffffffffffffffffffffffffffffffff167f8c5be1e5ebec7d5bd14f71427d1e84f3dd0314c0f7b2291e5b200ac8c7c3b92584604051610f09919061130d565b60405180910390a35b50505050565b600073ffffffffffffffffffffffffffffffffffffffff168373ffffffffffffffffffffffffffffffffffffffff1603610f6a578060026000828254610f5e91906116ed565b9250508190555061103d565b60008060008573ffffffffffffffffffffffffffffffffffffffff1673ffffffffffffffffffffffffffffffffffffffff16815260200190815260200160002054905081811015610ff6578381836040517fe450d38c000000000000000000000000000000000000000000000000000000008152600401610fed93929190611687565b60405180910390fd5b8181036000808673ffffffffffffffffffffffffffffffffffffffff1673ffffffffffffffffffffffffffffffffffffffff16815260200190815260200160002081905550505b600073ffffffffffffffffffffffffffffffffffffffff168273ffffffffffffffffffffffffffffffffffffffff160361108657806002600082825403925050819055506110d3565b806000808473ffffffffffffffffffffffffffffffffffffffff1673ffffffffffffffffffffffffffffffffffffffff168152602001908152602001600020600082825401925050819055505b8173ffffffffffffffffffffffffffffffffffffffff168373ffffffffffffffffffffffffffffffffffffffff167fddf252ad1be2c89b69c2b068fc378daa952ba7f163c4a11628f55a4df523b3ef83604051611130919061130d565b60405180910390a3505050565b600081519050919050565b600082825260208201905092915050565b60005b8381101561117757808201518184015260208101905061115c565b60008484015250505050565b6000601f19601f8301169050919050565b600061119f8261113d565b6111a98185611148565b93506111b9818560208601611159565b6111c281611183565b840191505092915050565b600060208201905081810360008301526111e78184611194565b905092915050565b600080fd5b600073ffffffffffffffffffffffffffffffffffffffff82169050919050565b600061121f826111f4565b9050919050565b61122f81611214565b811461123a57600080fd5b50565b60008135905061124c81611226565b92915050565b6000819050919050565b61126581611252565b811461127057600080fd5b50565b6000813590506112828161125c565b92915050565b6000806040838503121561129f5761129e6111ef565b5b60006112ad8582860161123d565b92505060206112be85828601611273565b9150509250929050565b60008115159050919050565b6112dd816112c8565b82525050565b60006020820190506112f860008301846112d4565b92915050565b61130781611252565b82525050565b600060208201905061132260008301846112fe565b92915050565b600080600060608486031215611341576113406111ef565b5b600061134f8682870161123d565b93505060206113608682870161123d565b925050604061137186828701611273565b9150509250925092565b600060ff82169050919050565b6113918161137b565b82525050565b60006020820190506113ac6000830184611388565b92915050565b6000602082840312156113c8576113c76111ef565b5b60006113d684828501611273565b91505092915050565b6113e881611214565b82525050565b600060208201905061140360008301846113df565b92915050565b60006020828403121561141f5761141e6111ef565b5b600061142d8482850161123d565b91505092915050565b6000806040838503121561144d5761144c6111ef565b5b600061145b8582860161123d565b925050602061146c8582860161123d565b9150509250929050565b7f4e487b7100000000000000000000000000000000000000000000000000000000600052602260045260246000fd5b600060028204905060018216806114bd57607f821691505b6020821081036114d0576114cf611476565b5b50919050565b7f4f6e6c79207468652067616d6520636f6e74726163742063616e2063616c6c2060008201527f746869732066756e6374696f6e00000000000000000000000000000000000000602082015250565b6000611532602d83611148565b915061153d826114d6565b604082019050919050565b6000602082019050818103600083015261156181611525565b9050919050565b600060408201905061157d60008301856113df565b61158a60208301846112fe565b9392505050565b6000819050919050565b60006115b66115b16115ac8461137b565b611591565b611252565b9050919050565b6115c68161159b565b82525050565b60006040820190506115e160008301856113df565b6115ee60208301846115bd565b9392505050565b7f4f6e6c7920746865206f776e6572206f66207468697320636f6e74726163742060008201527f63616e2063616c6c20746869732066756e6374696f6e00000000000000000000602082015250565b6000611651603683611148565b915061165c826115f5565b604082019050919050565b6000602082019050818103600083015261168081611644565b9050919050565b600060608201905061169c60008301866113df565b6116a960208301856112fe565b6116b660408301846112fe565b949350505050565b7f4e487b7100000000000000000000000000000000000000000000000000000000600052601160045260246000fd5b60006116f882611252565b915061170383611252565b925082820190508082111561171b5761171a6116be565b5b9291505056fea2646970667358221220c92ed9d13c0f84ae957f22553ed13475bf8819a2df5aae1ed485d47a6b6765ef64736f6c63430008130033",
  "immutableReferences": {},
  "source": "// SPDX-License-Identifier: MIT \r\npragma solidity ^0.8.18;\r\n\r\n\r\nimport \"../node_modules/@openzeppelin/contracts/token/ERC20/extensions/ERC20Burnable.sol\";\r\nimport \"./Owner.sol\";\r\n\r\ncontract AECoinFT is ERC20Burnable,Owner{\r\n    //*--------------State variables--------------\r\n    uint8 private reward;                                       //The number of token received as reward at the end of a battle\r\n\r\n    address public gameContractAddress;                         //The address of the contract that manages all the dapp\r\n\r\n    //Chiamo il costruttore di ERC20 settando nome e simbolo per il token\r\n    constructor(address _gameContractAddress) ERC20(\"AECoin\", \"AEC\") {\r\n        reward = 10;     \r\n        gameContractAddress = _gameContractAddress;       \r\n    }   \r\n\r\n\r\n    //*--------------Modifiers--------------\r\n    modifier onlyGameContract(){\r\n        require(msg.sender == gameContractAddress,\"Only the game contract can call this function\");\r\n        _;\r\n    }\r\n\r\n    //*--------------Events--------------\r\n    event Purchase(address buyer, uint256 amount);           //Evento quando l'utente acquista nuove monete\r\n    event Burn(address account, uint256 amount);            //Evento quando l'utente spende nuove monete\r\n    event Win(address account, uint256 amount);\r\n\r\n    //*--------------Main functionalities--------------\r\n\r\n    //Function to mint coin for a user\r\n    function purchaseCoins(address buyer,uint256 numberOfCoins) public onlyGameContract{\r\n        //Emette nuove monete per l'acquirente\r\n        _mint(buyer, numberOfCoins);\r\n\r\n        //Emessione evento di acquisto\r\n        emit Purchase(msg.sender, numberOfCoins);\r\n    }\r\n\r\n    //Needed to allow the payment between players when they exchange monsters using the market\r\n    function transferCoinsFrom(address buyer, address seller, uint256 amount) public onlyGameContract{\r\n        _transfer(buyer, seller, amount);\r\n    }\r\n\r\n    //Funzione da chiamare quando un utente vince una battaglia ( e quindi guadagna monete)\r\n    function getReward(address winner) external onlyGameContract{\r\n        _mint(winner, reward);\r\n        emit Win(winner, reward);\r\n    }     \r\n\r\n    \r\n    //Utile quando un utente spende i token                         \r\n    function burnFromGame(address account, uint256 amount) external onlyGameContract {\r\n        // Chiama la funzione burn di ERC20Burnable\r\n        _burn(account, amount);    \r\n        emit Burn(account, amount);         \r\n    }\r\n\r\n\r\n}",
  "sourcePath": "C:\\Users\\HP\\Desktop\\Universit\\Magistrale\\2 anno\\1 Semestre\\Blockchain & DLT\\Progetto\\src\\AEtherMon\\contracts\\AECoin.sol",
  "compiler": {
    "name": "solc",
    "version": "0.8.19+commit.7dd6d404.Emscripten.clang"
  },
  "schemaVersion": "3.4.16",
  "updatedAt": "2024-01-26T11:03:33.581Z",
  "devdoc": {
    "errors": {
      "ERC20InsufficientAllowance(address,uint256,uint256)": [
        {
          "details": "Indicates a failure with the `spender`s `allowance`. Used in transfers.",
          "params": {
            "allowance": "Amount of tokens a `spender` is allowed to operate with.",
            "needed": "Minimum amount required to perform a transfer.",
            "spender": "Address that may be allowed to operate on tokens without being their owner."
          }
        }
      ],
      "ERC20InsufficientBalance(address,uint256,uint256)": [
        {
          "details": "Indicates an error related to the current `balance` of a `sender`. Used in transfers.",
          "params": {
            "balance": "Current balance for the interacting account.",
            "needed": "Minimum amount required to perform a transfer.",
            "sender": "Address whose tokens are being transferred."
          }
        }
      ],
      "ERC20InvalidApprover(address)": [
        {
          "details": "Indicates a failure with the `approver` of a token to be approved. Used in approvals.",
          "params": {
            "approver": "Address initiating an approval operation."
          }
        }
      ],
      "ERC20InvalidReceiver(address)": [
        {
          "details": "Indicates a failure with the token `receiver`. Used in transfers.",
          "params": {
            "receiver": "Address to which tokens are being transferred."
          }
        }
      ],
      "ERC20InvalidSender(address)": [
        {
          "details": "Indicates a failure with the token `sender`. Used in transfers.",
          "params": {
            "sender": "Address whose tokens are being transferred."
          }
        }
      ],
      "ERC20InvalidSpender(address)": [
        {
          "details": "Indicates a failure with the `spender` to be approved. Used in approvals.",
          "params": {
            "spender": "Address that may be allowed to operate on tokens without being their owner."
          }
        }
      ]
    },
    "events": {
      "Approval(address,address,uint256)": {
        "details": "Emitted when the allowance of a `spender` for an `owner` is set by a call to {approve}. `value` is the new allowance."
      },
      "Transfer(address,address,uint256)": {
        "details": "Emitted when `value` tokens are moved from one account (`from`) to another (`to`). Note that `value` may be zero."
      }
    },
    "kind": "dev",
    "methods": {
      "allowance(address,address)": {
        "details": "See {IERC20-allowance}."
      },
      "approve(address,uint256)": {
        "details": "See {IERC20-approve}. NOTE: If `value` is the maximum `uint256`, the allowance is not updated on `transferFrom`. This is semantically equivalent to an infinite approval. Requirements: - `spender` cannot be the zero address."
      },
      "balanceOf(address)": {
        "details": "See {IERC20-balanceOf}."
      },
      "burn(uint256)": {
        "details": "Destroys a `value` amount of tokens from the caller. See {ERC20-_burn}."
      },
      "burnFrom(address,uint256)": {
        "details": "Destroys a `value` amount of tokens from `account`, deducting from the caller's allowance. See {ERC20-_burn} and {ERC20-allowance}. Requirements: - the caller must have allowance for ``accounts``'s tokens of at least `value`."
      },
      "decimals()": {
        "details": "Returns the number of decimals used to get its user representation. For example, if `decimals` equals `2`, a balance of `505` tokens should be displayed to a user as `5.05` (`505 / 10 ** 2`). Tokens usually opt for a value of 18, imitating the relationship between Ether and Wei. This is the default value returned by this function, unless it's overridden. NOTE: This information is only used for _display_ purposes: it in no way affects any of the arithmetic of the contract, including {IERC20-balanceOf} and {IERC20-transfer}."
      },
      "name()": {
        "details": "Returns the name of the token."
      },
      "symbol()": {
        "details": "Returns the symbol of the token, usually a shorter version of the name."
      },
      "totalSupply()": {
        "details": "See {IERC20-totalSupply}."
      },
      "transfer(address,uint256)": {
        "details": "See {IERC20-transfer}. Requirements: - `to` cannot be the zero address. - the caller must have a balance of at least `value`."
      },
      "transferFrom(address,address,uint256)": {
        "details": "See {IERC20-transferFrom}. Emits an {Approval} event indicating the updated allowance. This is not required by the EIP. See the note at the beginning of {ERC20}. NOTE: Does not update the allowance if the current allowance is the maximum `uint256`. Requirements: - `from` and `to` cannot be the zero address. - `from` must have a balance of at least `value`. - the caller must have allowance for ``from``'s tokens of at least `value`."
      }
    },
    "version": 1
  },
  "userdoc": {
    "kind": "user",
    "methods": {},
    "version": 1
  }
}