{
  "contractName": "AECoinFT",
  "abi": [
    {
      "inputs": [
        {
          "internalType": "address",
          "name": "_gameContractAddress",
          "type": "address"
        }
      ],
      "stateMutability": "nonpayable",
      "type": "constructor"
    },
    {
      "inputs": [
        {
          "internalType": "address",
          "name": "spender",
          "type": "address"
        },
        {
          "internalType": "uint256",
          "name": "allowance",
          "type": "uint256"
        },
        {
          "internalType": "uint256",
          "name": "needed",
          "type": "uint256"
        }
      ],
      "name": "ERC20InsufficientAllowance",
      "type": "error"
    },
    {
      "inputs": [
        {
          "internalType": "address",
          "name": "sender",
          "type": "address"
        },
        {
          "internalType": "uint256",
          "name": "balance",
          "type": "uint256"
        },
        {
          "internalType": "uint256",
          "name": "needed",
          "type": "uint256"
        }
      ],
      "name": "ERC20InsufficientBalance",
      "type": "error"
    },
    {
      "inputs": [
        {
          "internalType": "address",
          "name": "approver",
          "type": "address"
        }
      ],
      "name": "ERC20InvalidApprover",
      "type": "error"
    },
    {
      "inputs": [
        {
          "internalType": "address",
          "name": "receiver",
          "type": "address"
        }
      ],
      "name": "ERC20InvalidReceiver",
      "type": "error"
    },
    {
      "inputs": [
        {
          "internalType": "address",
          "name": "sender",
          "type": "address"
        }
      ],
      "name": "ERC20InvalidSender",
      "type": "error"
    },
    {
      "inputs": [
        {
          "internalType": "address",
          "name": "spender",
          "type": "address"
        }
      ],
      "name": "ERC20InvalidSpender",
      "type": "error"
    },
    {
      "anonymous": false,
      "inputs": [
        {
          "indexed": true,
          "internalType": "address",
          "name": "owner",
          "type": "address"
        },
        {
          "indexed": true,
          "internalType": "address",
          "name": "spender",
          "type": "address"
        },
        {
          "indexed": false,
          "internalType": "uint256",
          "name": "value",
          "type": "uint256"
        }
      ],
      "name": "Approval",
      "type": "event"
    },
    {
      "anonymous": false,
      "inputs": [
        {
          "indexed": false,
          "internalType": "address",
          "name": "account",
          "type": "address"
        },
        {
          "indexed": false,
          "internalType": "uint256",
          "name": "amount",
          "type": "uint256"
        }
      ],
      "name": "Burn",
      "type": "event"
    },
    {
      "anonymous": false,
      "inputs": [
        {
          "indexed": false,
          "internalType": "address",
          "name": "buyer",
          "type": "address"
        },
        {
          "indexed": false,
          "internalType": "uint256",
          "name": "amount",
          "type": "uint256"
        }
      ],
      "name": "Purchase",
      "type": "event"
    },
    {
      "anonymous": false,
      "inputs": [
        {
          "indexed": true,
          "internalType": "address",
          "name": "from",
          "type": "address"
        },
        {
          "indexed": true,
          "internalType": "address",
          "name": "to",
          "type": "address"
        },
        {
          "indexed": false,
          "internalType": "uint256",
          "name": "value",
          "type": "uint256"
        }
      ],
      "name": "Transfer",
      "type": "event"
    },
    {
      "anonymous": false,
      "inputs": [
        {
          "indexed": false,
          "internalType": "address",
          "name": "account",
          "type": "address"
        },
        {
          "indexed": false,
          "internalType": "uint256",
          "name": "amount",
          "type": "uint256"
        }
      ],
      "name": "Win",
      "type": "event"
    },
    {
      "inputs": [
        {
          "internalType": "address",
          "name": "owner",
          "type": "address"
        },
        {
          "internalType": "address",
          "name": "spender",
          "type": "address"
        }
      ],
      "name": "allowance",
      "outputs": [
        {
          "internalType": "uint256",
          "name": "",
          "type": "uint256"
        }
      ],
      "stateMutability": "view",
      "type": "function"
    },
    {
      "inputs": [
        {
          "internalType": "address",
          "name": "spender",
          "type": "address"
        },
        {
          "internalType": "uint256",
          "name": "value",
          "type": "uint256"
        }
      ],
      "name": "approve",
      "outputs": [
        {
          "internalType": "bool",
          "name": "",
          "type": "bool"
        }
      ],
      "stateMutability": "nonpayable",
      "type": "function"
    },
    {
      "inputs": [
        {
          "internalType": "address",
          "name": "account",
          "type": "address"
        }
      ],
      "name": "balanceOf",
      "outputs": [
        {
          "internalType": "uint256",
          "name": "",
          "type": "uint256"
        }
      ],
      "stateMutability": "view",
      "type": "function"
    },
    {
      "inputs": [
        {
          "internalType": "uint256",
          "name": "value",
          "type": "uint256"
        }
      ],
      "name": "burn",
      "outputs": [],
      "stateMutability": "nonpayable",
      "type": "function"
    },
    {
      "inputs": [
        {
          "internalType": "address",
          "name": "account",
          "type": "address"
        },
        {
          "internalType": "uint256",
          "name": "value",
          "type": "uint256"
        }
      ],
      "name": "burnFrom",
      "outputs": [],
      "stateMutability": "nonpayable",
      "type": "function"
    },
    {
      "inputs": [],
      "name": "decimals",
      "outputs": [
        {
          "internalType": "uint8",
          "name": "",
          "type": "uint8"
        }
      ],
      "stateMutability": "view",
      "type": "function"
    },
    {
      "inputs": [],
      "name": "gameContractAddress",
      "outputs": [
        {
          "internalType": "address",
          "name": "",
          "type": "address"
        }
      ],
      "stateMutability": "view",
      "type": "function"
    },
    {
      "inputs": [],
      "name": "name",
      "outputs": [
        {
          "internalType": "string",
          "name": "",
          "type": "string"
        }
      ],
      "stateMutability": "view",
      "type": "function"
    },
    {
      "inputs": [],
      "name": "symbol",
      "outputs": [
        {
          "internalType": "string",
          "name": "",
          "type": "string"
        }
      ],
      "stateMutability": "view",
      "type": "function"
    },
    {
      "inputs": [],
      "name": "totalSupply",
      "outputs": [
        {
          "internalType": "uint256",
          "name": "",
          "type": "uint256"
        }
      ],
      "stateMutability": "view",
      "type": "function"
    },
    {
      "inputs": [
        {
          "internalType": "address",
          "name": "to",
          "type": "address"
        },
        {
          "internalType": "uint256",
          "name": "value",
          "type": "uint256"
        }
      ],
      "name": "transfer",
      "outputs": [
        {
          "internalType": "bool",
          "name": "",
          "type": "bool"
        }
      ],
      "stateMutability": "nonpayable",
      "type": "function"
    },
    {
      "inputs": [
        {
          "internalType": "address",
          "name": "from",
          "type": "address"
        },
        {
          "internalType": "address",
          "name": "to",
          "type": "address"
        },
        {
          "internalType": "uint256",
          "name": "value",
          "type": "uint256"
        }
      ],
      "name": "transferFrom",
      "outputs": [
        {
          "internalType": "bool",
          "name": "",
          "type": "bool"
        }
      ],
      "stateMutability": "nonpayable",
      "type": "function"
    },
    {
      "inputs": [
        {
          "internalType": "address",
          "name": "buyer",
          "type": "address"
        },
        {
          "internalType": "uint256",
          "name": "numberOfCoins",
          "type": "uint256"
        }
      ],
      "name": "purchaseCoins",
      "outputs": [],
      "stateMutability": "nonpayable",
      "type": "function"
    },
    {
      "inputs": [
        {
          "internalType": "address",
          "name": "buyer",
          "type": "address"
        },
        {
          "internalType": "address",
          "name": "seller",
          "type": "address"
        },
        {
          "internalType": "uint256",
          "name": "amount",
          "type": "uint256"
        }
      ],
      "name": "transferCoinsFrom",
      "outputs": [],
      "stateMutability": "nonpayable",
      "type": "function"
    },
    {
      "inputs": [
        {
          "internalType": "address",
          "name": "winner",
          "type": "address"
        }
      ],
      "name": "getReward",
      "outputs": [],
      "stateMutability": "nonpayable",
      "type": "function"
    },
    {
      "inputs": [
        {
          "internalType": "address",
          "name": "account",
          "type": "address"
        },
        {
          "internalType": "uint256",
          "name": "amount",
          "type": "uint256"
        }
      ],
      "name": "burnFromGame",
      "outputs": [],
      "stateMutability": "nonpayable",
      "type": "function"
    }
  ],
  "bytecode": "0x60806040523480156200001157600080fd5b5060405162001ab138038062001ab1833981810160405281019062000037919062000197565b6040518060400160405280600681526020017f4145436f696e00000000000000000000000000000000000000000000000000008152506040518060400160405280600381526020017f41454300000000000000000000000000000000000000000000000000000000008152508160039081620000b4919062000443565b508060049081620000c6919062000443565b505050600a600560006101000a81548160ff021916908360ff16021790555080600560016101000a81548173ffffffffffffffffffffffffffffffffffffffff021916908373ffffffffffffffffffffffffffffffffffffffff160217905550506200052a565b600080fd5b600073ffffffffffffffffffffffffffffffffffffffff82169050919050565b60006200015f8262000132565b9050919050565b620001718162000152565b81146200017d57600080fd5b50565b600081519050620001918162000166565b92915050565b600060208284031215620001b057620001af6200012d565b5b6000620001c08482850162000180565b91505092915050565b600081519050919050565b7f4e487b7100000000000000000000000000000000000000000000000000000000600052604160045260246000fd5b7f4e487b7100000000000000000000000000000000000000000000000000000000600052602260045260246000fd5b600060028204905060018216806200024b57607f821691505b60208210810362000261576200026062000203565b5b50919050565b60008190508160005260206000209050919050565b60006020601f8301049050919050565b600082821b905092915050565b600060088302620002cb7fffffffffffffffffffffffffffffffffffffffffffffffffffffffffffffffff826200028c565b620002d786836200028c565b95508019841693508086168417925050509392505050565b6000819050919050565b6000819050919050565b6000620003246200031e6200031884620002ef565b620002f9565b620002ef565b9050919050565b6000819050919050565b620003408362000303565b620003586200034f826200032b565b84845462000299565b825550505050565b600090565b6200036f62000360565b6200037c81848462000335565b505050565b5b81811015620003a4576200039860008262000365565b60018101905062000382565b5050565b601f821115620003f357620003bd8162000267565b620003c8846200027c565b81016020851015620003d8578190505b620003f0620003e7856200027c565b83018262000381565b50505b505050565b600082821c905092915050565b60006200041860001984600802620003f8565b1980831691505092915050565b600062000433838362000405565b9150826002028217905092915050565b6200044e82620001c9565b67ffffffffffffffff8111156200046a5762000469620001d4565b5b62000476825462000232565b62000483828285620003a8565b600060209050601f831160018114620004bb5760008415620004a6578287015190505b620004b2858262000425565b86555062000522565b601f198416620004cb8662000267565b60005b82811015620004f557848901518255600182019150602085019450602081019050620004ce565b8683101562000515578489015162000511601f89168262000405565b8355505b6001600288020188555050505b505050505050565b611577806200053a6000396000f3fe608060405234801561001057600080fd5b50600436106101005760003560e01c806370a08231116100975780639b741771116100665780639b7417711461029b578063a9059cbb146102b7578063c00007b0146102e7578063dd62ed3e1461030357610100565b806370a082311461021557806371c34d331461024557806379cc67901461026157806395d89b411461027d57610100565b806323b872dd116100d357806323b872dd1461018d578063313ce567146101bd57806342966c68146101db57806363df0ef7146101f757610100565b806306fdde0314610105578063095ea7b31461012357806317fed4351461015357806318160ddd1461016f575b600080fd5b61010d610333565b60405161011a919061107f565b60405180910390f35b61013d6004803603810190610138919061113a565b6103c5565b60405161014a9190611195565b60405180910390f35b61016d6004803603810190610168919061113a565b6103e8565b005b6101776104bf565b60405161018491906111bf565b60405180910390f35b6101a760048036038101906101a291906111da565b6104c9565b6040516101b49190611195565b60405180910390f35b6101c56104f8565b6040516101d29190611249565b60405180910390f35b6101f560048036038101906101f09190611264565b610501565b005b6101ff610515565b60405161020c91906112a0565b60405180910390f35b61022f600480360381019061022a91906112bb565b61053b565b60405161023c91906111bf565b60405180910390f35b61025f600480360381019061025a91906111da565b610583565b005b61027b6004803603810190610276919061113a565b610623565b005b610285610643565b604051610292919061107f565b60405180910390f35b6102b560048036038101906102b0919061113a565b6106d5565b005b6102d160048036038101906102cc919061113a565b6107ac565b6040516102de9190611195565b60405180910390f35b61030160048036038101906102fc91906112bb565b6107cf565b005b61031d600480360381019061031891906112e8565b6108c6565b60405161032a91906111bf565b60405180910390f35b60606003805461034290611357565b80601f016020809104026020016040519081016040528092919081815260200182805461036e90611357565b80156103bb5780601f10610390576101008083540402835291602001916103bb565b820191906000526020600020905b81548152906001019060200180831161039e57829003601f168201915b5050505050905090565b6000806103d061094d565b90506103dd818585610955565b600191505092915050565b600560019054906101000a900473ffffffffffffffffffffffffffffffffffffffff1673ffffffffffffffffffffffffffffffffffffffff163373ffffffffffffffffffffffffffffffffffffffff1614610478576040517f08c379a000000000000000000000000000000000000000000000000000000000815260040161046f906113fa565b60405180910390fd5b6104828282610967565b7fcc16f5dbb4873280815c1ee09dbd06736cffcc184412cf7a71a0fdb75d397ca582826040516104b392919061141a565b60405180910390a15050565b6000600254905090565b6000806104d461094d565b90506104e18582856109e9565b6104ec858585610a7d565b60019150509392505050565b60006012905090565b61051261050c61094d565b82610967565b50565b600560019054906101000a900473ffffffffffffffffffffffffffffffffffffffff1681565b60008060008373ffffffffffffffffffffffffffffffffffffffff1673ffffffffffffffffffffffffffffffffffffffff168152602001908152602001600020549050919050565b600560019054906101000a900473ffffffffffffffffffffffffffffffffffffffff1673ffffffffffffffffffffffffffffffffffffffff163373ffffffffffffffffffffffffffffffffffffffff1614610613576040517f08c379a000000000000000000000000000000000000000000000000000000000815260040161060a906113fa565b60405180910390fd5b61061e838383610a7d565b505050565b6106358261062f61094d565b836109e9565b61063f8282610967565b5050565b60606004805461065290611357565b80601f016020809104026020016040519081016040528092919081815260200182805461067e90611357565b80156106cb5780601f106106a0576101008083540402835291602001916106cb565b820191906000526020600020905b8154815290600101906020018083116106ae57829003601f168201915b5050505050905090565b600560019054906101000a900473ffffffffffffffffffffffffffffffffffffffff1673ffffffffffffffffffffffffffffffffffffffff163373ffffffffffffffffffffffffffffffffffffffff1614610765576040517f08c379a000000000000000000000000000000000000000000000000000000000815260040161075c906113fa565b60405180910390fd5b61076f8282610b71565b7f2499a5330ab0979cc612135e7883ebc3cd5c9f7a8508f042540c34723348f63233826040516107a092919061141a565b60405180910390a15050565b6000806107b761094d565b90506107c4818585610a7d565b600191505092915050565b600560019054906101000a900473ffffffffffffffffffffffffffffffffffffffff1673ffffffffffffffffffffffffffffffffffffffff163373ffffffffffffffffffffffffffffffffffffffff161461085f576040517f08c379a0000000000000000000000000000000000000000000000000000000008152600401610856906113fa565b60405180910390fd5b61087b81600560009054906101000a900460ff1660ff16610b71565b7f6747c18256028de8cd2fa276e75d6b4193ac34c1b55fa8e71797ac132d32ad3981600560009054906101000a900460ff166040516108bb92919061147e565b60405180910390a150565b6000600160008473ffffffffffffffffffffffffffffffffffffffff1673ffffffffffffffffffffffffffffffffffffffff16815260200190815260200160002060008373ffffffffffffffffffffffffffffffffffffffff1673ffffffffffffffffffffffffffffffffffffffff16815260200190815260200160002054905092915050565b600033905090565b6109628383836001610bf3565b505050565b600073ffffffffffffffffffffffffffffffffffffffff168273ffffffffffffffffffffffffffffffffffffffff16036109d95760006040517f96c6fd1e0000000000000000000000000000000000000000000000000000000081526004016109d091906112a0565b60405180910390fd5b6109e582600083610dca565b5050565b60006109f584846108c6565b90507fffffffffffffffffffffffffffffffffffffffffffffffffffffffffffffffff8114610a775781811015610a67578281836040517ffb8f41b2000000000000000000000000000000000000000000000000000000008152600401610a5e939291906114a7565b60405180910390fd5b610a7684848484036000610bf3565b5b50505050565b600073ffffffffffffffffffffffffffffffffffffffff168373ffffffffffffffffffffffffffffffffffffffff1603610aef5760006040517f96c6fd1e000000000000000000000000000000000000000000000000000000008152600401610ae691906112a0565b60405180910390fd5b600073ffffffffffffffffffffffffffffffffffffffff168273ffffffffffffffffffffffffffffffffffffffff1603610b615760006040517fec442f05000000000000000000000000000000000000000000000000000000008152600401610b5891906112a0565b60405180910390fd5b610b6c838383610dca565b505050565b600073ffffffffffffffffffffffffffffffffffffffff168273ffffffffffffffffffffffffffffffffffffffff1603610be35760006040517fec442f05000000000000000000000000000000000000000000000000000000008152600401610bda91906112a0565b60405180910390fd5b610bef60008383610dca565b5050565b600073ffffffffffffffffffffffffffffffffffffffff168473ffffffffffffffffffffffffffffffffffffffff1603610c655760006040517fe602df05000000000000000000000000000000000000000000000000000000008152600401610c5c91906112a0565b60405180910390fd5b600073ffffffffffffffffffffffffffffffffffffffff168373ffffffffffffffffffffffffffffffffffffffff1603610cd75760006040517f94280d62000000000000000000000000000000000000000000000000000000008152600401610cce91906112a0565b60405180910390fd5b81600160008673ffffffffffffffffffffffffffffffffffffffff1673ffffffffffffffffffffffffffffffffffffffff16815260200190815260200160002060008573ffffffffffffffffffffffffffffffffffffffff1673ffffffffffffffffffffffffffffffffffffffff168152602001908152602001600020819055508015610dc4578273ffffffffffffffffffffffffffffffffffffffff168473ffffffffffffffffffffffffffffffffffffffff167f8c5be1e5ebec7d5bd14f71427d1e84f3dd0314c0f7b2291e5b200ac8c7c3b92584604051610dbb91906111bf565b60405180910390a35b50505050565b600073ffffffffffffffffffffffffffffffffffffffff168373ffffffffffffffffffffffffffffffffffffffff1603610e1c578060026000828254610e10919061150d565b92505081905550610eef565b60008060008573ffffffffffffffffffffffffffffffffffffffff1673ffffffffffffffffffffffffffffffffffffffff16815260200190815260200160002054905081811015610ea8578381836040517fe450d38c000000000000000000000000000000000000000000000000000000008152600401610e9f939291906114a7565b60405180910390fd5b8181036000808673ffffffffffffffffffffffffffffffffffffffff1673ffffffffffffffffffffffffffffffffffffffff16815260200190815260200160002081905550505b600073ffffffffffffffffffffffffffffffffffffffff168273ffffffffffffffffffffffffffffffffffffffff1603610f385780600260008282540392505081905550610f85565b806000808473ffffffffffffffffffffffffffffffffffffffff1673ffffffffffffffffffffffffffffffffffffffff168152602001908152602001600020600082825401925050819055505b8173ffffffffffffffffffffffffffffffffffffffff168373ffffffffffffffffffffffffffffffffffffffff167fddf252ad1be2c89b69c2b068fc378daa952ba7f163c4a11628f55a4df523b3ef83604051610fe291906111bf565b60405180910390a3505050565b600081519050919050565b600082825260208201905092915050565b60005b8381101561102957808201518184015260208101905061100e565b60008484015250505050565b6000601f19601f8301169050919050565b600061105182610fef565b61105b8185610ffa565b935061106b81856020860161100b565b61107481611035565b840191505092915050565b600060208201905081810360008301526110998184611046565b905092915050565b600080fd5b600073ffffffffffffffffffffffffffffffffffffffff82169050919050565b60006110d1826110a6565b9050919050565b6110e1816110c6565b81146110ec57600080fd5b50565b6000813590506110fe816110d8565b92915050565b6000819050919050565b61111781611104565b811461112257600080fd5b50565b6000813590506111348161110e565b92915050565b60008060408385031215611151576111506110a1565b5b600061115f858286016110ef565b925050602061117085828601611125565b9150509250929050565b60008115159050919050565b61118f8161117a565b82525050565b60006020820190506111aa6000830184611186565b92915050565b6111b981611104565b82525050565b60006020820190506111d460008301846111b0565b92915050565b6000806000606084860312156111f3576111f26110a1565b5b6000611201868287016110ef565b9350506020611212868287016110ef565b925050604061122386828701611125565b9150509250925092565b600060ff82169050919050565b6112438161122d565b82525050565b600060208201905061125e600083018461123a565b92915050565b60006020828403121561127a576112796110a1565b5b600061128884828501611125565b91505092915050565b61129a816110c6565b82525050565b60006020820190506112b56000830184611291565b92915050565b6000602082840312156112d1576112d06110a1565b5b60006112df848285016110ef565b91505092915050565b600080604083850312156112ff576112fe6110a1565b5b600061130d858286016110ef565b925050602061131e858286016110ef565b9150509250929050565b7f4e487b7100000000000000000000000000000000000000000000000000000000600052602260045260246000fd5b6000600282049050600182168061136f57607f821691505b60208210810361138257611381611328565b5b50919050565b7f4f6e6c79207468652067616d6520636f6e74726163742063616e2063616c6c2060008201527f746869732066756e6374696f6e00000000000000000000000000000000000000602082015250565b60006113e4602d83610ffa565b91506113ef82611388565b604082019050919050565b60006020820190508181036000830152611413816113d7565b9050919050565b600060408201905061142f6000830185611291565b61143c60208301846111b0565b9392505050565b6000819050919050565b600061146861146361145e8461122d565b611443565b611104565b9050919050565b6114788161144d565b82525050565b60006040820190506114936000830185611291565b6114a0602083018461146f565b9392505050565b60006060820190506114bc6000830186611291565b6114c960208301856111b0565b6114d660408301846111b0565b949350505050565b7f4e487b7100000000000000000000000000000000000000000000000000000000600052601160045260246000fd5b600061151882611104565b915061152383611104565b925082820190508082111561153b5761153a6114de565b5b9291505056fea2646970667358221220ec1910d14f24c878eeb5a5d0d58a3f2b82767ce090d70a1b195f792519014bfe64736f6c63430008130033",
  "immutableReferences": {},
  "source": "// SPDX-License-Identifier: MIT \r\npragma solidity ^0.8.18;\r\n\r\n\r\nimport \"../node_modules/@openzeppelin/contracts/token/ERC20/extensions/ERC20Burnable.sol\";\r\n\r\ncontract AECoinFT is ERC20Burnable{\r\n    //*--------------State variables--------------\r\n    uint8 private reward;                                       //The number of token received as reward at the end of a battle\r\n\r\n    address public gameContractAddress;                         //The address of the contract that manages all the dapp\r\n\r\n    //Chiamo il costruttore di ERC20 settando nome e simbolo per il token\r\n    constructor(address _gameContractAddress) ERC20(\"AECoin\", \"AEC\") {\r\n        reward = 10;     \r\n        gameContractAddress = _gameContractAddress;       \r\n    }   \r\n\r\n\r\n    //*--------------Modifiers--------------\r\n    modifier onlyGameContract(){\r\n        require(msg.sender == gameContractAddress,\"Only the game contract can call this function\");\r\n        _;\r\n    }\r\n\r\n    //*--------------Events--------------\r\n    event Purchase(address buyer, uint256 amount);           //Evento quando l'utente acquista nuove monete\r\n    event Burn(address account, uint256 amount);            //Evento quando l'utente spende nuove monete\r\n    event Win(address account, uint256 amount);\r\n\r\n    //*--------------Main functionalities--------------\r\n\r\n    //Function to mint coin for a user\r\n    function purchaseCoins(address buyer,uint256 numberOfCoins) public onlyGameContract{\r\n        //Emette nuove monete per l'acquirente\r\n        _mint(buyer, numberOfCoins);\r\n\r\n        //Emessione evento di acquisto\r\n        emit Purchase(msg.sender, numberOfCoins);\r\n    }\r\n\r\n    //Needed to allow the payment between players when they exchange monsters using the market\r\n    function transferCoinsFrom(address buyer, address seller, uint256 amount) public onlyGameContract{\r\n        _transfer(buyer, seller, amount);\r\n    }\r\n\r\n    //Funzione da chiamare quando un utente vince una battaglia ( e quindi guadagna monete)\r\n    function getReward(address winner) external onlyGameContract{\r\n        _mint(winner, reward);\r\n        emit Win(winner, reward);\r\n    }     \r\n\r\n    \r\n    //Utile quando un utente spende i token                         \r\n    function burnFromGame(address account, uint256 amount) external onlyGameContract {\r\n        // Chiama la funzione burn di ERC20Burnable\r\n        _burn(account, amount);    \r\n        emit Burn(account, amount);         \r\n    }\r\n\r\n\r\n}",
  "sourcePath": "C:\\Users\\HP\\Desktop\\Universit\\Magistrale\\2 anno\\1 Semestre\\Blockchain & DLT\\Progetto\\src\\AEtherMon\\contracts\\AECoin.sol",
  "compiler": {
    "name": "solc",
    "version": "0.8.19+commit.7dd6d404.Emscripten.clang"
  },
  "schemaVersion": "3.4.16",
  "updatedAt": "2024-01-30T17:10:45.732Z",
  "devdoc": {
    "errors": {
      "ERC20InsufficientAllowance(address,uint256,uint256)": [
        {
          "details": "Indicates a failure with the `spender`s `allowance`. Used in transfers.",
          "params": {
            "allowance": "Amount of tokens a `spender` is allowed to operate with.",
            "needed": "Minimum amount required to perform a transfer.",
            "spender": "Address that may be allowed to operate on tokens without being their owner."
          }
        }
      ],
      "ERC20InsufficientBalance(address,uint256,uint256)": [
        {
          "details": "Indicates an error related to the current `balance` of a `sender`. Used in transfers.",
          "params": {
            "balance": "Current balance for the interacting account.",
            "needed": "Minimum amount required to perform a transfer.",
            "sender": "Address whose tokens are being transferred."
          }
        }
      ],
      "ERC20InvalidApprover(address)": [
        {
          "details": "Indicates a failure with the `approver` of a token to be approved. Used in approvals.",
          "params": {
            "approver": "Address initiating an approval operation."
          }
        }
      ],
      "ERC20InvalidReceiver(address)": [
        {
          "details": "Indicates a failure with the token `receiver`. Used in transfers.",
          "params": {
            "receiver": "Address to which tokens are being transferred."
          }
        }
      ],
      "ERC20InvalidSender(address)": [
        {
          "details": "Indicates a failure with the token `sender`. Used in transfers.",
          "params": {
            "sender": "Address whose tokens are being transferred."
          }
        }
      ],
      "ERC20InvalidSpender(address)": [
        {
          "details": "Indicates a failure with the `spender` to be approved. Used in approvals.",
          "params": {
            "spender": "Address that may be allowed to operate on tokens without being their owner."
          }
        }
      ]
    },
    "events": {
      "Approval(address,address,uint256)": {
        "details": "Emitted when the allowance of a `spender` for an `owner` is set by a call to {approve}. `value` is the new allowance."
      },
      "Transfer(address,address,uint256)": {
        "details": "Emitted when `value` tokens are moved from one account (`from`) to another (`to`). Note that `value` may be zero."
      }
    },
    "kind": "dev",
    "methods": {
      "allowance(address,address)": {
        "details": "See {IERC20-allowance}."
      },
      "approve(address,uint256)": {
        "details": "See {IERC20-approve}. NOTE: If `value` is the maximum `uint256`, the allowance is not updated on `transferFrom`. This is semantically equivalent to an infinite approval. Requirements: - `spender` cannot be the zero address."
      },
      "balanceOf(address)": {
        "details": "See {IERC20-balanceOf}."
      },
      "burn(uint256)": {
        "details": "Destroys a `value` amount of tokens from the caller. See {ERC20-_burn}."
      },
      "burnFrom(address,uint256)": {
        "details": "Destroys a `value` amount of tokens from `account`, deducting from the caller's allowance. See {ERC20-_burn} and {ERC20-allowance}. Requirements: - the caller must have allowance for ``accounts``'s tokens of at least `value`."
      },
      "decimals()": {
        "details": "Returns the number of decimals used to get its user representation. For example, if `decimals` equals `2`, a balance of `505` tokens should be displayed to a user as `5.05` (`505 / 10 ** 2`). Tokens usually opt for a value of 18, imitating the relationship between Ether and Wei. This is the default value returned by this function, unless it's overridden. NOTE: This information is only used for _display_ purposes: it in no way affects any of the arithmetic of the contract, including {IERC20-balanceOf} and {IERC20-transfer}."
      },
      "name()": {
        "details": "Returns the name of the token."
      },
      "symbol()": {
        "details": "Returns the symbol of the token, usually a shorter version of the name."
      },
      "totalSupply()": {
        "details": "See {IERC20-totalSupply}."
      },
      "transfer(address,uint256)": {
        "details": "See {IERC20-transfer}. Requirements: - `to` cannot be the zero address. - the caller must have a balance of at least `value`."
      },
      "transferFrom(address,address,uint256)": {
        "details": "See {IERC20-transferFrom}. Emits an {Approval} event indicating the updated allowance. This is not required by the EIP. See the note at the beginning of {ERC20}. NOTE: Does not update the allowance if the current allowance is the maximum `uint256`. Requirements: - `from` and `to` cannot be the zero address. - `from` must have a balance of at least `value`. - the caller must have allowance for ``from``'s tokens of at least `value`."
      }
    },
    "version": 1
  },
  "userdoc": {
    "kind": "user",
    "methods": {},
    "version": 1
  }
}