{
  "contractName": "AEMarket",
  "abi": [
    {
      "inputs": [],
      "stateMutability": "nonpayable",
      "type": "constructor"
    },
    {
      "anonymous": false,
      "inputs": [
        {
          "indexed": false,
          "internalType": "uint256",
          "name": "tokenId",
          "type": "uint256"
        },
        {
          "indexed": false,
          "internalType": "address",
          "name": "seller",
          "type": "address"
        },
        {
          "indexed": false,
          "internalType": "uint256",
          "name": "price",
          "type": "uint256"
        }
      ],
      "name": "NewOnSale",
      "type": "event"
    },
    {
      "anonymous": false,
      "inputs": [
        {
          "indexed": false,
          "internalType": "uint256",
          "name": "tokenId",
          "type": "uint256"
        },
        {
          "indexed": false,
          "internalType": "address",
          "name": "seller",
          "type": "address"
        }
      ],
      "name": "Retired",
      "type": "event"
    },
    {
      "anonymous": false,
      "inputs": [
        {
          "indexed": false,
          "internalType": "uint256",
          "name": "tokenId",
          "type": "uint256"
        },
        {
          "indexed": false,
          "internalType": "address",
          "name": "seller",
          "type": "address"
        },
        {
          "indexed": false,
          "internalType": "address",
          "name": "buyer",
          "type": "address"
        }
      ],
      "name": "Selled",
      "type": "event"
    },
    {
      "inputs": [],
      "name": "AECoinContractAddress",
      "outputs": [
        {
          "internalType": "contract AECoinFT",
          "name": "",
          "type": "address"
        }
      ],
      "stateMutability": "view",
      "type": "function"
    },
    {
      "inputs": [],
      "name": "AEMonsterContract",
      "outputs": [
        {
          "internalType": "contract AEMonsterNFT",
          "name": "",
          "type": "address"
        }
      ],
      "stateMutability": "view",
      "type": "function"
    },
    {
      "inputs": [
        {
          "internalType": "address",
          "name": "",
          "type": "address"
        },
        {
          "internalType": "uint256",
          "name": "",
          "type": "uint256"
        }
      ],
      "name": "sellingMap",
      "outputs": [
        {
          "internalType": "address",
          "name": "seller",
          "type": "address"
        },
        {
          "internalType": "uint256",
          "name": "tokenId",
          "type": "uint256"
        },
        {
          "internalType": "uint256",
          "name": "price",
          "type": "uint256"
        }
      ],
      "stateMutability": "view",
      "type": "function"
    },
    {
      "inputs": [
        {
          "internalType": "uint256",
          "name": "tokenId",
          "type": "uint256"
        },
        {
          "internalType": "uint256",
          "name": "price",
          "type": "uint256"
        }
      ],
      "name": "putOnSale",
      "outputs": [],
      "stateMutability": "nonpayable",
      "type": "function"
    },
    {
      "inputs": [
        {
          "internalType": "uint256",
          "name": "tokenId",
          "type": "uint256"
        }
      ],
      "name": "leaveFromSale",
      "outputs": [],
      "stateMutability": "nonpayable",
      "type": "function"
    },
    {
      "inputs": [
        {
          "internalType": "uint256",
          "name": "tokenId",
          "type": "uint256"
        },
        {
          "internalType": "uint256",
          "name": "newPrice",
          "type": "uint256"
        }
      ],
      "name": "changePrince",
      "outputs": [],
      "stateMutability": "nonpayable",
      "type": "function"
    },
    {
      "inputs": [
        {
          "internalType": "uint256",
          "name": "tokenId",
          "type": "uint256"
        }
      ],
      "name": "buyOnSaleMonster",
      "outputs": [],
      "stateMutability": "nonpayable",
      "type": "function"
    }
  ],
  "bytecode": "0x60806040523480156200001157600080fd5b503060405162000021906200010a565b6200002d91906200016b565b604051809103906000f0801580156200004a573d6000803e3d6000fd5b50600360006101000a81548173ffffffffffffffffffffffffffffffffffffffff021916908373ffffffffffffffffffffffffffffffffffffffff160217905550306040516200009a9062000118565b620000a691906200016b565b604051809103906000f080158015620000c3573d6000803e3d6000fd5b50600460006101000a81548173ffffffffffffffffffffffffffffffffffffffff021916908373ffffffffffffffffffffffffffffffffffffffff16021790555062000188565b611ab180620016d483390190565b61436a806200318583390190565b600073ffffffffffffffffffffffffffffffffffffffff82169050919050565b6000620001538262000126565b9050919050565b620001658162000146565b82525050565b60006020820190506200018260008301846200015a565b92915050565b61153c80620001986000396000f3fe608060405234801561001057600080fd5b506004361061007d5760003560e01c806336f7992b1161005b57806336f7992b146100ee578063c5af05b21461010a578063efaf38a314610126578063fb2af96c146101425761007d565b8063254175c414610082578063297cdaa71461009e5780633498f5eb146100bc575b600080fd5b61009c60048036038101906100979190610e7d565b610160565b005b6100a66104d9565b6040516100b39190610f29565b60405180910390f35b6100d660048036038101906100d19190610f82565b6104ff565b6040516100e593929190610fe0565b60405180910390f35b61010860048036038101906101039190611017565b610556565b005b610124600480360381019061011f9190610e7d565b6108fc565b005b610140600480360381019061013b9190611017565b610bb0565b005b61014a610e1c565b6040516101579190611078565b60405180910390f35b80600115156002600083815260200190815260200160002060009054906101000a900460ff161515146101c8576040517f08c379a00000000000000000000000000000000000000000000000000000000081526004016101bf90611116565b60405180910390fd5b33826001600082815260200190815260200160002060020154600360009054906101000a900473ffffffffffffffffffffffffffffffffffffffff1673ffffffffffffffffffffffffffffffffffffffff166370a08231846040518263ffffffff1660e01b815260040161023c9190611136565b602060405180830381865afa158015610259573d6000803e3d6000fd5b505050506040513d601f19601f8201168201806040525081019061027d9190611166565b10156102be576040517f08c379a00000000000000000000000000000000000000000000000000000000081526004016102b590611205565b60405180910390fd5b600360009054906101000a900473ffffffffffffffffffffffffffffffffffffffff1673ffffffffffffffffffffffffffffffffffffffff166371c34d33336001600088815260200190815260200160002060000160009054906101000a900473ffffffffffffffffffffffffffffffffffffffff1660016000898152602001908152602001600020600201546040518463ffffffff1660e01b815260040161036993929190611225565b600060405180830381600087803b15801561038357600080fd5b505af1158015610397573d6000803e3d6000fd5b50505050600460009054906101000a900473ffffffffffffffffffffffffffffffffffffffff1673ffffffffffffffffffffffffffffffffffffffff16634f8572c46001600087815260200190815260200160002060000160009054906101000a900473ffffffffffffffffffffffffffffffffffffffff1633876040518463ffffffff1660e01b815260040161043093929190611225565b600060405180830381600087803b15801561044a57600080fd5b505af115801561045e573d6000803e3d6000fd5b505050507f3a1adf84f6693cf6bc27777ad69c4336cde14c153fb30473130d02a8f8e27021846001600087815260200190815260200160002060000160009054906101000a900473ffffffffffffffffffffffffffffffffffffffff16336040516104cb9392919061125c565b60405180910390a150505050565b600460009054906101000a900473ffffffffffffffffffffffffffffffffffffffff1681565b6000602052816000526040600020602052806000526040600020600091509150508060000160009054906101000a900473ffffffffffffffffffffffffffffffffffffffff16908060010154908060020154905083565b81600015156002600083815260200190815260200160002060009054906101000a900460ff161515146105be576040517f08c379a00000000000000000000000000000000000000000000000000000000081526004016105b590611305565b60405180910390fd5b82338073ffffffffffffffffffffffffffffffffffffffff16600460009054906101000a900473ffffffffffffffffffffffffffffffffffffffff1673ffffffffffffffffffffffffffffffffffffffff16636352211e846040518263ffffffff1660e01b81526004016106329190611325565b602060405180830381865afa15801561064f573d6000803e3d6000fd5b505050506040513d601f19601f820116820180604052508101906106739190611355565b73ffffffffffffffffffffffffffffffffffffffff16146106c9576040517f08c379a00000000000000000000000000000000000000000000000000000000081526004016106c0906113f4565b60405180910390fd5b836000811161070d576040517f08c379a000000000000000000000000000000000000000000000000000000000815260040161070490611486565b60405180910390fd5b60405180606001604052803373ffffffffffffffffffffffffffffffffffffffff168152602001878152602001868152506000803373ffffffffffffffffffffffffffffffffffffffff1673ffffffffffffffffffffffffffffffffffffffff168152602001908152602001600020600088815260200190815260200160002060008201518160000160006101000a81548173ffffffffffffffffffffffffffffffffffffffff021916908373ffffffffffffffffffffffffffffffffffffffff160217905550602082015181600101556040820151816002015590505060405180606001604052803373ffffffffffffffffffffffffffffffffffffffff168152602001878152602001868152506001600088815260200190815260200160002060008201518160000160006101000a81548173ffffffffffffffffffffffffffffffffffffffff021916908373ffffffffffffffffffffffffffffffffffffffff160217905550602082015181600101556040820151816002015590505060016002600088815260200190815260200160002060006101000a81548160ff0219169083151502179055507f6f0ca42f00a23baa7497fc6a983ad4f2ae4ea21f85f382a7b3ca87371cff20ef8633876040516108ec939291906114a6565b60405180910390a1505050505050565b80600115156002600083815260200190815260200160002060009054906101000a900460ff16151514610964576040517f08c379a000000000000000000000000000000000000000000000000000000000815260040161095b90611116565b60405180910390fd5b81338073ffffffffffffffffffffffffffffffffffffffff16600460009054906101000a900473ffffffffffffffffffffffffffffffffffffffff1673ffffffffffffffffffffffffffffffffffffffff16636352211e846040518263ffffffff1660e01b81526004016109d89190611325565b602060405180830381865afa1580156109f5573d6000803e3d6000fd5b505050506040513d601f19601f82011682018060405250810190610a199190611355565b73ffffffffffffffffffffffffffffffffffffffff1614610a6f576040517f08c379a0000000000000000000000000000000000000000000000000000000008152600401610a66906113f4565b60405180910390fd5b6000803373ffffffffffffffffffffffffffffffffffffffff1673ffffffffffffffffffffffffffffffffffffffff1681526020019081526020016000206000858152602001908152602001600020600080820160006101000a81549073ffffffffffffffffffffffffffffffffffffffff021916905560018201600090556002820160009055505060016000858152602001908152602001600020600080820160006101000a81549073ffffffffffffffffffffffffffffffffffffffff021916905560018201600090556002820160009055505060006002600086815260200190815260200160002060006101000a81548160ff0219169083151502179055507f152a31b181b771801c61615f3bb08b1dcb71597a061fe1cd4085653d8c447fa48433604051610ba29291906114dd565b60405180910390a150505050565b81600115156002600083815260200190815260200160002060009054906101000a900460ff16151514610c18576040517f08c379a0000000000000000000000000000000000000000000000000000000008152600401610c0f90611116565b60405180910390fd5b82338073ffffffffffffffffffffffffffffffffffffffff16600460009054906101000a900473ffffffffffffffffffffffffffffffffffffffff1673ffffffffffffffffffffffffffffffffffffffff16636352211e846040518263ffffffff1660e01b8152600401610c8c9190611325565b602060405180830381865afa158015610ca9573d6000803e3d6000fd5b505050506040513d601f19601f82011682018060405250810190610ccd9190611355565b73ffffffffffffffffffffffffffffffffffffffff1614610d23576040517f08c379a0000000000000000000000000000000000000000000000000000000008152600401610d1a906113f4565b60405180910390fd5b8360008111610d67576040517f08c379a0000000000000000000000000000000000000000000000000000000008152600401610d5e90611486565b60405180910390fd5b846000803373ffffffffffffffffffffffffffffffffffffffff1673ffffffffffffffffffffffffffffffffffffffff1681526020019081526020016000206000888152602001908152602001600020600201819055508460016000888152602001908152602001600020600201819055507f6f0ca42f00a23baa7497fc6a983ad4f2ae4ea21f85f382a7b3ca87371cff20ef863387604051610e0c939291906114a6565b60405180910390a1505050505050565b600360009054906101000a900473ffffffffffffffffffffffffffffffffffffffff1681565b600080fd5b6000819050919050565b610e5a81610e47565b8114610e6557600080fd5b50565b600081359050610e7781610e51565b92915050565b600060208284031215610e9357610e92610e42565b5b6000610ea184828501610e68565b91505092915050565b600073ffffffffffffffffffffffffffffffffffffffff82169050919050565b6000819050919050565b6000610eef610eea610ee584610eaa565b610eca565b610eaa565b9050919050565b6000610f0182610ed4565b9050919050565b6000610f1382610ef6565b9050919050565b610f2381610f08565b82525050565b6000602082019050610f3e6000830184610f1a565b92915050565b6000610f4f82610eaa565b9050919050565b610f5f81610f44565b8114610f6a57600080fd5b50565b600081359050610f7c81610f56565b92915050565b60008060408385031215610f9957610f98610e42565b5b6000610fa785828601610f6d565b9250506020610fb885828601610e68565b9150509250929050565b610fcb81610f44565b82525050565b610fda81610e47565b82525050565b6000606082019050610ff56000830186610fc2565b6110026020830185610fd1565b61100f6040830184610fd1565b949350505050565b6000806040838503121561102e5761102d610e42565b5b600061103c85828601610e68565b925050602061104d85828601610e68565b9150509250929050565b600061106282610ef6565b9050919050565b61107281611057565b82525050565b600060208201905061108d6000830184611069565b92915050565b600082825260208201905092915050565b7f5468652073656c6563746564204145746865726d6f6e20776173206e6f74206f60008201527f6e2073616c652100000000000000000000000000000000000000000000000000602082015250565b6000611100602783611093565b915061110b826110a4565b604082019050919050565b6000602082019050818103600083015261112f816110f3565b9050919050565b600060208201905061114b6000830184610fc2565b92915050565b60008151905061116081610e51565b92915050565b60006020828403121561117c5761117b610e42565b5b600061118a84828501611151565b91505092915050565b7f596f7520686176656e277420656e6f756768204145436f696e7320746f20627560008201527f792074686973206d6f6e73746572000000000000000000000000000000000000602082015250565b60006111ef602e83611093565b91506111fa82611193565b604082019050919050565b6000602082019050818103600083015261121e816111e2565b9050919050565b600060608201905061123a6000830186610fc2565b6112476020830185610fc2565b6112546040830184610fd1565b949350505050565b60006060820190506112716000830186610fd1565b61127e6020830185610fc2565b61128b6040830184610fc2565b949350505050565b7f5468652073656c6563746564204145746865726d6f6e2077617320616c72656160008201527f6479206f6e2073616c6521000000000000000000000000000000000000000000602082015250565b60006112ef602b83611093565b91506112fa82611293565b604082019050919050565b6000602082019050818103600083015261131e816112e2565b9050919050565b600060208201905061133a6000830184610fd1565b92915050565b60008151905061134f81610f56565b92915050565b60006020828403121561136b5761136a610e42565b5b600061137984828501611340565b91505092915050565b7f4f6e6c7920746865206f776e6572206f6620746865204145746865726d6f6e2060008201527f63616e2063616c6c20746869732066756e6374696f6e00000000000000000000602082015250565b60006113de603683611093565b91506113e982611382565b604082019050919050565b6000602082019050818103600083015261140d816113d1565b9050919050565b7f5468652073656c6c696e67207072696365206d7573742062652067726561746560008201527f72207468616e2030000000000000000000000000000000000000000000000000602082015250565b6000611470602883611093565b915061147b82611414565b604082019050919050565b6000602082019050818103600083015261149f81611463565b9050919050565b60006060820190506114bb6000830186610fd1565b6114c86020830185610fc2565b6114d56040830184610fd1565b949350505050565b60006040820190506114f26000830185610fd1565b6114ff6020830184610fc2565b939250505056fea26469706673582212201d32455f76024aa7fd1b10b5d76232b8833ec9df287fdde52f5f0740cc996ce264736f6c6343000813003360806040523480156200001157600080fd5b5060405162001ab138038062001ab1833981810160405281019062000037919062000197565b6040518060400160405280600681526020017f4145436f696e00000000000000000000000000000000000000000000000000008152506040518060400160405280600381526020017f41454300000000000000000000000000000000000000000000000000000000008152508160039081620000b4919062000443565b508060049081620000c6919062000443565b505050600a600560006101000a81548160ff021916908360ff16021790555080600560016101000a81548173ffffffffffffffffffffffffffffffffffffffff021916908373ffffffffffffffffffffffffffffffffffffffff160217905550506200052a565b600080fd5b600073ffffffffffffffffffffffffffffffffffffffff82169050919050565b60006200015f8262000132565b9050919050565b620001718162000152565b81146200017d57600080fd5b50565b600081519050620001918162000166565b92915050565b600060208284031215620001b057620001af6200012d565b5b6000620001c08482850162000180565b91505092915050565b600081519050919050565b7f4e487b7100000000000000000000000000000000000000000000000000000000600052604160045260246000fd5b7f4e487b7100000000000000000000000000000000000000000000000000000000600052602260045260246000fd5b600060028204905060018216806200024b57607f821691505b60208210810362000261576200026062000203565b5b50919050565b60008190508160005260206000209050919050565b60006020601f8301049050919050565b600082821b905092915050565b600060088302620002cb7fffffffffffffffffffffffffffffffffffffffffffffffffffffffffffffffff826200028c565b620002d786836200028c565b95508019841693508086168417925050509392505050565b6000819050919050565b6000819050919050565b6000620003246200031e6200031884620002ef565b620002f9565b620002ef565b9050919050565b6000819050919050565b620003408362000303565b620003586200034f826200032b565b84845462000299565b825550505050565b600090565b6200036f62000360565b6200037c81848462000335565b505050565b5b81811015620003a4576200039860008262000365565b60018101905062000382565b5050565b601f821115620003f357620003bd8162000267565b620003c8846200027c565b81016020851015620003d8578190505b620003f0620003e7856200027c565b83018262000381565b50505b505050565b600082821c905092915050565b60006200041860001984600802620003f8565b1980831691505092915050565b600062000433838362000405565b9150826002028217905092915050565b6200044e82620001c9565b67ffffffffffffffff8111156200046a5762000469620001d4565b5b62000476825462000232565b62000483828285620003a8565b600060209050601f831160018114620004bb5760008415620004a6578287015190505b620004b2858262000425565b86555062000522565b601f198416620004cb8662000267565b60005b82811015620004f557848901518255600182019150602085019450602081019050620004ce565b8683101562000515578489015162000511601f89168262000405565b8355505b6001600288020188555050505b505050505050565b611577806200053a6000396000f3fe608060405234801561001057600080fd5b50600436106101005760003560e01c806370a08231116100975780639b741771116100665780639b7417711461029b578063a9059cbb146102b7578063c00007b0146102e7578063dd62ed3e1461030357610100565b806370a082311461021557806371c34d331461024557806379cc67901461026157806395d89b411461027d57610100565b806323b872dd116100d357806323b872dd1461018d578063313ce567146101bd57806342966c68146101db57806363df0ef7146101f757610100565b806306fdde0314610105578063095ea7b31461012357806317fed4351461015357806318160ddd1461016f575b600080fd5b61010d610333565b60405161011a919061107f565b60405180910390f35b61013d6004803603810190610138919061113a565b6103c5565b60405161014a9190611195565b60405180910390f35b61016d6004803603810190610168919061113a565b6103e8565b005b6101776104bf565b60405161018491906111bf565b60405180910390f35b6101a760048036038101906101a291906111da565b6104c9565b6040516101b49190611195565b60405180910390f35b6101c56104f8565b6040516101d29190611249565b60405180910390f35b6101f560048036038101906101f09190611264565b610501565b005b6101ff610515565b60405161020c91906112a0565b60405180910390f35b61022f600480360381019061022a91906112bb565b61053b565b60405161023c91906111bf565b60405180910390f35b61025f600480360381019061025a91906111da565b610583565b005b61027b6004803603810190610276919061113a565b610623565b005b610285610643565b604051610292919061107f565b60405180910390f35b6102b560048036038101906102b0919061113a565b6106d5565b005b6102d160048036038101906102cc919061113a565b6107ac565b6040516102de9190611195565b60405180910390f35b61030160048036038101906102fc91906112bb565b6107cf565b005b61031d600480360381019061031891906112e8565b6108c6565b60405161032a91906111bf565b60405180910390f35b60606003805461034290611357565b80601f016020809104026020016040519081016040528092919081815260200182805461036e90611357565b80156103bb5780601f10610390576101008083540402835291602001916103bb565b820191906000526020600020905b81548152906001019060200180831161039e57829003601f168201915b5050505050905090565b6000806103d061094d565b90506103dd818585610955565b600191505092915050565b600560019054906101000a900473ffffffffffffffffffffffffffffffffffffffff1673ffffffffffffffffffffffffffffffffffffffff163373ffffffffffffffffffffffffffffffffffffffff1614610478576040517f08c379a000000000000000000000000000000000000000000000000000000000815260040161046f906113fa565b60405180910390fd5b6104828282610967565b7fcc16f5dbb4873280815c1ee09dbd06736cffcc184412cf7a71a0fdb75d397ca582826040516104b392919061141a565b60405180910390a15050565b6000600254905090565b6000806104d461094d565b90506104e18582856109e9565b6104ec858585610a7d565b60019150509392505050565b60006012905090565b61051261050c61094d565b82610967565b50565b600560019054906101000a900473ffffffffffffffffffffffffffffffffffffffff1681565b60008060008373ffffffffffffffffffffffffffffffffffffffff1673ffffffffffffffffffffffffffffffffffffffff168152602001908152602001600020549050919050565b600560019054906101000a900473ffffffffffffffffffffffffffffffffffffffff1673ffffffffffffffffffffffffffffffffffffffff163373ffffffffffffffffffffffffffffffffffffffff1614610613576040517f08c379a000000000000000000000000000000000000000000000000000000000815260040161060a906113fa565b60405180910390fd5b61061e838383610a7d565b505050565b6106358261062f61094d565b836109e9565b61063f8282610967565b5050565b60606004805461065290611357565b80601f016020809104026020016040519081016040528092919081815260200182805461067e90611357565b80156106cb5780601f106106a0576101008083540402835291602001916106cb565b820191906000526020600020905b8154815290600101906020018083116106ae57829003601f168201915b5050505050905090565b600560019054906101000a900473ffffffffffffffffffffffffffffffffffffffff1673ffffffffffffffffffffffffffffffffffffffff163373ffffffffffffffffffffffffffffffffffffffff1614610765576040517f08c379a000000000000000000000000000000000000000000000000000000000815260040161075c906113fa565b60405180910390fd5b61076f8282610b71565b7f2499a5330ab0979cc612135e7883ebc3cd5c9f7a8508f042540c34723348f63233826040516107a092919061141a565b60405180910390a15050565b6000806107b761094d565b90506107c4818585610a7d565b600191505092915050565b600560019054906101000a900473ffffffffffffffffffffffffffffffffffffffff1673ffffffffffffffffffffffffffffffffffffffff163373ffffffffffffffffffffffffffffffffffffffff161461085f576040517f08c379a0000000000000000000000000000000000000000000000000000000008152600401610856906113fa565b60405180910390fd5b61087b81600560009054906101000a900460ff1660ff16610b71565b7f6747c18256028de8cd2fa276e75d6b4193ac34c1b55fa8e71797ac132d32ad3981600560009054906101000a900460ff166040516108bb92919061147e565b60405180910390a150565b6000600160008473ffffffffffffffffffffffffffffffffffffffff1673ffffffffffffffffffffffffffffffffffffffff16815260200190815260200160002060008373ffffffffffffffffffffffffffffffffffffffff1673ffffffffffffffffffffffffffffffffffffffff16815260200190815260200160002054905092915050565b600033905090565b6109628383836001610bf3565b505050565b600073ffffffffffffffffffffffffffffffffffffffff168273ffffffffffffffffffffffffffffffffffffffff16036109d95760006040517f96c6fd1e0000000000000000000000000000000000000000000000000000000081526004016109d091906112a0565b60405180910390fd5b6109e582600083610dca565b5050565b60006109f584846108c6565b90507fffffffffffffffffffffffffffffffffffffffffffffffffffffffffffffffff8114610a775781811015610a67578281836040517ffb8f41b2000000000000000000000000000000000000000000000000000000008152600401610a5e939291906114a7565b60405180910390fd5b610a7684848484036000610bf3565b5b50505050565b600073ffffffffffffffffffffffffffffffffffffffff168373ffffffffffffffffffffffffffffffffffffffff1603610aef5760006040517f96c6fd1e000000000000000000000000000000000000000000000000000000008152600401610ae691906112a0565b60405180910390fd5b600073ffffffffffffffffffffffffffffffffffffffff168273ffffffffffffffffffffffffffffffffffffffff1603610b615760006040517fec442f05000000000000000000000000000000000000000000000000000000008152600401610b5891906112a0565b60405180910390fd5b610b6c838383610dca565b505050565b600073ffffffffffffffffffffffffffffffffffffffff168273ffffffffffffffffffffffffffffffffffffffff1603610be35760006040517fec442f05000000000000000000000000000000000000000000000000000000008152600401610bda91906112a0565b60405180910390fd5b610bef60008383610dca565b5050565b600073ffffffffffffffffffffffffffffffffffffffff168473ffffffffffffffffffffffffffffffffffffffff1603610c655760006040517fe602df05000000000000000000000000000000000000000000000000000000008152600401610c5c91906112a0565b60405180910390fd5b600073ffffffffffffffffffffffffffffffffffffffff168373ffffffffffffffffffffffffffffffffffffffff1603610cd75760006040517f94280d62000000000000000000000000000000000000000000000000000000008152600401610cce91906112a0565b60405180910390fd5b81600160008673ffffffffffffffffffffffffffffffffffffffff1673ffffffffffffffffffffffffffffffffffffffff16815260200190815260200160002060008573ffffffffffffffffffffffffffffffffffffffff1673ffffffffffffffffffffffffffffffffffffffff168152602001908152602001600020819055508015610dc4578273ffffffffffffffffffffffffffffffffffffffff168473ffffffffffffffffffffffffffffffffffffffff167f8c5be1e5ebec7d5bd14f71427d1e84f3dd0314c0f7b2291e5b200ac8c7c3b92584604051610dbb91906111bf565b60405180910390a35b50505050565b600073ffffffffffffffffffffffffffffffffffffffff168373ffffffffffffffffffffffffffffffffffffffff1603610e1c578060026000828254610e10919061150d565b92505081905550610eef565b60008060008573ffffffffffffffffffffffffffffffffffffffff1673ffffffffffffffffffffffffffffffffffffffff16815260200190815260200160002054905081811015610ea8578381836040517fe450d38c000000000000000000000000000000000000000000000000000000008152600401610e9f939291906114a7565b60405180910390fd5b8181036000808673ffffffffffffffffffffffffffffffffffffffff1673ffffffffffffffffffffffffffffffffffffffff16815260200190815260200160002081905550505b600073ffffffffffffffffffffffffffffffffffffffff168273ffffffffffffffffffffffffffffffffffffffff1603610f385780600260008282540392505081905550610f85565b806000808473ffffffffffffffffffffffffffffffffffffffff1673ffffffffffffffffffffffffffffffffffffffff168152602001908152602001600020600082825401925050819055505b8173ffffffffffffffffffffffffffffffffffffffff168373ffffffffffffffffffffffffffffffffffffffff167fddf252ad1be2c89b69c2b068fc378daa952ba7f163c4a11628f55a4df523b3ef83604051610fe291906111bf565b60405180910390a3505050565b600081519050919050565b600082825260208201905092915050565b60005b8381101561102957808201518184015260208101905061100e565b60008484015250505050565b6000601f19601f8301169050919050565b600061105182610fef565b61105b8185610ffa565b935061106b81856020860161100b565b61107481611035565b840191505092915050565b600060208201905081810360008301526110998184611046565b905092915050565b600080fd5b600073ffffffffffffffffffffffffffffffffffffffff82169050919050565b60006110d1826110a6565b9050919050565b6110e1816110c6565b81146110ec57600080fd5b50565b6000813590506110fe816110d8565b92915050565b6000819050919050565b61111781611104565b811461112257600080fd5b50565b6000813590506111348161110e565b92915050565b60008060408385031215611151576111506110a1565b5b600061115f858286016110ef565b925050602061117085828601611125565b9150509250929050565b60008115159050919050565b61118f8161117a565b82525050565b60006020820190506111aa6000830184611186565b92915050565b6111b981611104565b82525050565b60006020820190506111d460008301846111b0565b92915050565b6000806000606084860312156111f3576111f26110a1565b5b6000611201868287016110ef565b9350506020611212868287016110ef565b925050604061122386828701611125565b9150509250925092565b600060ff82169050919050565b6112438161122d565b82525050565b600060208201905061125e600083018461123a565b92915050565b60006020828403121561127a576112796110a1565b5b600061128884828501611125565b91505092915050565b61129a816110c6565b82525050565b60006020820190506112b56000830184611291565b92915050565b6000602082840312156112d1576112d06110a1565b5b60006112df848285016110ef565b91505092915050565b600080604083850312156112ff576112fe6110a1565b5b600061130d858286016110ef565b925050602061131e858286016110ef565b9150509250929050565b7f4e487b7100000000000000000000000000000000000000000000000000000000600052602260045260246000fd5b6000600282049050600182168061136f57607f821691505b60208210810361138257611381611328565b5b50919050565b7f4f6e6c79207468652067616d6520636f6e74726163742063616e2063616c6c2060008201527f746869732066756e6374696f6e00000000000000000000000000000000000000602082015250565b60006113e4602d83610ffa565b91506113ef82611388565b604082019050919050565b60006020820190508181036000830152611413816113d7565b9050919050565b600060408201905061142f6000830185611291565b61143c60208301846111b0565b9392505050565b6000819050919050565b600061146861146361145e8461122d565b611443565b611104565b9050919050565b6114788161144d565b82525050565b60006040820190506114936000830185611291565b6114a0602083018461146f565b9392505050565b60006060820190506114bc6000830186611291565b6114c960208301856111b0565b6114d660408301846111b0565b949350505050565b7f4e487b7100000000000000000000000000000000000000000000000000000000600052601160045260246000fd5b600061151882611104565b915061152383611104565b925082820190508082111561153b5761153a6114de565b5b9291505056fea2646970667358221220ec1910d14f24c878eeb5a5d0d58a3f2b82767ce090d70a1b195f792519014bfe64736f6c6343000813003360806040523480156200001157600080fd5b506040516200436a3803806200436a83398181016040528101906200003791906200018a565b6040518060400160405280600981526020017f41454d6f6e7374657200000000000000000000000000000000000000000000008152506040518060400160405280600381526020017f41454d00000000000000000000000000000000000000000000000000000000008152508160009081620000b4919062000436565b508060019081620000c6919062000436565b5050506000600b8190555042600c8190555080600d60006101000a81548173ffffffffffffffffffffffffffffffffffffffff021916908373ffffffffffffffffffffffffffffffffffffffff160217905550506200051d565b600080fd5b600073ffffffffffffffffffffffffffffffffffffffff82169050919050565b6000620001528262000125565b9050919050565b620001648162000145565b81146200017057600080fd5b50565b600081519050620001848162000159565b92915050565b600060208284031215620001a357620001a262000120565b5b6000620001b38482850162000173565b91505092915050565b600081519050919050565b7f4e487b7100000000000000000000000000000000000000000000000000000000600052604160045260246000fd5b7f4e487b7100000000000000000000000000000000000000000000000000000000600052602260045260246000fd5b600060028204905060018216806200023e57607f821691505b602082108103620002545762000253620001f6565b5b50919050565b60008190508160005260206000209050919050565b60006020601f8301049050919050565b600082821b905092915050565b600060088302620002be7fffffffffffffffffffffffffffffffffffffffffffffffffffffffffffffffff826200027f565b620002ca86836200027f565b95508019841693508086168417925050509392505050565b6000819050919050565b6000819050919050565b600062000317620003116200030b84620002e2565b620002ec565b620002e2565b9050919050565b6000819050919050565b6200033383620002f6565b6200034b62000342826200031e565b8484546200028c565b825550505050565b600090565b6200036262000353565b6200036f81848462000328565b505050565b5b8181101562000397576200038b60008262000358565b60018101905062000375565b5050565b601f821115620003e657620003b0816200025a565b620003bb846200026f565b81016020851015620003cb578190505b620003e3620003da856200026f565b83018262000374565b50505b505050565b600082821c905092915050565b60006200040b60001984600802620003eb565b1980831691505092915050565b6000620004268383620003f8565b9150826002028217905092915050565b6200044182620001bc565b67ffffffffffffffff8111156200045d576200045c620001c7565b5b62000469825462000225565b620004768282856200039b565b600060209050601f831160018114620004ae576000841562000499578287015190505b620004a5858262000418565b86555062000515565b601f198416620004be866200025a565b60005b82811015620004e857848901518255600182019150602085019450602081019050620004c1565b8683101562000508578489015162000504601f891682620003f8565b8355505b6001600288020188555050505b505050505050565b613e3d806200052d6000396000f3fe608060405234801561001057600080fd5b506004361061014d5760003560e01c806357d34d32116100c3578063b57498dc1161007c578063b57498dc146103ed578063b88d4fde1461041d578063c87b56dd14610439578063dc88cf7814610469578063e289f1a714610499578063e985e9c5146104c95761014d565b806357d34d32146103055780636352211e1461033557806363df0ef71461036557806370a082311461038357806395d89b41146103b3578063a22cb465146103d15761014d565b806323b872dd1161011557806323b872dd1461021c578063254496be146102385780633bb3a24d1461026d57806342842e0e1461029d578063436882d3146102b95780634f8572c4146102e95761014d565b806301ffc9a71461015257806306fdde0314610182578063081812fc146101a0578063095ea7b3146101d05780631e58c923146101ec575b600080fd5b61016c60048036038101906101679190612c90565b6104f9565b6040516101799190612cd8565b60405180910390f35b61018a61055a565b6040516101979190612d83565b60405180910390f35b6101ba60048036038101906101b59190612ddb565b6105ec565b6040516101c79190612e49565b60405180910390f35b6101ea60048036038101906101e59190612e90565b610608565b005b61020660048036038101906102019190612ed0565b61061e565b6040516102139190613052565b60405180910390f35b61023660048036038101906102319190613074565b610856565b005b610252600480360381019061024d9190612e90565b610958565b604051610264969594939291906130e5565b60405180910390f35b61028760048036038101906102829190612ddb565b6109e2565b6040516102949190612d83565b60405180910390f35b6102b760048036038101906102b29190613074565b6109f4565b005b6102d360048036038101906102ce919061327b565b610a14565b6040516102e091906132d7565b60405180910390f35b61030360048036038101906102fe9190613074565b610e13565b005b61031f600480360381019061031a9190612ddb565b611300565b60405161032c919061336d565b60405180910390f35b61034f600480360381019061034a9190612ddb565b6113c8565b60405161035c9190612e49565b60405180910390f35b61036d6113da565b60405161037a9190612e49565b60405180910390f35b61039d60048036038101906103989190612ed0565b611400565b6040516103aa91906132d7565b60405180910390f35b6103bb6114ba565b6040516103c89190612d83565b60405180910390f35b6103eb60048036038101906103e691906133b4565b61154c565b005b61040760048036038101906104029190612ed0565b611562565b60405161041491906132d7565b60405180910390f35b61043760048036038101906104329190613495565b61157a565b005b610453600480360381019061044e9190612ddb565b611597565b6040516104609190612d83565b60405180910390f35b610483600480360381019061047e9190612ed0565b6116aa565b6040516104909190613624565b60405180910390f35b6104b360048036038101906104ae9190612e90565b61182c565b6040516104c091906132d7565b60405180910390f35b6104e360048036038101906104de9190613646565b61185d565b6040516104f09190612cd8565b60405180910390f35b6000634906490660e01b7bffffffffffffffffffffffffffffffffffffffffffffffffffffffff1916827bffffffffffffffffffffffffffffffffffffffffffffffffffffffff191614806105535750610552826118f1565b5b9050919050565b606060008054610569906136b5565b80601f0160208091040260200160405190810160405280929190818152602001828054610595906136b5565b80156105e25780601f106105b7576101008083540402835291602001916105e2565b820191906000526020600020905b8154815290600101906020018083116105c557829003601f168201915b5050505050905090565b60006105f7826119d3565b5061060182611a5b565b9050919050565b61061a8282610615611a98565b611aa0565b5050565b60606000600a60008473ffffffffffffffffffffffffffffffffffffffff1673ffffffffffffffffffffffffffffffffffffffff1681526020019081526020016000208054905067ffffffffffffffff81111561067e5761067d613150565b5b6040519080825280602002602001820160405280156106b757816020015b6106a4612bdf565b81526020019060019003908161069c5790505b50905060005b600a60008573ffffffffffffffffffffffffffffffffffffffff1673ffffffffffffffffffffffffffffffffffffffff1681526020019081526020016000208054905081101561084c5760076000600a60008773ffffffffffffffffffffffffffffffffffffffff1673ffffffffffffffffffffffffffffffffffffffff168152602001908152602001600020838154811061075c5761075b6136e6565b5b906000526020600020015481526020019081526020016000206040518060c0016040529081600082015481526020016001820160009054906101000a900460ff1660ff1660ff1681526020016001820160019054906101000a900460ff1660ff1660ff1681526020016001820160029054906101000a900460ff1660ff1660ff1681526020016001820160039054906101000a900460ff1660ff1660ff1681526020016001820160049054906101000a900460ff1660ff1660ff168152505082828151811061082e5761082d6136e6565b5b6020026020010181905250808061084490613744565b9150506106bd565b5080915050919050565b600073ffffffffffffffffffffffffffffffffffffffff168273ffffffffffffffffffffffffffffffffffffffff16036108c85760006040517f64a0ae920000000000000000000000000000000000000000000000000000000081526004016108bf9190612e49565b60405180910390fd5b60006108dc83836108d7611a98565b611ab2565b90508373ffffffffffffffffffffffffffffffffffffffff168173ffffffffffffffffffffffffffffffffffffffff1614610952578382826040517f64283d7b0000000000000000000000000000000000000000000000000000000081526004016109499392919061378c565b60405180910390fd5b50505050565b6008602052816000526040600020602052806000526040600020600091509150508060000154908060010160009054906101000a900460ff16908060010160019054906101000a900460ff16908060010160029054906101000a900460ff16908060010160039054906101000a900460ff16908060010160049054906101000a900460ff16905086565b60606109ed82611597565b9050919050565b610a0f8383836040518060200160405280600081525061157a565b505050565b6000600d60009054906101000a900473ffffffffffffffffffffffffffffffffffffffff1673ffffffffffffffffffffffffffffffffffffffff163373ffffffffffffffffffffffffffffffffffffffff1614610aa6576040517f08c379a0000000000000000000000000000000000000000000000000000000008152600401610a9d90613835565b60405180910390fd5b6001600b6000828254610ab99190613855565b9250508190555060006040518060c00160405280600b548152602001610add611ccc565b60ff168152602001610aed611ccc565b60ff1681526020016005610aff611ccc565b610b099190613855565b60ff168152602001610b19611ccc565b60ff168152602001600160ff168152509050600a60008573ffffffffffffffffffffffffffffffffffffffff1673ffffffffffffffffffffffffffffffffffffffff168152602001908152602001600020600b54908060018154018082558091505060019003906000526020600020016000909190919091505580600860008673ffffffffffffffffffffffffffffffffffffffff1673ffffffffffffffffffffffffffffffffffffffff1681526020019081526020016000206000600b5481526020019081526020016000206000820151816000015560208201518160010160006101000a81548160ff021916908360ff16021790555060408201518160010160016101000a81548160ff021916908360ff16021790555060608201518160010160026101000a81548160ff021916908360ff16021790555060808201518160010160036101000a81548160ff021916908360ff16021790555060a08201518160010160046101000a81548160ff021916908360ff1602179055509050506001600960008673ffffffffffffffffffffffffffffffffffffffff1673ffffffffffffffffffffffffffffffffffffffff16815260200190815260200160002054610ce49190613855565b600960008673ffffffffffffffffffffffffffffffffffffffff1673ffffffffffffffffffffffffffffffffffffffff16815260200190815260200160002081905550610d3384600b54611d26565b610d3f600b5484611e1f565b8060076000600b5481526020019081526020016000206000820151816000015560208201518160010160006101000a81548160ff021916908360ff16021790555060408201518160010160016101000a81548160ff021916908360ff16021790555060608201518160010160026101000a81548160ff021916908360ff16021790555060808201518160010160036101000a81548160ff021916908360ff16021790555060a08201518160010160046101000a81548160ff021916908360ff160217905550905050600b5491505092915050565b600d60009054906101000a900473ffffffffffffffffffffffffffffffffffffffff1673ffffffffffffffffffffffffffffffffffffffff163373ffffffffffffffffffffffffffffffffffffffff1614610ea3576040517f08c379a0000000000000000000000000000000000000000000000000000000008152600401610e9a90613835565b60405180910390fd5b610eae838383611e7b565b6000600860008573ffffffffffffffffffffffffffffffffffffffff1673ffffffffffffffffffffffffffffffffffffffff16815260200190815260200160002060008381526020019081526020016000206040518060c0016040529081600082015481526020016001820160009054906101000a900460ff1660ff1660ff1681526020016001820160019054906101000a900460ff1660ff1660ff1681526020016001820160029054906101000a900460ff1660ff1660ff1681526020016001820160039054906101000a900460ff1660ff1660ff1681526020016001820160049054906101000a900460ff1660ff1660ff16815250509050600860008573ffffffffffffffffffffffffffffffffffffffff1673ffffffffffffffffffffffffffffffffffffffff16815260200190815260200160002060008381526020019081526020016000206000808201600090556001820160006101000a81549060ff02191690556001820160016101000a81549060ff02191690556001820160026101000a81549060ff02191690556001820160036101000a81549060ff02191690556001820160046101000a81549060ff0219169055505080600860008573ffffffffffffffffffffffffffffffffffffffff1673ffffffffffffffffffffffffffffffffffffffff16815260200190815260200160002060008481526020019081526020016000206000820151816000015560208201518160010160006101000a81548160ff021916908360ff16021790555060408201518160010160016101000a81548160ff021916908360ff16021790555060608201518160010160026101000a81548160ff021916908360ff16021790555060808201518160010160036101000a81548160ff021916908360ff16021790555060a08201518160010160046101000a81548160ff021916908360ff1602179055509050506001600960008673ffffffffffffffffffffffffffffffffffffffff1673ffffffffffffffffffffffffffffffffffffffff168152602001908152602001600020546111b69190613889565b600960008673ffffffffffffffffffffffffffffffffffffffff1673ffffffffffffffffffffffffffffffffffffffff168152602001908152602001600020819055506001600960008573ffffffffffffffffffffffffffffffffffffffff1673ffffffffffffffffffffffffffffffffffffffff168152602001908152602001600020546112459190613855565b600960008573ffffffffffffffffffffffffffffffffffffffff1673ffffffffffffffffffffffffffffffffffffffff168152602001908152602001600020819055506112928285611fe8565b600a60008473ffffffffffffffffffffffffffffffffffffffff1673ffffffffffffffffffffffffffffffffffffffff168152602001908152602001600020600b54908060018154018082558091505060019003906000526020600020016000909190919091505550505050565b611308612bdf565b600760008381526020019081526020016000206040518060c0016040529081600082015481526020016001820160009054906101000a900460ff1660ff1660ff1681526020016001820160019054906101000a900460ff1660ff1660ff1681526020016001820160029054906101000a900460ff1660ff1660ff1681526020016001820160039054906101000a900460ff1660ff1660ff1681526020016001820160049054906101000a900460ff1660ff1660ff16815250509050919050565b60006113d3826119d3565b9050919050565b600d60009054906101000a900473ffffffffffffffffffffffffffffffffffffffff1681565b60008073ffffffffffffffffffffffffffffffffffffffff168273ffffffffffffffffffffffffffffffffffffffff16036114735760006040517f89c62b6400000000000000000000000000000000000000000000000000000000815260040161146a9190612e49565b60405180910390fd5b600360008373ffffffffffffffffffffffffffffffffffffffff1673ffffffffffffffffffffffffffffffffffffffff168152602001908152602001600020549050919050565b6060600180546114c9906136b5565b80601f01602080910402602001604051908101604052809291908181526020018280546114f5906136b5565b80156115425780601f1061151757610100808354040283529160200191611542565b820191906000526020600020905b81548152906001019060200180831161152557829003601f168201915b5050505050905090565b61155e611557611a98565b8383612227565b5050565b60096020528060005260406000206000915090505481565b611585848484610856565b61159184848484612396565b50505050565b60606115a2826119d3565b5060006006600084815260200190815260200160002080546115c3906136b5565b80601f01602080910402602001604051908101604052809291908181526020018280546115ef906136b5565b801561163c5780601f106116115761010080835404028352916020019161163c565b820191906000526020600020905b81548152906001019060200180831161161f57829003601f168201915b50505050509050600061164d61254d565b905060008151036116625781925050506116a5565b60008251111561169757808260405160200161167f9291906138f9565b604051602081830303815290604052925050506116a5565b6116a084612564565b925050505b919050565b60606000600a60008473ffffffffffffffffffffffffffffffffffffffff1673ffffffffffffffffffffffffffffffffffffffff1681526020019081526020016000208054905067ffffffffffffffff81111561170a57611709613150565b5b60405190808252806020026020018201604052801561173d57816020015b60608152602001906001900390816117285790505b50905060005b600a60008573ffffffffffffffffffffffffffffffffffffffff1673ffffffffffffffffffffffffffffffffffffffff16815260200190815260200160002080549050811015611822576117f1600a60008673ffffffffffffffffffffffffffffffffffffffff1673ffffffffffffffffffffffffffffffffffffffff16815260200190815260200160002082815481106117e1576117e06136e6565b5b9060005260206000200154611597565b828281518110611804576118036136e6565b5b6020026020010181905250808061181a90613744565b915050611743565b5080915050919050565b600a602052816000526040600020818154811061184857600080fd5b90600052602060002001600091509150505481565b6000600560008473ffffffffffffffffffffffffffffffffffffffff1673ffffffffffffffffffffffffffffffffffffffff16815260200190815260200160002060008373ffffffffffffffffffffffffffffffffffffffff1673ffffffffffffffffffffffffffffffffffffffff16815260200190815260200160002060009054906101000a900460ff16905092915050565b60007f80ac58cd000000000000000000000000000000000000000000000000000000007bffffffffffffffffffffffffffffffffffffffffffffffffffffffff1916827bffffffffffffffffffffffffffffffffffffffffffffffffffffffff191614806119bc57507f5b5e139f000000000000000000000000000000000000000000000000000000007bffffffffffffffffffffffffffffffffffffffffffffffffffffffff1916827bffffffffffffffffffffffffffffffffffffffffffffffffffffffff1916145b806119cc57506119cb826125cd565b5b9050919050565b6000806119df83612637565b9050600073ffffffffffffffffffffffffffffffffffffffff168173ffffffffffffffffffffffffffffffffffffffff1603611a5257826040517f7e273289000000000000000000000000000000000000000000000000000000008152600401611a4991906132d7565b60405180910390fd5b80915050919050565b60006004600083815260200190815260200160002060009054906101000a900473ffffffffffffffffffffffffffffffffffffffff169050919050565b600033905090565b611aad8383836001612674565b505050565b600080611abe84612637565b9050600073ffffffffffffffffffffffffffffffffffffffff168373ffffffffffffffffffffffffffffffffffffffff1614611b0057611aff818486612839565b5b600073ffffffffffffffffffffffffffffffffffffffff168173ffffffffffffffffffffffffffffffffffffffff1614611b9157611b42600085600080612674565b6001600360008373ffffffffffffffffffffffffffffffffffffffff1673ffffffffffffffffffffffffffffffffffffffff168152602001908152602001600020600082825403925050819055505b600073ffffffffffffffffffffffffffffffffffffffff168573ffffffffffffffffffffffffffffffffffffffff1614611c14576001600360008773ffffffffffffffffffffffffffffffffffffffff1673ffffffffffffffffffffffffffffffffffffffff168152602001908152602001600020600082825401925050819055505b846002600086815260200190815260200160002060006101000a81548173ffffffffffffffffffffffffffffffffffffffff021916908373ffffffffffffffffffffffffffffffffffffffff160217905550838573ffffffffffffffffffffffffffffffffffffffff168273ffffffffffffffffffffffffffffffffffffffff167fddf252ad1be2c89b69c2b068fc378daa952ba7f163c4a11628f55a4df523b3ef60405160405180910390a4809150509392505050565b60006001600a3342600143611ce19190613889565b40604051602001611cf4939291906139b1565b6040516020818303038152906040528051906020012060001c611d179190613a1d565b611d219190613855565b905090565b600073ffffffffffffffffffffffffffffffffffffffff168273ffffffffffffffffffffffffffffffffffffffff1603611d985760006040517f64a0ae92000000000000000000000000000000000000000000000000000000008152600401611d8f9190612e49565b60405180910390fd5b6000611da683836000611ab2565b9050600073ffffffffffffffffffffffffffffffffffffffff168173ffffffffffffffffffffffffffffffffffffffff1614611e1a5760006040517f73c6ac6e000000000000000000000000000000000000000000000000000000008152600401611e119190612e49565b60405180910390fd5b505050565b80600660008481526020019081526020016000209081611e3f9190613bfa565b507ff8e1a15aba9398e019f0b49df1a4fde98ee17ae345cb5f6b5e2c27f5033e8ce782604051611e6f91906132d7565b60405180910390a15050565b600073ffffffffffffffffffffffffffffffffffffffff168273ffffffffffffffffffffffffffffffffffffffff1603611eed5760006040517f64a0ae92000000000000000000000000000000000000000000000000000000008152600401611ee49190612e49565b60405180910390fd5b6000611efb83836000611ab2565b9050600073ffffffffffffffffffffffffffffffffffffffff168173ffffffffffffffffffffffffffffffffffffffff1603611f6e57816040517f7e273289000000000000000000000000000000000000000000000000000000008152600401611f6591906132d7565b60405180910390fd5b8373ffffffffffffffffffffffffffffffffffffffff168173ffffffffffffffffffffffffffffffffffffffff1614611fe2578382826040517f64283d7b000000000000000000000000000000000000000000000000000000008152600401611fd99392919061378c565b60405180910390fd5b50505050565b600080600090505b600a60008473ffffffffffffffffffffffffffffffffffffffff1673ffffffffffffffffffffffffffffffffffffffff168152602001908152602001600020805490508110156120b35783600a60008573ffffffffffffffffffffffffffffffffffffffff1673ffffffffffffffffffffffffffffffffffffffff168152602001908152602001600020828154811061208c5761208b6136e6565b5b9060005260206000200154036120a0578091505b80806120ab90613744565b915050611ff0565b50600a60008373ffffffffffffffffffffffffffffffffffffffff1673ffffffffffffffffffffffffffffffffffffffff1681526020019081526020016000206001600a60008573ffffffffffffffffffffffffffffffffffffffff1673ffffffffffffffffffffffffffffffffffffffff168152602001908152602001600020805490506121429190613889565b81548110612153576121526136e6565b5b9060005260206000200154600a60008473ffffffffffffffffffffffffffffffffffffffff1673ffffffffffffffffffffffffffffffffffffffff16815260200190815260200160002082815481106121af576121ae6136e6565b5b9060005260206000200181905550600a60008373ffffffffffffffffffffffffffffffffffffffff1673ffffffffffffffffffffffffffffffffffffffff16815260200190815260200160002080548061220c5761220b613ccc565b5b60019003818190600052602060002001600090559055505050565b600073ffffffffffffffffffffffffffffffffffffffff168273ffffffffffffffffffffffffffffffffffffffff160361229857816040517f5b08ba1800000000000000000000000000000000000000000000000000000000815260040161228f9190612e49565b60405180910390fd5b80600560008573ffffffffffffffffffffffffffffffffffffffff1673ffffffffffffffffffffffffffffffffffffffff16815260200190815260200160002060008473ffffffffffffffffffffffffffffffffffffffff1673ffffffffffffffffffffffffffffffffffffffff16815260200190815260200160002060006101000a81548160ff0219169083151502179055508173ffffffffffffffffffffffffffffffffffffffff168373ffffffffffffffffffffffffffffffffffffffff167f17307eab39ab6107e8899845ad3d59bd9653f200f220920489ca2b5937696c31836040516123899190612cd8565b60405180910390a3505050565b60008373ffffffffffffffffffffffffffffffffffffffff163b1115612547578273ffffffffffffffffffffffffffffffffffffffff1663150b7a026123da611a98565b8685856040518563ffffffff1660e01b81526004016123fc9493929190613d50565b6020604051808303816000875af192505050801561243857506040513d601f19601f820116820180604052508101906124359190613db1565b60015b6124bc573d8060008114612468576040519150601f19603f3d011682016040523d82523d6000602084013e61246d565b606091505b5060008151036124b457836040517f64a0ae920000000000000000000000000000000000000000000000000000000081526004016124ab9190612e49565b60405180910390fd5b805181602001fd5b63150b7a0260e01b7bffffffffffffffffffffffffffffffffffffffffffffffffffffffff1916817bffffffffffffffffffffffffffffffffffffffffffffffffffffffff19161461254557836040517f64a0ae9200000000000000000000000000000000000000000000000000000000815260040161253c9190612e49565b60405180910390fd5b505b50505050565b606060405180602001604052806000815250905090565b606061256f826119d3565b50600061257a61254d565b9050600081511161259a57604051806020016040528060008152506125c5565b806125a4846128fd565b6040516020016125b59291906138f9565b6040516020818303038152906040525b915050919050565b60007f01ffc9a7000000000000000000000000000000000000000000000000000000007bffffffffffffffffffffffffffffffffffffffffffffffffffffffff1916827bffffffffffffffffffffffffffffffffffffffffffffffffffffffff1916149050919050565b60006002600083815260200190815260200160002060009054906101000a900473ffffffffffffffffffffffffffffffffffffffff169050919050565b80806126ad5750600073ffffffffffffffffffffffffffffffffffffffff168273ffffffffffffffffffffffffffffffffffffffff1614155b156127e15760006126bd846119d3565b9050600073ffffffffffffffffffffffffffffffffffffffff168373ffffffffffffffffffffffffffffffffffffffff161415801561272857508273ffffffffffffffffffffffffffffffffffffffff168173ffffffffffffffffffffffffffffffffffffffff1614155b801561273b5750612739818461185d565b155b1561277d57826040517fa9fbf51f0000000000000000000000000000000000000000000000000000000081526004016127749190612e49565b60405180910390fd5b81156127df57838573ffffffffffffffffffffffffffffffffffffffff168273ffffffffffffffffffffffffffffffffffffffff167f8c5be1e5ebec7d5bd14f71427d1e84f3dd0314c0f7b2291e5b200ac8c7c3b92560405160405180910390a45b505b836004600085815260200190815260200160002060006101000a81548173ffffffffffffffffffffffffffffffffffffffff021916908373ffffffffffffffffffffffffffffffffffffffff16021790555050505050565b6128448383836129cb565b6128f857600073ffffffffffffffffffffffffffffffffffffffff168373ffffffffffffffffffffffffffffffffffffffff16036128b957806040517f7e2732890000000000000000000000000000000000000000000000000000000081526004016128b091906132d7565b60405180910390fd5b81816040517f177e802f0000000000000000000000000000000000000000000000000000000081526004016128ef929190613dde565b60405180910390fd5b505050565b60606000600161290c84612a8c565b01905060008167ffffffffffffffff81111561292b5761292a613150565b5b6040519080825280601f01601f19166020018201604052801561295d5781602001600182028036833780820191505090505b509050600082602001820190505b6001156129c0578080600190039150507f3031323334353637383961626364656600000000000000000000000000000000600a86061a8153600a85816129b4576129b36139ee565b5b0494506000850361296b575b819350505050919050565b60008073ffffffffffffffffffffffffffffffffffffffff168373ffffffffffffffffffffffffffffffffffffffff1614158015612a8357508273ffffffffffffffffffffffffffffffffffffffff168473ffffffffffffffffffffffffffffffffffffffff161480612a445750612a43848461185d565b5b80612a8257508273ffffffffffffffffffffffffffffffffffffffff16612a6a83611a5b565b73ffffffffffffffffffffffffffffffffffffffff16145b5b90509392505050565b600080600090507a184f03e93ff9f4daa797ed6e38ed64bf6a1f0100000000000000008310612aea577a184f03e93ff9f4daa797ed6e38ed64bf6a1f0100000000000000008381612ae057612adf6139ee565b5b0492506040810190505b6d04ee2d6d415b85acef81000000008310612b27576d04ee2d6d415b85acef81000000008381612b1d57612b1c6139ee565b5b0492506020810190505b662386f26fc100008310612b5657662386f26fc100008381612b4c57612b4b6139ee565b5b0492506010810190505b6305f5e1008310612b7f576305f5e1008381612b7557612b746139ee565b5b0492506008810190505b6127108310612ba4576127108381612b9a57612b996139ee565b5b0492506004810190505b60648310612bc75760648381612bbd57612bbc6139ee565b5b0492506002810190505b600a8310612bd6576001810190505b80915050919050565b6040518060c0016040528060008152602001600060ff168152602001600060ff168152602001600060ff168152602001600060ff168152602001600060ff1681525090565b6000604051905090565b600080fd5b600080fd5b60007fffffffff0000000000000000000000000000000000000000000000000000000082169050919050565b612c6d81612c38565b8114612c7857600080fd5b50565b600081359050612c8a81612c64565b92915050565b600060208284031215612ca657612ca5612c2e565b5b6000612cb484828501612c7b565b91505092915050565b60008115159050919050565b612cd281612cbd565b82525050565b6000602082019050612ced6000830184612cc9565b92915050565b600081519050919050565b600082825260208201905092915050565b60005b83811015612d2d578082015181840152602081019050612d12565b60008484015250505050565b6000601f19601f8301169050919050565b6000612d5582612cf3565b612d5f8185612cfe565b9350612d6f818560208601612d0f565b612d7881612d39565b840191505092915050565b60006020820190508181036000830152612d9d8184612d4a565b905092915050565b6000819050919050565b612db881612da5565b8114612dc357600080fd5b50565b600081359050612dd581612daf565b92915050565b600060208284031215612df157612df0612c2e565b5b6000612dff84828501612dc6565b91505092915050565b600073ffffffffffffffffffffffffffffffffffffffff82169050919050565b6000612e3382612e08565b9050919050565b612e4381612e28565b82525050565b6000602082019050612e5e6000830184612e3a565b92915050565b612e6d81612e28565b8114612e7857600080fd5b50565b600081359050612e8a81612e64565b92915050565b60008060408385031215612ea757612ea6612c2e565b5b6000612eb585828601612e7b565b9250506020612ec685828601612dc6565b9150509250929050565b600060208284031215612ee657612ee5612c2e565b5b6000612ef484828501612e7b565b91505092915050565b600081519050919050565b600082825260208201905092915050565b6000819050602082019050919050565b612f3281612da5565b82525050565b600060ff82169050919050565b612f4e81612f38565b82525050565b60c082016000820151612f6a6000850182612f29565b506020820151612f7d6020850182612f45565b506040820151612f906040850182612f45565b506060820151612fa36060850182612f45565b506080820151612fb66080850182612f45565b5060a0820151612fc960a0850182612f45565b50505050565b6000612fdb8383612f54565b60c08301905092915050565b6000602082019050919050565b6000612fff82612efd565b6130098185612f08565b935061301483612f19565b8060005b8381101561304557815161302c8882612fcf565b975061303783612fe7565b925050600181019050613018565b5085935050505092915050565b6000602082019050818103600083015261306c8184612ff4565b905092915050565b60008060006060848603121561308d5761308c612c2e565b5b600061309b86828701612e7b565b93505060206130ac86828701612e7b565b92505060406130bd86828701612dc6565b9150509250925092565b6130d081612da5565b82525050565b6130df81612f38565b82525050565b600060c0820190506130fa60008301896130c7565b61310760208301886130d6565b61311460408301876130d6565b61312160608301866130d6565b61312e60808301856130d6565b61313b60a08301846130d6565b979650505050505050565b600080fd5b600080fd5b7f4e487b7100000000000000000000000000000000000000000000000000000000600052604160045260246000fd5b61318882612d39565b810181811067ffffffffffffffff821117156131a7576131a6613150565b5b80604052505050565b60006131ba612c24565b90506131c6828261317f565b919050565b600067ffffffffffffffff8211156131e6576131e5613150565b5b6131ef82612d39565b9050602081019050919050565b82818337600083830152505050565b600061321e613219846131cb565b6131b0565b90508281526020810184848401111561323a5761323961314b565b5b6132458482856131fc565b509392505050565b600082601f83011261326257613261613146565b5b813561327284826020860161320b565b91505092915050565b6000806040838503121561329257613291612c2e565b5b60006132a085828601612e7b565b925050602083013567ffffffffffffffff8111156132c1576132c0612c33565b5b6132cd8582860161324d565b9150509250929050565b60006020820190506132ec60008301846130c7565b92915050565b60c0820160008201516133086000850182612f29565b50602082015161331b6020850182612f45565b50604082015161332e6040850182612f45565b5060608201516133416060850182612f45565b5060808201516133546080850182612f45565b5060a082015161336760a0850182612f45565b50505050565b600060c08201905061338260008301846132f2565b92915050565b61339181612cbd565b811461339c57600080fd5b50565b6000813590506133ae81613388565b92915050565b600080604083850312156133cb576133ca612c2e565b5b60006133d985828601612e7b565b92505060206133ea8582860161339f565b9150509250929050565b600067ffffffffffffffff82111561340f5761340e613150565b5b61341882612d39565b9050602081019050919050565b6000613438613433846133f4565b6131b0565b9050828152602081018484840111156134545761345361314b565b5b61345f8482856131fc565b509392505050565b600082601f83011261347c5761347b613146565b5b813561348c848260208601613425565b91505092915050565b600080600080608085870312156134af576134ae612c2e565b5b60006134bd87828801612e7b565b94505060206134ce87828801612e7b565b93505060406134df87828801612dc6565b925050606085013567ffffffffffffffff811115613500576134ff612c33565b5b61350c87828801613467565b91505092959194509250565b600081519050919050565b600082825260208201905092915050565b6000819050602082019050919050565b600082825260208201905092915050565b600061356082612cf3565b61356a8185613544565b935061357a818560208601612d0f565b61358381612d39565b840191505092915050565b600061359a8383613555565b905092915050565b6000602082019050919050565b60006135ba82613518565b6135c48185613523565b9350836020820285016135d685613534565b8060005b8581101561361257848403895281516135f3858261358e565b94506135fe836135a2565b925060208a019950506001810190506135da565b50829750879550505050505092915050565b6000602082019050818103600083015261363e81846135af565b905092915050565b6000806040838503121561365d5761365c612c2e565b5b600061366b85828601612e7b565b925050602061367c85828601612e7b565b9150509250929050565b7f4e487b7100000000000000000000000000000000000000000000000000000000600052602260045260246000fd5b600060028204905060018216806136cd57607f821691505b6020821081036136e0576136df613686565b5b50919050565b7f4e487b7100000000000000000000000000000000000000000000000000000000600052603260045260246000fd5b7f4e487b7100000000000000000000000000000000000000000000000000000000600052601160045260246000fd5b600061374f82612da5565b91507fffffffffffffffffffffffffffffffffffffffffffffffffffffffffffffffff820361378157613780613715565b5b600182019050919050565b60006060820190506137a16000830186612e3a565b6137ae60208301856130c7565b6137bb6040830184612e3a565b949350505050565b7f4f6e6c79207468652067616d6520636f6e74726163742063616e2063616c6c2060008201527f746869732066756e6374696f6e00000000000000000000000000000000000000602082015250565b600061381f602d83612cfe565b915061382a826137c3565b604082019050919050565b6000602082019050818103600083015261384e81613812565b9050919050565b600061386082612da5565b915061386b83612da5565b925082820190508082111561388357613882613715565b5b92915050565b600061389482612da5565b915061389f83612da5565b92508282039050818111156138b7576138b6613715565b5b92915050565b600081905092915050565b60006138d382612cf3565b6138dd81856138bd565b93506138ed818560208601612d0f565b80840191505092915050565b600061390582856138c8565b915061391182846138c8565b91508190509392505050565b60008160601b9050919050565b60006139358261391d565b9050919050565b60006139478261392a565b9050919050565b61395f61395a82612e28565b61393c565b82525050565b6000819050919050565b61398061397b82612da5565b613965565b82525050565b6000819050919050565b6000819050919050565b6139ab6139a682613986565b613990565b82525050565b60006139bd828661394e565b6014820191506139cd828561396f565b6020820191506139dd828461399a565b602082019150819050949350505050565b7f4e487b7100000000000000000000000000000000000000000000000000000000600052601260045260246000fd5b6000613a2882612da5565b9150613a3383612da5565b925082613a4357613a426139ee565b5b828206905092915050565b60008190508160005260206000209050919050565b60006020601f8301049050919050565b600082821b905092915050565b600060088302613ab07fffffffffffffffffffffffffffffffffffffffffffffffffffffffffffffffff82613a73565b613aba8683613a73565b95508019841693508086168417925050509392505050565b6000819050919050565b6000613af7613af2613aed84612da5565b613ad2565b612da5565b9050919050565b6000819050919050565b613b1183613adc565b613b25613b1d82613afe565b848454613a80565b825550505050565b600090565b613b3a613b2d565b613b45818484613b08565b505050565b5b81811015613b6957613b5e600082613b32565b600181019050613b4b565b5050565b601f821115613bae57613b7f81613a4e565b613b8884613a63565b81016020851015613b97578190505b613bab613ba385613a63565b830182613b4a565b50505b505050565b600082821c905092915050565b6000613bd160001984600802613bb3565b1980831691505092915050565b6000613bea8383613bc0565b9150826002028217905092915050565b613c0382612cf3565b67ffffffffffffffff811115613c1c57613c1b613150565b5b613c2682546136b5565b613c31828285613b6d565b600060209050601f831160018114613c645760008415613c52578287015190505b613c5c8582613bde565b865550613cc4565b601f198416613c7286613a4e565b60005b82811015613c9a57848901518255600182019150602085019450602081019050613c75565b86831015613cb75784890151613cb3601f891682613bc0565b8355505b6001600288020188555050505b505050505050565b7f4e487b7100000000000000000000000000000000000000000000000000000000600052603160045260246000fd5b600081519050919050565b600082825260208201905092915050565b6000613d2282613cfb565b613d2c8185613d06565b9350613d3c818560208601612d0f565b613d4581612d39565b840191505092915050565b6000608082019050613d656000830187612e3a565b613d726020830186612e3a565b613d7f60408301856130c7565b8181036060830152613d918184613d17565b905095945050505050565b600081519050613dab81612c64565b92915050565b600060208284031215613dc757613dc6612c2e565b5b6000613dd584828501613d9c565b91505092915050565b6000604082019050613df36000830185612e3a565b613e0060208301846130c7565b939250505056fea2646970667358221220b94d245750b778627e1d3a0e36843f48e3a367e1009e4681d0549592df1b36c864736f6c63430008130033",
  "immutableReferences": {},
  "source": "// SPDX-License-Identifier: MIT \r\npragma solidity ^0.8.18;\r\n\r\n//Needed to interact with the game coin and the AEthermons\r\nimport \"./AECoin.sol\";\r\nimport \"./AEMonster.sol\";\r\n\r\n//This contract implement the functionalities needed to exhange AEthermons between players\r\ncontract AEMarket{\r\n    //*--------------State variable--------------\r\n    mapping(address => mapping(uint256 => OnSaleMonster)) public sellingMap;        //It defines the on sale monster for each player                     \r\n    mapping(uint256 => OnSaleMonster) sellingList;                                  //All the monster on sale state\r\n    mapping(uint256 => bool) private isOnSale;                                       //Allows better performance (avoid search in the array)\r\n\r\n    AECoinFT public AECoinContractAddress;                        \r\n    AEMonsterNFT public AEMonsterContract; \r\n\r\n    constructor(){\r\n        AECoinContractAddress = new AECoinFT(address(this));\r\n        AEMonsterContract = new AEMonsterNFT(address(this));\r\n    }\r\n\r\n\r\n    //*--------------Structures--------------\r\n    struct OnSaleMonster{         //It defines a sale\r\n        address seller;           //The seller of the token\r\n        uint256 tokenId;          //The identifier of the NFTMonster\r\n        uint256 price;            //The selling price\r\n    }\r\n\r\n\r\n    //*--------------Modifiers--------------\r\n    modifier notOnSale(uint256 tokenId){\r\n        require(isOnSale[tokenId] == false,\"The selected AEthermon was already on sale!\");\r\n        _;\r\n    }\r\n\r\n    modifier onSale(uint256 tokenId){\r\n        require(isOnSale[tokenId] == true,\"The selected AEthermon was not on sale!\");\r\n        _;\r\n    }\r\n\r\n    modifier priceNotBelowZero(uint256 price){\r\n        require(price > 0, \"The selling price must be greater than 0\");\r\n        _;\r\n    }\r\n\r\n    modifier onlyOwner(uint256 tokenId, address caller){\r\n        require(AEMonsterContract.ownerOf(tokenId) == caller, \"Only the owner of the AEthermon can call this function\");\r\n        _;\r\n    }\r\n\r\n    modifier hasEnoughMoney(address player, uint256 tokenId){\r\n        require(AECoinContractAddress.balanceOf(player) >= sellingList[tokenId].price, \"You haven't enough AECoins to buy this monster\");\r\n        _;\r\n    }\r\n\r\n    //*--------------Events--------------\r\n    //TODO : selled , onSale, Retired, ...\r\n    event NewOnSale(uint256 tokenId,address seller,uint256 price);\r\n    event Retired(uint256 tokenId,address seller);\r\n    event Selled(uint256 tokenId, address seller, address buyer);\r\n\r\n    //*--------------Main functionalities--------------\r\n\r\n    //Function to sell a AEthermon   \r\n    function putOnSale(uint256 tokenId, uint256 price) \r\n    external notOnSale(tokenId) onlyOwner(tokenId, msg.sender) priceNotBelowZero(price){ \r\n        sellingMap[msg.sender][tokenId] = OnSaleMonster(msg.sender,tokenId,price);\r\n        sellingList[tokenId] = OnSaleMonster(msg.sender,tokenId,price);\r\n        isOnSale[tokenId] = true;\r\n\r\n        emit NewOnSale(tokenId, msg.sender, price);\r\n    }\r\n\r\n    //Function to retire a monster from the on sale status\r\n    function leaveFromSale(uint256 tokenId)\r\n    external onSale(tokenId) onlyOwner(tokenId,msg.sender){\r\n        delete(sellingMap[msg.sender][tokenId]);\r\n        delete(sellingList[tokenId]);\r\n        isOnSale[tokenId] = false;\r\n\r\n        emit Retired(tokenId,msg.sender);\r\n    }\r\n\r\n    //Function to change the price of an on sale AEthermon\r\n    function changePrince(uint256 tokenId, uint256 newPrice)\r\n    external onSale(tokenId) onlyOwner(tokenId,msg.sender) priceNotBelowZero(newPrice){\r\n        sellingMap[msg.sender][tokenId].price = newPrice;\r\n        sellingList[tokenId].price = newPrice;\r\n        \r\n        emit NewOnSale(tokenId, msg.sender, newPrice); \r\n    }\r\n\r\n    //Function to buy a monster on sale\r\n    function buyOnSaleMonster(uint256 tokenId)\r\n    external onSale(tokenId) hasEnoughMoney(msg.sender,tokenId){\r\n        //Send the coins from buyer to seller\r\n        AECoinContractAddress.transferCoinsFrom(msg.sender, sellingList[tokenId].seller, sellingList[tokenId].price);\r\n        //Define the transfer of the monster\r\n        AEMonsterContract.transferMonster(sellingList[tokenId].seller,msg.sender,tokenId);\r\n        emit Selled(tokenId, sellingList[tokenId].seller, msg.sender);\r\n    }\r\n    \r\n}",
  "sourcePath": "C:\\Users\\HP\\Desktop\\Universit\\Magistrale\\2 anno\\1 Semestre\\Blockchain & DLT\\Progetto\\src\\AEtherMon\\contracts\\AEMarket.sol",
  "compiler": {
    "name": "solc",
    "version": "0.8.19+commit.7dd6d404.Emscripten.clang"
  },
  "schemaVersion": "3.4.16",
  "updatedAt": "2024-01-30T17:10:45.742Z",
  "devdoc": {
    "kind": "dev",
    "methods": {},
    "version": 1
  },
  "userdoc": {
    "kind": "user",
    "methods": {},
    "version": 1
  }
}