{
  "contractName": "AEMarket",
  "abi": [
    {
      "inputs": [],
      "stateMutability": "nonpayable",
      "type": "constructor"
    },
    {
      "anonymous": false,
      "inputs": [
        {
          "indexed": false,
          "internalType": "uint256",
          "name": "tokenId",
          "type": "uint256"
        },
        {
          "indexed": false,
          "internalType": "address",
          "name": "seller",
          "type": "address"
        },
        {
          "indexed": false,
          "internalType": "uint256",
          "name": "price",
          "type": "uint256"
        }
      ],
      "name": "NewOnSale",
      "type": "event"
    },
    {
      "anonymous": false,
      "inputs": [
        {
          "indexed": false,
          "internalType": "uint256",
          "name": "tokenId",
          "type": "uint256"
        },
        {
          "indexed": false,
          "internalType": "address",
          "name": "seller",
          "type": "address"
        }
      ],
      "name": "Retired",
      "type": "event"
    },
    {
      "anonymous": false,
      "inputs": [
        {
          "indexed": false,
          "internalType": "uint256",
          "name": "tokenId",
          "type": "uint256"
        },
        {
          "indexed": false,
          "internalType": "address",
          "name": "seller",
          "type": "address"
        },
        {
          "indexed": false,
          "internalType": "address",
          "name": "buyer",
          "type": "address"
        }
      ],
      "name": "Selled",
      "type": "event"
    },
    {
      "inputs": [],
      "name": "AECoinContractAddress",
      "outputs": [
        {
          "internalType": "contract AECoinFT",
          "name": "",
          "type": "address"
        }
      ],
      "stateMutability": "view",
      "type": "function"
    },
    {
      "inputs": [],
      "name": "AEMonsterContract",
      "outputs": [
        {
          "internalType": "contract AEMonsterNFT",
          "name": "",
          "type": "address"
        }
      ],
      "stateMutability": "view",
      "type": "function"
    },
    {
      "inputs": [
        {
          "internalType": "address",
          "name": "",
          "type": "address"
        },
        {
          "internalType": "uint256",
          "name": "",
          "type": "uint256"
        }
      ],
      "name": "sellingMap",
      "outputs": [
        {
          "internalType": "address",
          "name": "seller",
          "type": "address"
        },
        {
          "internalType": "uint256",
          "name": "tokenId",
          "type": "uint256"
        },
        {
          "internalType": "uint256",
          "name": "price",
          "type": "uint256"
        }
      ],
      "stateMutability": "view",
      "type": "function"
    },
    {
      "inputs": [
        {
          "internalType": "uint256",
          "name": "tokenId",
          "type": "uint256"
        },
        {
          "internalType": "uint256",
          "name": "price",
          "type": "uint256"
        }
      ],
      "name": "putOnSale",
      "outputs": [],
      "stateMutability": "nonpayable",
      "type": "function"
    },
    {
      "inputs": [
        {
          "internalType": "uint256",
          "name": "tokenId",
          "type": "uint256"
        }
      ],
      "name": "leaveFromSale",
      "outputs": [],
      "stateMutability": "nonpayable",
      "type": "function"
    },
    {
      "inputs": [
        {
          "internalType": "uint256",
          "name": "tokenId",
          "type": "uint256"
        },
        {
          "internalType": "uint256",
          "name": "newPrice",
          "type": "uint256"
        }
      ],
      "name": "changePrince",
      "outputs": [],
      "stateMutability": "nonpayable",
      "type": "function"
    },
    {
      "inputs": [
        {
          "internalType": "uint256",
          "name": "tokenId",
          "type": "uint256"
        }
      ],
      "name": "buyOnSaleMonster",
      "outputs": [],
      "stateMutability": "nonpayable",
      "type": "function"
    }
  ],
  "bytecode": "0x60806040523480156200001157600080fd5b503060405162000021906200010a565b6200002d91906200016b565b604051809103906000f0801580156200004a573d6000803e3d6000fd5b50600360006101000a81548173ffffffffffffffffffffffffffffffffffffffff021916908373ffffffffffffffffffffffffffffffffffffffff160217905550306040516200009a9062000118565b620000a691906200016b565b604051809103906000f080158015620000c3573d6000803e3d6000fd5b50600460006101000a81548173ffffffffffffffffffffffffffffffffffffffff021916908373ffffffffffffffffffffffffffffffffffffffff16021790555062000188565b611cd280620016d483390190565b61423e80620033a683390190565b600073ffffffffffffffffffffffffffffffffffffffff82169050919050565b6000620001538262000126565b9050919050565b620001658162000146565b82525050565b60006020820190506200018260008301846200015a565b92915050565b61153c80620001986000396000f3fe608060405234801561001057600080fd5b506004361061007d5760003560e01c806336f7992b1161005b57806336f7992b146100ee578063c5af05b21461010a578063efaf38a314610126578063fb2af96c146101425761007d565b8063254175c414610082578063297cdaa71461009e5780633498f5eb146100bc575b600080fd5b61009c60048036038101906100979190610e7d565b610160565b005b6100a66104d9565b6040516100b39190610f29565b60405180910390f35b6100d660048036038101906100d19190610f82565b6104ff565b6040516100e593929190610fe0565b60405180910390f35b61010860048036038101906101039190611017565b610556565b005b610124600480360381019061011f9190610e7d565b6108fc565b005b610140600480360381019061013b9190611017565b610bb0565b005b61014a610e1c565b6040516101579190611078565b60405180910390f35b80600115156002600083815260200190815260200160002060009054906101000a900460ff161515146101c8576040517f08c379a00000000000000000000000000000000000000000000000000000000081526004016101bf90611116565b60405180910390fd5b33826001600082815260200190815260200160002060020154600360009054906101000a900473ffffffffffffffffffffffffffffffffffffffff1673ffffffffffffffffffffffffffffffffffffffff166370a08231846040518263ffffffff1660e01b815260040161023c9190611136565b602060405180830381865afa158015610259573d6000803e3d6000fd5b505050506040513d601f19601f8201168201806040525081019061027d9190611166565b10156102be576040517f08c379a00000000000000000000000000000000000000000000000000000000081526004016102b590611205565b60405180910390fd5b600360009054906101000a900473ffffffffffffffffffffffffffffffffffffffff1673ffffffffffffffffffffffffffffffffffffffff166371c34d33336001600088815260200190815260200160002060000160009054906101000a900473ffffffffffffffffffffffffffffffffffffffff1660016000898152602001908152602001600020600201546040518463ffffffff1660e01b815260040161036993929190611225565b600060405180830381600087803b15801561038357600080fd5b505af1158015610397573d6000803e3d6000fd5b50505050600460009054906101000a900473ffffffffffffffffffffffffffffffffffffffff1673ffffffffffffffffffffffffffffffffffffffff16634f8572c46001600087815260200190815260200160002060000160009054906101000a900473ffffffffffffffffffffffffffffffffffffffff1633876040518463ffffffff1660e01b815260040161043093929190611225565b600060405180830381600087803b15801561044a57600080fd5b505af115801561045e573d6000803e3d6000fd5b505050507f3a1adf84f6693cf6bc27777ad69c4336cde14c153fb30473130d02a8f8e27021846001600087815260200190815260200160002060000160009054906101000a900473ffffffffffffffffffffffffffffffffffffffff16336040516104cb9392919061125c565b60405180910390a150505050565b600460009054906101000a900473ffffffffffffffffffffffffffffffffffffffff1681565b6000602052816000526040600020602052806000526040600020600091509150508060000160009054906101000a900473ffffffffffffffffffffffffffffffffffffffff16908060010154908060020154905083565b81600015156002600083815260200190815260200160002060009054906101000a900460ff161515146105be576040517f08c379a00000000000000000000000000000000000000000000000000000000081526004016105b590611305565b60405180910390fd5b82338073ffffffffffffffffffffffffffffffffffffffff16600460009054906101000a900473ffffffffffffffffffffffffffffffffffffffff1673ffffffffffffffffffffffffffffffffffffffff16636352211e846040518263ffffffff1660e01b81526004016106329190611325565b602060405180830381865afa15801561064f573d6000803e3d6000fd5b505050506040513d601f19601f820116820180604052508101906106739190611355565b73ffffffffffffffffffffffffffffffffffffffff16146106c9576040517f08c379a00000000000000000000000000000000000000000000000000000000081526004016106c0906113f4565b60405180910390fd5b836000811161070d576040517f08c379a000000000000000000000000000000000000000000000000000000000815260040161070490611486565b60405180910390fd5b60405180606001604052803373ffffffffffffffffffffffffffffffffffffffff168152602001878152602001868152506000803373ffffffffffffffffffffffffffffffffffffffff1673ffffffffffffffffffffffffffffffffffffffff168152602001908152602001600020600088815260200190815260200160002060008201518160000160006101000a81548173ffffffffffffffffffffffffffffffffffffffff021916908373ffffffffffffffffffffffffffffffffffffffff160217905550602082015181600101556040820151816002015590505060405180606001604052803373ffffffffffffffffffffffffffffffffffffffff168152602001878152602001868152506001600088815260200190815260200160002060008201518160000160006101000a81548173ffffffffffffffffffffffffffffffffffffffff021916908373ffffffffffffffffffffffffffffffffffffffff160217905550602082015181600101556040820151816002015590505060016002600088815260200190815260200160002060006101000a81548160ff0219169083151502179055507f6f0ca42f00a23baa7497fc6a983ad4f2ae4ea21f85f382a7b3ca87371cff20ef8633876040516108ec939291906114a6565b60405180910390a1505050505050565b80600115156002600083815260200190815260200160002060009054906101000a900460ff16151514610964576040517f08c379a000000000000000000000000000000000000000000000000000000000815260040161095b90611116565b60405180910390fd5b81338073ffffffffffffffffffffffffffffffffffffffff16600460009054906101000a900473ffffffffffffffffffffffffffffffffffffffff1673ffffffffffffffffffffffffffffffffffffffff16636352211e846040518263ffffffff1660e01b81526004016109d89190611325565b602060405180830381865afa1580156109f5573d6000803e3d6000fd5b505050506040513d601f19601f82011682018060405250810190610a199190611355565b73ffffffffffffffffffffffffffffffffffffffff1614610a6f576040517f08c379a0000000000000000000000000000000000000000000000000000000008152600401610a66906113f4565b60405180910390fd5b6000803373ffffffffffffffffffffffffffffffffffffffff1673ffffffffffffffffffffffffffffffffffffffff1681526020019081526020016000206000858152602001908152602001600020600080820160006101000a81549073ffffffffffffffffffffffffffffffffffffffff021916905560018201600090556002820160009055505060016000858152602001908152602001600020600080820160006101000a81549073ffffffffffffffffffffffffffffffffffffffff021916905560018201600090556002820160009055505060006002600086815260200190815260200160002060006101000a81548160ff0219169083151502179055507f152a31b181b771801c61615f3bb08b1dcb71597a061fe1cd4085653d8c447fa48433604051610ba29291906114dd565b60405180910390a150505050565b81600115156002600083815260200190815260200160002060009054906101000a900460ff16151514610c18576040517f08c379a0000000000000000000000000000000000000000000000000000000008152600401610c0f90611116565b60405180910390fd5b82338073ffffffffffffffffffffffffffffffffffffffff16600460009054906101000a900473ffffffffffffffffffffffffffffffffffffffff1673ffffffffffffffffffffffffffffffffffffffff16636352211e846040518263ffffffff1660e01b8152600401610c8c9190611325565b602060405180830381865afa158015610ca9573d6000803e3d6000fd5b505050506040513d601f19601f82011682018060405250810190610ccd9190611355565b73ffffffffffffffffffffffffffffffffffffffff1614610d23576040517f08c379a0000000000000000000000000000000000000000000000000000000008152600401610d1a906113f4565b60405180910390fd5b8360008111610d67576040517f08c379a0000000000000000000000000000000000000000000000000000000008152600401610d5e90611486565b60405180910390fd5b846000803373ffffffffffffffffffffffffffffffffffffffff1673ffffffffffffffffffffffffffffffffffffffff1681526020019081526020016000206000888152602001908152602001600020600201819055508460016000888152602001908152602001600020600201819055507f6f0ca42f00a23baa7497fc6a983ad4f2ae4ea21f85f382a7b3ca87371cff20ef863387604051610e0c939291906114a6565b60405180910390a1505050505050565b600360009054906101000a900473ffffffffffffffffffffffffffffffffffffffff1681565b600080fd5b6000819050919050565b610e5a81610e47565b8114610e6557600080fd5b50565b600081359050610e7781610e51565b92915050565b600060208284031215610e9357610e92610e42565b5b6000610ea184828501610e68565b91505092915050565b600073ffffffffffffffffffffffffffffffffffffffff82169050919050565b6000819050919050565b6000610eef610eea610ee584610eaa565b610eca565b610eaa565b9050919050565b6000610f0182610ed4565b9050919050565b6000610f1382610ef6565b9050919050565b610f2381610f08565b82525050565b6000602082019050610f3e6000830184610f1a565b92915050565b6000610f4f82610eaa565b9050919050565b610f5f81610f44565b8114610f6a57600080fd5b50565b600081359050610f7c81610f56565b92915050565b60008060408385031215610f9957610f98610e42565b5b6000610fa785828601610f6d565b9250506020610fb885828601610e68565b9150509250929050565b610fcb81610f44565b82525050565b610fda81610e47565b82525050565b6000606082019050610ff56000830186610fc2565b6110026020830185610fd1565b61100f6040830184610fd1565b949350505050565b6000806040838503121561102e5761102d610e42565b5b600061103c85828601610e68565b925050602061104d85828601610e68565b9150509250929050565b600061106282610ef6565b9050919050565b61107281611057565b82525050565b600060208201905061108d6000830184611069565b92915050565b600082825260208201905092915050565b7f5468652073656c6563746564204145746865726d6f6e20776173206e6f74206f60008201527f6e2073616c652100000000000000000000000000000000000000000000000000602082015250565b6000611100602783611093565b915061110b826110a4565b604082019050919050565b6000602082019050818103600083015261112f816110f3565b9050919050565b600060208201905061114b6000830184610fc2565b92915050565b60008151905061116081610e51565b92915050565b60006020828403121561117c5761117b610e42565b5b600061118a84828501611151565b91505092915050565b7f596f7520686176656e277420656e6f756768204145436f696e7320746f20627560008201527f792074686973206d6f6e73746572000000000000000000000000000000000000602082015250565b60006111ef602e83611093565b91506111fa82611193565b604082019050919050565b6000602082019050818103600083015261121e816111e2565b9050919050565b600060608201905061123a6000830186610fc2565b6112476020830185610fc2565b6112546040830184610fd1565b949350505050565b60006060820190506112716000830186610fd1565b61127e6020830185610fc2565b61128b6040830184610fc2565b949350505050565b7f5468652073656c6563746564204145746865726d6f6e2077617320616c72656160008201527f6479206f6e2073616c6521000000000000000000000000000000000000000000602082015250565b60006112ef602b83611093565b91506112fa82611293565b604082019050919050565b6000602082019050818103600083015261131e816112e2565b9050919050565b600060208201905061133a6000830184610fd1565b92915050565b60008151905061134f81610f56565b92915050565b60006020828403121561136b5761136a610e42565b5b600061137984828501611340565b91505092915050565b7f4f6e6c7920746865206f776e6572206f6620746865204145746865726d6f6e2060008201527f63616e2063616c6c20746869732066756e6374696f6e00000000000000000000602082015250565b60006113de603683611093565b91506113e982611382565b604082019050919050565b6000602082019050818103600083015261140d816113d1565b9050919050565b7f5468652073656c6c696e67207072696365206d7573742062652067726561746560008201527f72207468616e2030000000000000000000000000000000000000000000000000602082015250565b6000611470602883611093565b915061147b82611414565b604082019050919050565b6000602082019050818103600083015261149f81611463565b9050919050565b60006060820190506114bb6000830186610fd1565b6114c86020830185610fc2565b6114d56040830184610fd1565b949350505050565b60006040820190506114f26000830185610fd1565b6114ff6020830184610fc2565b939250505056fea26469706673582212208b80c07da841be0922e106f9c7e0467d3b3ab405c679d5659ec33d0751d14c9d64736f6c6343000813003360806040523480156200001157600080fd5b5060405162001cd238038062001cd28339818101604052810190620000379190620001d8565b6040518060400160405280600681526020017f4145436f696e00000000000000000000000000000000000000000000000000008152506040518060400160405280600381526020017f41454300000000000000000000000000000000000000000000000000000000008152508160039081620000b4919062000484565b508060049081620000c6919062000484565b50505033600560006101000a81548173ffffffffffffffffffffffffffffffffffffffff021916908373ffffffffffffffffffffffffffffffffffffffff160217905550600a600560146101000a81548160ff021916908360ff16021790555080600660006101000a81548173ffffffffffffffffffffffffffffffffffffffff021916908373ffffffffffffffffffffffffffffffffffffffff160217905550506200056b565b600080fd5b600073ffffffffffffffffffffffffffffffffffffffff82169050919050565b6000620001a08262000173565b9050919050565b620001b28162000193565b8114620001be57600080fd5b50565b600081519050620001d281620001a7565b92915050565b600060208284031215620001f157620001f06200016e565b5b60006200020184828501620001c1565b91505092915050565b600081519050919050565b7f4e487b7100000000000000000000000000000000000000000000000000000000600052604160045260246000fd5b7f4e487b7100000000000000000000000000000000000000000000000000000000600052602260045260246000fd5b600060028204905060018216806200028c57607f821691505b602082108103620002a257620002a162000244565b5b50919050565b60008190508160005260206000209050919050565b60006020601f8301049050919050565b600082821b905092915050565b6000600883026200030c7fffffffffffffffffffffffffffffffffffffffffffffffffffffffffffffffff82620002cd565b620003188683620002cd565b95508019841693508086168417925050509392505050565b6000819050919050565b6000819050919050565b6000620003656200035f620003598462000330565b6200033a565b62000330565b9050919050565b6000819050919050565b620003818362000344565b6200039962000390826200036c565b848454620002da565b825550505050565b600090565b620003b0620003a1565b620003bd81848462000376565b505050565b5b81811015620003e557620003d9600082620003a6565b600181019050620003c3565b5050565b601f8211156200043457620003fe81620002a8565b6200040984620002bd565b8101602085101562000419578190505b620004316200042885620002bd565b830182620003c2565b50505b505050565b600082821c905092915050565b6000620004596000198460080262000439565b1980831691505092915050565b600062000474838362000446565b9150826002028217905092915050565b6200048f826200020a565b67ffffffffffffffff811115620004ab57620004aa62000215565b5b620004b7825462000273565b620004c4828285620003e9565b600060209050601f831160018114620004fc5760008415620004e7578287015190505b620004f3858262000466565b86555062000563565b601f1984166200050c86620002a8565b60005b8281101562000536578489015182556001820191506020850194506020810190506200050f565b8683101562000556578489015162000552601f89168262000446565b8355505b6001600288020188555050505b505050505050565b611757806200057b6000396000f3fe608060405234801561001057600080fd5b50600436106101165760003560e01c806371c34d33116100a25780639b741771116100715780639b741771146102cf578063a9059cbb146102eb578063c00007b01461031b578063dd62ed3e14610337578063f2fde38b1461036757610116565b806371c34d331461025b57806379cc679014610277578063893d20e81461029357806395d89b41146102b157610116565b806323b872dd116100e957806323b872dd146101a3578063313ce567146101d357806342966c68146101f157806363df0ef71461020d57806370a082311461022b57610116565b806306fdde031461011b578063095ea7b31461013957806317fed4351461016957806318160ddd14610185575b600080fd5b610123610383565b60405161013091906111cd565b60405180910390f35b610153600480360381019061014e9190611288565b610415565b60405161016091906112e3565b60405180910390f35b610183600480360381019061017e9190611288565b610438565b005b61018d61050f565b60405161019a919061130d565b60405180910390f35b6101bd60048036038101906101b89190611328565b610519565b6040516101ca91906112e3565b60405180910390f35b6101db610548565b6040516101e89190611397565b60405180910390f35b61020b600480360381019061020691906113b2565b610551565b005b610215610565565b60405161022291906113ee565b60405180910390f35b61024560048036038101906102409190611409565b61058b565b604051610252919061130d565b60405180910390f35b61027560048036038101906102709190611328565b6105d3565b005b610291600480360381019061028c9190611288565b610673565b005b61029b610693565b6040516102a891906113ee565b60405180910390f35b6102b96106bd565b6040516102c691906111cd565b60405180910390f35b6102e960048036038101906102e49190611288565b61074f565b005b61030560048036038101906103009190611288565b610826565b60405161031291906112e3565b60405180910390f35b61033560048036038101906103309190611409565b610849565b005b610351600480360381019061034c9190611436565b610940565b60405161035e919061130d565b60405180910390f35b610381600480360381019061037c9190611409565b6109c7565b005b606060038054610392906114a5565b80601f01602080910402602001604051908101604052809291908181526020018280546103be906114a5565b801561040b5780601f106103e05761010080835404028352916020019161040b565b820191906000526020600020905b8154815290600101906020018083116103ee57829003601f168201915b5050505050905090565b600080610420610a9b565b905061042d818585610aa3565b600191505092915050565b600660009054906101000a900473ffffffffffffffffffffffffffffffffffffffff1673ffffffffffffffffffffffffffffffffffffffff163373ffffffffffffffffffffffffffffffffffffffff16146104c8576040517f08c379a00000000000000000000000000000000000000000000000000000000081526004016104bf90611548565b60405180910390fd5b6104d28282610ab5565b7fcc16f5dbb4873280815c1ee09dbd06736cffcc184412cf7a71a0fdb75d397ca58282604051610503929190611568565b60405180910390a15050565b6000600254905090565b600080610524610a9b565b9050610531858285610b37565b61053c858585610bcb565b60019150509392505050565b60006012905090565b61056261055c610a9b565b82610ab5565b50565b600660009054906101000a900473ffffffffffffffffffffffffffffffffffffffff1681565b60008060008373ffffffffffffffffffffffffffffffffffffffff1673ffffffffffffffffffffffffffffffffffffffff168152602001908152602001600020549050919050565b600660009054906101000a900473ffffffffffffffffffffffffffffffffffffffff1673ffffffffffffffffffffffffffffffffffffffff163373ffffffffffffffffffffffffffffffffffffffff1614610663576040517f08c379a000000000000000000000000000000000000000000000000000000000815260040161065a90611548565b60405180910390fd5b61066e838383610bcb565b505050565b6106858261067f610a9b565b83610b37565b61068f8282610ab5565b5050565b6000600560009054906101000a900473ffffffffffffffffffffffffffffffffffffffff16905090565b6060600480546106cc906114a5565b80601f01602080910402602001604051908101604052809291908181526020018280546106f8906114a5565b80156107455780601f1061071a57610100808354040283529160200191610745565b820191906000526020600020905b81548152906001019060200180831161072857829003601f168201915b5050505050905090565b600660009054906101000a900473ffffffffffffffffffffffffffffffffffffffff1673ffffffffffffffffffffffffffffffffffffffff163373ffffffffffffffffffffffffffffffffffffffff16146107df576040517f08c379a00000000000000000000000000000000000000000000000000000000081526004016107d690611548565b60405180910390fd5b6107e98282610cbf565b7f2499a5330ab0979cc612135e7883ebc3cd5c9f7a8508f042540c34723348f632338260405161081a929190611568565b60405180910390a15050565b600080610831610a9b565b905061083e818585610bcb565b600191505092915050565b600660009054906101000a900473ffffffffffffffffffffffffffffffffffffffff1673ffffffffffffffffffffffffffffffffffffffff163373ffffffffffffffffffffffffffffffffffffffff16146108d9576040517f08c379a00000000000000000000000000000000000000000000000000000000081526004016108d090611548565b60405180910390fd5b6108f581600560149054906101000a900460ff1660ff16610cbf565b7f6747c18256028de8cd2fa276e75d6b4193ac34c1b55fa8e71797ac132d32ad3981600560149054906101000a900460ff166040516109359291906115cc565b60405180910390a150565b6000600160008473ffffffffffffffffffffffffffffffffffffffff1673ffffffffffffffffffffffffffffffffffffffff16815260200190815260200160002060008373ffffffffffffffffffffffffffffffffffffffff1673ffffffffffffffffffffffffffffffffffffffff16815260200190815260200160002054905092915050565b600560009054906101000a900473ffffffffffffffffffffffffffffffffffffffff1673ffffffffffffffffffffffffffffffffffffffff163373ffffffffffffffffffffffffffffffffffffffff1614610a57576040517f08c379a0000000000000000000000000000000000000000000000000000000008152600401610a4e90611667565b60405180910390fd5b80600560006101000a81548173ffffffffffffffffffffffffffffffffffffffff021916908373ffffffffffffffffffffffffffffffffffffffff16021790555050565b600033905090565b610ab08383836001610d41565b505050565b600073ffffffffffffffffffffffffffffffffffffffff168273ffffffffffffffffffffffffffffffffffffffff1603610b275760006040517f96c6fd1e000000000000000000000000000000000000000000000000000000008152600401610b1e91906113ee565b60405180910390fd5b610b3382600083610f18565b5050565b6000610b438484610940565b90507fffffffffffffffffffffffffffffffffffffffffffffffffffffffffffffffff8114610bc55781811015610bb5578281836040517ffb8f41b2000000000000000000000000000000000000000000000000000000008152600401610bac93929190611687565b60405180910390fd5b610bc484848484036000610d41565b5b50505050565b600073ffffffffffffffffffffffffffffffffffffffff168373ffffffffffffffffffffffffffffffffffffffff1603610c3d5760006040517f96c6fd1e000000000000000000000000000000000000000000000000000000008152600401610c3491906113ee565b60405180910390fd5b600073ffffffffffffffffffffffffffffffffffffffff168273ffffffffffffffffffffffffffffffffffffffff1603610caf5760006040517fec442f05000000000000000000000000000000000000000000000000000000008152600401610ca691906113ee565b60405180910390fd5b610cba838383610f18565b505050565b600073ffffffffffffffffffffffffffffffffffffffff168273ffffffffffffffffffffffffffffffffffffffff1603610d315760006040517fec442f05000000000000000000000000000000000000000000000000000000008152600401610d2891906113ee565b60405180910390fd5b610d3d60008383610f18565b5050565b600073ffffffffffffffffffffffffffffffffffffffff168473ffffffffffffffffffffffffffffffffffffffff1603610db35760006040517fe602df05000000000000000000000000000000000000000000000000000000008152600401610daa91906113ee565b60405180910390fd5b600073ffffffffffffffffffffffffffffffffffffffff168373ffffffffffffffffffffffffffffffffffffffff1603610e255760006040517f94280d62000000000000000000000000000000000000000000000000000000008152600401610e1c91906113ee565b60405180910390fd5b81600160008673ffffffffffffffffffffffffffffffffffffffff1673ffffffffffffffffffffffffffffffffffffffff16815260200190815260200160002060008573ffffffffffffffffffffffffffffffffffffffff1673ffffffffffffffffffffffffffffffffffffffff168152602001908152602001600020819055508015610f12578273ffffffffffffffffffffffffffffffffffffffff168473ffffffffffffffffffffffffffffffffffffffff167f8c5be1e5ebec7d5bd14f71427d1e84f3dd0314c0f7b2291e5b200ac8c7c3b92584604051610f09919061130d565b60405180910390a35b50505050565b600073ffffffffffffffffffffffffffffffffffffffff168373ffffffffffffffffffffffffffffffffffffffff1603610f6a578060026000828254610f5e91906116ed565b9250508190555061103d565b60008060008573ffffffffffffffffffffffffffffffffffffffff1673ffffffffffffffffffffffffffffffffffffffff16815260200190815260200160002054905081811015610ff6578381836040517fe450d38c000000000000000000000000000000000000000000000000000000008152600401610fed93929190611687565b60405180910390fd5b8181036000808673ffffffffffffffffffffffffffffffffffffffff1673ffffffffffffffffffffffffffffffffffffffff16815260200190815260200160002081905550505b600073ffffffffffffffffffffffffffffffffffffffff168273ffffffffffffffffffffffffffffffffffffffff160361108657806002600082825403925050819055506110d3565b806000808473ffffffffffffffffffffffffffffffffffffffff1673ffffffffffffffffffffffffffffffffffffffff168152602001908152602001600020600082825401925050819055505b8173ffffffffffffffffffffffffffffffffffffffff168373ffffffffffffffffffffffffffffffffffffffff167fddf252ad1be2c89b69c2b068fc378daa952ba7f163c4a11628f55a4df523b3ef83604051611130919061130d565b60405180910390a3505050565b600081519050919050565b600082825260208201905092915050565b60005b8381101561117757808201518184015260208101905061115c565b60008484015250505050565b6000601f19601f8301169050919050565b600061119f8261113d565b6111a98185611148565b93506111b9818560208601611159565b6111c281611183565b840191505092915050565b600060208201905081810360008301526111e78184611194565b905092915050565b600080fd5b600073ffffffffffffffffffffffffffffffffffffffff82169050919050565b600061121f826111f4565b9050919050565b61122f81611214565b811461123a57600080fd5b50565b60008135905061124c81611226565b92915050565b6000819050919050565b61126581611252565b811461127057600080fd5b50565b6000813590506112828161125c565b92915050565b6000806040838503121561129f5761129e6111ef565b5b60006112ad8582860161123d565b92505060206112be85828601611273565b9150509250929050565b60008115159050919050565b6112dd816112c8565b82525050565b60006020820190506112f860008301846112d4565b92915050565b61130781611252565b82525050565b600060208201905061132260008301846112fe565b92915050565b600080600060608486031215611341576113406111ef565b5b600061134f8682870161123d565b93505060206113608682870161123d565b925050604061137186828701611273565b9150509250925092565b600060ff82169050919050565b6113918161137b565b82525050565b60006020820190506113ac6000830184611388565b92915050565b6000602082840312156113c8576113c76111ef565b5b60006113d684828501611273565b91505092915050565b6113e881611214565b82525050565b600060208201905061140360008301846113df565b92915050565b60006020828403121561141f5761141e6111ef565b5b600061142d8482850161123d565b91505092915050565b6000806040838503121561144d5761144c6111ef565b5b600061145b8582860161123d565b925050602061146c8582860161123d565b9150509250929050565b7f4e487b7100000000000000000000000000000000000000000000000000000000600052602260045260246000fd5b600060028204905060018216806114bd57607f821691505b6020821081036114d0576114cf611476565b5b50919050565b7f4f6e6c79207468652067616d6520636f6e74726163742063616e2063616c6c2060008201527f746869732066756e6374696f6e00000000000000000000000000000000000000602082015250565b6000611532602d83611148565b915061153d826114d6565b604082019050919050565b6000602082019050818103600083015261156181611525565b9050919050565b600060408201905061157d60008301856113df565b61158a60208301846112fe565b9392505050565b6000819050919050565b60006115b66115b16115ac8461137b565b611591565b611252565b9050919050565b6115c68161159b565b82525050565b60006040820190506115e160008301856113df565b6115ee60208301846115bd565b9392505050565b7f4f6e6c7920746865206f776e6572206f66207468697320636f6e74726163742060008201527f63616e2063616c6c20746869732066756e6374696f6e00000000000000000000602082015250565b6000611651603683611148565b915061165c826115f5565b604082019050919050565b6000602082019050818103600083015261168081611644565b9050919050565b600060608201905061169c60008301866113df565b6116a960208301856112fe565b6116b660408301846112fe565b949350505050565b7f4e487b7100000000000000000000000000000000000000000000000000000000600052601160045260246000fd5b60006116f882611252565b915061170383611252565b925082820190508082111561171b5761171a6116be565b5b9291505056fea2646970667358221220c92ed9d13c0f84ae957f22553ed13475bf8819a2df5aae1ed485d47a6b6765ef64736f6c6343000813003360806040523480156200001157600080fd5b506040516200423e3803806200423e83398181016040528101906200003791906200018a565b6040518060400160405280600981526020017f41454d6f6e7374657200000000000000000000000000000000000000000000008152506040518060400160405280600381526020017f41454d00000000000000000000000000000000000000000000000000000000008152508160009081620000b4919062000436565b508060019081620000c6919062000436565b5050506000600b8190555042600c8190555080600d60006101000a81548173ffffffffffffffffffffffffffffffffffffffff021916908373ffffffffffffffffffffffffffffffffffffffff160217905550506200051d565b600080fd5b600073ffffffffffffffffffffffffffffffffffffffff82169050919050565b6000620001528262000125565b9050919050565b620001648162000145565b81146200017057600080fd5b50565b600081519050620001848162000159565b92915050565b600060208284031215620001a357620001a262000120565b5b6000620001b38482850162000173565b91505092915050565b600081519050919050565b7f4e487b7100000000000000000000000000000000000000000000000000000000600052604160045260246000fd5b7f4e487b7100000000000000000000000000000000000000000000000000000000600052602260045260246000fd5b600060028204905060018216806200023e57607f821691505b602082108103620002545762000253620001f6565b5b50919050565b60008190508160005260206000209050919050565b60006020601f8301049050919050565b600082821b905092915050565b600060088302620002be7fffffffffffffffffffffffffffffffffffffffffffffffffffffffffffffffff826200027f565b620002ca86836200027f565b95508019841693508086168417925050509392505050565b6000819050919050565b6000819050919050565b600062000317620003116200030b84620002e2565b620002ec565b620002e2565b9050919050565b6000819050919050565b6200033383620002f6565b6200034b62000342826200031e565b8484546200028c565b825550505050565b600090565b6200036262000353565b6200036f81848462000328565b505050565b5b8181101562000397576200038b60008262000358565b60018101905062000375565b5050565b601f821115620003e657620003b0816200025a565b620003bb846200026f565b81016020851015620003cb578190505b620003e3620003da856200026f565b83018262000374565b50505b505050565b600082821c905092915050565b60006200040b60001984600802620003eb565b1980831691505092915050565b6000620004268383620003f8565b9150826002028217905092915050565b6200044182620001bc565b67ffffffffffffffff8111156200045d576200045c620001c7565b5b62000469825462000225565b620004768282856200039b565b600060209050601f831160018114620004ae576000841562000499578287015190505b620004a5858262000418565b86555062000515565b601f198416620004be866200025a565b60005b82811015620004e857848901518255600182019150602085019450602081019050620004c1565b8683101562000508578489015162000504601f891682620003f8565b8355505b6001600288020188555050505b505050505050565b613d11806200052d6000396000f3fe608060405234801561001057600080fd5b506004361061014d5760003560e01c806357d34d32116100c3578063b57498dc1161007c578063b57498dc146103ed578063b88d4fde1461041d578063c87b56dd14610439578063dc88cf7814610469578063e289f1a714610499578063e985e9c5146104c95761014d565b806357d34d32146103055780636352211e1461033557806363df0ef71461036557806370a082311461038357806395d89b41146103b3578063a22cb465146103d15761014d565b806323b872dd1161011557806323b872dd1461021c578063254496be146102385780633bb3a24d1461026d57806342842e0e1461029d578063436882d3146102b95780634f8572c4146102e95761014d565b806301ffc9a71461015257806306fdde0314610182578063081812fc146101a0578063095ea7b3146101d05780631e58c923146101ec575b600080fd5b61016c60048036038101906101679190612b64565b6104f9565b6040516101799190612bac565b60405180910390f35b61018a61055a565b6040516101979190612c57565b60405180910390f35b6101ba60048036038101906101b59190612caf565b6105ec565b6040516101c79190612d1d565b60405180910390f35b6101ea60048036038101906101e59190612d64565b610608565b005b61020660048036038101906102019190612da4565b61061e565b6040516102139190612f26565b60405180910390f35b61023660048036038101906102319190612f48565b6107bd565b005b610252600480360381019061024d9190612d64565b6108bf565b60405161026496959493929190612fb9565b60405180910390f35b61028760048036038101906102829190612caf565b610949565b6040516102949190612c57565b60405180910390f35b6102b760048036038101906102b29190612f48565b61095b565b005b6102d360048036038101906102ce919061314f565b61097b565b6040516102e091906131ab565b60405180910390f35b61030360048036038101906102fe9190612f48565b610d7a565b005b61031f600480360381019061031a9190612caf565b611267565b60405161032c9190613241565b60405180910390f35b61034f600480360381019061034a9190612caf565b61132f565b60405161035c9190612d1d565b60405180910390f35b61036d611341565b60405161037a9190612d1d565b60405180910390f35b61039d60048036038101906103989190612da4565b611367565b6040516103aa91906131ab565b60405180910390f35b6103bb611421565b6040516103c89190612c57565b60405180910390f35b6103eb60048036038101906103e69190613288565b6114b3565b005b61040760048036038101906104029190612da4565b6114c9565b60405161041491906131ab565b60405180910390f35b61043760048036038101906104329190613369565b6114e1565b005b610453600480360381019061044e9190612caf565b6114fe565b6040516104609190612c57565b60405180910390f35b610483600480360381019061047e9190612da4565b611611565b60405161049091906134f8565b60405180910390f35b6104b360048036038101906104ae9190612d64565b611700565b6040516104c091906131ab565b60405180910390f35b6104e360048036038101906104de919061351a565b611731565b6040516104f09190612bac565b60405180910390f35b6000634906490660e01b7bffffffffffffffffffffffffffffffffffffffffffffffffffffffff1916827bffffffffffffffffffffffffffffffffffffffffffffffffffffffff191614806105535750610552826117c5565b5b9050919050565b60606000805461056990613589565b80601f016020809104026020016040519081016040528092919081815260200182805461059590613589565b80156105e25780601f106105b7576101008083540402835291602001916105e2565b820191906000526020600020905b8154815290600101906020018083116105c557829003601f168201915b5050505050905090565b60006105f7826118a7565b506106018261192f565b9050919050565b61061a828261061561196c565b611974565b5050565b60608060005b600a60008573ffffffffffffffffffffffffffffffffffffffff1673ffffffffffffffffffffffffffffffffffffffff168152602001908152602001600020805490508110156107b35760076000600a60008773ffffffffffffffffffffffffffffffffffffffff1673ffffffffffffffffffffffffffffffffffffffff16815260200190815260200160002083815481106106c3576106c26135ba565b5b906000526020600020015481526020019081526020016000206040518060c0016040529081600082015481526020016001820160009054906101000a900460ff1660ff1660ff1681526020016001820160019054906101000a900460ff1660ff1660ff1681526020016001820160029054906101000a900460ff1660ff1660ff1681526020016001820160039054906101000a900460ff1660ff1660ff1681526020016001820160049054906101000a900460ff1660ff1660ff1681525050828281518110610795576107946135ba565b5b602002602001018190525080806107ab90613618565b915050610624565b5080915050919050565b600073ffffffffffffffffffffffffffffffffffffffff168273ffffffffffffffffffffffffffffffffffffffff160361082f5760006040517f64a0ae920000000000000000000000000000000000000000000000000000000081526004016108269190612d1d565b60405180910390fd5b6000610843838361083e61196c565b611986565b90508373ffffffffffffffffffffffffffffffffffffffff168173ffffffffffffffffffffffffffffffffffffffff16146108b9578382826040517f64283d7b0000000000000000000000000000000000000000000000000000000081526004016108b093929190613660565b60405180910390fd5b50505050565b6008602052816000526040600020602052806000526040600020600091509150508060000154908060010160009054906101000a900460ff16908060010160019054906101000a900460ff16908060010160029054906101000a900460ff16908060010160039054906101000a900460ff16908060010160049054906101000a900460ff16905086565b6060610954826114fe565b9050919050565b610976838383604051806020016040528060008152506114e1565b505050565b6000600d60009054906101000a900473ffffffffffffffffffffffffffffffffffffffff1673ffffffffffffffffffffffffffffffffffffffff163373ffffffffffffffffffffffffffffffffffffffff1614610a0d576040517f08c379a0000000000000000000000000000000000000000000000000000000008152600401610a0490613709565b60405180910390fd5b6001600b6000828254610a209190613729565b9250508190555060006040518060c00160405280600b548152602001610a44611ba0565b60ff168152602001610a54611ba0565b60ff1681526020016005610a66611ba0565b610a709190613729565b60ff168152602001610a80611ba0565b60ff168152602001600160ff168152509050600a60008573ffffffffffffffffffffffffffffffffffffffff1673ffffffffffffffffffffffffffffffffffffffff168152602001908152602001600020600b54908060018154018082558091505060019003906000526020600020016000909190919091505580600860008673ffffffffffffffffffffffffffffffffffffffff1673ffffffffffffffffffffffffffffffffffffffff1681526020019081526020016000206000600b5481526020019081526020016000206000820151816000015560208201518160010160006101000a81548160ff021916908360ff16021790555060408201518160010160016101000a81548160ff021916908360ff16021790555060608201518160010160026101000a81548160ff021916908360ff16021790555060808201518160010160036101000a81548160ff021916908360ff16021790555060a08201518160010160046101000a81548160ff021916908360ff1602179055509050506001600960008673ffffffffffffffffffffffffffffffffffffffff1673ffffffffffffffffffffffffffffffffffffffff16815260200190815260200160002054610c4b9190613729565b600960008673ffffffffffffffffffffffffffffffffffffffff1673ffffffffffffffffffffffffffffffffffffffff16815260200190815260200160002081905550610c9a84600b54611bfa565b610ca6600b5484611cf3565b8060076000600b5481526020019081526020016000206000820151816000015560208201518160010160006101000a81548160ff021916908360ff16021790555060408201518160010160016101000a81548160ff021916908360ff16021790555060608201518160010160026101000a81548160ff021916908360ff16021790555060808201518160010160036101000a81548160ff021916908360ff16021790555060a08201518160010160046101000a81548160ff021916908360ff160217905550905050600b5491505092915050565b600d60009054906101000a900473ffffffffffffffffffffffffffffffffffffffff1673ffffffffffffffffffffffffffffffffffffffff163373ffffffffffffffffffffffffffffffffffffffff1614610e0a576040517f08c379a0000000000000000000000000000000000000000000000000000000008152600401610e0190613709565b60405180910390fd5b610e15838383611d4f565b6000600860008573ffffffffffffffffffffffffffffffffffffffff1673ffffffffffffffffffffffffffffffffffffffff16815260200190815260200160002060008381526020019081526020016000206040518060c0016040529081600082015481526020016001820160009054906101000a900460ff1660ff1660ff1681526020016001820160019054906101000a900460ff1660ff1660ff1681526020016001820160029054906101000a900460ff1660ff1660ff1681526020016001820160039054906101000a900460ff1660ff1660ff1681526020016001820160049054906101000a900460ff1660ff1660ff16815250509050600860008573ffffffffffffffffffffffffffffffffffffffff1673ffffffffffffffffffffffffffffffffffffffff16815260200190815260200160002060008381526020019081526020016000206000808201600090556001820160006101000a81549060ff02191690556001820160016101000a81549060ff02191690556001820160026101000a81549060ff02191690556001820160036101000a81549060ff02191690556001820160046101000a81549060ff0219169055505080600860008573ffffffffffffffffffffffffffffffffffffffff1673ffffffffffffffffffffffffffffffffffffffff16815260200190815260200160002060008481526020019081526020016000206000820151816000015560208201518160010160006101000a81548160ff021916908360ff16021790555060408201518160010160016101000a81548160ff021916908360ff16021790555060608201518160010160026101000a81548160ff021916908360ff16021790555060808201518160010160036101000a81548160ff021916908360ff16021790555060a08201518160010160046101000a81548160ff021916908360ff1602179055509050506001600960008673ffffffffffffffffffffffffffffffffffffffff1673ffffffffffffffffffffffffffffffffffffffff1681526020019081526020016000205461111d919061375d565b600960008673ffffffffffffffffffffffffffffffffffffffff1673ffffffffffffffffffffffffffffffffffffffff168152602001908152602001600020819055506001600960008573ffffffffffffffffffffffffffffffffffffffff1673ffffffffffffffffffffffffffffffffffffffff168152602001908152602001600020546111ac9190613729565b600960008573ffffffffffffffffffffffffffffffffffffffff1673ffffffffffffffffffffffffffffffffffffffff168152602001908152602001600020819055506111f98285611ebc565b600a60008473ffffffffffffffffffffffffffffffffffffffff1673ffffffffffffffffffffffffffffffffffffffff168152602001908152602001600020600b54908060018154018082558091505060019003906000526020600020016000909190919091505550505050565b61126f612ab3565b600760008381526020019081526020016000206040518060c0016040529081600082015481526020016001820160009054906101000a900460ff1660ff1660ff1681526020016001820160019054906101000a900460ff1660ff1660ff1681526020016001820160029054906101000a900460ff1660ff1660ff1681526020016001820160039054906101000a900460ff1660ff1660ff1681526020016001820160049054906101000a900460ff1660ff1660ff16815250509050919050565b600061133a826118a7565b9050919050565b600d60009054906101000a900473ffffffffffffffffffffffffffffffffffffffff1681565b60008073ffffffffffffffffffffffffffffffffffffffff168273ffffffffffffffffffffffffffffffffffffffff16036113da5760006040517f89c62b640000000000000000000000000000000000000000000000000000000081526004016113d19190612d1d565b60405180910390fd5b600360008373ffffffffffffffffffffffffffffffffffffffff1673ffffffffffffffffffffffffffffffffffffffff168152602001908152602001600020549050919050565b60606001805461143090613589565b80601f016020809104026020016040519081016040528092919081815260200182805461145c90613589565b80156114a95780601f1061147e576101008083540402835291602001916114a9565b820191906000526020600020905b81548152906001019060200180831161148c57829003601f168201915b5050505050905090565b6114c56114be61196c565b83836120fb565b5050565b60096020528060005260406000206000915090505481565b6114ec8484846107bd565b6114f88484848461226a565b50505050565b6060611509826118a7565b50600060066000848152602001908152602001600020805461152a90613589565b80601f016020809104026020016040519081016040528092919081815260200182805461155690613589565b80156115a35780601f10611578576101008083540402835291602001916115a3565b820191906000526020600020905b81548152906001019060200180831161158657829003601f168201915b5050505050905060006115b4612421565b905060008151036115c957819250505061160c565b6000825111156115fe5780826040516020016115e69291906137cd565b6040516020818303038152906040529250505061160c565b61160784612438565b925050505b919050565b60608060005b600a60008573ffffffffffffffffffffffffffffffffffffffff1673ffffffffffffffffffffffffffffffffffffffff168152602001908152602001600020805490508110156116f6576116c5600a60008673ffffffffffffffffffffffffffffffffffffffff1673ffffffffffffffffffffffffffffffffffffffff16815260200190815260200160002082815481106116b5576116b46135ba565b5b90600052602060002001546114fe565b8282815181106116d8576116d76135ba565b5b602002602001018190525080806116ee90613618565b915050611617565b5080915050919050565b600a602052816000526040600020818154811061171c57600080fd5b90600052602060002001600091509150505481565b6000600560008473ffffffffffffffffffffffffffffffffffffffff1673ffffffffffffffffffffffffffffffffffffffff16815260200190815260200160002060008373ffffffffffffffffffffffffffffffffffffffff1673ffffffffffffffffffffffffffffffffffffffff16815260200190815260200160002060009054906101000a900460ff16905092915050565b60007f80ac58cd000000000000000000000000000000000000000000000000000000007bffffffffffffffffffffffffffffffffffffffffffffffffffffffff1916827bffffffffffffffffffffffffffffffffffffffffffffffffffffffff1916148061189057507f5b5e139f000000000000000000000000000000000000000000000000000000007bffffffffffffffffffffffffffffffffffffffffffffffffffffffff1916827bffffffffffffffffffffffffffffffffffffffffffffffffffffffff1916145b806118a0575061189f826124a1565b5b9050919050565b6000806118b38361250b565b9050600073ffffffffffffffffffffffffffffffffffffffff168173ffffffffffffffffffffffffffffffffffffffff160361192657826040517f7e27328900000000000000000000000000000000000000000000000000000000815260040161191d91906131ab565b60405180910390fd5b80915050919050565b60006004600083815260200190815260200160002060009054906101000a900473ffffffffffffffffffffffffffffffffffffffff169050919050565b600033905090565b6119818383836001612548565b505050565b6000806119928461250b565b9050600073ffffffffffffffffffffffffffffffffffffffff168373ffffffffffffffffffffffffffffffffffffffff16146119d4576119d381848661270d565b5b600073ffffffffffffffffffffffffffffffffffffffff168173ffffffffffffffffffffffffffffffffffffffff1614611a6557611a16600085600080612548565b6001600360008373ffffffffffffffffffffffffffffffffffffffff1673ffffffffffffffffffffffffffffffffffffffff168152602001908152602001600020600082825403925050819055505b600073ffffffffffffffffffffffffffffffffffffffff168573ffffffffffffffffffffffffffffffffffffffff1614611ae8576001600360008773ffffffffffffffffffffffffffffffffffffffff1673ffffffffffffffffffffffffffffffffffffffff168152602001908152602001600020600082825401925050819055505b846002600086815260200190815260200160002060006101000a81548173ffffffffffffffffffffffffffffffffffffffff021916908373ffffffffffffffffffffffffffffffffffffffff160217905550838573ffffffffffffffffffffffffffffffffffffffff168273ffffffffffffffffffffffffffffffffffffffff167fddf252ad1be2c89b69c2b068fc378daa952ba7f163c4a11628f55a4df523b3ef60405160405180910390a4809150509392505050565b60006001600a3342600143611bb5919061375d565b40604051602001611bc893929190613885565b6040516020818303038152906040528051906020012060001c611beb91906138f1565b611bf59190613729565b905090565b600073ffffffffffffffffffffffffffffffffffffffff168273ffffffffffffffffffffffffffffffffffffffff1603611c6c5760006040517f64a0ae92000000000000000000000000000000000000000000000000000000008152600401611c639190612d1d565b60405180910390fd5b6000611c7a83836000611986565b9050600073ffffffffffffffffffffffffffffffffffffffff168173ffffffffffffffffffffffffffffffffffffffff1614611cee5760006040517f73c6ac6e000000000000000000000000000000000000000000000000000000008152600401611ce59190612d1d565b60405180910390fd5b505050565b80600660008481526020019081526020016000209081611d139190613ace565b507ff8e1a15aba9398e019f0b49df1a4fde98ee17ae345cb5f6b5e2c27f5033e8ce782604051611d4391906131ab565b60405180910390a15050565b600073ffffffffffffffffffffffffffffffffffffffff168273ffffffffffffffffffffffffffffffffffffffff1603611dc15760006040517f64a0ae92000000000000000000000000000000000000000000000000000000008152600401611db89190612d1d565b60405180910390fd5b6000611dcf83836000611986565b9050600073ffffffffffffffffffffffffffffffffffffffff168173ffffffffffffffffffffffffffffffffffffffff1603611e4257816040517f7e273289000000000000000000000000000000000000000000000000000000008152600401611e3991906131ab565b60405180910390fd5b8373ffffffffffffffffffffffffffffffffffffffff168173ffffffffffffffffffffffffffffffffffffffff1614611eb6578382826040517f64283d7b000000000000000000000000000000000000000000000000000000008152600401611ead93929190613660565b60405180910390fd5b50505050565b600080600090505b600a60008473ffffffffffffffffffffffffffffffffffffffff1673ffffffffffffffffffffffffffffffffffffffff16815260200190815260200160002080549050811015611f875783600a60008573ffffffffffffffffffffffffffffffffffffffff1673ffffffffffffffffffffffffffffffffffffffff1681526020019081526020016000208281548110611f6057611f5f6135ba565b5b906000526020600020015403611f74578091505b8080611f7f90613618565b915050611ec4565b50600a60008373ffffffffffffffffffffffffffffffffffffffff1673ffffffffffffffffffffffffffffffffffffffff1681526020019081526020016000206001600a60008573ffffffffffffffffffffffffffffffffffffffff1673ffffffffffffffffffffffffffffffffffffffff16815260200190815260200160002080549050612016919061375d565b81548110612027576120266135ba565b5b9060005260206000200154600a60008473ffffffffffffffffffffffffffffffffffffffff1673ffffffffffffffffffffffffffffffffffffffff1681526020019081526020016000208281548110612083576120826135ba565b5b9060005260206000200181905550600a60008373ffffffffffffffffffffffffffffffffffffffff1673ffffffffffffffffffffffffffffffffffffffff1681526020019081526020016000208054806120e0576120df613ba0565b5b60019003818190600052602060002001600090559055505050565b600073ffffffffffffffffffffffffffffffffffffffff168273ffffffffffffffffffffffffffffffffffffffff160361216c57816040517f5b08ba180000000000000000000000000000000000000000000000000000000081526004016121639190612d1d565b60405180910390fd5b80600560008573ffffffffffffffffffffffffffffffffffffffff1673ffffffffffffffffffffffffffffffffffffffff16815260200190815260200160002060008473ffffffffffffffffffffffffffffffffffffffff1673ffffffffffffffffffffffffffffffffffffffff16815260200190815260200160002060006101000a81548160ff0219169083151502179055508173ffffffffffffffffffffffffffffffffffffffff168373ffffffffffffffffffffffffffffffffffffffff167f17307eab39ab6107e8899845ad3d59bd9653f200f220920489ca2b5937696c318360405161225d9190612bac565b60405180910390a3505050565b60008373ffffffffffffffffffffffffffffffffffffffff163b111561241b578273ffffffffffffffffffffffffffffffffffffffff1663150b7a026122ae61196c565b8685856040518563ffffffff1660e01b81526004016122d09493929190613c24565b6020604051808303816000875af192505050801561230c57506040513d601f19601f820116820180604052508101906123099190613c85565b60015b612390573d806000811461233c576040519150601f19603f3d011682016040523d82523d6000602084013e612341565b606091505b50600081510361238857836040517f64a0ae9200000000000000000000000000000000000000000000000000000000815260040161237f9190612d1d565b60405180910390fd5b805181602001fd5b63150b7a0260e01b7bffffffffffffffffffffffffffffffffffffffffffffffffffffffff1916817bffffffffffffffffffffffffffffffffffffffffffffffffffffffff19161461241957836040517f64a0ae920000000000000000000000000000000000000000000000000000000081526004016124109190612d1d565b60405180910390fd5b505b50505050565b606060405180602001604052806000815250905090565b6060612443826118a7565b50600061244e612421565b9050600081511161246e5760405180602001604052806000815250612499565b80612478846127d1565b6040516020016124899291906137cd565b6040516020818303038152906040525b915050919050565b60007f01ffc9a7000000000000000000000000000000000000000000000000000000007bffffffffffffffffffffffffffffffffffffffffffffffffffffffff1916827bffffffffffffffffffffffffffffffffffffffffffffffffffffffff1916149050919050565b60006002600083815260200190815260200160002060009054906101000a900473ffffffffffffffffffffffffffffffffffffffff169050919050565b80806125815750600073ffffffffffffffffffffffffffffffffffffffff168273ffffffffffffffffffffffffffffffffffffffff1614155b156126b5576000612591846118a7565b9050600073ffffffffffffffffffffffffffffffffffffffff168373ffffffffffffffffffffffffffffffffffffffff16141580156125fc57508273ffffffffffffffffffffffffffffffffffffffff168173ffffffffffffffffffffffffffffffffffffffff1614155b801561260f575061260d8184611731565b155b1561265157826040517fa9fbf51f0000000000000000000000000000000000000000000000000000000081526004016126489190612d1d565b60405180910390fd5b81156126b357838573ffffffffffffffffffffffffffffffffffffffff168273ffffffffffffffffffffffffffffffffffffffff167f8c5be1e5ebec7d5bd14f71427d1e84f3dd0314c0f7b2291e5b200ac8c7c3b92560405160405180910390a45b505b836004600085815260200190815260200160002060006101000a81548173ffffffffffffffffffffffffffffffffffffffff021916908373ffffffffffffffffffffffffffffffffffffffff16021790555050505050565b61271883838361289f565b6127cc57600073ffffffffffffffffffffffffffffffffffffffff168373ffffffffffffffffffffffffffffffffffffffff160361278d57806040517f7e27328900000000000000000000000000000000000000000000000000000000815260040161278491906131ab565b60405180910390fd5b81816040517f177e802f0000000000000000000000000000000000000000000000000000000081526004016127c3929190613cb2565b60405180910390fd5b505050565b6060600060016127e084612960565b01905060008167ffffffffffffffff8111156127ff576127fe613024565b5b6040519080825280601f01601f1916602001820160405280156128315781602001600182028036833780820191505090505b509050600082602001820190505b600115612894578080600190039150507f3031323334353637383961626364656600000000000000000000000000000000600a86061a8153600a8581612888576128876138c2565b5b0494506000850361283f575b819350505050919050565b60008073ffffffffffffffffffffffffffffffffffffffff168373ffffffffffffffffffffffffffffffffffffffff161415801561295757508273ffffffffffffffffffffffffffffffffffffffff168473ffffffffffffffffffffffffffffffffffffffff16148061291857506129178484611731565b5b8061295657508273ffffffffffffffffffffffffffffffffffffffff1661293e8361192f565b73ffffffffffffffffffffffffffffffffffffffff16145b5b90509392505050565b600080600090507a184f03e93ff9f4daa797ed6e38ed64bf6a1f01000000000000000083106129be577a184f03e93ff9f4daa797ed6e38ed64bf6a1f01000000000000000083816129b4576129b36138c2565b5b0492506040810190505b6d04ee2d6d415b85acef810000000083106129fb576d04ee2d6d415b85acef810000000083816129f1576129f06138c2565b5b0492506020810190505b662386f26fc100008310612a2a57662386f26fc100008381612a2057612a1f6138c2565b5b0492506010810190505b6305f5e1008310612a53576305f5e1008381612a4957612a486138c2565b5b0492506008810190505b6127108310612a78576127108381612a6e57612a6d6138c2565b5b0492506004810190505b60648310612a9b5760648381612a9157612a906138c2565b5b0492506002810190505b600a8310612aaa576001810190505b80915050919050565b6040518060c0016040528060008152602001600060ff168152602001600060ff168152602001600060ff168152602001600060ff168152602001600060ff1681525090565b6000604051905090565b600080fd5b600080fd5b60007fffffffff0000000000000000000000000000000000000000000000000000000082169050919050565b612b4181612b0c565b8114612b4c57600080fd5b50565b600081359050612b5e81612b38565b92915050565b600060208284031215612b7a57612b79612b02565b5b6000612b8884828501612b4f565b91505092915050565b60008115159050919050565b612ba681612b91565b82525050565b6000602082019050612bc16000830184612b9d565b92915050565b600081519050919050565b600082825260208201905092915050565b60005b83811015612c01578082015181840152602081019050612be6565b60008484015250505050565b6000601f19601f8301169050919050565b6000612c2982612bc7565b612c338185612bd2565b9350612c43818560208601612be3565b612c4c81612c0d565b840191505092915050565b60006020820190508181036000830152612c718184612c1e565b905092915050565b6000819050919050565b612c8c81612c79565b8114612c9757600080fd5b50565b600081359050612ca981612c83565b92915050565b600060208284031215612cc557612cc4612b02565b5b6000612cd384828501612c9a565b91505092915050565b600073ffffffffffffffffffffffffffffffffffffffff82169050919050565b6000612d0782612cdc565b9050919050565b612d1781612cfc565b82525050565b6000602082019050612d326000830184612d0e565b92915050565b612d4181612cfc565b8114612d4c57600080fd5b50565b600081359050612d5e81612d38565b92915050565b60008060408385031215612d7b57612d7a612b02565b5b6000612d8985828601612d4f565b9250506020612d9a85828601612c9a565b9150509250929050565b600060208284031215612dba57612db9612b02565b5b6000612dc884828501612d4f565b91505092915050565b600081519050919050565b600082825260208201905092915050565b6000819050602082019050919050565b612e0681612c79565b82525050565b600060ff82169050919050565b612e2281612e0c565b82525050565b60c082016000820151612e3e6000850182612dfd565b506020820151612e516020850182612e19565b506040820151612e646040850182612e19565b506060820151612e776060850182612e19565b506080820151612e8a6080850182612e19565b5060a0820151612e9d60a0850182612e19565b50505050565b6000612eaf8383612e28565b60c08301905092915050565b6000602082019050919050565b6000612ed382612dd1565b612edd8185612ddc565b9350612ee883612ded565b8060005b83811015612f19578151612f008882612ea3565b9750612f0b83612ebb565b925050600181019050612eec565b5085935050505092915050565b60006020820190508181036000830152612f408184612ec8565b905092915050565b600080600060608486031215612f6157612f60612b02565b5b6000612f6f86828701612d4f565b9350506020612f8086828701612d4f565b9250506040612f9186828701612c9a565b9150509250925092565b612fa481612c79565b82525050565b612fb381612e0c565b82525050565b600060c082019050612fce6000830189612f9b565b612fdb6020830188612faa565b612fe86040830187612faa565b612ff56060830186612faa565b6130026080830185612faa565b61300f60a0830184612faa565b979650505050505050565b600080fd5b600080fd5b7f4e487b7100000000000000000000000000000000000000000000000000000000600052604160045260246000fd5b61305c82612c0d565b810181811067ffffffffffffffff8211171561307b5761307a613024565b5b80604052505050565b600061308e612af8565b905061309a8282613053565b919050565b600067ffffffffffffffff8211156130ba576130b9613024565b5b6130c382612c0d565b9050602081019050919050565b82818337600083830152505050565b60006130f26130ed8461309f565b613084565b90508281526020810184848401111561310e5761310d61301f565b5b6131198482856130d0565b509392505050565b600082601f8301126131365761313561301a565b5b81356131468482602086016130df565b91505092915050565b6000806040838503121561316657613165612b02565b5b600061317485828601612d4f565b925050602083013567ffffffffffffffff81111561319557613194612b07565b5b6131a185828601613121565b9150509250929050565b60006020820190506131c06000830184612f9b565b92915050565b60c0820160008201516131dc6000850182612dfd565b5060208201516131ef6020850182612e19565b5060408201516132026040850182612e19565b5060608201516132156060850182612e19565b5060808201516132286080850182612e19565b5060a082015161323b60a0850182612e19565b50505050565b600060c08201905061325660008301846131c6565b92915050565b61326581612b91565b811461327057600080fd5b50565b6000813590506132828161325c565b92915050565b6000806040838503121561329f5761329e612b02565b5b60006132ad85828601612d4f565b92505060206132be85828601613273565b9150509250929050565b600067ffffffffffffffff8211156132e3576132e2613024565b5b6132ec82612c0d565b9050602081019050919050565b600061330c613307846132c8565b613084565b9050828152602081018484840111156133285761332761301f565b5b6133338482856130d0565b509392505050565b600082601f8301126133505761334f61301a565b5b81356133608482602086016132f9565b91505092915050565b6000806000806080858703121561338357613382612b02565b5b600061339187828801612d4f565b94505060206133a287828801612d4f565b93505060406133b387828801612c9a565b925050606085013567ffffffffffffffff8111156133d4576133d3612b07565b5b6133e08782880161333b565b91505092959194509250565b600081519050919050565b600082825260208201905092915050565b6000819050602082019050919050565b600082825260208201905092915050565b600061343482612bc7565b61343e8185613418565b935061344e818560208601612be3565b61345781612c0d565b840191505092915050565b600061346e8383613429565b905092915050565b6000602082019050919050565b600061348e826133ec565b61349881856133f7565b9350836020820285016134aa85613408565b8060005b858110156134e657848403895281516134c78582613462565b94506134d283613476565b925060208a019950506001810190506134ae565b50829750879550505050505092915050565b600060208201905081810360008301526135128184613483565b905092915050565b6000806040838503121561353157613530612b02565b5b600061353f85828601612d4f565b925050602061355085828601612d4f565b9150509250929050565b7f4e487b7100000000000000000000000000000000000000000000000000000000600052602260045260246000fd5b600060028204905060018216806135a157607f821691505b6020821081036135b4576135b361355a565b5b50919050565b7f4e487b7100000000000000000000000000000000000000000000000000000000600052603260045260246000fd5b7f4e487b7100000000000000000000000000000000000000000000000000000000600052601160045260246000fd5b600061362382612c79565b91507fffffffffffffffffffffffffffffffffffffffffffffffffffffffffffffffff8203613655576136546135e9565b5b600182019050919050565b60006060820190506136756000830186612d0e565b6136826020830185612f9b565b61368f6040830184612d0e565b949350505050565b7f4f6e6c79207468652067616d6520636f6e74726163742063616e2063616c6c2060008201527f746869732066756e6374696f6e00000000000000000000000000000000000000602082015250565b60006136f3602d83612bd2565b91506136fe82613697565b604082019050919050565b60006020820190508181036000830152613722816136e6565b9050919050565b600061373482612c79565b915061373f83612c79565b9250828201905080821115613757576137566135e9565b5b92915050565b600061376882612c79565b915061377383612c79565b925082820390508181111561378b5761378a6135e9565b5b92915050565b600081905092915050565b60006137a782612bc7565b6137b18185613791565b93506137c1818560208601612be3565b80840191505092915050565b60006137d9828561379c565b91506137e5828461379c565b91508190509392505050565b60008160601b9050919050565b6000613809826137f1565b9050919050565b600061381b826137fe565b9050919050565b61383361382e82612cfc565b613810565b82525050565b6000819050919050565b61385461384f82612c79565b613839565b82525050565b6000819050919050565b6000819050919050565b61387f61387a8261385a565b613864565b82525050565b60006138918286613822565b6014820191506138a18285613843565b6020820191506138b1828461386e565b602082019150819050949350505050565b7f4e487b7100000000000000000000000000000000000000000000000000000000600052601260045260246000fd5b60006138fc82612c79565b915061390783612c79565b925082613917576139166138c2565b5b828206905092915050565b60008190508160005260206000209050919050565b60006020601f8301049050919050565b600082821b905092915050565b6000600883026139847fffffffffffffffffffffffffffffffffffffffffffffffffffffffffffffffff82613947565b61398e8683613947565b95508019841693508086168417925050509392505050565b6000819050919050565b60006139cb6139c66139c184612c79565b6139a6565b612c79565b9050919050565b6000819050919050565b6139e5836139b0565b6139f96139f1826139d2565b848454613954565b825550505050565b600090565b613a0e613a01565b613a198184846139dc565b505050565b5b81811015613a3d57613a32600082613a06565b600181019050613a1f565b5050565b601f821115613a8257613a5381613922565b613a5c84613937565b81016020851015613a6b578190505b613a7f613a7785613937565b830182613a1e565b50505b505050565b600082821c905092915050565b6000613aa560001984600802613a87565b1980831691505092915050565b6000613abe8383613a94565b9150826002028217905092915050565b613ad782612bc7565b67ffffffffffffffff811115613af057613aef613024565b5b613afa8254613589565b613b05828285613a41565b600060209050601f831160018114613b385760008415613b26578287015190505b613b308582613ab2565b865550613b98565b601f198416613b4686613922565b60005b82811015613b6e57848901518255600182019150602085019450602081019050613b49565b86831015613b8b5784890151613b87601f891682613a94565b8355505b6001600288020188555050505b505050505050565b7f4e487b7100000000000000000000000000000000000000000000000000000000600052603160045260246000fd5b600081519050919050565b600082825260208201905092915050565b6000613bf682613bcf565b613c008185613bda565b9350613c10818560208601612be3565b613c1981612c0d565b840191505092915050565b6000608082019050613c396000830187612d0e565b613c466020830186612d0e565b613c536040830185612f9b565b8181036060830152613c658184613beb565b905095945050505050565b600081519050613c7f81612b38565b92915050565b600060208284031215613c9b57613c9a612b02565b5b6000613ca984828501613c70565b91505092915050565b6000604082019050613cc76000830185612d0e565b613cd46020830184612f9b565b939250505056fea264697066735822122092efe5a46b3990974f3b7eedb60daf785d3f7d432d84301c01fb5fc066567a8164736f6c63430008130033",
  "immutableReferences": {},
  "source": "// SPDX-License-Identifier: MIT \r\npragma solidity ^0.8.18;\r\n\r\n//Needed to interact with the game coin and the AEthermons\r\nimport \"./AECoin.sol\";\r\nimport \"./AEMonster.sol\";\r\n\r\n//This contract implement the functionalities needed to exhange AEthermons between players\r\ncontract AEMarket{\r\n    //*--------------State variable--------------\r\n    mapping(address => mapping(uint256 => OnSaleMonster)) public sellingMap;        //It defines the on sale monster for each player                     \r\n    mapping(uint256 => OnSaleMonster) sellingList;                                  //All the monster on sale state\r\n    mapping(uint256 => bool) private isOnSale;                                       //Allows better performance (avoid search in the array)\r\n\r\n    AECoinFT public AECoinContractAddress;                        \r\n    AEMonsterNFT public AEMonsterContract; \r\n\r\n    constructor(){\r\n        AECoinContractAddress = new AECoinFT(address(this));\r\n        AEMonsterContract = new AEMonsterNFT(address(this));\r\n    }\r\n\r\n\r\n    //*--------------Structures--------------\r\n    struct OnSaleMonster{         //It defines a sale\r\n        address seller;           //The seller of the token\r\n        uint256 tokenId;          //The identifier of the NFTMonster\r\n        uint256 price;            //The selling price\r\n    }\r\n\r\n\r\n    //*--------------Modifiers--------------\r\n    modifier notOnSale(uint256 tokenId){\r\n        require(isOnSale[tokenId] == false,\"The selected AEthermon was already on sale!\");\r\n        _;\r\n    }\r\n\r\n    modifier onSale(uint256 tokenId){\r\n        require(isOnSale[tokenId] == true,\"The selected AEthermon was not on sale!\");\r\n        _;\r\n    }\r\n\r\n    modifier priceNotBelowZero(uint256 price){\r\n        require(price > 0, \"The selling price must be greater than 0\");\r\n        _;\r\n    }\r\n\r\n    modifier onlyOwner(uint256 tokenId, address caller){\r\n        require(AEMonsterContract.ownerOf(tokenId) == caller, \"Only the owner of the AEthermon can call this function\");\r\n        _;\r\n    }\r\n\r\n    modifier hasEnoughMoney(address player, uint256 tokenId){\r\n        require(AECoinContractAddress.balanceOf(player) >= sellingList[tokenId].price, \"You haven't enough AECoins to buy this monster\");\r\n        _;\r\n    }\r\n\r\n    //*--------------Events--------------\r\n    //TODO : selled , onSale, Retired, ...\r\n    event NewOnSale(uint256 tokenId,address seller,uint256 price);\r\n    event Retired(uint256 tokenId,address seller);\r\n    event Selled(uint256 tokenId, address seller, address buyer);\r\n\r\n    //*--------------Main functionalities--------------\r\n\r\n    //Function to sell a AEthermon   \r\n    function putOnSale(uint256 tokenId, uint256 price) \r\n    external notOnSale(tokenId) onlyOwner(tokenId, msg.sender) priceNotBelowZero(price){ \r\n        sellingMap[msg.sender][tokenId] = OnSaleMonster(msg.sender,tokenId,price);\r\n        sellingList[tokenId] = OnSaleMonster(msg.sender,tokenId,price);\r\n        isOnSale[tokenId] = true;\r\n\r\n        emit NewOnSale(tokenId, msg.sender, price);\r\n    }\r\n\r\n    //Function to retire a monster from the on sale status\r\n    function leaveFromSale(uint256 tokenId)\r\n    external onSale(tokenId) onlyOwner(tokenId,msg.sender){\r\n        delete(sellingMap[msg.sender][tokenId]);\r\n        delete(sellingList[tokenId]);\r\n        isOnSale[tokenId] = false;\r\n\r\n        emit Retired(tokenId,msg.sender);\r\n    }\r\n\r\n    //Function to change the price of an on sale AEthermon\r\n    function changePrince(uint256 tokenId, uint256 newPrice)\r\n    external onSale(tokenId) onlyOwner(tokenId,msg.sender) priceNotBelowZero(newPrice){\r\n        sellingMap[msg.sender][tokenId].price = newPrice;\r\n        sellingList[tokenId].price = newPrice;\r\n        \r\n        emit NewOnSale(tokenId, msg.sender, newPrice); \r\n    }\r\n\r\n    //Function to buy a monster on sale\r\n    function buyOnSaleMonster(uint256 tokenId)\r\n    external onSale(tokenId) hasEnoughMoney(msg.sender,tokenId){\r\n        //Send the coins from buyer to seller\r\n        AECoinContractAddress.transferCoinsFrom(msg.sender, sellingList[tokenId].seller, sellingList[tokenId].price);\r\n        //Define the transfer of the monster\r\n        AEMonsterContract.transferMonster(sellingList[tokenId].seller,msg.sender,tokenId);\r\n        emit Selled(tokenId, sellingList[tokenId].seller, msg.sender);\r\n    }\r\n    \r\n}",
  "sourcePath": "C:\\Users\\HP\\Desktop\\Universit\\Magistrale\\2 anno\\1 Semestre\\Blockchain & DLT\\Progetto\\src\\AEtherMon\\contracts\\AEMarket.sol",
  "compiler": {
    "name": "solc",
    "version": "0.8.19+commit.7dd6d404.Emscripten.clang"
  },
  "schemaVersion": "3.4.16",
  "updatedAt": "2024-01-26T11:03:33.591Z",
  "devdoc": {
    "kind": "dev",
    "methods": {},
    "version": 1
  },
  "userdoc": {
    "kind": "user",
    "methods": {},
    "version": 1
  }
}