{
  "contractName": "AEMonsterNFT",
  "abi": [
    {
      "inputs": [
        {
          "internalType": "address",
          "name": "_gameContractAddress",
          "type": "address"
        }
      ],
      "stateMutability": "nonpayable",
      "type": "constructor"
    },
    {
      "inputs": [
        {
          "internalType": "address",
          "name": "sender",
          "type": "address"
        },
        {
          "internalType": "uint256",
          "name": "tokenId",
          "type": "uint256"
        },
        {
          "internalType": "address",
          "name": "owner",
          "type": "address"
        }
      ],
      "name": "ERC721IncorrectOwner",
      "type": "error"
    },
    {
      "inputs": [
        {
          "internalType": "address",
          "name": "operator",
          "type": "address"
        },
        {
          "internalType": "uint256",
          "name": "tokenId",
          "type": "uint256"
        }
      ],
      "name": "ERC721InsufficientApproval",
      "type": "error"
    },
    {
      "inputs": [
        {
          "internalType": "address",
          "name": "approver",
          "type": "address"
        }
      ],
      "name": "ERC721InvalidApprover",
      "type": "error"
    },
    {
      "inputs": [
        {
          "internalType": "address",
          "name": "operator",
          "type": "address"
        }
      ],
      "name": "ERC721InvalidOperator",
      "type": "error"
    },
    {
      "inputs": [
        {
          "internalType": "address",
          "name": "owner",
          "type": "address"
        }
      ],
      "name": "ERC721InvalidOwner",
      "type": "error"
    },
    {
      "inputs": [
        {
          "internalType": "address",
          "name": "receiver",
          "type": "address"
        }
      ],
      "name": "ERC721InvalidReceiver",
      "type": "error"
    },
    {
      "inputs": [
        {
          "internalType": "address",
          "name": "sender",
          "type": "address"
        }
      ],
      "name": "ERC721InvalidSender",
      "type": "error"
    },
    {
      "inputs": [
        {
          "internalType": "uint256",
          "name": "tokenId",
          "type": "uint256"
        }
      ],
      "name": "ERC721NonexistentToken",
      "type": "error"
    },
    {
      "anonymous": false,
      "inputs": [
        {
          "indexed": true,
          "internalType": "address",
          "name": "owner",
          "type": "address"
        },
        {
          "indexed": true,
          "internalType": "address",
          "name": "approved",
          "type": "address"
        },
        {
          "indexed": true,
          "internalType": "uint256",
          "name": "tokenId",
          "type": "uint256"
        }
      ],
      "name": "Approval",
      "type": "event"
    },
    {
      "anonymous": false,
      "inputs": [
        {
          "indexed": true,
          "internalType": "address",
          "name": "owner",
          "type": "address"
        },
        {
          "indexed": true,
          "internalType": "address",
          "name": "operator",
          "type": "address"
        },
        {
          "indexed": false,
          "internalType": "bool",
          "name": "approved",
          "type": "bool"
        }
      ],
      "name": "ApprovalForAll",
      "type": "event"
    },
    {
      "anonymous": false,
      "inputs": [
        {
          "indexed": false,
          "internalType": "uint256",
          "name": "_fromTokenId",
          "type": "uint256"
        },
        {
          "indexed": false,
          "internalType": "uint256",
          "name": "_toTokenId",
          "type": "uint256"
        }
      ],
      "name": "BatchMetadataUpdate",
      "type": "event"
    },
    {
      "anonymous": false,
      "inputs": [
        {
          "indexed": false,
          "internalType": "uint256",
          "name": "_tokenId",
          "type": "uint256"
        }
      ],
      "name": "MetadataUpdate",
      "type": "event"
    },
    {
      "anonymous": false,
      "inputs": [
        {
          "indexed": true,
          "internalType": "address",
          "name": "from",
          "type": "address"
        },
        {
          "indexed": true,
          "internalType": "address",
          "name": "to",
          "type": "address"
        },
        {
          "indexed": true,
          "internalType": "uint256",
          "name": "tokenId",
          "type": "uint256"
        }
      ],
      "name": "Transfer",
      "type": "event"
    },
    {
      "inputs": [
        {
          "internalType": "address",
          "name": "to",
          "type": "address"
        },
        {
          "internalType": "uint256",
          "name": "tokenId",
          "type": "uint256"
        }
      ],
      "name": "approve",
      "outputs": [],
      "stateMutability": "nonpayable",
      "type": "function"
    },
    {
      "inputs": [
        {
          "internalType": "address",
          "name": "owner",
          "type": "address"
        }
      ],
      "name": "balanceOf",
      "outputs": [
        {
          "internalType": "uint256",
          "name": "",
          "type": "uint256"
        }
      ],
      "stateMutability": "view",
      "type": "function"
    },
    {
      "inputs": [],
      "name": "gameContractAddress",
      "outputs": [
        {
          "internalType": "address",
          "name": "",
          "type": "address"
        }
      ],
      "stateMutability": "view",
      "type": "function"
    },
    {
      "inputs": [
        {
          "internalType": "uint256",
          "name": "tokenId",
          "type": "uint256"
        }
      ],
      "name": "getApproved",
      "outputs": [
        {
          "internalType": "address",
          "name": "",
          "type": "address"
        }
      ],
      "stateMutability": "view",
      "type": "function"
    },
    {
      "inputs": [
        {
          "internalType": "address",
          "name": "owner",
          "type": "address"
        },
        {
          "internalType": "address",
          "name": "operator",
          "type": "address"
        }
      ],
      "name": "isApprovedForAll",
      "outputs": [
        {
          "internalType": "bool",
          "name": "",
          "type": "bool"
        }
      ],
      "stateMutability": "view",
      "type": "function"
    },
    {
      "inputs": [
        {
          "internalType": "address",
          "name": "",
          "type": "address"
        },
        {
          "internalType": "uint256",
          "name": "",
          "type": "uint256"
        }
      ],
      "name": "monsterIdsByAddress",
      "outputs": [
        {
          "internalType": "uint256",
          "name": "",
          "type": "uint256"
        }
      ],
      "stateMutability": "view",
      "type": "function"
    },
    {
      "inputs": [
        {
          "internalType": "address",
          "name": "",
          "type": "address"
        },
        {
          "internalType": "uint256",
          "name": "",
          "type": "uint256"
        }
      ],
      "name": "monstersOwnedBy",
      "outputs": [
        {
          "internalType": "uint256",
          "name": "monsterId",
          "type": "uint256"
        },
        {
          "internalType": "uint8",
          "name": "AP",
          "type": "uint8"
        },
        {
          "internalType": "uint8",
          "name": "DP",
          "type": "uint8"
        },
        {
          "internalType": "uint8",
          "name": "HP",
          "type": "uint8"
        },
        {
          "internalType": "uint8",
          "name": "SP",
          "type": "uint8"
        },
        {
          "internalType": "uint8",
          "name": "level",
          "type": "uint8"
        }
      ],
      "stateMutability": "view",
      "type": "function"
    },
    {
      "inputs": [],
      "name": "name",
      "outputs": [
        {
          "internalType": "string",
          "name": "",
          "type": "string"
        }
      ],
      "stateMutability": "view",
      "type": "function"
    },
    {
      "inputs": [
        {
          "internalType": "address",
          "name": "",
          "type": "address"
        }
      ],
      "name": "numMonstersOwnedBy",
      "outputs": [
        {
          "internalType": "uint256",
          "name": "",
          "type": "uint256"
        }
      ],
      "stateMutability": "view",
      "type": "function"
    },
    {
      "inputs": [
        {
          "internalType": "uint256",
          "name": "tokenId",
          "type": "uint256"
        }
      ],
      "name": "ownerOf",
      "outputs": [
        {
          "internalType": "address",
          "name": "",
          "type": "address"
        }
      ],
      "stateMutability": "view",
      "type": "function"
    },
    {
      "inputs": [
        {
          "internalType": "address",
          "name": "from",
          "type": "address"
        },
        {
          "internalType": "address",
          "name": "to",
          "type": "address"
        },
        {
          "internalType": "uint256",
          "name": "tokenId",
          "type": "uint256"
        }
      ],
      "name": "safeTransferFrom",
      "outputs": [],
      "stateMutability": "nonpayable",
      "type": "function"
    },
    {
      "inputs": [
        {
          "internalType": "address",
          "name": "from",
          "type": "address"
        },
        {
          "internalType": "address",
          "name": "to",
          "type": "address"
        },
        {
          "internalType": "uint256",
          "name": "tokenId",
          "type": "uint256"
        },
        {
          "internalType": "bytes",
          "name": "data",
          "type": "bytes"
        }
      ],
      "name": "safeTransferFrom",
      "outputs": [],
      "stateMutability": "nonpayable",
      "type": "function"
    },
    {
      "inputs": [
        {
          "internalType": "address",
          "name": "operator",
          "type": "address"
        },
        {
          "internalType": "bool",
          "name": "approved",
          "type": "bool"
        }
      ],
      "name": "setApprovalForAll",
      "outputs": [],
      "stateMutability": "nonpayable",
      "type": "function"
    },
    {
      "inputs": [
        {
          "internalType": "bytes4",
          "name": "interfaceId",
          "type": "bytes4"
        }
      ],
      "name": "supportsInterface",
      "outputs": [
        {
          "internalType": "bool",
          "name": "",
          "type": "bool"
        }
      ],
      "stateMutability": "view",
      "type": "function"
    },
    {
      "inputs": [],
      "name": "symbol",
      "outputs": [
        {
          "internalType": "string",
          "name": "",
          "type": "string"
        }
      ],
      "stateMutability": "view",
      "type": "function"
    },
    {
      "inputs": [
        {
          "internalType": "uint256",
          "name": "tokenId",
          "type": "uint256"
        }
      ],
      "name": "tokenURI",
      "outputs": [
        {
          "internalType": "string",
          "name": "",
          "type": "string"
        }
      ],
      "stateMutability": "view",
      "type": "function"
    },
    {
      "inputs": [
        {
          "internalType": "address",
          "name": "from",
          "type": "address"
        },
        {
          "internalType": "address",
          "name": "to",
          "type": "address"
        },
        {
          "internalType": "uint256",
          "name": "tokenId",
          "type": "uint256"
        }
      ],
      "name": "transferFrom",
      "outputs": [],
      "stateMutability": "nonpayable",
      "type": "function"
    },
    {
      "inputs": [
        {
          "internalType": "address",
          "name": "player",
          "type": "address"
        },
        {
          "internalType": "string",
          "name": "tokenURI",
          "type": "string"
        }
      ],
      "name": "buyMonster",
      "outputs": [
        {
          "internalType": "uint256",
          "name": "",
          "type": "uint256"
        }
      ],
      "stateMutability": "nonpayable",
      "type": "function"
    },
    {
      "inputs": [
        {
          "internalType": "address",
          "name": "from",
          "type": "address"
        },
        {
          "internalType": "address",
          "name": "to",
          "type": "address"
        },
        {
          "internalType": "uint256",
          "name": "_tokenId",
          "type": "uint256"
        }
      ],
      "name": "transferMonster",
      "outputs": [],
      "stateMutability": "nonpayable",
      "type": "function"
    },
    {
      "inputs": [
        {
          "internalType": "uint256",
          "name": "monsterId",
          "type": "uint256"
        }
      ],
      "name": "getMonsterFromId",
      "outputs": [
        {
          "components": [
            {
              "internalType": "uint256",
              "name": "monsterId",
              "type": "uint256"
            },
            {
              "internalType": "uint8",
              "name": "AP",
              "type": "uint8"
            },
            {
              "internalType": "uint8",
              "name": "DP",
              "type": "uint8"
            },
            {
              "internalType": "uint8",
              "name": "HP",
              "type": "uint8"
            },
            {
              "internalType": "uint8",
              "name": "SP",
              "type": "uint8"
            },
            {
              "internalType": "uint8",
              "name": "level",
              "type": "uint8"
            }
          ],
          "internalType": "struct AEMonsterNFT.AEMonster",
          "name": "",
          "type": "tuple"
        }
      ],
      "stateMutability": "view",
      "type": "function"
    },
    {
      "inputs": [
        {
          "internalType": "address",
          "name": "player",
          "type": "address"
        }
      ],
      "name": "getMonstersOwnedBy",
      "outputs": [
        {
          "components": [
            {
              "internalType": "uint256",
              "name": "monsterId",
              "type": "uint256"
            },
            {
              "internalType": "uint8",
              "name": "AP",
              "type": "uint8"
            },
            {
              "internalType": "uint8",
              "name": "DP",
              "type": "uint8"
            },
            {
              "internalType": "uint8",
              "name": "HP",
              "type": "uint8"
            },
            {
              "internalType": "uint8",
              "name": "SP",
              "type": "uint8"
            },
            {
              "internalType": "uint8",
              "name": "level",
              "type": "uint8"
            }
          ],
          "internalType": "struct AEMonsterNFT.AEMonster[]",
          "name": "",
          "type": "tuple[]"
        }
      ],
      "stateMutability": "view",
      "type": "function"
    },
    {
      "inputs": [
        {
          "internalType": "address",
          "name": "player",
          "type": "address"
        }
      ],
      "name": "getMonstersURIOwnedBy",
      "outputs": [
        {
          "internalType": "string[]",
          "name": "",
          "type": "string[]"
        }
      ],
      "stateMutability": "view",
      "type": "function"
    },
    {
      "inputs": [
        {
          "internalType": "uint256",
          "name": "_tokenId",
          "type": "uint256"
        }
      ],
      "name": "getTokenURI",
      "outputs": [
        {
          "internalType": "string",
          "name": "",
          "type": "string"
        }
      ],
      "stateMutability": "view",
      "type": "function"
    }
  ],
  "bytecode": "0x60806040523480156200001157600080fd5b506040516200242f3803806200242f8339810160408190526200003491620000c4565b6040518060400160405280600981526020016820a2a6b7b739ba32b960b91b8152506040518060400160405280600381526020016241454d60e81b81525081600090816200008391906200019b565b5060016200009282826200019b565b50506000600b555042600c55600d80546001600160a01b0319166001600160a01b039290921691909117905562000267565b600060208284031215620000d757600080fd5b81516001600160a01b0381168114620000ef57600080fd5b9392505050565b634e487b7160e01b600052604160045260246000fd5b600181811c908216806200012157607f821691505b6020821081036200014257634e487b7160e01b600052602260045260246000fd5b50919050565b601f8211156200019657600081815260208120601f850160051c81016020861015620001715750805b601f850160051c820191505b8181101562000192578281556001016200017d565b5050505b505050565b81516001600160401b03811115620001b757620001b7620000f6565b620001cf81620001c884546200010c565b8462000148565b602080601f831160018114620002075760008415620001ee5750858301515b600019600386901b1c1916600185901b17855562000192565b600085815260208120601f198616915b82811015620002385788860151825594840194600190910190840162000217565b5085821015620002575787850151600019600388901b60f8161c191681555b5050505050600190811b01905550565b6121b880620002776000396000f3fe608060405234801561001057600080fd5b506004361061014d5760003560e01c806357d34d32116100c3578063b57498dc1161007c578063b57498dc146103fe578063b88d4fde1461041e578063c87b56dd14610431578063dc88cf7814610444578063e289f1a714610464578063e985e9c51461047757600080fd5b806357d34d32146102f15780636352211e146103aa57806363df0ef7146103bd57806370a08231146103d057806395d89b41146103e3578063a22cb465146103eb57600080fd5b806323b872dd1161011557806323b872dd146101ef578063254496be146102025780633bb3a24d1461029757806342842e0e146102aa578063436882d3146102bd5780634f8572c4146102de57600080fd5b806301ffc9a71461015257806306fdde031461017a578063081812fc1461018f578063095ea7b3146101ba5780631e58c923146101cf575b600080fd5b610165610160366004611aab565b61048a565b60405190151581526020015b60405180910390f35b6101826104b5565b6040516101719190611b18565b6101a261019d366004611b2b565b610547565b6040516001600160a01b039091168152602001610171565b6101cd6101c8366004611b60565b610570565b005b6101e26101dd366004611b8a565b61057f565b6040516101719190611bee565b6101cd6101fd366004611c3c565b610718565b61025f610210366004611b60565b60086020908152600092835260408084209091529082529020805460019091015460ff808216916101008104821691620100008204811691630100000081048216916401000000009091041686565b6040805196875260ff9586166020880152938516938601939093529083166060850152821660808401521660a082015260c001610171565b6101826102a5366004611b2b565b6107a8565b6101cd6102b8366004611c3c565b6107b3565b6102d06102cb366004611d04565b6107d3565b604051908152602001610171565b6101cd6102ec366004611c3c565b610a31565b61039d6102ff366004611b2b565b6040805160c081018252600080825260208201819052918101829052606081018290526080810182905260a081019190915250600090815260076020908152604091829020825160c0810184528154815260019091015460ff8082169383019390935261010081048316938201939093526201000083048216606082015263010000008304821660808201526401000000009092041660a082015290565b6040516101719190611d66565b6101a26103b8366004611b2b565b610d87565b600d546101a2906001600160a01b031681565b6102d06103de366004611b8a565b610d92565b610182610dda565b6101cd6103f9366004611d74565b610de9565b6102d061040c366004611b8a565b60096020526000908152604090205481565b6101cd61042c366004611db0565b610df4565b61018261043f366004611b2b565b610e0b565b610457610452366004611b8a565b610f1c565b6040516101719190611e2c565b6102d0610472366004611b60565b611019565b610165610485366004611e8e565b61104a565b60006001600160e01b03198216632483248360e11b14806104af57506104af82611078565b92915050565b6060600080546104c490611ec1565b80601f01602080910402602001604051908101604052809291908181526020018280546104f090611ec1565b801561053d5780601f106105125761010080835404028352916020019161053d565b820191906000526020600020905b81548152906001019060200180831161052057829003601f168201915b5050505050905090565b6000610552826110c8565b506000828152600460205260409020546001600160a01b03166104af565b61057b828233611101565b5050565b6001600160a01b0381166000908152600a60205260408120546060919067ffffffffffffffff8111156105b4576105b4611c78565b60405190808252806020026020018201604052801561061457816020015b6040805160c08101825260008082526020808301829052928201819052606082018190526080820181905260a082015282526000199092019101816105d25790505b50905060005b6001600160a01b0384166000908152600a6020526040902054811015610711576001600160a01b0384166000908152600a60205260408120805460079291908490811061066957610669611efb565b600091825260208083209091015483528281019390935260409182019020815160c0810183528154815260019091015460ff80821694830194909452610100810484169282019290925262010000820483166060820152630100000082048316608082015264010000000090910490911660a082015282518390839081106106f3576106f3611efb565b6020026020010181905250808061070990611f27565b91505061061a565b5092915050565b6001600160a01b03821661074757604051633250574960e11b8152600060048201526024015b60405180910390fd5b600061075483833361110e565b9050836001600160a01b0316816001600160a01b0316146107a2576040516364283d7b60e01b81526001600160a01b038086166004830152602482018490528216604482015260640161073e565b50505050565b60606104af82610e0b565b6107ce83838360405180602001604052806000815250610df4565b505050565b600d546000906001600160a01b031633146108005760405162461bcd60e51b815260040161073e90611f40565b6001600b60008282546108139190611f8d565b9250508190555060006040518060c00160405280600b548152602001610837611207565b60ff168152602001610847611207565b60ff168152602001610857611207565b610862906005611f8d565b60ff168152602001610872611207565b60ff9081168252600160209283018190526001600160a01b0388166000818152600a85526040808220600b805482548088018455928552888520909201919091558383526008875281832090548352865280822087518155878701519085018054838a015160608b015160808c015160a08d01518b166401000000000264ff0000000019918c1663010000000263ff00000019938d1662010000029390931663ffff000019948d166101000261ffff1990961697909c1696909617939093179190911698909817979097179690961617909455908152600990935291205491925061095d9190611f8d565b6001600160a01b038516600090815260096020526040902055600b54610984908590611279565b610990600b54846112de565b600b8054600090815260076020908152604091829020845181559084015160019091018054928501516060860151608087015160a09097015160ff94851661ffff1990961695909517610100928516929092029190911763ffff00001916620100009184169190910263ff0000001916176301000000958316959095029490941764ff00000000191664010000000091909216021790915554905092915050565b600d546001600160a01b03163314610a5b5760405162461bcd60e51b815260040161073e90611f40565b610a6683838361132e565b600060086000856001600160a01b03166001600160a01b0316815260200190815260200160002060008381526020019081526020016000206040518060c0016040529081600082015481526020016001820160009054906101000a900460ff1660ff1660ff1681526020016001820160019054906101000a900460ff1660ff1660ff1681526020016001820160029054906101000a900460ff1660ff1660ff1681526020016001820160039054906101000a900460ff1660ff1660ff1681526020016001820160049054906101000a900460ff1660ff1660ff1681525050905060086000856001600160a01b03166001600160a01b0316815260200190815260200160002060008381526020019081526020016000206000808201600090556001820160006101000a81549060ff02191690556001820160016101000a81549060ff02191690556001820160026101000a81549060ff02191690556001820160036101000a81549060ff02191690556001820160046101000a81549060ff021916905550508060086000856001600160a01b03166001600160a01b0316815260200190815260200160002060008481526020019081526020016000206000820151816000015560208201518160010160006101000a81548160ff021916908360ff16021790555060408201518160010160016101000a81548160ff021916908360ff16021790555060608201518160010160026101000a81548160ff021916908360ff16021790555060808201518160010160036101000a81548160ff021916908360ff16021790555060a08201518160010160046101000a81548160ff021916908360ff160217905550905050600160096000866001600160a01b03166001600160a01b0316815260200190815260200160002054610d069190611fa0565b6001600160a01b038086166000908152600960205260408082209390935590851681522054610d36906001611f8d565b6001600160a01b038416600090815260096020526040902055610d5982856113de565b506001600160a01b039091166000908152600a60209081526040822080546001810182559083529120015550565b60006104af826110c8565b60006001600160a01b038216610dbe576040516322718ad960e21b81526000600482015260240161073e565b506001600160a01b031660009081526003602052604090205490565b6060600180546104c490611ec1565b61057b33838361151d565b610dff848484610718565b6107a2848484846115bc565b6060610e16826110c8565b5060008281526006602052604081208054610e3090611ec1565b80601f0160208091040260200160405190810160405280929190818152602001828054610e5c90611ec1565b8015610ea95780601f10610e7e57610100808354040283529160200191610ea9565b820191906000526020600020905b815481529060010190602001808311610e8c57829003601f168201915b505050505090506000610ec760408051602081019091526000815290565b90508051600003610ed9575092915050565b815115610f0b578082604051602001610ef3929190611fb3565b60405160208183030381529060405292505050919050565b610f14846116e5565b949350505050565b6001600160a01b0381166000908152600a60205260408120546060919067ffffffffffffffff811115610f5157610f51611c78565b604051908082528060200260200182016040528015610f8457816020015b6060815260200190600190039081610f6f5790505b50905060005b6001600160a01b0384166000908152600a6020526040902054811015610711576001600160a01b0384166000908152600a602052604090208054610fe9919083908110610fd957610fd9611efb565b9060005260206000200154610e0b565b828281518110610ffb57610ffb611efb565b6020026020010181905250808061101190611f27565b915050610f8a565b600a602052816000526040600020818154811061103557600080fd5b90600052602060002001600091509150505481565b6001600160a01b03918216600090815260056020908152604080832093909416825291909152205460ff1690565b60006001600160e01b031982166380ac58cd60e01b14806110a957506001600160e01b03198216635b5e139f60e01b145b806104af57506301ffc9a760e01b6001600160e01b03198316146104af565b6000818152600260205260408120546001600160a01b0316806104af57604051637e27328960e01b81526004810184905260240161073e565b6107ce838383600161175a565b6000828152600260205260408120546001600160a01b039081169083161561113b5761113b818486611860565b6001600160a01b038116156111795761115860008560008061175a565b6001600160a01b038116600090815260036020526040902080546000190190555b6001600160a01b038516156111a8576001600160a01b0385166000908152600360205260409020805460010190555b60008481526002602052604080822080546001600160a01b0319166001600160a01b0389811691821790925591518793918516917fddf252ad1be2c89b69c2b068fc378daa952ba7f163c4a11628f55a4df523b3ef91a4949350505050565b6000600a3342611218600143611fa0565b60405160609390931b6bffffffffffffffffffffffff1916602084015260348301919091524060548201526074016040516020818303038152906040528051906020012060001c6112699190611fe2565b611274906001611f8d565b905090565b6001600160a01b0382166112a357604051633250574960e11b81526000600482015260240161073e565b60006112b18383600061110e565b90506001600160a01b038116156107ce576040516339e3563760e11b81526000600482015260240161073e565b60008281526006602052604090206112f68282612052565b506040518281527ff8e1a15aba9398e019f0b49df1a4fde98ee17ae345cb5f6b5e2c27f5033e8ce79060200160405180910390a15050565b6001600160a01b03821661135857604051633250574960e11b81526000600482015260240161073e565b60006113668383600061110e565b90506001600160a01b03811661139257604051637e27328960e01b81526004810183905260240161073e565b836001600160a01b0316816001600160a01b0316146107a2576040516364283d7b60e01b81526001600160a01b038086166004830152602482018490528216604482015260640161073e565b6000805b6001600160a01b0383166000908152600a6020526040902054811015611455576001600160a01b0383166000908152600a6020526040902080548591908390811061142f5761142f611efb565b906000526020600020015403611443578091505b8061144d81611f27565b9150506113e2565b506001600160a01b0382166000908152600a60205260409020805461147c90600190611fa0565b8154811061148c5761148c611efb565b9060005260206000200154600a6000846001600160a01b03166001600160a01b0316815260200190815260200160002082815481106114cd576114cd611efb565b60009182526020808320909101929092556001600160a01b0384168152600a9091526040902080548061150257611502612112565b60019003818190600052602060002001600090559055505050565b6001600160a01b03821661154f57604051630b61174360e31b81526001600160a01b038316600482015260240161073e565b6001600160a01b03838116600081815260056020908152604080832094871680845294825291829020805460ff191686151590811790915591519182527f17307eab39ab6107e8899845ad3d59bd9653f200f220920489ca2b5937696c31910160405180910390a3505050565b6001600160a01b0383163b156107a257604051630a85bd0160e11b81526001600160a01b0384169063150b7a02906115fe903390889087908790600401612128565b6020604051808303816000875af1925050508015611639575060408051601f3d908101601f1916820190925261163691810190612165565b60015b6116a2573d808015611667576040519150601f19603f3d011682016040523d82523d6000602084013e61166c565b606091505b50805160000361169a57604051633250574960e11b81526001600160a01b038516600482015260240161073e565b805181602001fd5b6001600160e01b03198116630a85bd0160e11b146116de57604051633250574960e11b81526001600160a01b038516600482015260240161073e565b5050505050565b60606116f0826110c8565b50600061170860408051602081019091526000815290565b905060008151116117285760405180602001604052806000815250611753565b80611732846118c4565b604051602001611743929190611fb3565b6040516020818303038152906040525b9392505050565b808061176e57506001600160a01b03821615155b1561183057600061177e846110c8565b90506001600160a01b038316158015906117aa5750826001600160a01b0316816001600160a01b031614155b80156117bd57506117bb818461104a565b155b156117e65760405163a9fbf51f60e01b81526001600160a01b038416600482015260240161073e565b811561182e5783856001600160a01b0316826001600160a01b03167f8c5be1e5ebec7d5bd14f71427d1e84f3dd0314c0f7b2291e5b200ac8c7c3b92560405160405180910390a45b505b5050600090815260046020526040902080546001600160a01b0319166001600160a01b0392909216919091179055565b61186b838383611957565b6107ce576001600160a01b03831661189957604051637e27328960e01b81526004810182905260240161073e565b60405163177e802f60e01b81526001600160a01b03831660048201526024810182905260440161073e565b606060006118d1836119ba565b600101905060008167ffffffffffffffff8111156118f1576118f1611c78565b6040519080825280601f01601f19166020018201604052801561191b576020820181803683370190505b5090508181016020015b600019016f181899199a1a9b1b9c1cb0b131b232b360811b600a86061a8153600a850494508461192557509392505050565b60006001600160a01b03831615801590610f145750826001600160a01b0316846001600160a01b031614806119915750611991848461104a565b80610f145750506000908152600460205260409020546001600160a01b03908116911614919050565b60008072184f03e93ff9f4daa797ed6e38ed64bf6a1f0160401b83106119f95772184f03e93ff9f4daa797ed6e38ed64bf6a1f0160401b830492506040015b6d04ee2d6d415b85acef81000000008310611a25576d04ee2d6d415b85acef8100000000830492506020015b662386f26fc100008310611a4357662386f26fc10000830492506010015b6305f5e1008310611a5b576305f5e100830492506008015b6127108310611a6f57612710830492506004015b60648310611a81576064830492506002015b600a83106104af5760010192915050565b6001600160e01b031981168114611aa857600080fd5b50565b600060208284031215611abd57600080fd5b813561175381611a92565b60005b83811015611ae3578181015183820152602001611acb565b50506000910152565b60008151808452611b04816020860160208601611ac8565b601f01601f19169290920160200192915050565b6020815260006117536020830184611aec565b600060208284031215611b3d57600080fd5b5035919050565b80356001600160a01b0381168114611b5b57600080fd5b919050565b60008060408385031215611b7357600080fd5b611b7c83611b44565b946020939093013593505050565b600060208284031215611b9c57600080fd5b61175382611b44565b8051825260ff602082015116602083015260ff604082015116604083015260ff606082015116606083015260ff608082015116608083015260ff60a08201511660a08301525050565b6020808252825182820181905260009190848201906040850190845b81811015611c3057611c1d838551611ba5565b9284019260c09290920191600101611c0a565b50909695505050505050565b600080600060608486031215611c5157600080fd5b611c5a84611b44565b9250611c6860208501611b44565b9150604084013590509250925092565b634e487b7160e01b600052604160045260246000fd5b600067ffffffffffffffff80841115611ca957611ca9611c78565b604051601f8501601f19908116603f01168101908282118183101715611cd157611cd1611c78565b81604052809350858152868686011115611cea57600080fd5b858560208301376000602087830101525050509392505050565b60008060408385031215611d1757600080fd5b611d2083611b44565b9150602083013567ffffffffffffffff811115611d3c57600080fd5b8301601f81018513611d4d57600080fd5b611d5c85823560208401611c8e565b9150509250929050565b60c081016104af8284611ba5565b60008060408385031215611d8757600080fd5b611d9083611b44565b915060208301358015158114611da557600080fd5b809150509250929050565b60008060008060808587031215611dc657600080fd5b611dcf85611b44565b9350611ddd60208601611b44565b925060408501359150606085013567ffffffffffffffff811115611e0057600080fd5b8501601f81018713611e1157600080fd5b611e2087823560208401611c8e565b91505092959194509250565b6000602080830181845280855180835260408601915060408160051b870101925083870160005b82811015611e8157603f19888603018452611e6f858351611aec565b94509285019290850190600101611e53565b5092979650505050505050565b60008060408385031215611ea157600080fd5b611eaa83611b44565b9150611eb860208401611b44565b90509250929050565b600181811c90821680611ed557607f821691505b602082108103611ef557634e487b7160e01b600052602260045260246000fd5b50919050565b634e487b7160e01b600052603260045260246000fd5b634e487b7160e01b600052601160045260246000fd5b600060018201611f3957611f39611f11565b5060010190565b6020808252602d908201527f4f6e6c79207468652067616d6520636f6e74726163742063616e2063616c6c2060408201526c3a3434b990333ab731ba34b7b760991b606082015260800190565b808201808211156104af576104af611f11565b818103818111156104af576104af611f11565b60008351611fc5818460208801611ac8565b835190830190611fd9818360208801611ac8565b01949350505050565b600082611fff57634e487b7160e01b600052601260045260246000fd5b500690565b601f8211156107ce57600081815260208120601f850160051c8101602086101561202b5750805b601f850160051c820191505b8181101561204a57828155600101612037565b505050505050565b815167ffffffffffffffff81111561206c5761206c611c78565b6120808161207a8454611ec1565b84612004565b602080601f8311600181146120b5576000841561209d5750858301515b600019600386901b1c1916600185901b17855561204a565b600085815260208120601f198616915b828110156120e4578886015182559484019460019091019084016120c5565b50858210156121025787850151600019600388901b60f8161c191681555b5050505050600190811b01905550565b634e487b7160e01b600052603160045260246000fd5b6001600160a01b038581168252841660208201526040810183905260806060820181905260009061215b90830184611aec565b9695505050505050565b60006020828403121561217757600080fd5b815161175381611a9256fea26469706673582212205e285e38facc9e2b912a77ee8725f28ec6dec6fef351d08d63d10a29097125b464736f6c63430008130033",
  "immutableReferences": {},
  "source": "// SPDX-License-Identifier: MIT \r\npragma solidity ^0.8.18;\r\n\r\nimport \"../node_modules/@openzeppelin/contracts/token/ERC721/extensions/ERC721URIStorage.sol\";\r\n//import \"./Owner.sol\";\r\n\r\ncontract AEMonsterNFT is ERC721URIStorage{\r\n    //*--------------State variables--------------\r\n    //The monster struct\r\n    struct AEMonster{                           //It is used uint8 because the max of a stat is 100\r\n        uint256 monsterId;                      //The tokenId of the NFTs\r\n        uint8 AP;                               //Attack Point\r\n        uint8 DP;                               //Defence Point\r\n        uint8 HP;                               //Health Point\r\n        uint8 SP;                               //Speed Point\r\n        uint8 level;                            //Higher the level stronger the monster (higher stats) //*Starting level is 1, max level is 100\r\n        //TODO; type\r\n    }   \r\n\r\n    //AEMonster[] public monsters;                //All the monsters created so far TODO:Maybe is better replace the use of the array\r\n\r\n    mapping (uint256 => AEMonster) private fromIdToMonster;                         //Map to get the monster stats from its id\r\n    mapping (address =>mapping(uint256 => AEMonster)) public monstersOwnedBy;      //Map the monsters owned by an account\r\n    mapping (address => uint256) public numMonstersOwnedBy;                        //Map the number of monster owned by a player\r\n    mapping(address => uint256[]) public monsterIdsByAddress;                       //The ids of the monsters owned by an account\r\n\r\n\r\n    uint256 private tokenId;                                    //Used to assign unique identifier to each NFT\r\n    uint256 private randomSeed;                                 //Useful for the random number function\r\n\r\n    address public gameContractAddress;                         //The address of the contract that manages all the dapp\r\n \r\n    constructor(address _gameContractAddress) ERC721(\"AEMonster\",\"AEM\"){\r\n        tokenId = 0;\r\n        randomSeed = block.timestamp;                           //Usefull for randomness in the random function\r\n        gameContractAddress = _gameContractAddress;\r\n    }\r\n    \r\n    //*--------------Modifiers--------------\r\n    //*Necessaria per fare in modo che le funzioni siano chiamabili solo dal contratto principale\r\n    modifier onlyGameContract(){\r\n        require(msg.sender == gameContractAddress,\"Only the game contract can call this function\");\r\n        _;\r\n    }\r\n\r\n    //*--------------Main functionalities--------------\r\n    function buyMonster(address player, string memory tokenURI) \r\n        external onlyGameContract returns(uint256){                                //Return the id of the created monster\r\n        //*Creation of the monster stats\r\n        tokenId += 1;\r\n        AEMonster memory newMonster = AEMonster({\r\n            monsterId: tokenId,\r\n            AP: (uint8)(random()),\r\n            DP: (uint8)(random()),\r\n            HP: (uint8)(random() + 5),                //5 is the base HP for each Monster\r\n            SP: (uint8)(random()),\r\n            level : 1                                       \r\n        });\r\n            \r\n        //Add the new monster to the collection\r\n        monsterIdsByAddress[player].push(tokenId);\r\n        //monsters.push(newMonster);\r\n\r\n        //Map the monster to the owner\r\n        monstersOwnedBy[player][tokenId] = newMonster;\r\n\r\n        //Set the number of owned monster for such player\r\n        numMonstersOwnedBy[player] = numMonstersOwnedBy[player] +1;\r\n\r\n            \r\n        //*Creation of the effective  NFT\r\n        _mint(player, tokenId);\r\n        _setTokenURI(tokenId, tokenURI);\r\n\r\n        //*Map the owner with the created monster\r\n        fromIdToMonster[tokenId] = newMonster;\r\n\r\n        return tokenId;\r\n    }\r\n\r\n    //This is needed in order to implement the exchange of monsters, in the market, between players\r\n    function transferMonster(address from, address to, uint256 _tokenId) external onlyGameContract(){\r\n        _transfer(from, to, _tokenId);\r\n        AEMonster memory swap = monstersOwnedBy[from][_tokenId];\r\n        delete(monstersOwnedBy[from][_tokenId]);       \r\n        monstersOwnedBy[to][_tokenId] = swap;\r\n        numMonstersOwnedBy[from] = numMonstersOwnedBy[from] - 1;\r\n        numMonstersOwnedBy[to] = numMonstersOwnedBy[to] + 1;\r\n        removeMonsterIdFromOwnership(_tokenId,from);            //Remove the monsters id from the one associated to the from player\r\n        monsterIdsByAddress[to].push(_tokenId);                  //And add it to the other player\r\n    }\r\n\r\n\r\n    //Return the monster data given its id\r\n    function getMonsterFromId(uint256 monsterId)public view returns(AEMonster memory){\r\n        return fromIdToMonster[monsterId];\r\n    }\r\n\r\n\r\n    //Return the monsters owned by a player\r\n    function getMonstersOwnedBy(address player) public view returns (AEMonster[] memory){\r\n        AEMonster[] memory result = new AEMonster[](monsterIdsByAddress[player].length);\r\n        for(uint256 i = 0;i<monsterIdsByAddress[player].length;i++){    //Loop for all the tokenIds of the owned monsters\r\n            result[i] = fromIdToMonster[ monsterIdsByAddress[player][i]];\r\n        }\r\n        return result;\r\n    }\r\n\r\n\r\n    //Returns the list of URI of the owned monsters\r\n    function getMonstersURIOwnedBy(address player)public view returns(string[] memory){\r\n        string[] memory result = new string[](monsterIdsByAddress[player].length);\r\n        for(uint256 i=0;i<monsterIdsByAddress[player].length;i++){\r\n            result[i] = tokenURI(monsterIdsByAddress[player][i]);\r\n        }\r\n        return result;\r\n    }\r\n\r\n    //Return the URI associated to a monster\r\n    function getTokenURI(uint256 _tokenId) public view returns (string memory) {\r\n        return tokenURI(_tokenId);\r\n    }\r\n\r\n    \r\n    //!Funtion to generate random number\r\n    function random() private view returns (uint256){ \r\n        //TODO: change this implemantation with the use of chainlink VRF : https://docs.chain.link/vrf\r\n        return ((uint( keccak256(abi.encodePacked (msg.sender, block.timestamp, blockhash(block.number - 1)))))%10)+1;\r\n    }\r\n\r\n\r\n    //Needed when an exchange is performed\r\n    function removeMonsterIdFromOwnership(uint256 _tokenId, address player) private{\r\n        uint256 indexToRemove;\r\n        //Find the index in the array where the element is located\r\n        for (uint256 i = 0; i < monsterIdsByAddress[player].length; i++) {\r\n            if (monsterIdsByAddress[player][i] == _tokenId) {\r\n                indexToRemove = i;\r\n            }\r\n        }\r\n\r\n        //Perform the remove\r\n        monsterIdsByAddress[player][indexToRemove] = monsterIdsByAddress[player][monsterIdsByAddress[player].length - 1];\r\n        monsterIdsByAddress[player].pop();\r\n    }\r\n\r\n}",
  "sourcePath": "C:\\Users\\carme\\OneDrive\\Desktop\\AetherMon\\AEtherMon\\contracts\\AEMonster.sol",
  "compiler": {
    "name": "solc",
    "version": "0.8.19+commit.7dd6d404.Emscripten.clang"
  },
  "schemaVersion": "3.4.16",
  "updatedAt": "2024-02-06T08:43:32.663Z",
  "devdoc": {
    "errors": {
      "ERC721IncorrectOwner(address,uint256,address)": [
        {
          "details": "Indicates an error related to the ownership over a particular token. Used in transfers.",
          "params": {
            "owner": "Address of the current owner of a token.",
            "sender": "Address whose tokens are being transferred.",
            "tokenId": "Identifier number of a token."
          }
        }
      ],
      "ERC721InsufficientApproval(address,uint256)": [
        {
          "details": "Indicates a failure with the `operator`s approval. Used in transfers.",
          "params": {
            "operator": "Address that may be allowed to operate on tokens without being their owner.",
            "tokenId": "Identifier number of a token."
          }
        }
      ],
      "ERC721InvalidApprover(address)": [
        {
          "details": "Indicates a failure with the `approver` of a token to be approved. Used in approvals.",
          "params": {
            "approver": "Address initiating an approval operation."
          }
        }
      ],
      "ERC721InvalidOperator(address)": [
        {
          "details": "Indicates a failure with the `operator` to be approved. Used in approvals.",
          "params": {
            "operator": "Address that may be allowed to operate on tokens without being their owner."
          }
        }
      ],
      "ERC721InvalidOwner(address)": [
        {
          "details": "Indicates that an address can't be an owner. For example, `address(0)` is a forbidden owner in EIP-20. Used in balance queries.",
          "params": {
            "owner": "Address of the current owner of a token."
          }
        }
      ],
      "ERC721InvalidReceiver(address)": [
        {
          "details": "Indicates a failure with the token `receiver`. Used in transfers.",
          "params": {
            "receiver": "Address to which tokens are being transferred."
          }
        }
      ],
      "ERC721InvalidSender(address)": [
        {
          "details": "Indicates a failure with the token `sender`. Used in transfers.",
          "params": {
            "sender": "Address whose tokens are being transferred."
          }
        }
      ],
      "ERC721NonexistentToken(uint256)": [
        {
          "details": "Indicates a `tokenId` whose `owner` is the zero address.",
          "params": {
            "tokenId": "Identifier number of a token."
          }
        }
      ]
    },
    "events": {
      "Approval(address,address,uint256)": {
        "details": "Emitted when `owner` enables `approved` to manage the `tokenId` token."
      },
      "ApprovalForAll(address,address,bool)": {
        "details": "Emitted when `owner` enables or disables (`approved`) `operator` to manage all of its assets."
      },
      "BatchMetadataUpdate(uint256,uint256)": {
        "details": "This event emits when the metadata of a range of tokens is changed. So that the third-party platforms such as NFT market could timely update the images and related attributes of the NFTs."
      },
      "MetadataUpdate(uint256)": {
        "details": "This event emits when the metadata of a token is changed. So that the third-party platforms such as NFT market could timely update the images and related attributes of the NFT."
      },
      "Transfer(address,address,uint256)": {
        "details": "Emitted when `tokenId` token is transferred from `from` to `to`."
      }
    },
    "kind": "dev",
    "methods": {
      "approve(address,uint256)": {
        "details": "See {IERC721-approve}."
      },
      "balanceOf(address)": {
        "details": "See {IERC721-balanceOf}."
      },
      "getApproved(uint256)": {
        "details": "See {IERC721-getApproved}."
      },
      "isApprovedForAll(address,address)": {
        "details": "See {IERC721-isApprovedForAll}."
      },
      "name()": {
        "details": "See {IERC721Metadata-name}."
      },
      "ownerOf(uint256)": {
        "details": "See {IERC721-ownerOf}."
      },
      "safeTransferFrom(address,address,uint256)": {
        "details": "See {IERC721-safeTransferFrom}."
      },
      "safeTransferFrom(address,address,uint256,bytes)": {
        "details": "See {IERC721-safeTransferFrom}."
      },
      "setApprovalForAll(address,bool)": {
        "details": "See {IERC721-setApprovalForAll}."
      },
      "supportsInterface(bytes4)": {
        "details": "See {IERC165-supportsInterface}"
      },
      "symbol()": {
        "details": "See {IERC721Metadata-symbol}."
      },
      "tokenURI(uint256)": {
        "details": "See {IERC721Metadata-tokenURI}."
      },
      "transferFrom(address,address,uint256)": {
        "details": "See {IERC721-transferFrom}."
      }
    },
    "version": 1
  },
  "userdoc": {
    "kind": "user",
    "methods": {},
    "version": 1
  }
}