{
  "contractName": "AEMonsterNFT",
  "abi": [
    {
      "inputs": [
        {
          "internalType": "address",
          "name": "_gameContractAddress",
          "type": "address"
        }
      ],
      "stateMutability": "nonpayable",
      "type": "constructor"
    },
    {
      "inputs": [
        {
          "internalType": "address",
          "name": "sender",
          "type": "address"
        },
        {
          "internalType": "uint256",
          "name": "tokenId",
          "type": "uint256"
        },
        {
          "internalType": "address",
          "name": "owner",
          "type": "address"
        }
      ],
      "name": "ERC721IncorrectOwner",
      "type": "error"
    },
    {
      "inputs": [
        {
          "internalType": "address",
          "name": "operator",
          "type": "address"
        },
        {
          "internalType": "uint256",
          "name": "tokenId",
          "type": "uint256"
        }
      ],
      "name": "ERC721InsufficientApproval",
      "type": "error"
    },
    {
      "inputs": [
        {
          "internalType": "address",
          "name": "approver",
          "type": "address"
        }
      ],
      "name": "ERC721InvalidApprover",
      "type": "error"
    },
    {
      "inputs": [
        {
          "internalType": "address",
          "name": "operator",
          "type": "address"
        }
      ],
      "name": "ERC721InvalidOperator",
      "type": "error"
    },
    {
      "inputs": [
        {
          "internalType": "address",
          "name": "owner",
          "type": "address"
        }
      ],
      "name": "ERC721InvalidOwner",
      "type": "error"
    },
    {
      "inputs": [
        {
          "internalType": "address",
          "name": "receiver",
          "type": "address"
        }
      ],
      "name": "ERC721InvalidReceiver",
      "type": "error"
    },
    {
      "inputs": [
        {
          "internalType": "address",
          "name": "sender",
          "type": "address"
        }
      ],
      "name": "ERC721InvalidSender",
      "type": "error"
    },
    {
      "inputs": [
        {
          "internalType": "uint256",
          "name": "tokenId",
          "type": "uint256"
        }
      ],
      "name": "ERC721NonexistentToken",
      "type": "error"
    },
    {
      "anonymous": false,
      "inputs": [
        {
          "indexed": true,
          "internalType": "address",
          "name": "owner",
          "type": "address"
        },
        {
          "indexed": true,
          "internalType": "address",
          "name": "approved",
          "type": "address"
        },
        {
          "indexed": true,
          "internalType": "uint256",
          "name": "tokenId",
          "type": "uint256"
        }
      ],
      "name": "Approval",
      "type": "event"
    },
    {
      "anonymous": false,
      "inputs": [
        {
          "indexed": true,
          "internalType": "address",
          "name": "owner",
          "type": "address"
        },
        {
          "indexed": true,
          "internalType": "address",
          "name": "operator",
          "type": "address"
        },
        {
          "indexed": false,
          "internalType": "bool",
          "name": "approved",
          "type": "bool"
        }
      ],
      "name": "ApprovalForAll",
      "type": "event"
    },
    {
      "anonymous": false,
      "inputs": [
        {
          "indexed": false,
          "internalType": "uint256",
          "name": "_fromTokenId",
          "type": "uint256"
        },
        {
          "indexed": false,
          "internalType": "uint256",
          "name": "_toTokenId",
          "type": "uint256"
        }
      ],
      "name": "BatchMetadataUpdate",
      "type": "event"
    },
    {
      "anonymous": false,
      "inputs": [
        {
          "indexed": false,
          "internalType": "uint256",
          "name": "_tokenId",
          "type": "uint256"
        }
      ],
      "name": "MetadataUpdate",
      "type": "event"
    },
    {
      "anonymous": false,
      "inputs": [
        {
          "indexed": true,
          "internalType": "address",
          "name": "from",
          "type": "address"
        },
        {
          "indexed": true,
          "internalType": "address",
          "name": "to",
          "type": "address"
        },
        {
          "indexed": true,
          "internalType": "uint256",
          "name": "tokenId",
          "type": "uint256"
        }
      ],
      "name": "Transfer",
      "type": "event"
    },
    {
      "inputs": [
        {
          "internalType": "address",
          "name": "to",
          "type": "address"
        },
        {
          "internalType": "uint256",
          "name": "tokenId",
          "type": "uint256"
        }
      ],
      "name": "approve",
      "outputs": [],
      "stateMutability": "nonpayable",
      "type": "function"
    },
    {
      "inputs": [
        {
          "internalType": "address",
          "name": "owner",
          "type": "address"
        }
      ],
      "name": "balanceOf",
      "outputs": [
        {
          "internalType": "uint256",
          "name": "",
          "type": "uint256"
        }
      ],
      "stateMutability": "view",
      "type": "function"
    },
    {
      "inputs": [],
      "name": "gameContractAddress",
      "outputs": [
        {
          "internalType": "address",
          "name": "",
          "type": "address"
        }
      ],
      "stateMutability": "view",
      "type": "function"
    },
    {
      "inputs": [
        {
          "internalType": "uint256",
          "name": "tokenId",
          "type": "uint256"
        }
      ],
      "name": "getApproved",
      "outputs": [
        {
          "internalType": "address",
          "name": "",
          "type": "address"
        }
      ],
      "stateMutability": "view",
      "type": "function"
    },
    {
      "inputs": [
        {
          "internalType": "address",
          "name": "owner",
          "type": "address"
        },
        {
          "internalType": "address",
          "name": "operator",
          "type": "address"
        }
      ],
      "name": "isApprovedForAll",
      "outputs": [
        {
          "internalType": "bool",
          "name": "",
          "type": "bool"
        }
      ],
      "stateMutability": "view",
      "type": "function"
    },
    {
      "inputs": [
        {
          "internalType": "uint256",
          "name": "",
          "type": "uint256"
        }
      ],
      "name": "monsters",
      "outputs": [
        {
          "internalType": "uint256",
          "name": "monsterId",
          "type": "uint256"
        },
        {
          "internalType": "uint8",
          "name": "AP",
          "type": "uint8"
        },
        {
          "internalType": "uint8",
          "name": "DP",
          "type": "uint8"
        },
        {
          "internalType": "uint8",
          "name": "HP",
          "type": "uint8"
        },
        {
          "internalType": "uint8",
          "name": "SP",
          "type": "uint8"
        },
        {
          "internalType": "uint8",
          "name": "level",
          "type": "uint8"
        }
      ],
      "stateMutability": "view",
      "type": "function"
    },
    {
      "inputs": [
        {
          "internalType": "address",
          "name": "",
          "type": "address"
        },
        {
          "internalType": "uint256",
          "name": "",
          "type": "uint256"
        }
      ],
      "name": "monstersOwnedBy",
      "outputs": [
        {
          "internalType": "uint256",
          "name": "monsterId",
          "type": "uint256"
        },
        {
          "internalType": "uint8",
          "name": "AP",
          "type": "uint8"
        },
        {
          "internalType": "uint8",
          "name": "DP",
          "type": "uint8"
        },
        {
          "internalType": "uint8",
          "name": "HP",
          "type": "uint8"
        },
        {
          "internalType": "uint8",
          "name": "SP",
          "type": "uint8"
        },
        {
          "internalType": "uint8",
          "name": "level",
          "type": "uint8"
        }
      ],
      "stateMutability": "view",
      "type": "function"
    },
    {
      "inputs": [],
      "name": "name",
      "outputs": [
        {
          "internalType": "string",
          "name": "",
          "type": "string"
        }
      ],
      "stateMutability": "view",
      "type": "function"
    },
    {
      "inputs": [
        {
          "internalType": "uint256",
          "name": "tokenId",
          "type": "uint256"
        }
      ],
      "name": "ownerOf",
      "outputs": [
        {
          "internalType": "address",
          "name": "",
          "type": "address"
        }
      ],
      "stateMutability": "view",
      "type": "function"
    },
    {
      "inputs": [
        {
          "internalType": "address",
          "name": "from",
          "type": "address"
        },
        {
          "internalType": "address",
          "name": "to",
          "type": "address"
        },
        {
          "internalType": "uint256",
          "name": "tokenId",
          "type": "uint256"
        }
      ],
      "name": "safeTransferFrom",
      "outputs": [],
      "stateMutability": "nonpayable",
      "type": "function"
    },
    {
      "inputs": [
        {
          "internalType": "address",
          "name": "from",
          "type": "address"
        },
        {
          "internalType": "address",
          "name": "to",
          "type": "address"
        },
        {
          "internalType": "uint256",
          "name": "tokenId",
          "type": "uint256"
        },
        {
          "internalType": "bytes",
          "name": "data",
          "type": "bytes"
        }
      ],
      "name": "safeTransferFrom",
      "outputs": [],
      "stateMutability": "nonpayable",
      "type": "function"
    },
    {
      "inputs": [
        {
          "internalType": "address",
          "name": "operator",
          "type": "address"
        },
        {
          "internalType": "bool",
          "name": "approved",
          "type": "bool"
        }
      ],
      "name": "setApprovalForAll",
      "outputs": [],
      "stateMutability": "nonpayable",
      "type": "function"
    },
    {
      "inputs": [
        {
          "internalType": "bytes4",
          "name": "interfaceId",
          "type": "bytes4"
        }
      ],
      "name": "supportsInterface",
      "outputs": [
        {
          "internalType": "bool",
          "name": "",
          "type": "bool"
        }
      ],
      "stateMutability": "view",
      "type": "function"
    },
    {
      "inputs": [],
      "name": "symbol",
      "outputs": [
        {
          "internalType": "string",
          "name": "",
          "type": "string"
        }
      ],
      "stateMutability": "view",
      "type": "function"
    },
    {
      "inputs": [
        {
          "internalType": "uint256",
          "name": "tokenId",
          "type": "uint256"
        }
      ],
      "name": "tokenURI",
      "outputs": [
        {
          "internalType": "string",
          "name": "",
          "type": "string"
        }
      ],
      "stateMutability": "view",
      "type": "function"
    },
    {
      "inputs": [
        {
          "internalType": "address",
          "name": "from",
          "type": "address"
        },
        {
          "internalType": "address",
          "name": "to",
          "type": "address"
        },
        {
          "internalType": "uint256",
          "name": "tokenId",
          "type": "uint256"
        }
      ],
      "name": "transferFrom",
      "outputs": [],
      "stateMutability": "nonpayable",
      "type": "function"
    },
    {
      "inputs": [
        {
          "internalType": "address",
          "name": "player",
          "type": "address"
        },
        {
          "internalType": "string",
          "name": "tokenURI",
          "type": "string"
        }
      ],
      "name": "buyMonster",
      "outputs": [
        {
          "internalType": "uint256",
          "name": "",
          "type": "uint256"
        }
      ],
      "stateMutability": "nonpayable",
      "type": "function"
    },
    {
      "inputs": [
        {
          "internalType": "address",
          "name": "from",
          "type": "address"
        },
        {
          "internalType": "address",
          "name": "to",
          "type": "address"
        },
        {
          "internalType": "uint256",
          "name": "_tokenId",
          "type": "uint256"
        }
      ],
      "name": "transferMonster",
      "outputs": [],
      "stateMutability": "nonpayable",
      "type": "function"
    },
    {
      "inputs": [],
      "name": "getAllMonsters",
      "outputs": [
        {
          "components": [
            {
              "internalType": "uint256",
              "name": "monsterId",
              "type": "uint256"
            },
            {
              "internalType": "uint8",
              "name": "AP",
              "type": "uint8"
            },
            {
              "internalType": "uint8",
              "name": "DP",
              "type": "uint8"
            },
            {
              "internalType": "uint8",
              "name": "HP",
              "type": "uint8"
            },
            {
              "internalType": "uint8",
              "name": "SP",
              "type": "uint8"
            },
            {
              "internalType": "uint8",
              "name": "level",
              "type": "uint8"
            }
          ],
          "internalType": "struct AEMonsterNFT.AEMonster[]",
          "name": "",
          "type": "tuple[]"
        }
      ],
      "stateMutability": "view",
      "type": "function"
    },
    {
      "inputs": [
        {
          "internalType": "uint256",
          "name": "monsterId",
          "type": "uint256"
        }
      ],
      "name": "getMonsterFromId",
      "outputs": [
        {
          "components": [
            {
              "internalType": "uint256",
              "name": "monsterId",
              "type": "uint256"
            },
            {
              "internalType": "uint8",
              "name": "AP",
              "type": "uint8"
            },
            {
              "internalType": "uint8",
              "name": "DP",
              "type": "uint8"
            },
            {
              "internalType": "uint8",
              "name": "HP",
              "type": "uint8"
            },
            {
              "internalType": "uint8",
              "name": "SP",
              "type": "uint8"
            },
            {
              "internalType": "uint8",
              "name": "level",
              "type": "uint8"
            }
          ],
          "internalType": "struct AEMonsterNFT.AEMonster",
          "name": "",
          "type": "tuple"
        }
      ],
      "stateMutability": "view",
      "type": "function"
    }
  ],
  "bytecode": "0x60806040523480156200001157600080fd5b5060405162003a6138038062003a6183398181016040528101906200003791906200018a565b6040518060400160405280600981526020017f41454d6f6e7374657200000000000000000000000000000000000000000000008152506040518060400160405280600381526020017f41454d00000000000000000000000000000000000000000000000000000000008152508160009081620000b4919062000436565b508060019081620000c6919062000436565b5050506000600a8190555042600b8190555080600c60006101000a81548173ffffffffffffffffffffffffffffffffffffffff021916908373ffffffffffffffffffffffffffffffffffffffff160217905550506200051d565b600080fd5b600073ffffffffffffffffffffffffffffffffffffffff82169050919050565b6000620001528262000125565b9050919050565b620001648162000145565b81146200017057600080fd5b50565b600081519050620001848162000159565b92915050565b600060208284031215620001a357620001a262000120565b5b6000620001b38482850162000173565b91505092915050565b600081519050919050565b7f4e487b7100000000000000000000000000000000000000000000000000000000600052604160045260246000fd5b7f4e487b7100000000000000000000000000000000000000000000000000000000600052602260045260246000fd5b600060028204905060018216806200023e57607f821691505b602082108103620002545762000253620001f6565b5b50919050565b60008190508160005260206000209050919050565b60006020601f8301049050919050565b600082821b905092915050565b600060088302620002be7fffffffffffffffffffffffffffffffffffffffffffffffffffffffffffffffff826200027f565b620002ca86836200027f565b95508019841693508086168417925050509392505050565b6000819050919050565b6000819050919050565b600062000317620003116200030b84620002e2565b620002ec565b620002e2565b9050919050565b6000819050919050565b6200033383620002f6565b6200034b62000342826200031e565b8484546200028c565b825550505050565b600090565b6200036262000353565b6200036f81848462000328565b505050565b5b8181101562000397576200038b60008262000358565b60018101905062000375565b5050565b601f821115620003e657620003b0816200025a565b620003bb846200026f565b81016020851015620003cb578190505b620003e3620003da856200026f565b83018262000374565b50505b505050565b600082821c905092915050565b60006200040b60001984600802620003eb565b1980831691505092915050565b6000620004268383620003f8565b9150826002028217905092915050565b6200044182620001bc565b67ffffffffffffffff8111156200045d576200045c620001c7565b5b62000469825462000225565b620004768282856200039b565b600060209050601f831160018114620004ae576000841562000499578287015190505b620004a5858262000418565b86555062000515565b601f198416620004be866200025a565b60005b82811015620004e857848901518255600182019150602085019450602081019050620004c1565b8683101562000508578489015162000504601f891682620003f8565b8355505b6001600288020188555050505b505050505050565b613534806200052d6000396000f3fe608060405234801561001057600080fd5b506004361061012c5760003560e01c8063611f9a1f116100ad578063a22cb46511610071578063a22cb4651461036e578063b88d4fde1461038a578063c0576b73146103a6578063c87b56dd146103db578063e985e9c51461040b5761012c565b8063611f9a1f146102b45780636352211e146102d257806363df0ef71461030257806370a082311461032057806395d89b41146103505761012c565b8063254496be116100f4578063254496be146101e757806342842e0e1461021c578063436882d3146102385780634f8572c41461026857806357d34d32146102845761012c565b806301ffc9a71461013157806306fdde0314610161578063081812fc1461017f578063095ea7b3146101af57806323b872dd146101cb575b600080fd5b61014b6004803603810190610146919061255b565b61043b565b60405161015891906125a3565b60405180910390f35b61016961049c565b604051610176919061264e565b60405180910390f35b610199600480360381019061019491906126a6565b61052e565b6040516101a69190612714565b60405180910390f35b6101c960048036038101906101c4919061275b565b61054a565b005b6101e560048036038101906101e0919061279b565b610560565b005b61020160048036038101906101fc919061275b565b610662565b60405161021396959493929190612819565b60405180910390f35b6102366004803603810190610231919061279b565b6106ec565b005b610252600480360381019061024d91906129af565b61070c565b60405161025f9190612a0b565b60405180910390f35b610282600480360381019061027d919061279b565b610af1565b005b61029e600480360381019061029991906126a6565b610e4e565b6040516102ab9190612abf565b60405180910390f35b6102bc610f16565b6040516102c99190612c04565b60405180910390f35b6102ec60048036038101906102e791906126a6565b611010565b6040516102f99190612714565b60405180910390f35b61030a611022565b6040516103179190612714565b60405180910390f35b61033a60048036038101906103359190612c26565b611048565b6040516103479190612a0b565b60405180910390f35b610358611102565b604051610365919061264e565b60405180910390f35b61038860048036038101906103839190612c7f565b611194565b005b6103a4600480360381019061039f9190612d60565b6111aa565b005b6103c060048036038101906103bb91906126a6565b6111c7565b6040516103d296959493929190612819565b60405180910390f35b6103f560048036038101906103f091906126a6565b611254565b604051610402919061264e565b60405180910390f35b61042560048036038101906104209190612de3565b611367565b60405161043291906125a3565b60405180910390f35b6000634906490660e01b7bffffffffffffffffffffffffffffffffffffffffffffffffffffffff1916827bffffffffffffffffffffffffffffffffffffffffffffffffffffffff191614806104955750610494826113fb565b5b9050919050565b6060600080546104ab90612e52565b80601f01602080910402602001604051908101604052809291908181526020018280546104d790612e52565b80156105245780601f106104f957610100808354040283529160200191610524565b820191906000526020600020905b81548152906001019060200180831161050757829003601f168201915b5050505050905090565b6000610539826114dd565b5061054382611565565b9050919050565b61055c82826105576115a2565b6115aa565b5050565b600073ffffffffffffffffffffffffffffffffffffffff168273ffffffffffffffffffffffffffffffffffffffff16036105d25760006040517f64a0ae920000000000000000000000000000000000000000000000000000000081526004016105c99190612714565b60405180910390fd5b60006105e683836105e16115a2565b6115bc565b90508373ffffffffffffffffffffffffffffffffffffffff168173ffffffffffffffffffffffffffffffffffffffff161461065c578382826040517f64283d7b00000000000000000000000000000000000000000000000000000000815260040161065393929190612e83565b60405180910390fd5b50505050565b6009602052816000526040600020602052806000526040600020600091509150508060000154908060010160009054906101000a900460ff16908060010160019054906101000a900460ff16908060010160029054906101000a900460ff16908060010160039054906101000a900460ff16908060010160049054906101000a900460ff16905086565b610707838383604051806020016040528060008152506111aa565b505050565b6000600c60009054906101000a900473ffffffffffffffffffffffffffffffffffffffff1673ffffffffffffffffffffffffffffffffffffffff163373ffffffffffffffffffffffffffffffffffffffff161461079e576040517f08c379a000000000000000000000000000000000000000000000000000000000815260040161079590612f2c565b60405180910390fd5b6001600a60008282546107b19190612f7b565b9250508190555060006040518060c00160405280600a5481526020016107d56117d6565b60ff1681526020016107e56117d6565b60ff16815260200160056107f76117d6565b6108019190612f7b565b60ff1681526020016108116117d6565b60ff168152602001600160ff16815250905060078190806001815401808255809150506001900390600052602060002090600202016000909190919091506000820151816000015560208201518160010160006101000a81548160ff021916908360ff16021790555060408201518160010160016101000a81548160ff021916908360ff16021790555060608201518160010160026101000a81548160ff021916908360ff16021790555060808201518160010160036101000a81548160ff021916908360ff16021790555060a08201518160010160046101000a81548160ff021916908360ff160217905550505080600960008673ffffffffffffffffffffffffffffffffffffffff1673ffffffffffffffffffffffffffffffffffffffff1681526020019081526020016000206000600a5481526020019081526020016000206000820151816000015560208201518160010160006101000a81548160ff021916908360ff16021790555060408201518160010160016101000a81548160ff021916908360ff16021790555060608201518160010160026101000a81548160ff021916908360ff16021790555060808201518160010160036101000a81548160ff021916908360ff16021790555060a08201518160010160046101000a81548160ff021916908360ff160217905550905050610a1184600a54611830565b610a1d600a5484611929565b8060086000600a5481526020019081526020016000206000820151816000015560208201518160010160006101000a81548160ff021916908360ff16021790555060408201518160010160016101000a81548160ff021916908360ff16021790555060608201518160010160026101000a81548160ff021916908360ff16021790555060808201518160010160036101000a81548160ff021916908360ff16021790555060a08201518160010160046101000a81548160ff021916908360ff160217905550905050600a5491505092915050565b600c60009054906101000a900473ffffffffffffffffffffffffffffffffffffffff1673ffffffffffffffffffffffffffffffffffffffff163373ffffffffffffffffffffffffffffffffffffffff1614610b81576040517f08c379a0000000000000000000000000000000000000000000000000000000008152600401610b7890612f2c565b60405180910390fd5b610b8c838383611985565b6000600960008573ffffffffffffffffffffffffffffffffffffffff1673ffffffffffffffffffffffffffffffffffffffff16815260200190815260200160002060008381526020019081526020016000206040518060c0016040529081600082015481526020016001820160009054906101000a900460ff1660ff1660ff1681526020016001820160019054906101000a900460ff1660ff1660ff1681526020016001820160029054906101000a900460ff1660ff1660ff1681526020016001820160039054906101000a900460ff1660ff1660ff1681526020016001820160049054906101000a900460ff1660ff1660ff16815250509050600960008573ffffffffffffffffffffffffffffffffffffffff1673ffffffffffffffffffffffffffffffffffffffff16815260200190815260200160002060008381526020019081526020016000206000808201600090556001820160006101000a81549060ff02191690556001820160016101000a81549060ff02191690556001820160026101000a81549060ff02191690556001820160036101000a81549060ff02191690556001820160046101000a81549060ff0219169055505080600960008573ffffffffffffffffffffffffffffffffffffffff1673ffffffffffffffffffffffffffffffffffffffff16815260200190815260200160002060008481526020019081526020016000206000820151816000015560208201518160010160006101000a81548160ff021916908360ff16021790555060408201518160010160016101000a81548160ff021916908360ff16021790555060608201518160010160026101000a81548160ff021916908360ff16021790555060808201518160010160036101000a81548160ff021916908360ff16021790555060a08201518160010160046101000a81548160ff021916908360ff16021790555090505050505050565b610e566124aa565b600860008381526020019081526020016000206040518060c0016040529081600082015481526020016001820160009054906101000a900460ff1660ff1660ff1681526020016001820160019054906101000a900460ff1660ff1660ff1681526020016001820160029054906101000a900460ff1660ff1660ff1681526020016001820160039054906101000a900460ff1660ff1660ff1681526020016001820160049054906101000a900460ff1660ff1660ff16815250509050919050565b60606007805480602002602001604051908101604052809291908181526020016000905b8282101561100757838290600052602060002090600202016040518060c0016040529081600082015481526020016001820160009054906101000a900460ff1660ff1660ff1681526020016001820160019054906101000a900460ff1660ff1660ff1681526020016001820160029054906101000a900460ff1660ff1660ff1681526020016001820160039054906101000a900460ff1660ff1660ff1681526020016001820160049054906101000a900460ff1660ff1660ff168152505081526020019060010190610f3a565b50505050905090565b600061101b826114dd565b9050919050565b600c60009054906101000a900473ffffffffffffffffffffffffffffffffffffffff1681565b60008073ffffffffffffffffffffffffffffffffffffffff168273ffffffffffffffffffffffffffffffffffffffff16036110bb5760006040517f89c62b640000000000000000000000000000000000000000000000000000000081526004016110b29190612714565b60405180910390fd5b600360008373ffffffffffffffffffffffffffffffffffffffff1673ffffffffffffffffffffffffffffffffffffffff168152602001908152602001600020549050919050565b60606001805461111190612e52565b80601f016020809104026020016040519081016040528092919081815260200182805461113d90612e52565b801561118a5780601f1061115f5761010080835404028352916020019161118a565b820191906000526020600020905b81548152906001019060200180831161116d57829003601f168201915b5050505050905090565b6111a661119f6115a2565b8383611af2565b5050565b6111b5848484610560565b6111c184848484611c61565b50505050565b600781815481106111d757600080fd5b90600052602060002090600202016000915090508060000154908060010160009054906101000a900460ff16908060010160019054906101000a900460ff16908060010160029054906101000a900460ff16908060010160039054906101000a900460ff16908060010160049054906101000a900460ff16905086565b606061125f826114dd565b50600060066000848152602001908152602001600020805461128090612e52565b80601f01602080910402602001604051908101604052809291908181526020018280546112ac90612e52565b80156112f95780601f106112ce576101008083540402835291602001916112f9565b820191906000526020600020905b8154815290600101906020018083116112dc57829003601f168201915b50505050509050600061130a611e18565b9050600081510361131f578192505050611362565b60008251111561135457808260405160200161133c929190612feb565b60405160208183030381529060405292505050611362565b61135d84611e2f565b925050505b919050565b6000600560008473ffffffffffffffffffffffffffffffffffffffff1673ffffffffffffffffffffffffffffffffffffffff16815260200190815260200160002060008373ffffffffffffffffffffffffffffffffffffffff1673ffffffffffffffffffffffffffffffffffffffff16815260200190815260200160002060009054906101000a900460ff16905092915050565b60007f80ac58cd000000000000000000000000000000000000000000000000000000007bffffffffffffffffffffffffffffffffffffffffffffffffffffffff1916827bffffffffffffffffffffffffffffffffffffffffffffffffffffffff191614806114c657507f5b5e139f000000000000000000000000000000000000000000000000000000007bffffffffffffffffffffffffffffffffffffffffffffffffffffffff1916827bffffffffffffffffffffffffffffffffffffffffffffffffffffffff1916145b806114d657506114d582611e98565b5b9050919050565b6000806114e983611f02565b9050600073ffffffffffffffffffffffffffffffffffffffff168173ffffffffffffffffffffffffffffffffffffffff160361155c57826040517f7e2732890000000000000000000000000000000000000000000000000000000081526004016115539190612a0b565b60405180910390fd5b80915050919050565b60006004600083815260200190815260200160002060009054906101000a900473ffffffffffffffffffffffffffffffffffffffff169050919050565b600033905090565b6115b78383836001611f3f565b505050565b6000806115c884611f02565b9050600073ffffffffffffffffffffffffffffffffffffffff168373ffffffffffffffffffffffffffffffffffffffff161461160a57611609818486612104565b5b600073ffffffffffffffffffffffffffffffffffffffff168173ffffffffffffffffffffffffffffffffffffffff161461169b5761164c600085600080611f3f565b6001600360008373ffffffffffffffffffffffffffffffffffffffff1673ffffffffffffffffffffffffffffffffffffffff168152602001908152602001600020600082825403925050819055505b600073ffffffffffffffffffffffffffffffffffffffff168573ffffffffffffffffffffffffffffffffffffffff161461171e576001600360008773ffffffffffffffffffffffffffffffffffffffff1673ffffffffffffffffffffffffffffffffffffffff168152602001908152602001600020600082825401925050819055505b846002600086815260200190815260200160002060006101000a81548173ffffffffffffffffffffffffffffffffffffffff021916908373ffffffffffffffffffffffffffffffffffffffff160217905550838573ffffffffffffffffffffffffffffffffffffffff168273ffffffffffffffffffffffffffffffffffffffff167fddf252ad1be2c89b69c2b068fc378daa952ba7f163c4a11628f55a4df523b3ef60405160405180910390a4809150509392505050565b60006001600a33426001436117eb919061300f565b406040516020016117fe939291906130d7565b6040516020818303038152906040528051906020012060001c6118219190613143565b61182b9190612f7b565b905090565b600073ffffffffffffffffffffffffffffffffffffffff168273ffffffffffffffffffffffffffffffffffffffff16036118a25760006040517f64a0ae920000000000000000000000000000000000000000000000000000000081526004016118999190612714565b60405180910390fd5b60006118b0838360006115bc565b9050600073ffffffffffffffffffffffffffffffffffffffff168173ffffffffffffffffffffffffffffffffffffffff16146119245760006040517f73c6ac6e00000000000000000000000000000000000000000000000000000000815260040161191b9190612714565b60405180910390fd5b505050565b806006600084815260200190815260200160002090816119499190613320565b507ff8e1a15aba9398e019f0b49df1a4fde98ee17ae345cb5f6b5e2c27f5033e8ce7826040516119799190612a0b565b60405180910390a15050565b600073ffffffffffffffffffffffffffffffffffffffff168273ffffffffffffffffffffffffffffffffffffffff16036119f75760006040517f64a0ae920000000000000000000000000000000000000000000000000000000081526004016119ee9190612714565b60405180910390fd5b6000611a05838360006115bc565b9050600073ffffffffffffffffffffffffffffffffffffffff168173ffffffffffffffffffffffffffffffffffffffff1603611a7857816040517f7e273289000000000000000000000000000000000000000000000000000000008152600401611a6f9190612a0b565b60405180910390fd5b8373ffffffffffffffffffffffffffffffffffffffff168173ffffffffffffffffffffffffffffffffffffffff1614611aec578382826040517f64283d7b000000000000000000000000000000000000000000000000000000008152600401611ae393929190612e83565b60405180910390fd5b50505050565b600073ffffffffffffffffffffffffffffffffffffffff168273ffffffffffffffffffffffffffffffffffffffff1603611b6357816040517f5b08ba18000000000000000000000000000000000000000000000000000000008152600401611b5a9190612714565b60405180910390fd5b80600560008573ffffffffffffffffffffffffffffffffffffffff1673ffffffffffffffffffffffffffffffffffffffff16815260200190815260200160002060008473ffffffffffffffffffffffffffffffffffffffff1673ffffffffffffffffffffffffffffffffffffffff16815260200190815260200160002060006101000a81548160ff0219169083151502179055508173ffffffffffffffffffffffffffffffffffffffff168373ffffffffffffffffffffffffffffffffffffffff167f17307eab39ab6107e8899845ad3d59bd9653f200f220920489ca2b5937696c3183604051611c5491906125a3565b60405180910390a3505050565b60008373ffffffffffffffffffffffffffffffffffffffff163b1115611e12578273ffffffffffffffffffffffffffffffffffffffff1663150b7a02611ca56115a2565b8685856040518563ffffffff1660e01b8152600401611cc79493929190613447565b6020604051808303816000875af1925050508015611d0357506040513d601f19601f82011682018060405250810190611d0091906134a8565b60015b611d87573d8060008114611d33576040519150601f19603f3d011682016040523d82523d6000602084013e611d38565b606091505b506000815103611d7f57836040517f64a0ae92000000000000000000000000000000000000000000000000000000008152600401611d769190612714565b60405180910390fd5b805181602001fd5b63150b7a0260e01b7bffffffffffffffffffffffffffffffffffffffffffffffffffffffff1916817bffffffffffffffffffffffffffffffffffffffffffffffffffffffff191614611e1057836040517f64a0ae92000000000000000000000000000000000000000000000000000000008152600401611e079190612714565b60405180910390fd5b505b50505050565b606060405180602001604052806000815250905090565b6060611e3a826114dd565b506000611e45611e18565b90506000815111611e655760405180602001604052806000815250611e90565b80611e6f846121c8565b604051602001611e80929190612feb565b6040516020818303038152906040525b915050919050565b60007f01ffc9a7000000000000000000000000000000000000000000000000000000007bffffffffffffffffffffffffffffffffffffffffffffffffffffffff1916827bffffffffffffffffffffffffffffffffffffffffffffffffffffffff1916149050919050565b60006002600083815260200190815260200160002060009054906101000a900473ffffffffffffffffffffffffffffffffffffffff169050919050565b8080611f785750600073ffffffffffffffffffffffffffffffffffffffff168273ffffffffffffffffffffffffffffffffffffffff1614155b156120ac576000611f88846114dd565b9050600073ffffffffffffffffffffffffffffffffffffffff168373ffffffffffffffffffffffffffffffffffffffff1614158015611ff357508273ffffffffffffffffffffffffffffffffffffffff168173ffffffffffffffffffffffffffffffffffffffff1614155b801561200657506120048184611367565b155b1561204857826040517fa9fbf51f00000000000000000000000000000000000000000000000000000000815260040161203f9190612714565b60405180910390fd5b81156120aa57838573ffffffffffffffffffffffffffffffffffffffff168273ffffffffffffffffffffffffffffffffffffffff167f8c5be1e5ebec7d5bd14f71427d1e84f3dd0314c0f7b2291e5b200ac8c7c3b92560405160405180910390a45b505b836004600085815260200190815260200160002060006101000a81548173ffffffffffffffffffffffffffffffffffffffff021916908373ffffffffffffffffffffffffffffffffffffffff16021790555050505050565b61210f838383612296565b6121c357600073ffffffffffffffffffffffffffffffffffffffff168373ffffffffffffffffffffffffffffffffffffffff160361218457806040517f7e27328900000000000000000000000000000000000000000000000000000000815260040161217b9190612a0b565b60405180910390fd5b81816040517f177e802f0000000000000000000000000000000000000000000000000000000081526004016121ba9291906134d5565b60405180910390fd5b505050565b6060600060016121d784612357565b01905060008167ffffffffffffffff8111156121f6576121f5612884565b5b6040519080825280601f01601f1916602001820160405280156122285781602001600182028036833780820191505090505b509050600082602001820190505b60011561228b578080600190039150507f3031323334353637383961626364656600000000000000000000000000000000600a86061a8153600a858161227f5761227e613114565b5b04945060008503612236575b819350505050919050565b60008073ffffffffffffffffffffffffffffffffffffffff168373ffffffffffffffffffffffffffffffffffffffff161415801561234e57508273ffffffffffffffffffffffffffffffffffffffff168473ffffffffffffffffffffffffffffffffffffffff16148061230f575061230e8484611367565b5b8061234d57508273ffffffffffffffffffffffffffffffffffffffff1661233583611565565b73ffffffffffffffffffffffffffffffffffffffff16145b5b90509392505050565b600080600090507a184f03e93ff9f4daa797ed6e38ed64bf6a1f01000000000000000083106123b5577a184f03e93ff9f4daa797ed6e38ed64bf6a1f01000000000000000083816123ab576123aa613114565b5b0492506040810190505b6d04ee2d6d415b85acef810000000083106123f2576d04ee2d6d415b85acef810000000083816123e8576123e7613114565b5b0492506020810190505b662386f26fc10000831061242157662386f26fc10000838161241757612416613114565b5b0492506010810190505b6305f5e100831061244a576305f5e10083816124405761243f613114565b5b0492506008810190505b612710831061246f57612710838161246557612464613114565b5b0492506004810190505b60648310612492576064838161248857612487613114565b5b0492506002810190505b600a83106124a1576001810190505b80915050919050565b6040518060c0016040528060008152602001600060ff168152602001600060ff168152602001600060ff168152602001600060ff168152602001600060ff1681525090565b6000604051905090565b600080fd5b600080fd5b60007fffffffff0000000000000000000000000000000000000000000000000000000082169050919050565b61253881612503565b811461254357600080fd5b50565b6000813590506125558161252f565b92915050565b600060208284031215612571576125706124f9565b5b600061257f84828501612546565b91505092915050565b60008115159050919050565b61259d81612588565b82525050565b60006020820190506125b86000830184612594565b92915050565b600081519050919050565b600082825260208201905092915050565b60005b838110156125f85780820151818401526020810190506125dd565b60008484015250505050565b6000601f19601f8301169050919050565b6000612620826125be565b61262a81856125c9565b935061263a8185602086016125da565b61264381612604565b840191505092915050565b600060208201905081810360008301526126688184612615565b905092915050565b6000819050919050565b61268381612670565b811461268e57600080fd5b50565b6000813590506126a08161267a565b92915050565b6000602082840312156126bc576126bb6124f9565b5b60006126ca84828501612691565b91505092915050565b600073ffffffffffffffffffffffffffffffffffffffff82169050919050565b60006126fe826126d3565b9050919050565b61270e816126f3565b82525050565b60006020820190506127296000830184612705565b92915050565b612738816126f3565b811461274357600080fd5b50565b6000813590506127558161272f565b92915050565b60008060408385031215612772576127716124f9565b5b600061278085828601612746565b925050602061279185828601612691565b9150509250929050565b6000806000606084860312156127b4576127b36124f9565b5b60006127c286828701612746565b93505060206127d386828701612746565b92505060406127e486828701612691565b9150509250925092565b6127f781612670565b82525050565b600060ff82169050919050565b612813816127fd565b82525050565b600060c08201905061282e60008301896127ee565b61283b602083018861280a565b612848604083018761280a565b612855606083018661280a565b612862608083018561280a565b61286f60a083018461280a565b979650505050505050565b600080fd5b600080fd5b7f4e487b7100000000000000000000000000000000000000000000000000000000600052604160045260246000fd5b6128bc82612604565b810181811067ffffffffffffffff821117156128db576128da612884565b5b80604052505050565b60006128ee6124ef565b90506128fa82826128b3565b919050565b600067ffffffffffffffff82111561291a57612919612884565b5b61292382612604565b9050602081019050919050565b82818337600083830152505050565b600061295261294d846128ff565b6128e4565b90508281526020810184848401111561296e5761296d61287f565b5b612979848285612930565b509392505050565b600082601f8301126129965761299561287a565b5b81356129a684826020860161293f565b91505092915050565b600080604083850312156129c6576129c56124f9565b5b60006129d485828601612746565b925050602083013567ffffffffffffffff8111156129f5576129f46124fe565b5b612a0185828601612981565b9150509250929050565b6000602082019050612a2060008301846127ee565b92915050565b612a2f81612670565b82525050565b612a3e816127fd565b82525050565b60c082016000820151612a5a6000850182612a26565b506020820151612a6d6020850182612a35565b506040820151612a806040850182612a35565b506060820151612a936060850182612a35565b506080820151612aa66080850182612a35565b5060a0820151612ab960a0850182612a35565b50505050565b600060c082019050612ad46000830184612a44565b92915050565b600081519050919050565b600082825260208201905092915050565b6000819050602082019050919050565b60c082016000820151612b1c6000850182612a26565b506020820151612b2f6020850182612a35565b506040820151612b426040850182612a35565b506060820151612b556060850182612a35565b506080820151612b686080850182612a35565b5060a0820151612b7b60a0850182612a35565b50505050565b6000612b8d8383612b06565b60c08301905092915050565b6000602082019050919050565b6000612bb182612ada565b612bbb8185612ae5565b9350612bc683612af6565b8060005b83811015612bf7578151612bde8882612b81565b9750612be983612b99565b925050600181019050612bca565b5085935050505092915050565b60006020820190508181036000830152612c1e8184612ba6565b905092915050565b600060208284031215612c3c57612c3b6124f9565b5b6000612c4a84828501612746565b91505092915050565b612c5c81612588565b8114612c6757600080fd5b50565b600081359050612c7981612c53565b92915050565b60008060408385031215612c9657612c956124f9565b5b6000612ca485828601612746565b9250506020612cb585828601612c6a565b9150509250929050565b600067ffffffffffffffff821115612cda57612cd9612884565b5b612ce382612604565b9050602081019050919050565b6000612d03612cfe84612cbf565b6128e4565b905082815260208101848484011115612d1f57612d1e61287f565b5b612d2a848285612930565b509392505050565b600082601f830112612d4757612d4661287a565b5b8135612d57848260208601612cf0565b91505092915050565b60008060008060808587031215612d7a57612d796124f9565b5b6000612d8887828801612746565b9450506020612d9987828801612746565b9350506040612daa87828801612691565b925050606085013567ffffffffffffffff811115612dcb57612dca6124fe565b5b612dd787828801612d32565b91505092959194509250565b60008060408385031215612dfa57612df96124f9565b5b6000612e0885828601612746565b9250506020612e1985828601612746565b9150509250929050565b7f4e487b7100000000000000000000000000000000000000000000000000000000600052602260045260246000fd5b60006002820490506001821680612e6a57607f821691505b602082108103612e7d57612e7c612e23565b5b50919050565b6000606082019050612e986000830186612705565b612ea560208301856127ee565b612eb26040830184612705565b949350505050565b7f4f6e6c79207468652067616d6520636f6e74726163742063616e2063616c6c2060008201527f746869732066756e6374696f6e00000000000000000000000000000000000000602082015250565b6000612f16602d836125c9565b9150612f2182612eba565b604082019050919050565b60006020820190508181036000830152612f4581612f09565b9050919050565b7f4e487b7100000000000000000000000000000000000000000000000000000000600052601160045260246000fd5b6000612f8682612670565b9150612f9183612670565b9250828201905080821115612fa957612fa8612f4c565b5b92915050565b600081905092915050565b6000612fc5826125be565b612fcf8185612faf565b9350612fdf8185602086016125da565b80840191505092915050565b6000612ff78285612fba565b91506130038284612fba565b91508190509392505050565b600061301a82612670565b915061302583612670565b925082820390508181111561303d5761303c612f4c565b5b92915050565b60008160601b9050919050565b600061305b82613043565b9050919050565b600061306d82613050565b9050919050565b613085613080826126f3565b613062565b82525050565b6000819050919050565b6130a66130a182612670565b61308b565b82525050565b6000819050919050565b6000819050919050565b6130d16130cc826130ac565b6130b6565b82525050565b60006130e38286613074565b6014820191506130f38285613095565b60208201915061310382846130c0565b602082019150819050949350505050565b7f4e487b7100000000000000000000000000000000000000000000000000000000600052601260045260246000fd5b600061314e82612670565b915061315983612670565b92508261316957613168613114565b5b828206905092915050565b60008190508160005260206000209050919050565b60006020601f8301049050919050565b600082821b905092915050565b6000600883026131d67fffffffffffffffffffffffffffffffffffffffffffffffffffffffffffffffff82613199565b6131e08683613199565b95508019841693508086168417925050509392505050565b6000819050919050565b600061321d61321861321384612670565b6131f8565b612670565b9050919050565b6000819050919050565b61323783613202565b61324b61324382613224565b8484546131a6565b825550505050565b600090565b613260613253565b61326b81848461322e565b505050565b5b8181101561328f57613284600082613258565b600181019050613271565b5050565b601f8211156132d4576132a581613174565b6132ae84613189565b810160208510156132bd578190505b6132d16132c985613189565b830182613270565b50505b505050565b600082821c905092915050565b60006132f7600019846008026132d9565b1980831691505092915050565b600061331083836132e6565b9150826002028217905092915050565b613329826125be565b67ffffffffffffffff81111561334257613341612884565b5b61334c8254612e52565b613357828285613293565b600060209050601f83116001811461338a5760008415613378578287015190505b6133828582613304565b8655506133ea565b601f19841661339886613174565b60005b828110156133c05784890151825560018201915060208501945060208101905061339b565b868310156133dd57848901516133d9601f8916826132e6565b8355505b6001600288020188555050505b505050505050565b600081519050919050565b600082825260208201905092915050565b6000613419826133f2565b61342381856133fd565b93506134338185602086016125da565b61343c81612604565b840191505092915050565b600060808201905061345c6000830187612705565b6134696020830186612705565b61347660408301856127ee565b8181036060830152613488818461340e565b905095945050505050565b6000815190506134a28161252f565b92915050565b6000602082840312156134be576134bd6124f9565b5b60006134cc84828501613493565b91505092915050565b60006040820190506134ea6000830185612705565b6134f760208301846127ee565b939250505056fea26469706673582212209b9d761d8851ab2731f4a5329c3d9c07516e099d5b75f69e4ad5040aad75e33064736f6c63430008130033",
  "immutableReferences": {},
  "source": "// SPDX-License-Identifier: MIT \r\npragma solidity ^0.8.18;\r\n\r\nimport \"../node_modules/@openzeppelin/contracts/token/ERC721/extensions/ERC721URIStorage.sol\";\r\nimport \"./Owner.sol\";\r\n\r\ncontract AEMonsterNFT is ERC721URIStorage{\r\n    //*--------------State variables--------------\r\n    //The monster struct\r\n    struct AEMonster{                           //It is used uint8 because the max of a stat is 100\r\n        uint256 monsterId;                      //The tokenId of the NFTs\r\n        uint8 AP;                               //Attack Point\r\n        uint8 DP;                               //Defence Point\r\n        uint8 HP;                               //Health Point\r\n        uint8 SP;                               //Speed Point\r\n        uint8 level;                            //Higher the level stronger the monster (higher stats) //*Starting level is 1, max level is 100\r\n    }   \r\n\r\n    AEMonster[] public monsters;                //All the monsters created so far TODO:Maybe is better replace the use of the array\r\n\r\n\r\n    mapping (uint256 => AEMonster) private fromIdToMonster;     //Map to get the monster stats from its id\r\n    mapping (address =>mapping(uint256 => AEMonster)) public monstersOwnedBy;      //Map the monsters owned by an account\r\n\r\n    uint256 private tokenId;                                    //Used to assign unique identifier to each NFT\r\n    uint256 private randomSeed;                                 //Useful for the random number function\r\n\r\n    address public gameContractAddress;                         //The address of the contract that manages all the dapp\r\n \r\n    constructor(address _gameContractAddress) ERC721(\"AEMonster\",\"AEM\"){\r\n        tokenId = 0;\r\n        randomSeed = block.timestamp;                           //Usefull for randomness in the random function\r\n        gameContractAddress = _gameContractAddress;\r\n    }\r\n    \r\n    //*--------------Modifiers--------------\r\n    //*Necessaria per fare in modo che le funzioni siano chiamabili solo dal contratto principale\r\n    modifier onlyGameContract(){\r\n        require(msg.sender == gameContractAddress,\"Only the game contract can call this function\");\r\n        _;\r\n    }\r\n\r\n    //*--------------Main functionalities--------------\r\n    function buyMonster(address player, string memory tokenURI) \r\n        external onlyGameContract returns(uint256){                                //Return the id of the created monster\r\n        //*Creation of the monster stats\r\n        tokenId += 1;\r\n        AEMonster memory newMonster = AEMonster({\r\n            monsterId: tokenId,\r\n            AP: (uint8)(random()),\r\n            DP: (uint8)(random()),\r\n            HP: (uint8)(random() + 5),                //5 is the base HP for each Monster\r\n            SP: (uint8)(random()),\r\n            level : 1                                       \r\n        });\r\n            \r\n        //Add the new monster to the collection\r\n        monsters.push(newMonster);\r\n\r\n        //Map the monster to the owner\r\n        //?monstersOwnedBy[player].push(tokenId);\r\n        monstersOwnedBy[player][tokenId] = newMonster;\r\n            \r\n        //*Creation of the effective  NFT\r\n        _mint(player, tokenId);\r\n        _setTokenURI(tokenId, tokenURI);\r\n\r\n        //*Map the owner with the created monster\r\n        fromIdToMonster[tokenId] = newMonster;\r\n\r\n        return tokenId;\r\n    }\r\n\r\n    //This is needed in order to implement the exchange of monsters, in the market, between players\r\n    function transferMonster(address from, address to, uint256 _tokenId) external onlyGameContract(){\r\n        _transfer(from, to, _tokenId);\r\n        AEMonster memory swap = monstersOwnedBy[from][_tokenId];\r\n        delete(monstersOwnedBy[from][_tokenId]);       \r\n        monstersOwnedBy[to][_tokenId] = swap;\r\n    }\r\n\r\n    //Function returns the monsters array\r\n    function getAllMonsters() external view returns (AEMonster[] memory){\r\n        return monsters;\r\n    }\r\n\r\n    //TODO : change this function \r\n    //Returns the id of the monsters owned by an account\r\n    //function getOwnedMonsters(address player) public view returns (uint256[] memory){\r\n      //  return monstersOwnedBy[player];\r\n    //}\r\n\r\n\r\n    //Return the monster data given its id\r\n    function getMonsterFromId(uint256 monsterId)public view returns(AEMonster memory){\r\n        return fromIdToMonster[monsterId];\r\n    }\r\n\r\n\r\n    //Funtion to generate random number\r\n    function random() private view returns (uint256){ \r\n        //TODO: change this implemantation with the use of chainlink VRF : https://docs.chain.link/vrf\r\n        return ((uint( keccak256(abi.encodePacked (msg.sender, block.timestamp, blockhash(block.number - 1)))))%10)+1;\r\n    }\r\n\r\n\r\n}",
  "sourcePath": "C:\\Users\\HP\\Desktop\\Universit\\Magistrale\\2 anno\\1 Semestre\\Blockchain & DLT\\Truffle\\AEtherMon\\contracts\\AEMonster.sol",
  "compiler": {
    "name": "solc",
    "version": "0.8.19+commit.7dd6d404.Emscripten.clang"
  },
  "schemaVersion": "3.4.16",
  "updatedAt": "2024-01-04T21:42:15.509Z",
  "devdoc": {
    "errors": {
      "ERC721IncorrectOwner(address,uint256,address)": [
        {
          "details": "Indicates an error related to the ownership over a particular token. Used in transfers.",
          "params": {
            "owner": "Address of the current owner of a token.",
            "sender": "Address whose tokens are being transferred.",
            "tokenId": "Identifier number of a token."
          }
        }
      ],
      "ERC721InsufficientApproval(address,uint256)": [
        {
          "details": "Indicates a failure with the `operator`s approval. Used in transfers.",
          "params": {
            "operator": "Address that may be allowed to operate on tokens without being their owner.",
            "tokenId": "Identifier number of a token."
          }
        }
      ],
      "ERC721InvalidApprover(address)": [
        {
          "details": "Indicates a failure with the `approver` of a token to be approved. Used in approvals.",
          "params": {
            "approver": "Address initiating an approval operation."
          }
        }
      ],
      "ERC721InvalidOperator(address)": [
        {
          "details": "Indicates a failure with the `operator` to be approved. Used in approvals.",
          "params": {
            "operator": "Address that may be allowed to operate on tokens without being their owner."
          }
        }
      ],
      "ERC721InvalidOwner(address)": [
        {
          "details": "Indicates that an address can't be an owner. For example, `address(0)` is a forbidden owner in EIP-20. Used in balance queries.",
          "params": {
            "owner": "Address of the current owner of a token."
          }
        }
      ],
      "ERC721InvalidReceiver(address)": [
        {
          "details": "Indicates a failure with the token `receiver`. Used in transfers.",
          "params": {
            "receiver": "Address to which tokens are being transferred."
          }
        }
      ],
      "ERC721InvalidSender(address)": [
        {
          "details": "Indicates a failure with the token `sender`. Used in transfers.",
          "params": {
            "sender": "Address whose tokens are being transferred."
          }
        }
      ],
      "ERC721NonexistentToken(uint256)": [
        {
          "details": "Indicates a `tokenId` whose `owner` is the zero address.",
          "params": {
            "tokenId": "Identifier number of a token."
          }
        }
      ]
    },
    "events": {
      "Approval(address,address,uint256)": {
        "details": "Emitted when `owner` enables `approved` to manage the `tokenId` token."
      },
      "ApprovalForAll(address,address,bool)": {
        "details": "Emitted when `owner` enables or disables (`approved`) `operator` to manage all of its assets."
      },
      "BatchMetadataUpdate(uint256,uint256)": {
        "details": "This event emits when the metadata of a range of tokens is changed. So that the third-party platforms such as NFT market could timely update the images and related attributes of the NFTs."
      },
      "MetadataUpdate(uint256)": {
        "details": "This event emits when the metadata of a token is changed. So that the third-party platforms such as NFT market could timely update the images and related attributes of the NFT."
      },
      "Transfer(address,address,uint256)": {
        "details": "Emitted when `tokenId` token is transferred from `from` to `to`."
      }
    },
    "kind": "dev",
    "methods": {
      "approve(address,uint256)": {
        "details": "See {IERC721-approve}."
      },
      "balanceOf(address)": {
        "details": "See {IERC721-balanceOf}."
      },
      "getApproved(uint256)": {
        "details": "See {IERC721-getApproved}."
      },
      "isApprovedForAll(address,address)": {
        "details": "See {IERC721-isApprovedForAll}."
      },
      "name()": {
        "details": "See {IERC721Metadata-name}."
      },
      "ownerOf(uint256)": {
        "details": "See {IERC721-ownerOf}."
      },
      "safeTransferFrom(address,address,uint256)": {
        "details": "See {IERC721-safeTransferFrom}."
      },
      "safeTransferFrom(address,address,uint256,bytes)": {
        "details": "See {IERC721-safeTransferFrom}."
      },
      "setApprovalForAll(address,bool)": {
        "details": "See {IERC721-setApprovalForAll}."
      },
      "supportsInterface(bytes4)": {
        "details": "See {IERC165-supportsInterface}"
      },
      "symbol()": {
        "details": "See {IERC721Metadata-symbol}."
      },
      "tokenURI(uint256)": {
        "details": "See {IERC721Metadata-tokenURI}."
      },
      "transferFrom(address,address,uint256)": {
        "details": "See {IERC721-transferFrom}."
      }
    },
    "version": 1
  },
  "userdoc": {
    "kind": "user",
    "methods": {},
    "version": 1
  }
}