{
  "contractName": "AEMonsterNFT",
  "abi": [
    {
      "inputs": [
        {
          "internalType": "address",
          "name": "_gameContractAddress",
          "type": "address"
        }
      ],
      "stateMutability": "nonpayable",
      "type": "constructor"
    },
    {
      "inputs": [
        {
          "internalType": "address",
          "name": "sender",
          "type": "address"
        },
        {
          "internalType": "uint256",
          "name": "tokenId",
          "type": "uint256"
        },
        {
          "internalType": "address",
          "name": "owner",
          "type": "address"
        }
      ],
      "name": "ERC721IncorrectOwner",
      "type": "error"
    },
    {
      "inputs": [
        {
          "internalType": "address",
          "name": "operator",
          "type": "address"
        },
        {
          "internalType": "uint256",
          "name": "tokenId",
          "type": "uint256"
        }
      ],
      "name": "ERC721InsufficientApproval",
      "type": "error"
    },
    {
      "inputs": [
        {
          "internalType": "address",
          "name": "approver",
          "type": "address"
        }
      ],
      "name": "ERC721InvalidApprover",
      "type": "error"
    },
    {
      "inputs": [
        {
          "internalType": "address",
          "name": "operator",
          "type": "address"
        }
      ],
      "name": "ERC721InvalidOperator",
      "type": "error"
    },
    {
      "inputs": [
        {
          "internalType": "address",
          "name": "owner",
          "type": "address"
        }
      ],
      "name": "ERC721InvalidOwner",
      "type": "error"
    },
    {
      "inputs": [
        {
          "internalType": "address",
          "name": "receiver",
          "type": "address"
        }
      ],
      "name": "ERC721InvalidReceiver",
      "type": "error"
    },
    {
      "inputs": [
        {
          "internalType": "address",
          "name": "sender",
          "type": "address"
        }
      ],
      "name": "ERC721InvalidSender",
      "type": "error"
    },
    {
      "inputs": [
        {
          "internalType": "uint256",
          "name": "tokenId",
          "type": "uint256"
        }
      ],
      "name": "ERC721NonexistentToken",
      "type": "error"
    },
    {
      "anonymous": false,
      "inputs": [
        {
          "indexed": true,
          "internalType": "address",
          "name": "owner",
          "type": "address"
        },
        {
          "indexed": true,
          "internalType": "address",
          "name": "approved",
          "type": "address"
        },
        {
          "indexed": true,
          "internalType": "uint256",
          "name": "tokenId",
          "type": "uint256"
        }
      ],
      "name": "Approval",
      "type": "event"
    },
    {
      "anonymous": false,
      "inputs": [
        {
          "indexed": true,
          "internalType": "address",
          "name": "owner",
          "type": "address"
        },
        {
          "indexed": true,
          "internalType": "address",
          "name": "operator",
          "type": "address"
        },
        {
          "indexed": false,
          "internalType": "bool",
          "name": "approved",
          "type": "bool"
        }
      ],
      "name": "ApprovalForAll",
      "type": "event"
    },
    {
      "anonymous": false,
      "inputs": [
        {
          "indexed": false,
          "internalType": "uint256",
          "name": "_fromTokenId",
          "type": "uint256"
        },
        {
          "indexed": false,
          "internalType": "uint256",
          "name": "_toTokenId",
          "type": "uint256"
        }
      ],
      "name": "BatchMetadataUpdate",
      "type": "event"
    },
    {
      "anonymous": false,
      "inputs": [
        {
          "indexed": false,
          "internalType": "uint256",
          "name": "_tokenId",
          "type": "uint256"
        }
      ],
      "name": "MetadataUpdate",
      "type": "event"
    },
    {
      "anonymous": false,
      "inputs": [
        {
          "indexed": true,
          "internalType": "address",
          "name": "from",
          "type": "address"
        },
        {
          "indexed": true,
          "internalType": "address",
          "name": "to",
          "type": "address"
        },
        {
          "indexed": true,
          "internalType": "uint256",
          "name": "tokenId",
          "type": "uint256"
        }
      ],
      "name": "Transfer",
      "type": "event"
    },
    {
      "inputs": [
        {
          "internalType": "address",
          "name": "to",
          "type": "address"
        },
        {
          "internalType": "uint256",
          "name": "tokenId",
          "type": "uint256"
        }
      ],
      "name": "approve",
      "outputs": [],
      "stateMutability": "nonpayable",
      "type": "function"
    },
    {
      "inputs": [
        {
          "internalType": "address",
          "name": "owner",
          "type": "address"
        }
      ],
      "name": "balanceOf",
      "outputs": [
        {
          "internalType": "uint256",
          "name": "",
          "type": "uint256"
        }
      ],
      "stateMutability": "view",
      "type": "function"
    },
    {
      "inputs": [],
      "name": "gameContractAddress",
      "outputs": [
        {
          "internalType": "address",
          "name": "",
          "type": "address"
        }
      ],
      "stateMutability": "view",
      "type": "function"
    },
    {
      "inputs": [
        {
          "internalType": "uint256",
          "name": "tokenId",
          "type": "uint256"
        }
      ],
      "name": "getApproved",
      "outputs": [
        {
          "internalType": "address",
          "name": "",
          "type": "address"
        }
      ],
      "stateMutability": "view",
      "type": "function"
    },
    {
      "inputs": [
        {
          "internalType": "address",
          "name": "owner",
          "type": "address"
        },
        {
          "internalType": "address",
          "name": "operator",
          "type": "address"
        }
      ],
      "name": "isApprovedForAll",
      "outputs": [
        {
          "internalType": "bool",
          "name": "",
          "type": "bool"
        }
      ],
      "stateMutability": "view",
      "type": "function"
    },
    {
      "inputs": [
        {
          "internalType": "address",
          "name": "",
          "type": "address"
        },
        {
          "internalType": "uint256",
          "name": "",
          "type": "uint256"
        }
      ],
      "name": "monsterIdsByAddress",
      "outputs": [
        {
          "internalType": "uint256",
          "name": "",
          "type": "uint256"
        }
      ],
      "stateMutability": "view",
      "type": "function"
    },
    {
      "inputs": [
        {
          "internalType": "address",
          "name": "",
          "type": "address"
        },
        {
          "internalType": "uint256",
          "name": "",
          "type": "uint256"
        }
      ],
      "name": "monstersOwnedBy",
      "outputs": [
        {
          "internalType": "uint256",
          "name": "monsterId",
          "type": "uint256"
        },
        {
          "internalType": "uint8",
          "name": "AP",
          "type": "uint8"
        },
        {
          "internalType": "uint8",
          "name": "DP",
          "type": "uint8"
        },
        {
          "internalType": "uint8",
          "name": "HP",
          "type": "uint8"
        },
        {
          "internalType": "uint8",
          "name": "SP",
          "type": "uint8"
        },
        {
          "internalType": "uint8",
          "name": "level",
          "type": "uint8"
        }
      ],
      "stateMutability": "view",
      "type": "function"
    },
    {
      "inputs": [],
      "name": "name",
      "outputs": [
        {
          "internalType": "string",
          "name": "",
          "type": "string"
        }
      ],
      "stateMutability": "view",
      "type": "function"
    },
    {
      "inputs": [
        {
          "internalType": "address",
          "name": "",
          "type": "address"
        }
      ],
      "name": "numMonstersOwnedBy",
      "outputs": [
        {
          "internalType": "uint256",
          "name": "",
          "type": "uint256"
        }
      ],
      "stateMutability": "view",
      "type": "function"
    },
    {
      "inputs": [
        {
          "internalType": "uint256",
          "name": "tokenId",
          "type": "uint256"
        }
      ],
      "name": "ownerOf",
      "outputs": [
        {
          "internalType": "address",
          "name": "",
          "type": "address"
        }
      ],
      "stateMutability": "view",
      "type": "function"
    },
    {
      "inputs": [
        {
          "internalType": "address",
          "name": "from",
          "type": "address"
        },
        {
          "internalType": "address",
          "name": "to",
          "type": "address"
        },
        {
          "internalType": "uint256",
          "name": "tokenId",
          "type": "uint256"
        }
      ],
      "name": "safeTransferFrom",
      "outputs": [],
      "stateMutability": "nonpayable",
      "type": "function"
    },
    {
      "inputs": [
        {
          "internalType": "address",
          "name": "from",
          "type": "address"
        },
        {
          "internalType": "address",
          "name": "to",
          "type": "address"
        },
        {
          "internalType": "uint256",
          "name": "tokenId",
          "type": "uint256"
        },
        {
          "internalType": "bytes",
          "name": "data",
          "type": "bytes"
        }
      ],
      "name": "safeTransferFrom",
      "outputs": [],
      "stateMutability": "nonpayable",
      "type": "function"
    },
    {
      "inputs": [
        {
          "internalType": "address",
          "name": "operator",
          "type": "address"
        },
        {
          "internalType": "bool",
          "name": "approved",
          "type": "bool"
        }
      ],
      "name": "setApprovalForAll",
      "outputs": [],
      "stateMutability": "nonpayable",
      "type": "function"
    },
    {
      "inputs": [
        {
          "internalType": "bytes4",
          "name": "interfaceId",
          "type": "bytes4"
        }
      ],
      "name": "supportsInterface",
      "outputs": [
        {
          "internalType": "bool",
          "name": "",
          "type": "bool"
        }
      ],
      "stateMutability": "view",
      "type": "function"
    },
    {
      "inputs": [],
      "name": "symbol",
      "outputs": [
        {
          "internalType": "string",
          "name": "",
          "type": "string"
        }
      ],
      "stateMutability": "view",
      "type": "function"
    },
    {
      "inputs": [
        {
          "internalType": "uint256",
          "name": "tokenId",
          "type": "uint256"
        }
      ],
      "name": "tokenURI",
      "outputs": [
        {
          "internalType": "string",
          "name": "",
          "type": "string"
        }
      ],
      "stateMutability": "view",
      "type": "function"
    },
    {
      "inputs": [
        {
          "internalType": "address",
          "name": "from",
          "type": "address"
        },
        {
          "internalType": "address",
          "name": "to",
          "type": "address"
        },
        {
          "internalType": "uint256",
          "name": "tokenId",
          "type": "uint256"
        }
      ],
      "name": "transferFrom",
      "outputs": [],
      "stateMutability": "nonpayable",
      "type": "function"
    },
    {
      "inputs": [
        {
          "internalType": "address",
          "name": "player",
          "type": "address"
        },
        {
          "internalType": "string",
          "name": "tokenURI",
          "type": "string"
        }
      ],
      "name": "buyMonster",
      "outputs": [
        {
          "internalType": "uint256",
          "name": "",
          "type": "uint256"
        }
      ],
      "stateMutability": "nonpayable",
      "type": "function"
    },
    {
      "inputs": [
        {
          "internalType": "address",
          "name": "from",
          "type": "address"
        },
        {
          "internalType": "address",
          "name": "to",
          "type": "address"
        },
        {
          "internalType": "uint256",
          "name": "_tokenId",
          "type": "uint256"
        }
      ],
      "name": "transferMonster",
      "outputs": [],
      "stateMutability": "nonpayable",
      "type": "function"
    },
    {
      "inputs": [
        {
          "internalType": "uint256",
          "name": "monsterId",
          "type": "uint256"
        }
      ],
      "name": "getMonsterFromId",
      "outputs": [
        {
          "components": [
            {
              "internalType": "uint256",
              "name": "monsterId",
              "type": "uint256"
            },
            {
              "internalType": "uint8",
              "name": "AP",
              "type": "uint8"
            },
            {
              "internalType": "uint8",
              "name": "DP",
              "type": "uint8"
            },
            {
              "internalType": "uint8",
              "name": "HP",
              "type": "uint8"
            },
            {
              "internalType": "uint8",
              "name": "SP",
              "type": "uint8"
            },
            {
              "internalType": "uint8",
              "name": "level",
              "type": "uint8"
            }
          ],
          "internalType": "struct AEMonsterNFT.AEMonster",
          "name": "",
          "type": "tuple"
        }
      ],
      "stateMutability": "view",
      "type": "function"
    },
    {
      "inputs": [
        {
          "internalType": "address",
          "name": "player",
          "type": "address"
        }
      ],
      "name": "getMonstersOwnedBy",
      "outputs": [
        {
          "components": [
            {
              "internalType": "uint256",
              "name": "monsterId",
              "type": "uint256"
            },
            {
              "internalType": "uint8",
              "name": "AP",
              "type": "uint8"
            },
            {
              "internalType": "uint8",
              "name": "DP",
              "type": "uint8"
            },
            {
              "internalType": "uint8",
              "name": "HP",
              "type": "uint8"
            },
            {
              "internalType": "uint8",
              "name": "SP",
              "type": "uint8"
            },
            {
              "internalType": "uint8",
              "name": "level",
              "type": "uint8"
            }
          ],
          "internalType": "struct AEMonsterNFT.AEMonster[]",
          "name": "",
          "type": "tuple[]"
        }
      ],
      "stateMutability": "view",
      "type": "function"
    },
    {
      "inputs": [
        {
          "internalType": "address",
          "name": "player",
          "type": "address"
        }
      ],
      "name": "getMonstersURIOwnedBy",
      "outputs": [
        {
          "internalType": "string[]",
          "name": "",
          "type": "string[]"
        }
      ],
      "stateMutability": "view",
      "type": "function"
    },
    {
      "inputs": [
        {
          "internalType": "uint256",
          "name": "_tokenId",
          "type": "uint256"
        }
      ],
      "name": "getTokenURI",
      "outputs": [
        {
          "internalType": "string",
          "name": "",
          "type": "string"
        }
      ],
      "stateMutability": "view",
      "type": "function"
    },
    {
      "inputs": [],
      "name": "destroy",
      "outputs": [],
      "stateMutability": "nonpayable",
      "type": "function"
    }
  ],
  "bytecode": "0x60806040523480156200001157600080fd5b506040516200247a3803806200247a8339810160408190526200003491620000c4565b6040518060400160405280600981526020016820a2a6b7b739ba32b960b91b8152506040518060400160405280600381526020016241454d60e81b81525081600090816200008391906200019b565b5060016200009282826200019b565b50506000600b555042600c55600d80546001600160a01b0319166001600160a01b039290921691909117905562000267565b600060208284031215620000d757600080fd5b81516001600160a01b0381168114620000ef57600080fd5b9392505050565b634e487b7160e01b600052604160045260246000fd5b600181811c908216806200012157607f821691505b6020821081036200014257634e487b7160e01b600052602260045260246000fd5b50919050565b601f8211156200019657600081815260208120601f850160051c81016020861015620001715750805b601f850160051c820191505b8181101562000192578281556001016200017d565b5050505b505050565b81516001600160401b03811115620001b757620001b7620000f6565b620001cf81620001c884546200010c565b8462000148565b602080601f831160018114620002075760008415620001ee5750858301515b600019600386901b1c1916600185901b17855562000192565b600085815260208120601f198616915b82811015620002385788860151825594840194600190910190840162000217565b5085821015620002575787850151600019600388901b60f8161c191681555b5050505050600190811b01905550565b61220380620002776000396000f3fe608060405234801561001057600080fd5b50600436106101585760003560e01c80636352211e116100c3578063b57498dc1161007c578063b57498dc14610411578063b88d4fde14610431578063c87b56dd14610444578063dc88cf7814610457578063e289f1a714610477578063e985e9c51461048a57600080fd5b80636352211e146103b557806363df0ef7146103c857806370a08231146103db57806383197ef0146103ee57806395d89b41146103f6578063a22cb465146103fe57600080fd5b8063254496be11610115578063254496be1461020d5780633bb3a24d146102a257806342842e0e146102b5578063436882d3146102c85780634f8572c4146102e957806357d34d32146102fc57600080fd5b806301ffc9a71461015d57806306fdde0314610185578063081812fc1461019a578063095ea7b3146101c55780631e58c923146101da57806323b872dd146101fa575b600080fd5b61017061016b366004611af6565b61049d565b60405190151581526020015b60405180910390f35b61018d6104c8565b60405161017c9190611b63565b6101ad6101a8366004611b76565b61055a565b6040516001600160a01b03909116815260200161017c565b6101d86101d3366004611bab565b610583565b005b6101ed6101e8366004611bd5565b610592565b60405161017c9190611c39565b6101d8610208366004611c87565b61072b565b61026a61021b366004611bab565b60086020908152600092835260408084209091529082529020805460019091015460ff808216916101008104821691620100008204811691630100000081048216916401000000009091041686565b6040805196875260ff9586166020880152938516938601939093529083166060850152821660808401521660a082015260c00161017c565b61018d6102b0366004611b76565b6107bb565b6101d86102c3366004611c87565b6107c6565b6102db6102d6366004611d4f565b6107e6565b60405190815260200161017c565b6101d86102f7366004611c87565b610a44565b6103a861030a366004611b76565b6040805160c081018252600080825260208201819052918101829052606081018290526080810182905260a081019190915250600090815260076020908152604091829020825160c0810184528154815260019091015460ff8082169383019390935261010081048316938201939093526201000083048216606082015263010000008304821660808201526401000000009092041660a082015290565b60405161017c9190611db1565b6101ad6103c3366004611b76565b610d9a565b600d546101ad906001600160a01b031681565b6102db6103e9366004611bd5565b610da5565b6101d8610ded565b61018d610e25565b6101d861040c366004611dbf565b610e34565b6102db61041f366004611bd5565b60096020526000908152604090205481565b6101d861043f366004611dfb565b610e3f565b61018d610452366004611b76565b610e56565b61046a610465366004611bd5565b610f67565b60405161017c9190611e77565b6102db610485366004611bab565b611064565b610170610498366004611ed9565b611095565b60006001600160e01b03198216632483248360e11b14806104c257506104c2826110c3565b92915050565b6060600080546104d790611f0c565b80601f016020809104026020016040519081016040528092919081815260200182805461050390611f0c565b80156105505780601f1061052557610100808354040283529160200191610550565b820191906000526020600020905b81548152906001019060200180831161053357829003601f168201915b5050505050905090565b600061056582611113565b506000828152600460205260409020546001600160a01b03166104c2565b61058e82823361114c565b5050565b6001600160a01b0381166000908152600a60205260408120546060919067ffffffffffffffff8111156105c7576105c7611cc3565b60405190808252806020026020018201604052801561062757816020015b6040805160c08101825260008082526020808301829052928201819052606082018190526080820181905260a082015282526000199092019101816105e55790505b50905060005b6001600160a01b0384166000908152600a6020526040902054811015610724576001600160a01b0384166000908152600a60205260408120805460079291908490811061067c5761067c611f46565b600091825260208083209091015483528281019390935260409182019020815160c0810183528154815260019091015460ff80821694830194909452610100810484169282019290925262010000820483166060820152630100000082048316608082015264010000000090910490911660a0820152825183908390811061070657610706611f46565b6020026020010181905250808061071c90611f72565b91505061062d565b5092915050565b6001600160a01b03821661075a57604051633250574960e11b8152600060048201526024015b60405180910390fd5b6000610767838333611159565b9050836001600160a01b0316816001600160a01b0316146107b5576040516364283d7b60e01b81526001600160a01b0380861660048301526024820184905282166044820152606401610751565b50505050565b60606104c282610e56565b6107e183838360405180602001604052806000815250610e3f565b505050565b600d546000906001600160a01b031633146108135760405162461bcd60e51b815260040161075190611f8b565b6001600b60008282546108269190611fd8565b9250508190555060006040518060c00160405280600b54815260200161084a611252565b60ff16815260200161085a611252565b60ff16815260200161086a611252565b610875906005611fd8565b60ff168152602001610885611252565b60ff9081168252600160209283018190526001600160a01b0388166000818152600a85526040808220600b805482548088018455928552888520909201919091558383526008875281832090548352865280822087518155878701519085018054838a015160608b015160808c015160a08d01518b166401000000000264ff0000000019918c1663010000000263ff00000019938d1662010000029390931663ffff000019948d166101000261ffff1990961697909c169690961793909317919091169890981797909717969096161790945590815260099093529120549192506109709190611fd8565b6001600160a01b038516600090815260096020526040902055600b546109979085906112c4565b6109a3600b5484611329565b600b8054600090815260076020908152604091829020845181559084015160019091018054928501516060860151608087015160a09097015160ff94851661ffff1990961695909517610100928516929092029190911763ffff00001916620100009184169190910263ff0000001916176301000000958316959095029490941764ff00000000191664010000000091909216021790915554905092915050565b600d546001600160a01b03163314610a6e5760405162461bcd60e51b815260040161075190611f8b565b610a79838383611379565b600060086000856001600160a01b03166001600160a01b0316815260200190815260200160002060008381526020019081526020016000206040518060c0016040529081600082015481526020016001820160009054906101000a900460ff1660ff1660ff1681526020016001820160019054906101000a900460ff1660ff1660ff1681526020016001820160029054906101000a900460ff1660ff1660ff1681526020016001820160039054906101000a900460ff1660ff1660ff1681526020016001820160049054906101000a900460ff1660ff1660ff1681525050905060086000856001600160a01b03166001600160a01b0316815260200190815260200160002060008381526020019081526020016000206000808201600090556001820160006101000a81549060ff02191690556001820160016101000a81549060ff02191690556001820160026101000a81549060ff02191690556001820160036101000a81549060ff02191690556001820160046101000a81549060ff021916905550508060086000856001600160a01b03166001600160a01b0316815260200190815260200160002060008481526020019081526020016000206000820151816000015560208201518160010160006101000a81548160ff021916908360ff16021790555060408201518160010160016101000a81548160ff021916908360ff16021790555060608201518160010160026101000a81548160ff021916908360ff16021790555060808201518160010160036101000a81548160ff021916908360ff16021790555060a08201518160010160046101000a81548160ff021916908360ff160217905550905050600160096000866001600160a01b03166001600160a01b0316815260200190815260200160002054610d199190611feb565b6001600160a01b038086166000908152600960205260408082209390935590851681522054610d49906001611fd8565b6001600160a01b038416600090815260096020526040902055610d6c8285611429565b506001600160a01b039091166000908152600a60209081526040822080546001810182559083529120015550565b60006104c282611113565b60006001600160a01b038216610dd1576040516322718ad960e21b815260006004820152602401610751565b506001600160a01b031660009081526003602052604090205490565b600d546001600160a01b03163314610e175760405162461bcd60e51b815260040161075190611f8b565b600d546001600160a01b0316ff5b6060600180546104d790611f0c565b61058e338383611568565b610e4a84848461072b565b6107b584848484611607565b6060610e6182611113565b5060008281526006602052604081208054610e7b90611f0c565b80601f0160208091040260200160405190810160405280929190818152602001828054610ea790611f0c565b8015610ef45780601f10610ec957610100808354040283529160200191610ef4565b820191906000526020600020905b815481529060010190602001808311610ed757829003601f168201915b505050505090506000610f1260408051602081019091526000815290565b90508051600003610f24575092915050565b815115610f56578082604051602001610f3e929190611ffe565b60405160208183030381529060405292505050919050565b610f5f84611730565b949350505050565b6001600160a01b0381166000908152600a60205260408120546060919067ffffffffffffffff811115610f9c57610f9c611cc3565b604051908082528060200260200182016040528015610fcf57816020015b6060815260200190600190039081610fba5790505b50905060005b6001600160a01b0384166000908152600a6020526040902054811015610724576001600160a01b0384166000908152600a60205260409020805461103491908390811061102457611024611f46565b9060005260206000200154610e56565b82828151811061104657611046611f46565b6020026020010181905250808061105c90611f72565b915050610fd5565b600a602052816000526040600020818154811061108057600080fd5b90600052602060002001600091509150505481565b6001600160a01b03918216600090815260056020908152604080832093909416825291909152205460ff1690565b60006001600160e01b031982166380ac58cd60e01b14806110f457506001600160e01b03198216635b5e139f60e01b145b806104c257506301ffc9a760e01b6001600160e01b03198316146104c2565b6000818152600260205260408120546001600160a01b0316806104c257604051637e27328960e01b815260048101849052602401610751565b6107e183838360016117a5565b6000828152600260205260408120546001600160a01b0390811690831615611186576111868184866118ab565b6001600160a01b038116156111c4576111a36000856000806117a5565b6001600160a01b038116600090815260036020526040902080546000190190555b6001600160a01b038516156111f3576001600160a01b0385166000908152600360205260409020805460010190555b60008481526002602052604080822080546001600160a01b0319166001600160a01b0389811691821790925591518793918516917fddf252ad1be2c89b69c2b068fc378daa952ba7f163c4a11628f55a4df523b3ef91a4949350505050565b6000600a3342611263600143611feb565b60405160609390931b6bffffffffffffffffffffffff1916602084015260348301919091524060548201526074016040516020818303038152906040528051906020012060001c6112b4919061202d565b6112bf906001611fd8565b905090565b6001600160a01b0382166112ee57604051633250574960e11b815260006004820152602401610751565b60006112fc83836000611159565b90506001600160a01b038116156107e1576040516339e3563760e11b815260006004820152602401610751565b6000828152600660205260409020611341828261209d565b506040518281527ff8e1a15aba9398e019f0b49df1a4fde98ee17ae345cb5f6b5e2c27f5033e8ce79060200160405180910390a15050565b6001600160a01b0382166113a357604051633250574960e11b815260006004820152602401610751565b60006113b183836000611159565b90506001600160a01b0381166113dd57604051637e27328960e01b815260048101839052602401610751565b836001600160a01b0316816001600160a01b0316146107b5576040516364283d7b60e01b81526001600160a01b0380861660048301526024820184905282166044820152606401610751565b6000805b6001600160a01b0383166000908152600a60205260409020548110156114a0576001600160a01b0383166000908152600a6020526040902080548591908390811061147a5761147a611f46565b90600052602060002001540361148e578091505b8061149881611f72565b91505061142d565b506001600160a01b0382166000908152600a6020526040902080546114c790600190611feb565b815481106114d7576114d7611f46565b9060005260206000200154600a6000846001600160a01b03166001600160a01b03168152602001908152602001600020828154811061151857611518611f46565b60009182526020808320909101929092556001600160a01b0384168152600a9091526040902080548061154d5761154d61215d565b60019003818190600052602060002001600090559055505050565b6001600160a01b03821661159a57604051630b61174360e31b81526001600160a01b0383166004820152602401610751565b6001600160a01b03838116600081815260056020908152604080832094871680845294825291829020805460ff191686151590811790915591519182527f17307eab39ab6107e8899845ad3d59bd9653f200f220920489ca2b5937696c31910160405180910390a3505050565b6001600160a01b0383163b156107b557604051630a85bd0160e11b81526001600160a01b0384169063150b7a0290611649903390889087908790600401612173565b6020604051808303816000875af1925050508015611684575060408051601f3d908101601f19168201909252611681918101906121b0565b60015b6116ed573d8080156116b2576040519150601f19603f3d011682016040523d82523d6000602084013e6116b7565b606091505b5080516000036116e557604051633250574960e11b81526001600160a01b0385166004820152602401610751565b805181602001fd5b6001600160e01b03198116630a85bd0160e11b1461172957604051633250574960e11b81526001600160a01b0385166004820152602401610751565b5050505050565b606061173b82611113565b50600061175360408051602081019091526000815290565b90506000815111611773576040518060200160405280600081525061179e565b8061177d8461190f565b60405160200161178e929190611ffe565b6040516020818303038152906040525b9392505050565b80806117b957506001600160a01b03821615155b1561187b5760006117c984611113565b90506001600160a01b038316158015906117f55750826001600160a01b0316816001600160a01b031614155b801561180857506118068184611095565b155b156118315760405163a9fbf51f60e01b81526001600160a01b0384166004820152602401610751565b81156118795783856001600160a01b0316826001600160a01b03167f8c5be1e5ebec7d5bd14f71427d1e84f3dd0314c0f7b2291e5b200ac8c7c3b92560405160405180910390a45b505b5050600090815260046020526040902080546001600160a01b0319166001600160a01b0392909216919091179055565b6118b68383836119a2565b6107e1576001600160a01b0383166118e457604051637e27328960e01b815260048101829052602401610751565b60405163177e802f60e01b81526001600160a01b038316600482015260248101829052604401610751565b6060600061191c83611a05565b600101905060008167ffffffffffffffff81111561193c5761193c611cc3565b6040519080825280601f01601f191660200182016040528015611966576020820181803683370190505b5090508181016020015b600019016f181899199a1a9b1b9c1cb0b131b232b360811b600a86061a8153600a850494508461197057509392505050565b60006001600160a01b03831615801590610f5f5750826001600160a01b0316846001600160a01b031614806119dc57506119dc8484611095565b80610f5f5750506000908152600460205260409020546001600160a01b03908116911614919050565b60008072184f03e93ff9f4daa797ed6e38ed64bf6a1f0160401b8310611a445772184f03e93ff9f4daa797ed6e38ed64bf6a1f0160401b830492506040015b6d04ee2d6d415b85acef81000000008310611a70576d04ee2d6d415b85acef8100000000830492506020015b662386f26fc100008310611a8e57662386f26fc10000830492506010015b6305f5e1008310611aa6576305f5e100830492506008015b6127108310611aba57612710830492506004015b60648310611acc576064830492506002015b600a83106104c25760010192915050565b6001600160e01b031981168114611af357600080fd5b50565b600060208284031215611b0857600080fd5b813561179e81611add565b60005b83811015611b2e578181015183820152602001611b16565b50506000910152565b60008151808452611b4f816020860160208601611b13565b601f01601f19169290920160200192915050565b60208152600061179e6020830184611b37565b600060208284031215611b8857600080fd5b5035919050565b80356001600160a01b0381168114611ba657600080fd5b919050565b60008060408385031215611bbe57600080fd5b611bc783611b8f565b946020939093013593505050565b600060208284031215611be757600080fd5b61179e82611b8f565b8051825260ff602082015116602083015260ff604082015116604083015260ff606082015116606083015260ff608082015116608083015260ff60a08201511660a08301525050565b6020808252825182820181905260009190848201906040850190845b81811015611c7b57611c68838551611bf0565b9284019260c09290920191600101611c55565b50909695505050505050565b600080600060608486031215611c9c57600080fd5b611ca584611b8f565b9250611cb360208501611b8f565b9150604084013590509250925092565b634e487b7160e01b600052604160045260246000fd5b600067ffffffffffffffff80841115611cf457611cf4611cc3565b604051601f8501601f19908116603f01168101908282118183101715611d1c57611d1c611cc3565b81604052809350858152868686011115611d3557600080fd5b858560208301376000602087830101525050509392505050565b60008060408385031215611d6257600080fd5b611d6b83611b8f565b9150602083013567ffffffffffffffff811115611d8757600080fd5b8301601f81018513611d9857600080fd5b611da785823560208401611cd9565b9150509250929050565b60c081016104c28284611bf0565b60008060408385031215611dd257600080fd5b611ddb83611b8f565b915060208301358015158114611df057600080fd5b809150509250929050565b60008060008060808587031215611e1157600080fd5b611e1a85611b8f565b9350611e2860208601611b8f565b925060408501359150606085013567ffffffffffffffff811115611e4b57600080fd5b8501601f81018713611e5c57600080fd5b611e6b87823560208401611cd9565b91505092959194509250565b6000602080830181845280855180835260408601915060408160051b870101925083870160005b82811015611ecc57603f19888603018452611eba858351611b37565b94509285019290850190600101611e9e565b5092979650505050505050565b60008060408385031215611eec57600080fd5b611ef583611b8f565b9150611f0360208401611b8f565b90509250929050565b600181811c90821680611f2057607f821691505b602082108103611f4057634e487b7160e01b600052602260045260246000fd5b50919050565b634e487b7160e01b600052603260045260246000fd5b634e487b7160e01b600052601160045260246000fd5b600060018201611f8457611f84611f5c565b5060010190565b6020808252602d908201527f4f6e6c79207468652067616d6520636f6e74726163742063616e2063616c6c2060408201526c3a3434b990333ab731ba34b7b760991b606082015260800190565b808201808211156104c2576104c2611f5c565b818103818111156104c2576104c2611f5c565b60008351612010818460208801611b13565b835190830190612024818360208801611b13565b01949350505050565b60008261204a57634e487b7160e01b600052601260045260246000fd5b500690565b601f8211156107e157600081815260208120601f850160051c810160208610156120765750805b601f850160051c820191505b8181101561209557828155600101612082565b505050505050565b815167ffffffffffffffff8111156120b7576120b7611cc3565b6120cb816120c58454611f0c565b8461204f565b602080601f83116001811461210057600084156120e85750858301515b600019600386901b1c1916600185901b178555612095565b600085815260208120601f198616915b8281101561212f57888601518255948401946001909101908401612110565b508582101561214d5787850151600019600388901b60f8161c191681555b5050505050600190811b01905550565b634e487b7160e01b600052603160045260246000fd5b6001600160a01b03858116825284166020820152604081018390526080606082018190526000906121a690830184611b37565b9695505050505050565b6000602082840312156121c257600080fd5b815161179e81611add56fea264697066735822122008d4538193f8f748c0d852a20fdd1349b675d260b029b8ae3940d89470dbcd4e64736f6c63430008130033",
  "immutableReferences": {},
  "source": "// SPDX-License-Identifier: MIT \r\npragma solidity ^0.8.18;\r\n\r\nimport \"../node_modules/@openzeppelin/contracts/token/ERC721/extensions/ERC721URIStorage.sol\";\r\n\r\ncontract AEMonsterNFT is ERC721URIStorage{\r\n    //*--------------State variables--------------\r\n    //The monster struct\r\n    struct AEMonster{                           //It is used uint8 because the max of a stat is 100\r\n        uint256 monsterId;                      //The tokenId of the NFTs\r\n        uint8 AP;                               //Attack Point\r\n        uint8 DP;                               //Defence Point\r\n        uint8 HP;                               //Health Point\r\n        uint8 SP;                               //Speed Point\r\n        uint8 level;                            //Higher the level stronger the monster (higher stats) //*Starting level is 1, max level is 100\r\n    }   \r\n\r\n    mapping (uint256 => AEMonster) private fromIdToMonster;                         //Map to get the monster stats from its id\r\n    mapping (address =>mapping(uint256 => AEMonster)) public monstersOwnedBy;      //Map the monsters owned by an account\r\n    mapping (address => uint256) public numMonstersOwnedBy;                        //Map the number of monster owned by a player\r\n    mapping(address => uint256[]) public monsterIdsByAddress;                       //The ids of the monsters owned by an account\r\n\r\n\r\n    uint256 private tokenId;                                    //Used to assign unique identifier to each NFT\r\n    uint256 private randomSeed;                                 //Useful for the random number function\r\n\r\n    address public gameContractAddress;                         //The address of the contract that manages all the dapp\r\n \r\n    constructor(address _gameContractAddress) ERC721(\"AEMonster\",\"AEM\"){\r\n        tokenId = 0;\r\n        randomSeed = block.timestamp;                           //Usefull for \"randomness\" in the random function\r\n        gameContractAddress = _gameContractAddress;\r\n    }\r\n    \r\n    //*--------------Modifiers--------------\r\n    //*Necessaria per fare in modo che le funzioni siano chiamabili solo dal contratto principale\r\n    modifier onlyGameContract(){\r\n        require(msg.sender == gameContractAddress,\"Only the game contract can call this function\");\r\n        _;\r\n    }\r\n\r\n    //*--------------Main functionalities--------------\r\n    function buyMonster(address player, string memory tokenURI) \r\n        external onlyGameContract returns(uint256){                                //Return the id of the created monster\r\n        //*Creation of the monster stats\r\n        tokenId += 1;\r\n        AEMonster memory newMonster = AEMonster({\r\n            monsterId: tokenId,\r\n            AP: (uint8)(random()),\r\n            DP: (uint8)(random()),\r\n            HP: (uint8)(random() + 5),                                             //5 is the base HP for each Monster\r\n            SP: (uint8)(random()),\r\n            level : 1                                       \r\n        });\r\n            \r\n        //Add the new monster to the collection\r\n        monsterIdsByAddress[player].push(tokenId);\r\n        //monsters.push(newMonster);\r\n\r\n        //Map the monster to the owner\r\n        monstersOwnedBy[player][tokenId] = newMonster;\r\n\r\n        //Set the number of owned monster for such player\r\n        numMonstersOwnedBy[player] = numMonstersOwnedBy[player] +1;\r\n\r\n            \r\n        //*Creation of the effective  NFT\r\n        _mint(player, tokenId);\r\n        _setTokenURI(tokenId, tokenURI);\r\n\r\n        //*Map the owner with the created monster\r\n        fromIdToMonster[tokenId] = newMonster;\r\n\r\n        return tokenId;\r\n    }\r\n\r\n    //This is needed in order to implement the exchange of monsters, in the market, between players\r\n    function transferMonster(address from, address to, uint256 _tokenId) external onlyGameContract(){\r\n        _transfer(from, to, _tokenId);\r\n        AEMonster memory swap = monstersOwnedBy[from][_tokenId];\r\n        delete(monstersOwnedBy[from][_tokenId]);       \r\n        monstersOwnedBy[to][_tokenId] = swap;\r\n        numMonstersOwnedBy[from] = numMonstersOwnedBy[from] - 1;\r\n        numMonstersOwnedBy[to] = numMonstersOwnedBy[to] + 1;\r\n        removeMonsterIdFromOwnership(_tokenId,from);            //Remove the monsters id from the one associated to the from player\r\n        monsterIdsByAddress[to].push(_tokenId);                  //And add it to the other player\r\n    }\r\n\r\n\r\n    //Return the monster data given its id\r\n    function getMonsterFromId(uint256 monsterId)public view returns(AEMonster memory){\r\n        return fromIdToMonster[monsterId];\r\n    }\r\n\r\n\r\n    //Return the monsters owned by a player\r\n    function getMonstersOwnedBy(address player) public view returns (AEMonster[] memory){\r\n        AEMonster[] memory result = new AEMonster[](monsterIdsByAddress[player].length);\r\n        for(uint256 i = 0;i<monsterIdsByAddress[player].length;i++){    //Loop for all the tokenIds of the owned monsters\r\n            result[i] = fromIdToMonster[ monsterIdsByAddress[player][i]];\r\n        }\r\n        return result;\r\n    }\r\n\r\n\r\n    //Returns the list of URI of the owned monsters\r\n    function getMonstersURIOwnedBy(address player)public view returns(string[] memory){\r\n        string[] memory result = new string[](monsterIdsByAddress[player].length);\r\n        for(uint256 i=0;i<monsterIdsByAddress[player].length;i++){\r\n            result[i] = tokenURI(monsterIdsByAddress[player][i]);\r\n        }\r\n        return result;\r\n    }\r\n\r\n    //Return the URI associated to a monster\r\n    function getTokenURI(uint256 _tokenId) public view returns (string memory) {\r\n        return tokenURI(_tokenId);\r\n    }\r\n\r\n    \r\n    //!Funtion to generate \"random\" number\r\n    function random() private view returns (uint256){ \r\n        return ((uint( keccak256(abi.encodePacked (msg.sender, block.timestamp, blockhash(block.number - 1)))))%10)+1;\r\n    }\r\n\r\n\r\n    //Needed when an exchange is performed\r\n    function removeMonsterIdFromOwnership(uint256 _tokenId, address player) private{\r\n        uint256 indexToRemove;\r\n        //Find the index in the array where the element is located\r\n        for (uint256 i = 0; i < monsterIdsByAddress[player].length; i++) {\r\n            if (monsterIdsByAddress[player][i] == _tokenId) {\r\n                indexToRemove = i;\r\n            }\r\n        }\r\n\r\n        //Perform the remove\r\n        monsterIdsByAddress[player][indexToRemove] = monsterIdsByAddress[player][monsterIdsByAddress[player].length - 1];\r\n        monsterIdsByAddress[player].pop();\r\n    }\r\n\r\n\r\n    //Only the game contract can call this function\r\n    function destroy() public onlyGameContract{\r\n        selfdestruct(payable(gameContractAddress));\r\n    }\r\n\r\n}",
  "sourcePath": "C:\\Users\\cschi\\Desktop\\Scuola\\Magistrale\\Secondo Anno\\Primo Semestre\\Blockchain and DLTs\\Progetto\\AetherMon\\AEtherMon\\contracts\\AEMonster.sol",
  "compiler": {
    "name": "solc",
    "version": "0.8.19+commit.7dd6d404.Emscripten.clang"
  },
  "schemaVersion": "3.4.16",
  "updatedAt": "2024-02-07T08:25:56.458Z",
  "devdoc": {
    "errors": {
      "ERC721IncorrectOwner(address,uint256,address)": [
        {
          "details": "Indicates an error related to the ownership over a particular token. Used in transfers.",
          "params": {
            "owner": "Address of the current owner of a token.",
            "sender": "Address whose tokens are being transferred.",
            "tokenId": "Identifier number of a token."
          }
        }
      ],
      "ERC721InsufficientApproval(address,uint256)": [
        {
          "details": "Indicates a failure with the `operator`s approval. Used in transfers.",
          "params": {
            "operator": "Address that may be allowed to operate on tokens without being their owner.",
            "tokenId": "Identifier number of a token."
          }
        }
      ],
      "ERC721InvalidApprover(address)": [
        {
          "details": "Indicates a failure with the `approver` of a token to be approved. Used in approvals.",
          "params": {
            "approver": "Address initiating an approval operation."
          }
        }
      ],
      "ERC721InvalidOperator(address)": [
        {
          "details": "Indicates a failure with the `operator` to be approved. Used in approvals.",
          "params": {
            "operator": "Address that may be allowed to operate on tokens without being their owner."
          }
        }
      ],
      "ERC721InvalidOwner(address)": [
        {
          "details": "Indicates that an address can't be an owner. For example, `address(0)` is a forbidden owner in EIP-20. Used in balance queries.",
          "params": {
            "owner": "Address of the current owner of a token."
          }
        }
      ],
      "ERC721InvalidReceiver(address)": [
        {
          "details": "Indicates a failure with the token `receiver`. Used in transfers.",
          "params": {
            "receiver": "Address to which tokens are being transferred."
          }
        }
      ],
      "ERC721InvalidSender(address)": [
        {
          "details": "Indicates a failure with the token `sender`. Used in transfers.",
          "params": {
            "sender": "Address whose tokens are being transferred."
          }
        }
      ],
      "ERC721NonexistentToken(uint256)": [
        {
          "details": "Indicates a `tokenId` whose `owner` is the zero address.",
          "params": {
            "tokenId": "Identifier number of a token."
          }
        }
      ]
    },
    "events": {
      "Approval(address,address,uint256)": {
        "details": "Emitted when `owner` enables `approved` to manage the `tokenId` token."
      },
      "ApprovalForAll(address,address,bool)": {
        "details": "Emitted when `owner` enables or disables (`approved`) `operator` to manage all of its assets."
      },
      "BatchMetadataUpdate(uint256,uint256)": {
        "details": "This event emits when the metadata of a range of tokens is changed. So that the third-party platforms such as NFT market could timely update the images and related attributes of the NFTs."
      },
      "MetadataUpdate(uint256)": {
        "details": "This event emits when the metadata of a token is changed. So that the third-party platforms such as NFT market could timely update the images and related attributes of the NFT."
      },
      "Transfer(address,address,uint256)": {
        "details": "Emitted when `tokenId` token is transferred from `from` to `to`."
      }
    },
    "kind": "dev",
    "methods": {
      "approve(address,uint256)": {
        "details": "See {IERC721-approve}."
      },
      "balanceOf(address)": {
        "details": "See {IERC721-balanceOf}."
      },
      "getApproved(uint256)": {
        "details": "See {IERC721-getApproved}."
      },
      "isApprovedForAll(address,address)": {
        "details": "See {IERC721-isApprovedForAll}."
      },
      "name()": {
        "details": "See {IERC721Metadata-name}."
      },
      "ownerOf(uint256)": {
        "details": "See {IERC721-ownerOf}."
      },
      "safeTransferFrom(address,address,uint256)": {
        "details": "See {IERC721-safeTransferFrom}."
      },
      "safeTransferFrom(address,address,uint256,bytes)": {
        "details": "See {IERC721-safeTransferFrom}."
      },
      "setApprovalForAll(address,bool)": {
        "details": "See {IERC721-setApprovalForAll}."
      },
      "supportsInterface(bytes4)": {
        "details": "See {IERC165-supportsInterface}"
      },
      "symbol()": {
        "details": "See {IERC721Metadata-symbol}."
      },
      "tokenURI(uint256)": {
        "details": "See {IERC721Metadata-tokenURI}."
      },
      "transferFrom(address,address,uint256)": {
        "details": "See {IERC721-transferFrom}."
      }
    },
    "version": 1
  },
  "userdoc": {
    "kind": "user",
    "methods": {},
    "version": 1
  }
}