{
  "contractName": "AEMonsterNFT",
  "abi": [
    {
      "inputs": [
        {
          "internalType": "address",
          "name": "_gameContractAddress",
          "type": "address"
        }
      ],
      "stateMutability": "nonpayable",
      "type": "constructor"
    },
    {
      "inputs": [
        {
          "internalType": "address",
          "name": "sender",
          "type": "address"
        },
        {
          "internalType": "uint256",
          "name": "tokenId",
          "type": "uint256"
        },
        {
          "internalType": "address",
          "name": "owner",
          "type": "address"
        }
      ],
      "name": "ERC721IncorrectOwner",
      "type": "error"
    },
    {
      "inputs": [
        {
          "internalType": "address",
          "name": "operator",
          "type": "address"
        },
        {
          "internalType": "uint256",
          "name": "tokenId",
          "type": "uint256"
        }
      ],
      "name": "ERC721InsufficientApproval",
      "type": "error"
    },
    {
      "inputs": [
        {
          "internalType": "address",
          "name": "approver",
          "type": "address"
        }
      ],
      "name": "ERC721InvalidApprover",
      "type": "error"
    },
    {
      "inputs": [
        {
          "internalType": "address",
          "name": "operator",
          "type": "address"
        }
      ],
      "name": "ERC721InvalidOperator",
      "type": "error"
    },
    {
      "inputs": [
        {
          "internalType": "address",
          "name": "owner",
          "type": "address"
        }
      ],
      "name": "ERC721InvalidOwner",
      "type": "error"
    },
    {
      "inputs": [
        {
          "internalType": "address",
          "name": "receiver",
          "type": "address"
        }
      ],
      "name": "ERC721InvalidReceiver",
      "type": "error"
    },
    {
      "inputs": [
        {
          "internalType": "address",
          "name": "sender",
          "type": "address"
        }
      ],
      "name": "ERC721InvalidSender",
      "type": "error"
    },
    {
      "inputs": [
        {
          "internalType": "uint256",
          "name": "tokenId",
          "type": "uint256"
        }
      ],
      "name": "ERC721NonexistentToken",
      "type": "error"
    },
    {
      "anonymous": false,
      "inputs": [
        {
          "indexed": true,
          "internalType": "address",
          "name": "owner",
          "type": "address"
        },
        {
          "indexed": true,
          "internalType": "address",
          "name": "approved",
          "type": "address"
        },
        {
          "indexed": true,
          "internalType": "uint256",
          "name": "tokenId",
          "type": "uint256"
        }
      ],
      "name": "Approval",
      "type": "event"
    },
    {
      "anonymous": false,
      "inputs": [
        {
          "indexed": true,
          "internalType": "address",
          "name": "owner",
          "type": "address"
        },
        {
          "indexed": true,
          "internalType": "address",
          "name": "operator",
          "type": "address"
        },
        {
          "indexed": false,
          "internalType": "bool",
          "name": "approved",
          "type": "bool"
        }
      ],
      "name": "ApprovalForAll",
      "type": "event"
    },
    {
      "anonymous": false,
      "inputs": [
        {
          "indexed": false,
          "internalType": "uint256",
          "name": "_fromTokenId",
          "type": "uint256"
        },
        {
          "indexed": false,
          "internalType": "uint256",
          "name": "_toTokenId",
          "type": "uint256"
        }
      ],
      "name": "BatchMetadataUpdate",
      "type": "event"
    },
    {
      "anonymous": false,
      "inputs": [
        {
          "indexed": false,
          "internalType": "uint256",
          "name": "_tokenId",
          "type": "uint256"
        }
      ],
      "name": "MetadataUpdate",
      "type": "event"
    },
    {
      "anonymous": false,
      "inputs": [
        {
          "indexed": true,
          "internalType": "address",
          "name": "from",
          "type": "address"
        },
        {
          "indexed": true,
          "internalType": "address",
          "name": "to",
          "type": "address"
        },
        {
          "indexed": true,
          "internalType": "uint256",
          "name": "tokenId",
          "type": "uint256"
        }
      ],
      "name": "Transfer",
      "type": "event"
    },
    {
      "inputs": [
        {
          "internalType": "address",
          "name": "to",
          "type": "address"
        },
        {
          "internalType": "uint256",
          "name": "tokenId",
          "type": "uint256"
        }
      ],
      "name": "approve",
      "outputs": [],
      "stateMutability": "nonpayable",
      "type": "function"
    },
    {
      "inputs": [
        {
          "internalType": "address",
          "name": "owner",
          "type": "address"
        }
      ],
      "name": "balanceOf",
      "outputs": [
        {
          "internalType": "uint256",
          "name": "",
          "type": "uint256"
        }
      ],
      "stateMutability": "view",
      "type": "function"
    },
    {
      "inputs": [],
      "name": "gameContractAddress",
      "outputs": [
        {
          "internalType": "address",
          "name": "",
          "type": "address"
        }
      ],
      "stateMutability": "view",
      "type": "function"
    },
    {
      "inputs": [
        {
          "internalType": "uint256",
          "name": "tokenId",
          "type": "uint256"
        }
      ],
      "name": "getApproved",
      "outputs": [
        {
          "internalType": "address",
          "name": "",
          "type": "address"
        }
      ],
      "stateMutability": "view",
      "type": "function"
    },
    {
      "inputs": [
        {
          "internalType": "address",
          "name": "owner",
          "type": "address"
        },
        {
          "internalType": "address",
          "name": "operator",
          "type": "address"
        }
      ],
      "name": "isApprovedForAll",
      "outputs": [
        {
          "internalType": "bool",
          "name": "",
          "type": "bool"
        }
      ],
      "stateMutability": "view",
      "type": "function"
    },
    {
      "inputs": [
        {
          "internalType": "address",
          "name": "",
          "type": "address"
        },
        {
          "internalType": "uint256",
          "name": "",
          "type": "uint256"
        }
      ],
      "name": "monsterIdsByAddress",
      "outputs": [
        {
          "internalType": "uint256",
          "name": "",
          "type": "uint256"
        }
      ],
      "stateMutability": "view",
      "type": "function"
    },
    {
      "inputs": [
        {
          "internalType": "address",
          "name": "",
          "type": "address"
        },
        {
          "internalType": "uint256",
          "name": "",
          "type": "uint256"
        }
      ],
      "name": "monstersOwnedBy",
      "outputs": [
        {
          "internalType": "uint256",
          "name": "monsterId",
          "type": "uint256"
        },
        {
          "internalType": "uint8",
          "name": "AP",
          "type": "uint8"
        },
        {
          "internalType": "uint8",
          "name": "DP",
          "type": "uint8"
        },
        {
          "internalType": "uint8",
          "name": "HP",
          "type": "uint8"
        },
        {
          "internalType": "uint8",
          "name": "SP",
          "type": "uint8"
        },
        {
          "internalType": "uint8",
          "name": "level",
          "type": "uint8"
        }
      ],
      "stateMutability": "view",
      "type": "function"
    },
    {
      "inputs": [],
      "name": "name",
      "outputs": [
        {
          "internalType": "string",
          "name": "",
          "type": "string"
        }
      ],
      "stateMutability": "view",
      "type": "function"
    },
    {
      "inputs": [
        {
          "internalType": "address",
          "name": "",
          "type": "address"
        }
      ],
      "name": "numMonstersOwnedBy",
      "outputs": [
        {
          "internalType": "uint256",
          "name": "",
          "type": "uint256"
        }
      ],
      "stateMutability": "view",
      "type": "function"
    },
    {
      "inputs": [
        {
          "internalType": "uint256",
          "name": "tokenId",
          "type": "uint256"
        }
      ],
      "name": "ownerOf",
      "outputs": [
        {
          "internalType": "address",
          "name": "",
          "type": "address"
        }
      ],
      "stateMutability": "view",
      "type": "function"
    },
    {
      "inputs": [
        {
          "internalType": "address",
          "name": "from",
          "type": "address"
        },
        {
          "internalType": "address",
          "name": "to",
          "type": "address"
        },
        {
          "internalType": "uint256",
          "name": "tokenId",
          "type": "uint256"
        }
      ],
      "name": "safeTransferFrom",
      "outputs": [],
      "stateMutability": "nonpayable",
      "type": "function"
    },
    {
      "inputs": [
        {
          "internalType": "address",
          "name": "from",
          "type": "address"
        },
        {
          "internalType": "address",
          "name": "to",
          "type": "address"
        },
        {
          "internalType": "uint256",
          "name": "tokenId",
          "type": "uint256"
        },
        {
          "internalType": "bytes",
          "name": "data",
          "type": "bytes"
        }
      ],
      "name": "safeTransferFrom",
      "outputs": [],
      "stateMutability": "nonpayable",
      "type": "function"
    },
    {
      "inputs": [
        {
          "internalType": "address",
          "name": "operator",
          "type": "address"
        },
        {
          "internalType": "bool",
          "name": "approved",
          "type": "bool"
        }
      ],
      "name": "setApprovalForAll",
      "outputs": [],
      "stateMutability": "nonpayable",
      "type": "function"
    },
    {
      "inputs": [
        {
          "internalType": "bytes4",
          "name": "interfaceId",
          "type": "bytes4"
        }
      ],
      "name": "supportsInterface",
      "outputs": [
        {
          "internalType": "bool",
          "name": "",
          "type": "bool"
        }
      ],
      "stateMutability": "view",
      "type": "function"
    },
    {
      "inputs": [],
      "name": "symbol",
      "outputs": [
        {
          "internalType": "string",
          "name": "",
          "type": "string"
        }
      ],
      "stateMutability": "view",
      "type": "function"
    },
    {
      "inputs": [
        {
          "internalType": "uint256",
          "name": "tokenId",
          "type": "uint256"
        }
      ],
      "name": "tokenURI",
      "outputs": [
        {
          "internalType": "string",
          "name": "",
          "type": "string"
        }
      ],
      "stateMutability": "view",
      "type": "function"
    },
    {
      "inputs": [
        {
          "internalType": "address",
          "name": "from",
          "type": "address"
        },
        {
          "internalType": "address",
          "name": "to",
          "type": "address"
        },
        {
          "internalType": "uint256",
          "name": "tokenId",
          "type": "uint256"
        }
      ],
      "name": "transferFrom",
      "outputs": [],
      "stateMutability": "nonpayable",
      "type": "function"
    },
    {
      "inputs": [
        {
          "internalType": "address",
          "name": "player",
          "type": "address"
        },
        {
          "internalType": "string",
          "name": "tokenURI",
          "type": "string"
        }
      ],
      "name": "buyMonster",
      "outputs": [
        {
          "internalType": "uint256",
          "name": "",
          "type": "uint256"
        }
      ],
      "stateMutability": "nonpayable",
      "type": "function"
    },
    {
      "inputs": [
        {
          "internalType": "address",
          "name": "from",
          "type": "address"
        },
        {
          "internalType": "address",
          "name": "to",
          "type": "address"
        },
        {
          "internalType": "uint256",
          "name": "_tokenId",
          "type": "uint256"
        }
      ],
      "name": "transferMonster",
      "outputs": [],
      "stateMutability": "nonpayable",
      "type": "function"
    },
    {
      "inputs": [
        {
          "internalType": "uint256",
          "name": "monsterId",
          "type": "uint256"
        }
      ],
      "name": "getMonsterFromId",
      "outputs": [
        {
          "components": [
            {
              "internalType": "uint256",
              "name": "monsterId",
              "type": "uint256"
            },
            {
              "internalType": "uint8",
              "name": "AP",
              "type": "uint8"
            },
            {
              "internalType": "uint8",
              "name": "DP",
              "type": "uint8"
            },
            {
              "internalType": "uint8",
              "name": "HP",
              "type": "uint8"
            },
            {
              "internalType": "uint8",
              "name": "SP",
              "type": "uint8"
            },
            {
              "internalType": "uint8",
              "name": "level",
              "type": "uint8"
            }
          ],
          "internalType": "struct AEMonsterNFT.AEMonster",
          "name": "",
          "type": "tuple"
        }
      ],
      "stateMutability": "view",
      "type": "function"
    },
    {
      "inputs": [
        {
          "internalType": "address",
          "name": "player",
          "type": "address"
        }
      ],
      "name": "getMonstersOwnedBy",
      "outputs": [
        {
          "components": [
            {
              "internalType": "uint256",
              "name": "monsterId",
              "type": "uint256"
            },
            {
              "internalType": "uint8",
              "name": "AP",
              "type": "uint8"
            },
            {
              "internalType": "uint8",
              "name": "DP",
              "type": "uint8"
            },
            {
              "internalType": "uint8",
              "name": "HP",
              "type": "uint8"
            },
            {
              "internalType": "uint8",
              "name": "SP",
              "type": "uint8"
            },
            {
              "internalType": "uint8",
              "name": "level",
              "type": "uint8"
            }
          ],
          "internalType": "struct AEMonsterNFT.AEMonster[]",
          "name": "",
          "type": "tuple[]"
        }
      ],
      "stateMutability": "view",
      "type": "function"
    },
    {
      "inputs": [
        {
          "internalType": "address",
          "name": "player",
          "type": "address"
        }
      ],
      "name": "getMonstersURIOwnedBy",
      "outputs": [
        {
          "internalType": "string[]",
          "name": "",
          "type": "string[]"
        }
      ],
      "stateMutability": "view",
      "type": "function"
    },
    {
      "inputs": [
        {
          "internalType": "uint256",
          "name": "_tokenId",
          "type": "uint256"
        }
      ],
      "name": "getTokenURI",
      "outputs": [
        {
          "internalType": "string",
          "name": "",
          "type": "string"
        }
      ],
      "stateMutability": "view",
      "type": "function"
    }
  ],
  "bytecode": "0x60806040523480156200001157600080fd5b506040516200436a3803806200436a83398181016040528101906200003791906200018a565b6040518060400160405280600981526020017f41454d6f6e7374657200000000000000000000000000000000000000000000008152506040518060400160405280600381526020017f41454d00000000000000000000000000000000000000000000000000000000008152508160009081620000b4919062000436565b508060019081620000c6919062000436565b5050506000600b8190555042600c8190555080600d60006101000a81548173ffffffffffffffffffffffffffffffffffffffff021916908373ffffffffffffffffffffffffffffffffffffffff160217905550506200051d565b600080fd5b600073ffffffffffffffffffffffffffffffffffffffff82169050919050565b6000620001528262000125565b9050919050565b620001648162000145565b81146200017057600080fd5b50565b600081519050620001848162000159565b92915050565b600060208284031215620001a357620001a262000120565b5b6000620001b38482850162000173565b91505092915050565b600081519050919050565b7f4e487b7100000000000000000000000000000000000000000000000000000000600052604160045260246000fd5b7f4e487b7100000000000000000000000000000000000000000000000000000000600052602260045260246000fd5b600060028204905060018216806200023e57607f821691505b602082108103620002545762000253620001f6565b5b50919050565b60008190508160005260206000209050919050565b60006020601f8301049050919050565b600082821b905092915050565b600060088302620002be7fffffffffffffffffffffffffffffffffffffffffffffffffffffffffffffffff826200027f565b620002ca86836200027f565b95508019841693508086168417925050509392505050565b6000819050919050565b6000819050919050565b600062000317620003116200030b84620002e2565b620002ec565b620002e2565b9050919050565b6000819050919050565b6200033383620002f6565b6200034b62000342826200031e565b8484546200028c565b825550505050565b600090565b6200036262000353565b6200036f81848462000328565b505050565b5b8181101562000397576200038b60008262000358565b60018101905062000375565b5050565b601f821115620003e657620003b0816200025a565b620003bb846200026f565b81016020851015620003cb578190505b620003e3620003da856200026f565b83018262000374565b50505b505050565b600082821c905092915050565b60006200040b60001984600802620003eb565b1980831691505092915050565b6000620004268383620003f8565b9150826002028217905092915050565b6200044182620001bc565b67ffffffffffffffff8111156200045d576200045c620001c7565b5b62000469825462000225565b620004768282856200039b565b600060209050601f831160018114620004ae576000841562000499578287015190505b620004a5858262000418565b86555062000515565b601f198416620004be866200025a565b60005b82811015620004e857848901518255600182019150602085019450602081019050620004c1565b8683101562000508578489015162000504601f891682620003f8565b8355505b6001600288020188555050505b505050505050565b613e3d806200052d6000396000f3fe608060405234801561001057600080fd5b506004361061014d5760003560e01c806357d34d32116100c3578063b57498dc1161007c578063b57498dc146103ed578063b88d4fde1461041d578063c87b56dd14610439578063dc88cf7814610469578063e289f1a714610499578063e985e9c5146104c95761014d565b806357d34d32146103055780636352211e1461033557806363df0ef71461036557806370a082311461038357806395d89b41146103b3578063a22cb465146103d15761014d565b806323b872dd1161011557806323b872dd1461021c578063254496be146102385780633bb3a24d1461026d57806342842e0e1461029d578063436882d3146102b95780634f8572c4146102e95761014d565b806301ffc9a71461015257806306fdde0314610182578063081812fc146101a0578063095ea7b3146101d05780631e58c923146101ec575b600080fd5b61016c60048036038101906101679190612c90565b6104f9565b6040516101799190612cd8565b60405180910390f35b61018a61055a565b6040516101979190612d83565b60405180910390f35b6101ba60048036038101906101b59190612ddb565b6105ec565b6040516101c79190612e49565b60405180910390f35b6101ea60048036038101906101e59190612e90565b610608565b005b61020660048036038101906102019190612ed0565b61061e565b6040516102139190613052565b60405180910390f35b61023660048036038101906102319190613074565b610856565b005b610252600480360381019061024d9190612e90565b610958565b604051610264969594939291906130e5565b60405180910390f35b61028760048036038101906102829190612ddb565b6109e2565b6040516102949190612d83565b60405180910390f35b6102b760048036038101906102b29190613074565b6109f4565b005b6102d360048036038101906102ce919061327b565b610a14565b6040516102e091906132d7565b60405180910390f35b61030360048036038101906102fe9190613074565b610e13565b005b61031f600480360381019061031a9190612ddb565b611300565b60405161032c919061336d565b60405180910390f35b61034f600480360381019061034a9190612ddb565b6113c8565b60405161035c9190612e49565b60405180910390f35b61036d6113da565b60405161037a9190612e49565b60405180910390f35b61039d60048036038101906103989190612ed0565b611400565b6040516103aa91906132d7565b60405180910390f35b6103bb6114ba565b6040516103c89190612d83565b60405180910390f35b6103eb60048036038101906103e691906133b4565b61154c565b005b61040760048036038101906104029190612ed0565b611562565b60405161041491906132d7565b60405180910390f35b61043760048036038101906104329190613495565b61157a565b005b610453600480360381019061044e9190612ddb565b611597565b6040516104609190612d83565b60405180910390f35b610483600480360381019061047e9190612ed0565b6116aa565b6040516104909190613624565b60405180910390f35b6104b360048036038101906104ae9190612e90565b61182c565b6040516104c091906132d7565b60405180910390f35b6104e360048036038101906104de9190613646565b61185d565b6040516104f09190612cd8565b60405180910390f35b6000634906490660e01b7bffffffffffffffffffffffffffffffffffffffffffffffffffffffff1916827bffffffffffffffffffffffffffffffffffffffffffffffffffffffff191614806105535750610552826118f1565b5b9050919050565b606060008054610569906136b5565b80601f0160208091040260200160405190810160405280929190818152602001828054610595906136b5565b80156105e25780601f106105b7576101008083540402835291602001916105e2565b820191906000526020600020905b8154815290600101906020018083116105c557829003601f168201915b5050505050905090565b60006105f7826119d3565b5061060182611a5b565b9050919050565b61061a8282610615611a98565b611aa0565b5050565b60606000600a60008473ffffffffffffffffffffffffffffffffffffffff1673ffffffffffffffffffffffffffffffffffffffff1681526020019081526020016000208054905067ffffffffffffffff81111561067e5761067d613150565b5b6040519080825280602002602001820160405280156106b757816020015b6106a4612bdf565b81526020019060019003908161069c5790505b50905060005b600a60008573ffffffffffffffffffffffffffffffffffffffff1673ffffffffffffffffffffffffffffffffffffffff1681526020019081526020016000208054905081101561084c5760076000600a60008773ffffffffffffffffffffffffffffffffffffffff1673ffffffffffffffffffffffffffffffffffffffff168152602001908152602001600020838154811061075c5761075b6136e6565b5b906000526020600020015481526020019081526020016000206040518060c0016040529081600082015481526020016001820160009054906101000a900460ff1660ff1660ff1681526020016001820160019054906101000a900460ff1660ff1660ff1681526020016001820160029054906101000a900460ff1660ff1660ff1681526020016001820160039054906101000a900460ff1660ff1660ff1681526020016001820160049054906101000a900460ff1660ff1660ff168152505082828151811061082e5761082d6136e6565b5b6020026020010181905250808061084490613744565b9150506106bd565b5080915050919050565b600073ffffffffffffffffffffffffffffffffffffffff168273ffffffffffffffffffffffffffffffffffffffff16036108c85760006040517f64a0ae920000000000000000000000000000000000000000000000000000000081526004016108bf9190612e49565b60405180910390fd5b60006108dc83836108d7611a98565b611ab2565b90508373ffffffffffffffffffffffffffffffffffffffff168173ffffffffffffffffffffffffffffffffffffffff1614610952578382826040517f64283d7b0000000000000000000000000000000000000000000000000000000081526004016109499392919061378c565b60405180910390fd5b50505050565b6008602052816000526040600020602052806000526040600020600091509150508060000154908060010160009054906101000a900460ff16908060010160019054906101000a900460ff16908060010160029054906101000a900460ff16908060010160039054906101000a900460ff16908060010160049054906101000a900460ff16905086565b60606109ed82611597565b9050919050565b610a0f8383836040518060200160405280600081525061157a565b505050565b6000600d60009054906101000a900473ffffffffffffffffffffffffffffffffffffffff1673ffffffffffffffffffffffffffffffffffffffff163373ffffffffffffffffffffffffffffffffffffffff1614610aa6576040517f08c379a0000000000000000000000000000000000000000000000000000000008152600401610a9d90613835565b60405180910390fd5b6001600b6000828254610ab99190613855565b9250508190555060006040518060c00160405280600b548152602001610add611ccc565b60ff168152602001610aed611ccc565b60ff1681526020016005610aff611ccc565b610b099190613855565b60ff168152602001610b19611ccc565b60ff168152602001600160ff168152509050600a60008573ffffffffffffffffffffffffffffffffffffffff1673ffffffffffffffffffffffffffffffffffffffff168152602001908152602001600020600b54908060018154018082558091505060019003906000526020600020016000909190919091505580600860008673ffffffffffffffffffffffffffffffffffffffff1673ffffffffffffffffffffffffffffffffffffffff1681526020019081526020016000206000600b5481526020019081526020016000206000820151816000015560208201518160010160006101000a81548160ff021916908360ff16021790555060408201518160010160016101000a81548160ff021916908360ff16021790555060608201518160010160026101000a81548160ff021916908360ff16021790555060808201518160010160036101000a81548160ff021916908360ff16021790555060a08201518160010160046101000a81548160ff021916908360ff1602179055509050506001600960008673ffffffffffffffffffffffffffffffffffffffff1673ffffffffffffffffffffffffffffffffffffffff16815260200190815260200160002054610ce49190613855565b600960008673ffffffffffffffffffffffffffffffffffffffff1673ffffffffffffffffffffffffffffffffffffffff16815260200190815260200160002081905550610d3384600b54611d26565b610d3f600b5484611e1f565b8060076000600b5481526020019081526020016000206000820151816000015560208201518160010160006101000a81548160ff021916908360ff16021790555060408201518160010160016101000a81548160ff021916908360ff16021790555060608201518160010160026101000a81548160ff021916908360ff16021790555060808201518160010160036101000a81548160ff021916908360ff16021790555060a08201518160010160046101000a81548160ff021916908360ff160217905550905050600b5491505092915050565b600d60009054906101000a900473ffffffffffffffffffffffffffffffffffffffff1673ffffffffffffffffffffffffffffffffffffffff163373ffffffffffffffffffffffffffffffffffffffff1614610ea3576040517f08c379a0000000000000000000000000000000000000000000000000000000008152600401610e9a90613835565b60405180910390fd5b610eae838383611e7b565b6000600860008573ffffffffffffffffffffffffffffffffffffffff1673ffffffffffffffffffffffffffffffffffffffff16815260200190815260200160002060008381526020019081526020016000206040518060c0016040529081600082015481526020016001820160009054906101000a900460ff1660ff1660ff1681526020016001820160019054906101000a900460ff1660ff1660ff1681526020016001820160029054906101000a900460ff1660ff1660ff1681526020016001820160039054906101000a900460ff1660ff1660ff1681526020016001820160049054906101000a900460ff1660ff1660ff16815250509050600860008573ffffffffffffffffffffffffffffffffffffffff1673ffffffffffffffffffffffffffffffffffffffff16815260200190815260200160002060008381526020019081526020016000206000808201600090556001820160006101000a81549060ff02191690556001820160016101000a81549060ff02191690556001820160026101000a81549060ff02191690556001820160036101000a81549060ff02191690556001820160046101000a81549060ff0219169055505080600860008573ffffffffffffffffffffffffffffffffffffffff1673ffffffffffffffffffffffffffffffffffffffff16815260200190815260200160002060008481526020019081526020016000206000820151816000015560208201518160010160006101000a81548160ff021916908360ff16021790555060408201518160010160016101000a81548160ff021916908360ff16021790555060608201518160010160026101000a81548160ff021916908360ff16021790555060808201518160010160036101000a81548160ff021916908360ff16021790555060a08201518160010160046101000a81548160ff021916908360ff1602179055509050506001600960008673ffffffffffffffffffffffffffffffffffffffff1673ffffffffffffffffffffffffffffffffffffffff168152602001908152602001600020546111b69190613889565b600960008673ffffffffffffffffffffffffffffffffffffffff1673ffffffffffffffffffffffffffffffffffffffff168152602001908152602001600020819055506001600960008573ffffffffffffffffffffffffffffffffffffffff1673ffffffffffffffffffffffffffffffffffffffff168152602001908152602001600020546112459190613855565b600960008573ffffffffffffffffffffffffffffffffffffffff1673ffffffffffffffffffffffffffffffffffffffff168152602001908152602001600020819055506112928285611fe8565b600a60008473ffffffffffffffffffffffffffffffffffffffff1673ffffffffffffffffffffffffffffffffffffffff168152602001908152602001600020600b54908060018154018082558091505060019003906000526020600020016000909190919091505550505050565b611308612bdf565b600760008381526020019081526020016000206040518060c0016040529081600082015481526020016001820160009054906101000a900460ff1660ff1660ff1681526020016001820160019054906101000a900460ff1660ff1660ff1681526020016001820160029054906101000a900460ff1660ff1660ff1681526020016001820160039054906101000a900460ff1660ff1660ff1681526020016001820160049054906101000a900460ff1660ff1660ff16815250509050919050565b60006113d3826119d3565b9050919050565b600d60009054906101000a900473ffffffffffffffffffffffffffffffffffffffff1681565b60008073ffffffffffffffffffffffffffffffffffffffff168273ffffffffffffffffffffffffffffffffffffffff16036114735760006040517f89c62b6400000000000000000000000000000000000000000000000000000000815260040161146a9190612e49565b60405180910390fd5b600360008373ffffffffffffffffffffffffffffffffffffffff1673ffffffffffffffffffffffffffffffffffffffff168152602001908152602001600020549050919050565b6060600180546114c9906136b5565b80601f01602080910402602001604051908101604052809291908181526020018280546114f5906136b5565b80156115425780601f1061151757610100808354040283529160200191611542565b820191906000526020600020905b81548152906001019060200180831161152557829003601f168201915b5050505050905090565b61155e611557611a98565b8383612227565b5050565b60096020528060005260406000206000915090505481565b611585848484610856565b61159184848484612396565b50505050565b60606115a2826119d3565b5060006006600084815260200190815260200160002080546115c3906136b5565b80601f01602080910402602001604051908101604052809291908181526020018280546115ef906136b5565b801561163c5780601f106116115761010080835404028352916020019161163c565b820191906000526020600020905b81548152906001019060200180831161161f57829003601f168201915b50505050509050600061164d61254d565b905060008151036116625781925050506116a5565b60008251111561169757808260405160200161167f9291906138f9565b604051602081830303815290604052925050506116a5565b6116a084612564565b925050505b919050565b60606000600a60008473ffffffffffffffffffffffffffffffffffffffff1673ffffffffffffffffffffffffffffffffffffffff1681526020019081526020016000208054905067ffffffffffffffff81111561170a57611709613150565b5b60405190808252806020026020018201604052801561173d57816020015b60608152602001906001900390816117285790505b50905060005b600a60008573ffffffffffffffffffffffffffffffffffffffff1673ffffffffffffffffffffffffffffffffffffffff16815260200190815260200160002080549050811015611822576117f1600a60008673ffffffffffffffffffffffffffffffffffffffff1673ffffffffffffffffffffffffffffffffffffffff16815260200190815260200160002082815481106117e1576117e06136e6565b5b9060005260206000200154611597565b828281518110611804576118036136e6565b5b6020026020010181905250808061181a90613744565b915050611743565b5080915050919050565b600a602052816000526040600020818154811061184857600080fd5b90600052602060002001600091509150505481565b6000600560008473ffffffffffffffffffffffffffffffffffffffff1673ffffffffffffffffffffffffffffffffffffffff16815260200190815260200160002060008373ffffffffffffffffffffffffffffffffffffffff1673ffffffffffffffffffffffffffffffffffffffff16815260200190815260200160002060009054906101000a900460ff16905092915050565b60007f80ac58cd000000000000000000000000000000000000000000000000000000007bffffffffffffffffffffffffffffffffffffffffffffffffffffffff1916827bffffffffffffffffffffffffffffffffffffffffffffffffffffffff191614806119bc57507f5b5e139f000000000000000000000000000000000000000000000000000000007bffffffffffffffffffffffffffffffffffffffffffffffffffffffff1916827bffffffffffffffffffffffffffffffffffffffffffffffffffffffff1916145b806119cc57506119cb826125cd565b5b9050919050565b6000806119df83612637565b9050600073ffffffffffffffffffffffffffffffffffffffff168173ffffffffffffffffffffffffffffffffffffffff1603611a5257826040517f7e273289000000000000000000000000000000000000000000000000000000008152600401611a4991906132d7565b60405180910390fd5b80915050919050565b60006004600083815260200190815260200160002060009054906101000a900473ffffffffffffffffffffffffffffffffffffffff169050919050565b600033905090565b611aad8383836001612674565b505050565b600080611abe84612637565b9050600073ffffffffffffffffffffffffffffffffffffffff168373ffffffffffffffffffffffffffffffffffffffff1614611b0057611aff818486612839565b5b600073ffffffffffffffffffffffffffffffffffffffff168173ffffffffffffffffffffffffffffffffffffffff1614611b9157611b42600085600080612674565b6001600360008373ffffffffffffffffffffffffffffffffffffffff1673ffffffffffffffffffffffffffffffffffffffff168152602001908152602001600020600082825403925050819055505b600073ffffffffffffffffffffffffffffffffffffffff168573ffffffffffffffffffffffffffffffffffffffff1614611c14576001600360008773ffffffffffffffffffffffffffffffffffffffff1673ffffffffffffffffffffffffffffffffffffffff168152602001908152602001600020600082825401925050819055505b846002600086815260200190815260200160002060006101000a81548173ffffffffffffffffffffffffffffffffffffffff021916908373ffffffffffffffffffffffffffffffffffffffff160217905550838573ffffffffffffffffffffffffffffffffffffffff168273ffffffffffffffffffffffffffffffffffffffff167fddf252ad1be2c89b69c2b068fc378daa952ba7f163c4a11628f55a4df523b3ef60405160405180910390a4809150509392505050565b60006001600a3342600143611ce19190613889565b40604051602001611cf4939291906139b1565b6040516020818303038152906040528051906020012060001c611d179190613a1d565b611d219190613855565b905090565b600073ffffffffffffffffffffffffffffffffffffffff168273ffffffffffffffffffffffffffffffffffffffff1603611d985760006040517f64a0ae92000000000000000000000000000000000000000000000000000000008152600401611d8f9190612e49565b60405180910390fd5b6000611da683836000611ab2565b9050600073ffffffffffffffffffffffffffffffffffffffff168173ffffffffffffffffffffffffffffffffffffffff1614611e1a5760006040517f73c6ac6e000000000000000000000000000000000000000000000000000000008152600401611e119190612e49565b60405180910390fd5b505050565b80600660008481526020019081526020016000209081611e3f9190613bfa565b507ff8e1a15aba9398e019f0b49df1a4fde98ee17ae345cb5f6b5e2c27f5033e8ce782604051611e6f91906132d7565b60405180910390a15050565b600073ffffffffffffffffffffffffffffffffffffffff168273ffffffffffffffffffffffffffffffffffffffff1603611eed5760006040517f64a0ae92000000000000000000000000000000000000000000000000000000008152600401611ee49190612e49565b60405180910390fd5b6000611efb83836000611ab2565b9050600073ffffffffffffffffffffffffffffffffffffffff168173ffffffffffffffffffffffffffffffffffffffff1603611f6e57816040517f7e273289000000000000000000000000000000000000000000000000000000008152600401611f6591906132d7565b60405180910390fd5b8373ffffffffffffffffffffffffffffffffffffffff168173ffffffffffffffffffffffffffffffffffffffff1614611fe2578382826040517f64283d7b000000000000000000000000000000000000000000000000000000008152600401611fd99392919061378c565b60405180910390fd5b50505050565b600080600090505b600a60008473ffffffffffffffffffffffffffffffffffffffff1673ffffffffffffffffffffffffffffffffffffffff168152602001908152602001600020805490508110156120b35783600a60008573ffffffffffffffffffffffffffffffffffffffff1673ffffffffffffffffffffffffffffffffffffffff168152602001908152602001600020828154811061208c5761208b6136e6565b5b9060005260206000200154036120a0578091505b80806120ab90613744565b915050611ff0565b50600a60008373ffffffffffffffffffffffffffffffffffffffff1673ffffffffffffffffffffffffffffffffffffffff1681526020019081526020016000206001600a60008573ffffffffffffffffffffffffffffffffffffffff1673ffffffffffffffffffffffffffffffffffffffff168152602001908152602001600020805490506121429190613889565b81548110612153576121526136e6565b5b9060005260206000200154600a60008473ffffffffffffffffffffffffffffffffffffffff1673ffffffffffffffffffffffffffffffffffffffff16815260200190815260200160002082815481106121af576121ae6136e6565b5b9060005260206000200181905550600a60008373ffffffffffffffffffffffffffffffffffffffff1673ffffffffffffffffffffffffffffffffffffffff16815260200190815260200160002080548061220c5761220b613ccc565b5b60019003818190600052602060002001600090559055505050565b600073ffffffffffffffffffffffffffffffffffffffff168273ffffffffffffffffffffffffffffffffffffffff160361229857816040517f5b08ba1800000000000000000000000000000000000000000000000000000000815260040161228f9190612e49565b60405180910390fd5b80600560008573ffffffffffffffffffffffffffffffffffffffff1673ffffffffffffffffffffffffffffffffffffffff16815260200190815260200160002060008473ffffffffffffffffffffffffffffffffffffffff1673ffffffffffffffffffffffffffffffffffffffff16815260200190815260200160002060006101000a81548160ff0219169083151502179055508173ffffffffffffffffffffffffffffffffffffffff168373ffffffffffffffffffffffffffffffffffffffff167f17307eab39ab6107e8899845ad3d59bd9653f200f220920489ca2b5937696c31836040516123899190612cd8565b60405180910390a3505050565b60008373ffffffffffffffffffffffffffffffffffffffff163b1115612547578273ffffffffffffffffffffffffffffffffffffffff1663150b7a026123da611a98565b8685856040518563ffffffff1660e01b81526004016123fc9493929190613d50565b6020604051808303816000875af192505050801561243857506040513d601f19601f820116820180604052508101906124359190613db1565b60015b6124bc573d8060008114612468576040519150601f19603f3d011682016040523d82523d6000602084013e61246d565b606091505b5060008151036124b457836040517f64a0ae920000000000000000000000000000000000000000000000000000000081526004016124ab9190612e49565b60405180910390fd5b805181602001fd5b63150b7a0260e01b7bffffffffffffffffffffffffffffffffffffffffffffffffffffffff1916817bffffffffffffffffffffffffffffffffffffffffffffffffffffffff19161461254557836040517f64a0ae9200000000000000000000000000000000000000000000000000000000815260040161253c9190612e49565b60405180910390fd5b505b50505050565b606060405180602001604052806000815250905090565b606061256f826119d3565b50600061257a61254d565b9050600081511161259a57604051806020016040528060008152506125c5565b806125a4846128fd565b6040516020016125b59291906138f9565b6040516020818303038152906040525b915050919050565b60007f01ffc9a7000000000000000000000000000000000000000000000000000000007bffffffffffffffffffffffffffffffffffffffffffffffffffffffff1916827bffffffffffffffffffffffffffffffffffffffffffffffffffffffff1916149050919050565b60006002600083815260200190815260200160002060009054906101000a900473ffffffffffffffffffffffffffffffffffffffff169050919050565b80806126ad5750600073ffffffffffffffffffffffffffffffffffffffff168273ffffffffffffffffffffffffffffffffffffffff1614155b156127e15760006126bd846119d3565b9050600073ffffffffffffffffffffffffffffffffffffffff168373ffffffffffffffffffffffffffffffffffffffff161415801561272857508273ffffffffffffffffffffffffffffffffffffffff168173ffffffffffffffffffffffffffffffffffffffff1614155b801561273b5750612739818461185d565b155b1561277d57826040517fa9fbf51f0000000000000000000000000000000000000000000000000000000081526004016127749190612e49565b60405180910390fd5b81156127df57838573ffffffffffffffffffffffffffffffffffffffff168273ffffffffffffffffffffffffffffffffffffffff167f8c5be1e5ebec7d5bd14f71427d1e84f3dd0314c0f7b2291e5b200ac8c7c3b92560405160405180910390a45b505b836004600085815260200190815260200160002060006101000a81548173ffffffffffffffffffffffffffffffffffffffff021916908373ffffffffffffffffffffffffffffffffffffffff16021790555050505050565b6128448383836129cb565b6128f857600073ffffffffffffffffffffffffffffffffffffffff168373ffffffffffffffffffffffffffffffffffffffff16036128b957806040517f7e2732890000000000000000000000000000000000000000000000000000000081526004016128b091906132d7565b60405180910390fd5b81816040517f177e802f0000000000000000000000000000000000000000000000000000000081526004016128ef929190613dde565b60405180910390fd5b505050565b60606000600161290c84612a8c565b01905060008167ffffffffffffffff81111561292b5761292a613150565b5b6040519080825280601f01601f19166020018201604052801561295d5781602001600182028036833780820191505090505b509050600082602001820190505b6001156129c0578080600190039150507f3031323334353637383961626364656600000000000000000000000000000000600a86061a8153600a85816129b4576129b36139ee565b5b0494506000850361296b575b819350505050919050565b60008073ffffffffffffffffffffffffffffffffffffffff168373ffffffffffffffffffffffffffffffffffffffff1614158015612a8357508273ffffffffffffffffffffffffffffffffffffffff168473ffffffffffffffffffffffffffffffffffffffff161480612a445750612a43848461185d565b5b80612a8257508273ffffffffffffffffffffffffffffffffffffffff16612a6a83611a5b565b73ffffffffffffffffffffffffffffffffffffffff16145b5b90509392505050565b600080600090507a184f03e93ff9f4daa797ed6e38ed64bf6a1f0100000000000000008310612aea577a184f03e93ff9f4daa797ed6e38ed64bf6a1f0100000000000000008381612ae057612adf6139ee565b5b0492506040810190505b6d04ee2d6d415b85acef81000000008310612b27576d04ee2d6d415b85acef81000000008381612b1d57612b1c6139ee565b5b0492506020810190505b662386f26fc100008310612b5657662386f26fc100008381612b4c57612b4b6139ee565b5b0492506010810190505b6305f5e1008310612b7f576305f5e1008381612b7557612b746139ee565b5b0492506008810190505b6127108310612ba4576127108381612b9a57612b996139ee565b5b0492506004810190505b60648310612bc75760648381612bbd57612bbc6139ee565b5b0492506002810190505b600a8310612bd6576001810190505b80915050919050565b6040518060c0016040528060008152602001600060ff168152602001600060ff168152602001600060ff168152602001600060ff168152602001600060ff1681525090565b6000604051905090565b600080fd5b600080fd5b60007fffffffff0000000000000000000000000000000000000000000000000000000082169050919050565b612c6d81612c38565b8114612c7857600080fd5b50565b600081359050612c8a81612c64565b92915050565b600060208284031215612ca657612ca5612c2e565b5b6000612cb484828501612c7b565b91505092915050565b60008115159050919050565b612cd281612cbd565b82525050565b6000602082019050612ced6000830184612cc9565b92915050565b600081519050919050565b600082825260208201905092915050565b60005b83811015612d2d578082015181840152602081019050612d12565b60008484015250505050565b6000601f19601f8301169050919050565b6000612d5582612cf3565b612d5f8185612cfe565b9350612d6f818560208601612d0f565b612d7881612d39565b840191505092915050565b60006020820190508181036000830152612d9d8184612d4a565b905092915050565b6000819050919050565b612db881612da5565b8114612dc357600080fd5b50565b600081359050612dd581612daf565b92915050565b600060208284031215612df157612df0612c2e565b5b6000612dff84828501612dc6565b91505092915050565b600073ffffffffffffffffffffffffffffffffffffffff82169050919050565b6000612e3382612e08565b9050919050565b612e4381612e28565b82525050565b6000602082019050612e5e6000830184612e3a565b92915050565b612e6d81612e28565b8114612e7857600080fd5b50565b600081359050612e8a81612e64565b92915050565b60008060408385031215612ea757612ea6612c2e565b5b6000612eb585828601612e7b565b9250506020612ec685828601612dc6565b9150509250929050565b600060208284031215612ee657612ee5612c2e565b5b6000612ef484828501612e7b565b91505092915050565b600081519050919050565b600082825260208201905092915050565b6000819050602082019050919050565b612f3281612da5565b82525050565b600060ff82169050919050565b612f4e81612f38565b82525050565b60c082016000820151612f6a6000850182612f29565b506020820151612f7d6020850182612f45565b506040820151612f906040850182612f45565b506060820151612fa36060850182612f45565b506080820151612fb66080850182612f45565b5060a0820151612fc960a0850182612f45565b50505050565b6000612fdb8383612f54565b60c08301905092915050565b6000602082019050919050565b6000612fff82612efd565b6130098185612f08565b935061301483612f19565b8060005b8381101561304557815161302c8882612fcf565b975061303783612fe7565b925050600181019050613018565b5085935050505092915050565b6000602082019050818103600083015261306c8184612ff4565b905092915050565b60008060006060848603121561308d5761308c612c2e565b5b600061309b86828701612e7b565b93505060206130ac86828701612e7b565b92505060406130bd86828701612dc6565b9150509250925092565b6130d081612da5565b82525050565b6130df81612f38565b82525050565b600060c0820190506130fa60008301896130c7565b61310760208301886130d6565b61311460408301876130d6565b61312160608301866130d6565b61312e60808301856130d6565b61313b60a08301846130d6565b979650505050505050565b600080fd5b600080fd5b7f4e487b7100000000000000000000000000000000000000000000000000000000600052604160045260246000fd5b61318882612d39565b810181811067ffffffffffffffff821117156131a7576131a6613150565b5b80604052505050565b60006131ba612c24565b90506131c6828261317f565b919050565b600067ffffffffffffffff8211156131e6576131e5613150565b5b6131ef82612d39565b9050602081019050919050565b82818337600083830152505050565b600061321e613219846131cb565b6131b0565b90508281526020810184848401111561323a5761323961314b565b5b6132458482856131fc565b509392505050565b600082601f83011261326257613261613146565b5b813561327284826020860161320b565b91505092915050565b6000806040838503121561329257613291612c2e565b5b60006132a085828601612e7b565b925050602083013567ffffffffffffffff8111156132c1576132c0612c33565b5b6132cd8582860161324d565b9150509250929050565b60006020820190506132ec60008301846130c7565b92915050565b60c0820160008201516133086000850182612f29565b50602082015161331b6020850182612f45565b50604082015161332e6040850182612f45565b5060608201516133416060850182612f45565b5060808201516133546080850182612f45565b5060a082015161336760a0850182612f45565b50505050565b600060c08201905061338260008301846132f2565b92915050565b61339181612cbd565b811461339c57600080fd5b50565b6000813590506133ae81613388565b92915050565b600080604083850312156133cb576133ca612c2e565b5b60006133d985828601612e7b565b92505060206133ea8582860161339f565b9150509250929050565b600067ffffffffffffffff82111561340f5761340e613150565b5b61341882612d39565b9050602081019050919050565b6000613438613433846133f4565b6131b0565b9050828152602081018484840111156134545761345361314b565b5b61345f8482856131fc565b509392505050565b600082601f83011261347c5761347b613146565b5b813561348c848260208601613425565b91505092915050565b600080600080608085870312156134af576134ae612c2e565b5b60006134bd87828801612e7b565b94505060206134ce87828801612e7b565b93505060406134df87828801612dc6565b925050606085013567ffffffffffffffff811115613500576134ff612c33565b5b61350c87828801613467565b91505092959194509250565b600081519050919050565b600082825260208201905092915050565b6000819050602082019050919050565b600082825260208201905092915050565b600061356082612cf3565b61356a8185613544565b935061357a818560208601612d0f565b61358381612d39565b840191505092915050565b600061359a8383613555565b905092915050565b6000602082019050919050565b60006135ba82613518565b6135c48185613523565b9350836020820285016135d685613534565b8060005b8581101561361257848403895281516135f3858261358e565b94506135fe836135a2565b925060208a019950506001810190506135da565b50829750879550505050505092915050565b6000602082019050818103600083015261363e81846135af565b905092915050565b6000806040838503121561365d5761365c612c2e565b5b600061366b85828601612e7b565b925050602061367c85828601612e7b565b9150509250929050565b7f4e487b7100000000000000000000000000000000000000000000000000000000600052602260045260246000fd5b600060028204905060018216806136cd57607f821691505b6020821081036136e0576136df613686565b5b50919050565b7f4e487b7100000000000000000000000000000000000000000000000000000000600052603260045260246000fd5b7f4e487b7100000000000000000000000000000000000000000000000000000000600052601160045260246000fd5b600061374f82612da5565b91507fffffffffffffffffffffffffffffffffffffffffffffffffffffffffffffffff820361378157613780613715565b5b600182019050919050565b60006060820190506137a16000830186612e3a565b6137ae60208301856130c7565b6137bb6040830184612e3a565b949350505050565b7f4f6e6c79207468652067616d6520636f6e74726163742063616e2063616c6c2060008201527f746869732066756e6374696f6e00000000000000000000000000000000000000602082015250565b600061381f602d83612cfe565b915061382a826137c3565b604082019050919050565b6000602082019050818103600083015261384e81613812565b9050919050565b600061386082612da5565b915061386b83612da5565b925082820190508082111561388357613882613715565b5b92915050565b600061389482612da5565b915061389f83612da5565b92508282039050818111156138b7576138b6613715565b5b92915050565b600081905092915050565b60006138d382612cf3565b6138dd81856138bd565b93506138ed818560208601612d0f565b80840191505092915050565b600061390582856138c8565b915061391182846138c8565b91508190509392505050565b60008160601b9050919050565b60006139358261391d565b9050919050565b60006139478261392a565b9050919050565b61395f61395a82612e28565b61393c565b82525050565b6000819050919050565b61398061397b82612da5565b613965565b82525050565b6000819050919050565b6000819050919050565b6139ab6139a682613986565b613990565b82525050565b60006139bd828661394e565b6014820191506139cd828561396f565b6020820191506139dd828461399a565b602082019150819050949350505050565b7f4e487b7100000000000000000000000000000000000000000000000000000000600052601260045260246000fd5b6000613a2882612da5565b9150613a3383612da5565b925082613a4357613a426139ee565b5b828206905092915050565b60008190508160005260206000209050919050565b60006020601f8301049050919050565b600082821b905092915050565b600060088302613ab07fffffffffffffffffffffffffffffffffffffffffffffffffffffffffffffffff82613a73565b613aba8683613a73565b95508019841693508086168417925050509392505050565b6000819050919050565b6000613af7613af2613aed84612da5565b613ad2565b612da5565b9050919050565b6000819050919050565b613b1183613adc565b613b25613b1d82613afe565b848454613a80565b825550505050565b600090565b613b3a613b2d565b613b45818484613b08565b505050565b5b81811015613b6957613b5e600082613b32565b600181019050613b4b565b5050565b601f821115613bae57613b7f81613a4e565b613b8884613a63565b81016020851015613b97578190505b613bab613ba385613a63565b830182613b4a565b50505b505050565b600082821c905092915050565b6000613bd160001984600802613bb3565b1980831691505092915050565b6000613bea8383613bc0565b9150826002028217905092915050565b613c0382612cf3565b67ffffffffffffffff811115613c1c57613c1b613150565b5b613c2682546136b5565b613c31828285613b6d565b600060209050601f831160018114613c645760008415613c52578287015190505b613c5c8582613bde565b865550613cc4565b601f198416613c7286613a4e565b60005b82811015613c9a57848901518255600182019150602085019450602081019050613c75565b86831015613cb75784890151613cb3601f891682613bc0565b8355505b6001600288020188555050505b505050505050565b7f4e487b7100000000000000000000000000000000000000000000000000000000600052603160045260246000fd5b600081519050919050565b600082825260208201905092915050565b6000613d2282613cfb565b613d2c8185613d06565b9350613d3c818560208601612d0f565b613d4581612d39565b840191505092915050565b6000608082019050613d656000830187612e3a565b613d726020830186612e3a565b613d7f60408301856130c7565b8181036060830152613d918184613d17565b905095945050505050565b600081519050613dab81612c64565b92915050565b600060208284031215613dc757613dc6612c2e565b5b6000613dd584828501613d9c565b91505092915050565b6000604082019050613df36000830185612e3a565b613e0060208301846130c7565b939250505056fea2646970667358221220b94d245750b778627e1d3a0e36843f48e3a367e1009e4681d0549592df1b36c864736f6c63430008130033",
  "immutableReferences": {},
  "source": "// SPDX-License-Identifier: MIT \r\npragma solidity ^0.8.18;\r\n\r\nimport \"../node_modules/@openzeppelin/contracts/token/ERC721/extensions/ERC721URIStorage.sol\";\r\n//import \"./Owner.sol\";\r\n\r\ncontract AEMonsterNFT is ERC721URIStorage{\r\n    //*--------------State variables--------------\r\n    //The monster struct\r\n    struct AEMonster{                           //It is used uint8 because the max of a stat is 100\r\n        uint256 monsterId;                      //The tokenId of the NFTs\r\n        uint8 AP;                               //Attack Point\r\n        uint8 DP;                               //Defence Point\r\n        uint8 HP;                               //Health Point\r\n        uint8 SP;                               //Speed Point\r\n        uint8 level;                            //Higher the level stronger the monster (higher stats) //*Starting level is 1, max level is 100\r\n        //TODO; type\r\n    }   \r\n\r\n    //AEMonster[] public monsters;                //All the monsters created so far TODO:Maybe is better replace the use of the array\r\n\r\n    mapping (uint256 => AEMonster) private fromIdToMonster;                         //Map to get the monster stats from its id\r\n    mapping (address =>mapping(uint256 => AEMonster)) public monstersOwnedBy;      //Map the monsters owned by an account\r\n    mapping (address => uint256) public numMonstersOwnedBy;                        //Map the number of monster owned by a player\r\n    mapping(address => uint256[]) public monsterIdsByAddress;                       //The ids of the monsters owned by an account\r\n\r\n\r\n    uint256 private tokenId;                                    //Used to assign unique identifier to each NFT\r\n    uint256 private randomSeed;                                 //Useful for the random number function\r\n\r\n    address public gameContractAddress;                         //The address of the contract that manages all the dapp\r\n \r\n    constructor(address _gameContractAddress) ERC721(\"AEMonster\",\"AEM\"){\r\n        tokenId = 0;\r\n        randomSeed = block.timestamp;                           //Usefull for randomness in the random function\r\n        gameContractAddress = _gameContractAddress;\r\n    }\r\n    \r\n    //*--------------Modifiers--------------\r\n    //*Necessaria per fare in modo che le funzioni siano chiamabili solo dal contratto principale\r\n    modifier onlyGameContract(){\r\n        require(msg.sender == gameContractAddress,\"Only the game contract can call this function\");\r\n        _;\r\n    }\r\n\r\n    //*--------------Main functionalities--------------\r\n    function buyMonster(address player, string memory tokenURI) \r\n        external onlyGameContract returns(uint256){                                //Return the id of the created monster\r\n        //*Creation of the monster stats\r\n        tokenId += 1;\r\n        AEMonster memory newMonster = AEMonster({\r\n            monsterId: tokenId,\r\n            AP: (uint8)(random()),\r\n            DP: (uint8)(random()),\r\n            HP: (uint8)(random() + 5),                //5 is the base HP for each Monster\r\n            SP: (uint8)(random()),\r\n            level : 1                                       \r\n        });\r\n            \r\n        //Add the new monster to the collection\r\n        monsterIdsByAddress[player].push(tokenId);\r\n        //monsters.push(newMonster);\r\n\r\n        //Map the monster to the owner\r\n        monstersOwnedBy[player][tokenId] = newMonster;\r\n\r\n        //Set the number of owned monster for such player\r\n        numMonstersOwnedBy[player] = numMonstersOwnedBy[player] +1;\r\n\r\n            \r\n        //*Creation of the effective  NFT\r\n        _mint(player, tokenId);\r\n        _setTokenURI(tokenId, tokenURI);\r\n\r\n        //*Map the owner with the created monster\r\n        fromIdToMonster[tokenId] = newMonster;\r\n\r\n        return tokenId;\r\n    }\r\n\r\n    //This is needed in order to implement the exchange of monsters, in the market, between players\r\n    function transferMonster(address from, address to, uint256 _tokenId) external onlyGameContract(){\r\n        _transfer(from, to, _tokenId);\r\n        AEMonster memory swap = monstersOwnedBy[from][_tokenId];\r\n        delete(monstersOwnedBy[from][_tokenId]);       \r\n        monstersOwnedBy[to][_tokenId] = swap;\r\n        numMonstersOwnedBy[from] = numMonstersOwnedBy[from] - 1;\r\n        numMonstersOwnedBy[to] = numMonstersOwnedBy[to] + 1;\r\n        removeMonsterIdFromOwnership(_tokenId,from);            //Remove the monsters id from the one associated to the from player\r\n        monsterIdsByAddress[to].push(tokenId);                  //And add it to the other player\r\n    }\r\n\r\n\r\n    //Return the monster data given its id\r\n    function getMonsterFromId(uint256 monsterId)public view returns(AEMonster memory){\r\n        return fromIdToMonster[monsterId];\r\n    }\r\n\r\n\r\n    //Return the monsters owned by a player\r\n    function getMonstersOwnedBy(address player) public view returns (AEMonster[] memory){\r\n        AEMonster[] memory result = new AEMonster[](monsterIdsByAddress[player].length);\r\n        for(uint256 i = 0;i<monsterIdsByAddress[player].length;i++){    //Loop for all the tokenIds of the owned monsters\r\n            result[i] = fromIdToMonster[ monsterIdsByAddress[player][i]];\r\n        }\r\n        return result;\r\n    }\r\n\r\n\r\n    //Returns the list of URI of the owned monsters\r\n    function getMonstersURIOwnedBy(address player)public view returns(string[] memory){\r\n        string[] memory result = new string[](monsterIdsByAddress[player].length);\r\n        for(uint256 i=0;i<monsterIdsByAddress[player].length;i++){\r\n            result[i] = tokenURI(monsterIdsByAddress[player][i]);\r\n        }\r\n        return result;\r\n    }\r\n\r\n    //Return the URI associated to a monster\r\n    function getTokenURI(uint256 _tokenId) public view returns (string memory) {\r\n        return tokenURI(_tokenId);\r\n    }\r\n\r\n    \r\n    //!Funtion to generate random number\r\n    function random() private view returns (uint256){ \r\n        //TODO: change this implemantation with the use of chainlink VRF : https://docs.chain.link/vrf\r\n        return ((uint( keccak256(abi.encodePacked (msg.sender, block.timestamp, blockhash(block.number - 1)))))%10)+1;\r\n    }\r\n\r\n\r\n    //Needed when an exchange is performed\r\n    function removeMonsterIdFromOwnership(uint256 _tokenId, address player) private{\r\n        uint256 indexToRemove;\r\n        //Find the index in the array where the element is located\r\n        for (uint256 i = 0; i < monsterIdsByAddress[player].length; i++) {\r\n            if (monsterIdsByAddress[player][i] == _tokenId) {\r\n                indexToRemove = i;\r\n            }\r\n        }\r\n\r\n        //Perform the remove\r\n        monsterIdsByAddress[player][indexToRemove] = monsterIdsByAddress[player][monsterIdsByAddress[player].length - 1];\r\n        monsterIdsByAddress[player].pop();\r\n    }\r\n\r\n}",
  "sourcePath": "C:\\Users\\HP\\Desktop\\Universit\\Magistrale\\2 anno\\1 Semestre\\Blockchain & DLT\\Progetto\\src\\AEtherMon\\contracts\\AEMonster.sol",
  "compiler": {
    "name": "solc",
    "version": "0.8.19+commit.7dd6d404.Emscripten.clang"
  },
  "schemaVersion": "3.4.16",
  "updatedAt": "2024-01-30T17:10:45.756Z",
  "devdoc": {
    "errors": {
      "ERC721IncorrectOwner(address,uint256,address)": [
        {
          "details": "Indicates an error related to the ownership over a particular token. Used in transfers.",
          "params": {
            "owner": "Address of the current owner of a token.",
            "sender": "Address whose tokens are being transferred.",
            "tokenId": "Identifier number of a token."
          }
        }
      ],
      "ERC721InsufficientApproval(address,uint256)": [
        {
          "details": "Indicates a failure with the `operator`s approval. Used in transfers.",
          "params": {
            "operator": "Address that may be allowed to operate on tokens without being their owner.",
            "tokenId": "Identifier number of a token."
          }
        }
      ],
      "ERC721InvalidApprover(address)": [
        {
          "details": "Indicates a failure with the `approver` of a token to be approved. Used in approvals.",
          "params": {
            "approver": "Address initiating an approval operation."
          }
        }
      ],
      "ERC721InvalidOperator(address)": [
        {
          "details": "Indicates a failure with the `operator` to be approved. Used in approvals.",
          "params": {
            "operator": "Address that may be allowed to operate on tokens without being their owner."
          }
        }
      ],
      "ERC721InvalidOwner(address)": [
        {
          "details": "Indicates that an address can't be an owner. For example, `address(0)` is a forbidden owner in EIP-20. Used in balance queries.",
          "params": {
            "owner": "Address of the current owner of a token."
          }
        }
      ],
      "ERC721InvalidReceiver(address)": [
        {
          "details": "Indicates a failure with the token `receiver`. Used in transfers.",
          "params": {
            "receiver": "Address to which tokens are being transferred."
          }
        }
      ],
      "ERC721InvalidSender(address)": [
        {
          "details": "Indicates a failure with the token `sender`. Used in transfers.",
          "params": {
            "sender": "Address whose tokens are being transferred."
          }
        }
      ],
      "ERC721NonexistentToken(uint256)": [
        {
          "details": "Indicates a `tokenId` whose `owner` is the zero address.",
          "params": {
            "tokenId": "Identifier number of a token."
          }
        }
      ]
    },
    "events": {
      "Approval(address,address,uint256)": {
        "details": "Emitted when `owner` enables `approved` to manage the `tokenId` token."
      },
      "ApprovalForAll(address,address,bool)": {
        "details": "Emitted when `owner` enables or disables (`approved`) `operator` to manage all of its assets."
      },
      "BatchMetadataUpdate(uint256,uint256)": {
        "details": "This event emits when the metadata of a range of tokens is changed. So that the third-party platforms such as NFT market could timely update the images and related attributes of the NFTs."
      },
      "MetadataUpdate(uint256)": {
        "details": "This event emits when the metadata of a token is changed. So that the third-party platforms such as NFT market could timely update the images and related attributes of the NFT."
      },
      "Transfer(address,address,uint256)": {
        "details": "Emitted when `tokenId` token is transferred from `from` to `to`."
      }
    },
    "kind": "dev",
    "methods": {
      "approve(address,uint256)": {
        "details": "See {IERC721-approve}."
      },
      "balanceOf(address)": {
        "details": "See {IERC721-balanceOf}."
      },
      "getApproved(uint256)": {
        "details": "See {IERC721-getApproved}."
      },
      "isApprovedForAll(address,address)": {
        "details": "See {IERC721-isApprovedForAll}."
      },
      "name()": {
        "details": "See {IERC721Metadata-name}."
      },
      "ownerOf(uint256)": {
        "details": "See {IERC721-ownerOf}."
      },
      "safeTransferFrom(address,address,uint256)": {
        "details": "See {IERC721-safeTransferFrom}."
      },
      "safeTransferFrom(address,address,uint256,bytes)": {
        "details": "See {IERC721-safeTransferFrom}."
      },
      "setApprovalForAll(address,bool)": {
        "details": "See {IERC721-setApprovalForAll}."
      },
      "supportsInterface(bytes4)": {
        "details": "See {IERC165-supportsInterface}"
      },
      "symbol()": {
        "details": "See {IERC721Metadata-symbol}."
      },
      "tokenURI(uint256)": {
        "details": "See {IERC721Metadata-tokenURI}."
      },
      "transferFrom(address,address,uint256)": {
        "details": "See {IERC721-transferFrom}."
      }
    },
    "version": 1
  },
  "userdoc": {
    "kind": "user",
    "methods": {},
    "version": 1
  }
}