{
  "contractName": "GameContract",
  "abi": [
    {
      "inputs": [],
      "stateMutability": "nonpayable",
      "type": "constructor"
    },
    {
      "anonymous": false,
      "inputs": [
        {
          "indexed": false,
          "internalType": "uint256",
          "name": "tokenId",
          "type": "uint256"
        },
        {
          "indexed": false,
          "internalType": "address",
          "name": "seller",
          "type": "address"
        },
        {
          "indexed": false,
          "internalType": "uint256",
          "name": "price",
          "type": "uint256"
        }
      ],
      "name": "NewOnSale",
      "type": "event"
    },
    {
      "anonymous": false,
      "inputs": [
        {
          "indexed": false,
          "internalType": "uint256",
          "name": "tokenId",
          "type": "uint256"
        },
        {
          "indexed": false,
          "internalType": "address",
          "name": "seller",
          "type": "address"
        }
      ],
      "name": "Retired",
      "type": "event"
    },
    {
      "anonymous": false,
      "inputs": [
        {
          "indexed": false,
          "internalType": "uint256",
          "name": "tokenId",
          "type": "uint256"
        },
        {
          "indexed": false,
          "internalType": "address",
          "name": "seller",
          "type": "address"
        },
        {
          "indexed": false,
          "internalType": "address",
          "name": "buyer",
          "type": "address"
        }
      ],
      "name": "Selled",
      "type": "event"
    },
    {
      "inputs": [],
      "name": "AECoinContractAddress",
      "outputs": [
        {
          "internalType": "contract AECoinFT",
          "name": "",
          "type": "address"
        }
      ],
      "stateMutability": "view",
      "type": "function",
      "constant": true
    },
    {
      "inputs": [],
      "name": "AEMonsterContract",
      "outputs": [
        {
          "internalType": "contract AEMonsterNFT",
          "name": "",
          "type": "address"
        }
      ],
      "stateMutability": "view",
      "type": "function",
      "constant": true
    },
    {
      "inputs": [
        {
          "internalType": "uint256",
          "name": "_tokenId",
          "type": "uint256"
        }
      ],
      "name": "buyOnSaleMonster",
      "outputs": [],
      "stateMutability": "nonpayable",
      "type": "function"
    },
    {
      "inputs": [
        {
          "internalType": "uint256",
          "name": "_tokenId",
          "type": "uint256"
        },
        {
          "internalType": "uint256",
          "name": "newPrice",
          "type": "uint256"
        }
      ],
      "name": "changePrince",
      "outputs": [],
      "stateMutability": "nonpayable",
      "type": "function"
    },
    {
      "inputs": [],
      "name": "getOnSaleMonsters",
      "outputs": [
        {
          "components": [
            {
              "internalType": "address",
              "name": "seller",
              "type": "address"
            },
            {
              "internalType": "uint256",
              "name": "tokenId",
              "type": "uint256"
            },
            {
              "internalType": "uint256",
              "name": "price",
              "type": "uint256"
            }
          ],
          "internalType": "struct AEMarket.OnSaleMonster[]",
          "name": "",
          "type": "tuple[]"
        }
      ],
      "stateMutability": "view",
      "type": "function",
      "constant": true
    },
    {
      "inputs": [
        {
          "internalType": "uint256",
          "name": "_tokenId",
          "type": "uint256"
        }
      ],
      "name": "leaveFromSale",
      "outputs": [],
      "stateMutability": "nonpayable",
      "type": "function"
    },
    {
      "inputs": [],
      "name": "owner",
      "outputs": [
        {
          "internalType": "address",
          "name": "",
          "type": "address"
        }
      ],
      "stateMutability": "view",
      "type": "function",
      "constant": true
    },
    {
      "inputs": [
        {
          "internalType": "uint256",
          "name": "_tokenId",
          "type": "uint256"
        },
        {
          "internalType": "uint256",
          "name": "price",
          "type": "uint256"
        }
      ],
      "name": "putOnSale",
      "outputs": [],
      "stateMutability": "nonpayable",
      "type": "function"
    },
    {
      "inputs": [
        {
          "internalType": "uint256",
          "name": "",
          "type": "uint256"
        }
      ],
      "name": "sellingIds",
      "outputs": [
        {
          "internalType": "uint256",
          "name": "",
          "type": "uint256"
        }
      ],
      "stateMutability": "view",
      "type": "function",
      "constant": true
    },
    {
      "inputs": [
        {
          "internalType": "address",
          "name": "",
          "type": "address"
        },
        {
          "internalType": "uint256",
          "name": "",
          "type": "uint256"
        }
      ],
      "name": "sellingMap",
      "outputs": [
        {
          "internalType": "address",
          "name": "seller",
          "type": "address"
        },
        {
          "internalType": "uint256",
          "name": "tokenId",
          "type": "uint256"
        },
        {
          "internalType": "uint256",
          "name": "price",
          "type": "uint256"
        }
      ],
      "stateMutability": "view",
      "type": "function",
      "constant": true
    },
    {
      "inputs": [
        {
          "internalType": "uint256",
          "name": "numberOfCoins",
          "type": "uint256"
        }
      ],
      "name": "purchaseGameCoins",
      "outputs": [],
      "stateMutability": "payable",
      "type": "function",
      "payable": true
    },
    {
      "inputs": [
        {
          "internalType": "address",
          "name": "player",
          "type": "address"
        }
      ],
      "name": "coinBalanceOf",
      "outputs": [
        {
          "internalType": "uint256",
          "name": "",
          "type": "uint256"
        }
      ],
      "stateMutability": "view",
      "type": "function",
      "constant": true
    },
    {
      "inputs": [
        {
          "internalType": "string",
          "name": "tokenURI",
          "type": "string"
        }
      ],
      "name": "buyNewMonster",
      "outputs": [
        {
          "internalType": "uint256",
          "name": "",
          "type": "uint256"
        }
      ],
      "stateMutability": "nonpayable",
      "type": "function"
    },
    {
      "inputs": [],
      "name": "destroy",
      "outputs": [],
      "stateMutability": "nonpayable",
      "type": "function"
    }
  ],
  "bytecode": "0x608060405234801561001057600080fd5b503060405161001e906100d5565b6001600160a01b039091168152602001604051809103906000f08015801561004a573d6000803e3d6000fd5b50600480546001600160a01b0319166001600160a01b03929092169190911790556040513090610079906100e3565b6001600160a01b039091168152602001604051809103906000f0801580156100a5573d6000803e3d6000fd5b50600580546001600160a01b03929092166001600160a01b031992831617905560068054909116331790556100f1565b610daa80620016cd83390190565b61247a806200247783390190565b6115cc80620001016000396000f3fe6080604052600436106100dd5760003560e01c80638da5cb5b1161007f578063c5af05b211610059578063c5af05b21461028a578063eefb2a2a146102aa578063efaf38a3146102cc578063fb2af96c146102ec57600080fd5b80638da5cb5b1461022a578063b75b10db1461024a578063bbd39ac01461026a57600080fd5b806336f7992b116100bb57806336f7992b146101b45780634b91f4b4146101d45780636cfbf92f1461020257806383197ef01461021557600080fd5b8063254175c4146100e2578063297cdaa7146101045780633498f5eb14610141575b600080fd5b3480156100ee57600080fd5b506101026100fd366004611229565b61030c565b005b34801561011057600080fd5b50600554610124906001600160a01b031681565b6040516001600160a01b0390911681526020015b60405180910390f35b34801561014d57600080fd5b5061018f61015c36600461125a565b60006020818152928152604080822090935290815220805460018201546002909201546001600160a01b03909116919083565b604080516001600160a01b039094168452602084019290925290820152606001610138565b3480156101c057600080fd5b506101026101cf366004611286565b61060b565b3480156101e057600080fd5b506101f46101ef3660046112a8565b610902565b604051908152602001610138565b610102610210366004611229565b610aa5565b34801561022157600080fd5b50610102610ba5565b34801561023657600080fd5b50600654610124906001600160a01b031681565b34801561025657600080fd5b506101f4610265366004611229565b610cef565b34801561027657600080fd5b506101f461028536600461131a565b610d10565b34801561029657600080fd5b506101026102a5366004611229565b610d8a565b3480156102b657600080fd5b506102bf610ef0565b604051610138919061133e565b3480156102d857600080fd5b506101026102e7366004611286565b611015565b3480156102f857600080fd5b50600454610124906001600160a01b031681565b600081815260026020526040902054819060ff16151560011461034a5760405162461bcd60e51b8152600401610341906113a0565b60405180910390fd5b60008281526001602052604090819020600201546004805492516370a0823160e01b81523391810182905290928592916001600160a01b03909116906370a0823190602401602060405180830381865afa1580156103ac573d6000803e3d6000fd5b505050506040513d601f19601f820116820180604052508101906103d091906113e7565b10156104355760405162461bcd60e51b815260206004820152602e60248201527f596f7520686176656e277420656e6f756768204145436f696e7320746f20627560448201526d3c903a3434b99036b7b739ba32b960911b6064820152608401610341565b6004805460008681526001602052604090819020805460029091015491516371c34d3360e01b815233948101949094526001600160a01b039081166024850152604484019190915216906371c34d3390606401600060405180830381600087803b1580156104a257600080fd5b505af11580156104b6573d6000803e3d6000fd5b5050600554600087815260016020526040908190205490516313e15cb160e21b81526001600160a01b0391821660048201523360248201526044810189905291169250634f8572c49150606401600060405180830381600087803b15801561051d57600080fd5b505af1158015610531573d6000803e3d6000fd5b505050600085815260016020818152604080842080546001600160a01b031685528483528185208a8652835281852080546001600160a01b031990811682558186018790556002918201879055825416825593810185905583018490559190529020805460ff19169055506105a58461116b565b6000848152600160209081526040918290205482518781526001600160a01b039091169181019190915233918101919091527f3a1adf84f6693cf6bc27777ad69c4336cde14c153fb30473130d02a8f8e27021906060015b60405180910390a150505050565b600082815260026020526040902054829060ff16156106805760405162461bcd60e51b815260206004820152602b60248201527f5468652073656c6563746564204145746865726d6f6e2077617320616c72656160448201526a6479206f6e2073616c652160a81b6064820152608401610341565b6005546040516331a9108f60e11b8152600481018590528491339182916001600160a01b031690636352211e90602401602060405180830381865afa1580156106cd573d6000803e3d6000fd5b505050506040513d601f19601f820116820180604052508101906106f19190611400565b6001600160a01b0316146107175760405162461bcd60e51b81526004016103419061141d565b83600081116107385760405162461bcd60e51b815260040161034190611473565b6040518060600160405280336001600160a01b0316815260200187815260200186815250600080336001600160a01b03166001600160a01b03168152602001908152602001600020600088815260200190815260200160002060008201518160000160006101000a8154816001600160a01b0302191690836001600160a01b0316021790555060208201518160010155604082015181600201559050506040518060600160405280336001600160a01b03168152602001878152602001868152506001600088815260200190815260200160002060008201518160000160006101000a8154816001600160a01b0302191690836001600160a01b03160217905550602082015181600101556040820151816002015590505060016002600088815260200190815260200160002060006101000a81548160ff02191690831515021790555060038690806001815401808255809150506001900390600052602060002001600090919091909150557f6f0ca42f00a23baa7497fc6a983ad4f2ae4ea21f85f382a7b3ca87371cff20ef8633876040516108f2939291909283526001600160a01b03919091166020830152604082015260600190565b60405180910390a1505050505050565b600480546040516370a0823160e01b815233928101839052600092916064916001600160a01b03909116906370a0823190602401602060405180830381865afa158015610953573d6000803e3d6000fd5b505050506040513d601f19601f8201168201806040525081019061097791906113e7565b10156109ba5760405162461bcd60e51b81526020600482015260126024820152714e6f7420656e6f756768204145436f696e7360701b6044820152606401610341565b60055460405163436882d360e01b81526000916001600160a01b03169063436882d3906109ef903390899089906004016114bb565b6020604051808303816000875af1158015610a0e573d6000803e3d6000fd5b505050506040513d601f19601f82011682018060405250810190610a3291906113e7565b600480546040516317fed43560e01b81523392810192909252606460248301529192506001600160a01b03909116906317fed43590604401600060405180830381600087803b158015610a8457600080fd5b505af1158015610a98573d6000803e3d6000fd5b5092979650505050505050565b6000610ab782652d79883d2000611511565b905080341015610b015760405162461bcd60e51b8152602060048201526015602482015274125b9cdd59999a58da595b9d08115512081cd95b9d605a1b6044820152606401610341565b60048054604051639b74177160e01b81523392810192909252602482018490526001600160a01b031690639b74177190604401600060405180830381600087803b158015610b4e57600080fd5b505af1158015610b62573d6000803e3d6000fd5b50506006546040516001600160a01b0390911692503480156108fc029250906000818181858888f19350505050158015610ba0573d6000803e3d6000fd5b505050565b6006546001600160a01b03163314610c1d5760405162461bcd60e51b815260206004820152603560248201527f4f6e6c7920746865206f776e6572206f662074686520636f6e7472616374206360448201527430b71031b0b636103a3434b990333ab731ba34b7b760591b6064820152608401610341565b600480546040805163083197ef60e41b815290516001600160a01b03909216926383197ef092828201926000929082900301818387803b158015610c6057600080fd5b505af1158015610c74573d6000803e3d6000fd5b50505050600560009054906101000a90046001600160a01b03166001600160a01b03166383197ef06040518163ffffffff1660e01b8152600401600060405180830381600087803b158015610cc857600080fd5b505af1158015610cdc573d6000803e3d6000fd5b50506006546001600160a01b0316915050ff5b60038181548110610cff57600080fd5b600091825260209091200154905081565b600480546040516370a0823160e01b81526001600160a01b0384811693820193909352600092909116906370a0823190602401602060405180830381865afa158015610d60573d6000803e3d6000fd5b505050506040513d601f19601f82011682018060405250810190610d8491906113e7565b92915050565b600081815260026020526040902054819060ff161515600114610dbf5760405162461bcd60e51b8152600401610341906113a0565b6005546040516331a9108f60e11b8152600481018490528391339182916001600160a01b031690636352211e90602401602060405180830381865afa158015610e0c573d6000803e3d6000fd5b505050506040513d601f19601f82011682018060405250810190610e309190611400565b6001600160a01b031614610e565760405162461bcd60e51b81526004016103419061141d565b33600090815260208181526040808320878452825280832080546001600160a01b031990811682556001808301869055600292830186905580855283862080549092168255810185905581018490559091529020805460ff19169055610ebb8461116b565b604080518581523360208201527f152a31b181b771801c61615f3bb08b1dcb71597a061fe1cd4085653d8c447fa491016105fd565b60035460609060009067ffffffffffffffff811115610f1157610f11611528565b604051908082528060200260200182016040528015610f6f57816020015b610f5c604051806060016040528060006001600160a01b0316815260200160008152602001600081525090565b815260200190600190039081610f2f5790505b50905060005b60035481101561100f576001600060038381548110610f9657610f9661153e565b600091825260208083209091015483528281019390935260409182019020815160608101835281546001600160a01b0316815260018201549381019390935260020154908201528251839083908110610ff157610ff161153e565b6020026020010181905250808061100790611554565b915050610f75565b50919050565b600082815260026020526040902054829060ff16151560011461104a5760405162461bcd60e51b8152600401610341906113a0565b6005546040516331a9108f60e11b8152600481018590528491339182916001600160a01b031690636352211e90602401602060405180830381865afa158015611097573d6000803e3d6000fd5b505050506040513d601f19601f820116820180604052508101906110bb9190611400565b6001600160a01b0316146110e15760405162461bcd60e51b81526004016103419061141d565b83600081116111025760405162461bcd60e51b815260040161034190611473565b336000818152602081815260408083208a8452825280832060029081018a9055600183529281902090920188905581518981529081019290925281018690527f6f0ca42f00a23baa7497fc6a983ad4f2ae4ea21f85f382a7b3ca87371cff20ef906060016108f2565b6000805b6003548110156111b357826003828154811061118d5761118d61153e565b9060005260206000200154036111a1578091505b806111ab81611554565b91505061116f565b50600380546111c49060019061156d565b815481106111d4576111d461153e565b9060005260206000200154600382815481106111f2576111f261153e565b600091825260209091200155600380548061120f5761120f611580565b600190038181906000526020600020016000905590555050565b60006020828403121561123b57600080fd5b5035919050565b6001600160a01b038116811461125757600080fd5b50565b6000806040838503121561126d57600080fd5b823561127881611242565b946020939093013593505050565b6000806040838503121561129957600080fd5b50508035926020909101359150565b600080602083850312156112bb57600080fd5b823567ffffffffffffffff808211156112d357600080fd5b818501915085601f8301126112e757600080fd5b8135818111156112f657600080fd5b86602082850101111561130857600080fd5b60209290920196919550909350505050565b60006020828403121561132c57600080fd5b813561133781611242565b9392505050565b602080825282518282018190526000919060409081850190868401855b8281101561139357815180516001600160a01b031685528681015187860152850151858501526060909301929085019060010161135b565b5091979650505050505050565b60208082526027908201527f5468652073656c6563746564204145746865726d6f6e20776173206e6f74206f6040820152666e2073616c652160c81b606082015260800190565b6000602082840312156113f957600080fd5b5051919050565b60006020828403121561141257600080fd5b815161133781611242565b60208082526036908201527f4f6e6c7920746865206f776e6572206f6620746865204145746865726d6f6e2060408201527531b0b71031b0b636103a3434b990333ab731ba34b7b760511b606082015260800190565b60208082526028908201527f5468652073656c6c696e67207072696365206d75737420626520677265617465604082015267072207468616e20360c41b606082015260800190565b6001600160a01b03841681526040602082018190528101829052818360608301376000818301606090810191909152601f909201601f1916010192915050565b634e487b7160e01b600052601160045260246000fd5b8082028115828204841417610d8457610d846114fb565b634e487b7160e01b600052604160045260246000fd5b634e487b7160e01b600052603260045260246000fd5b600060018201611566576115666114fb565b5060010190565b81810381811115610d8457610d846114fb565b634e487b7160e01b600052603160045260246000fdfea26469706673582212206128c930b4afb4d4c6cb1cf2c20358b3dcbf1725f6b94b8bccdfd2e4dd0f109e64736f6c6343000813003360806040523480156200001157600080fd5b5060405162000daa38038062000daa8339810160408190526200003491620000c1565b6040518060400160405280600681526020016520a2a1b7b4b760d11b8152506040518060400160405280600381526020016241454360e81b815250816003908162000080919062000198565b5060046200008f828262000198565b5050600580546001600160a01b03909316610100026001600160a81b031990931692909217600a179091555062000264565b600060208284031215620000d457600080fd5b81516001600160a01b0381168114620000ec57600080fd5b9392505050565b634e487b7160e01b600052604160045260246000fd5b600181811c908216806200011e57607f821691505b6020821081036200013f57634e487b7160e01b600052602260045260246000fd5b50919050565b601f8211156200019357600081815260208120601f850160051c810160208610156200016e5750805b601f850160051c820191505b818110156200018f578281556001016200017a565b5050505b505050565b81516001600160401b03811115620001b457620001b4620000f3565b620001cc81620001c5845462000109565b8462000145565b602080601f831160018114620002045760008415620001eb5750858301515b600019600386901b1c1916600185901b1785556200018f565b600085815260208120601f198616915b82811015620002355788860151825594840194600190910190840162000214565b5085821015620002545787850151600019600388901b60f8161c191681555b5050505050600190811b01905550565b610b3680620002746000396000f3fe608060405234801561001057600080fd5b506004361061010b5760003560e01c806370a08231116100a257806395d89b411161007157806395d89b41146102345780639b7417711461023c578063a9059cbb1461024f578063c00007b014610262578063dd62ed3e1461027557600080fd5b806370a08231146101dd57806371c34d331461020657806379cc67901461021957806383197ef01461022c57600080fd5b806323b872dd116100de57806323b872dd14610178578063313ce5671461018b57806342966c681461019a57806363df0ef7146101ad57600080fd5b806306fdde0314610110578063095ea7b31461012e57806317fed4351461015157806318160ddd14610166575b600080fd5b6101186102ae565b604051610125919061091a565b60405180910390f35b61014161013c366004610984565b610340565b6040519015158152602001610125565b61016461015f366004610984565b61035a565b005b6002545b604051908152602001610125565b6101416101863660046109ae565b6103e3565b60405160128152602001610125565b6101646101a83660046109ea565b610407565b6005546101c59061010090046001600160a01b031681565b6040516001600160a01b039091168152602001610125565b61016a6101eb366004610a03565b6001600160a01b031660009081526020819052604090205490565b6101646102143660046109ae565b610414565b610164610227366004610984565b610453565b61016461046c565b6101186104ae565b61016461024a366004610984565b6104bd565b61014161025d366004610984565b61052c565b610164610270366004610a03565b61053a565b61016a610283366004610a25565b6001600160a01b03918216600090815260016020908152604080832093909416825291909152205490565b6060600380546102bd90610a58565b80601f01602080910402602001604051908101604052809291908181526020018280546102e990610a58565b80156103365780601f1061030b57610100808354040283529160200191610336565b820191906000526020600020905b81548152906001019060200180831161031957829003601f168201915b5050505050905090565b60003361034e8185856105c5565b60019150505b92915050565b60055461010090046001600160a01b031633146103925760405162461bcd60e51b815260040161038990610a92565b60405180910390fd5b61039c82826105d2565b604080516001600160a01b0384168152602081018390527fcc16f5dbb4873280815c1ee09dbd06736cffcc184412cf7a71a0fdb75d397ca591015b60405180910390a15050565b6000336103f1858285610608565b6103fc858585610686565b506001949350505050565b61041133826105d2565b50565b60055461010090046001600160a01b031633146104435760405162461bcd60e51b815260040161038990610a92565b61044e838383610686565b505050565b61045e823383610608565b61046882826105d2565b5050565b60055461010090046001600160a01b0316331461049b5760405162461bcd60e51b815260040161038990610a92565b60055461010090046001600160a01b0316ff5b6060600480546102bd90610a58565b60055461010090046001600160a01b031633146104ec5760405162461bcd60e51b815260040161038990610a92565b6104f682826106e5565b60408051338152602081018390527f2499a5330ab0979cc612135e7883ebc3cd5c9f7a8508f042540c34723348f63291016103d7565b60003361034e818585610686565b60055461010090046001600160a01b031633146105695760405162461bcd60e51b815260040161038990610a92565b60055461057a90829060ff166106e5565b600554604080516001600160a01b038416815260ff90921660208301527f6747c18256028de8cd2fa276e75d6b4193ac34c1b55fa8e71797ac132d32ad39910160405180910390a150565b61044e838383600161071b565b6001600160a01b0382166105fc57604051634b637e8f60e11b815260006004820152602401610389565b610468826000836107f0565b6001600160a01b038381166000908152600160209081526040808320938616835292905220546000198114610680578181101561067157604051637dc7a0d960e11b81526001600160a01b03841660048201526024810182905260448101839052606401610389565b6106808484848403600061071b565b50505050565b6001600160a01b0383166106b057604051634b637e8f60e11b815260006004820152602401610389565b6001600160a01b0382166106da5760405163ec442f0560e01b815260006004820152602401610389565b61044e8383836107f0565b6001600160a01b03821661070f5760405163ec442f0560e01b815260006004820152602401610389565b610468600083836107f0565b6001600160a01b0384166107455760405163e602df0560e01b815260006004820152602401610389565b6001600160a01b03831661076f57604051634a1406b160e11b815260006004820152602401610389565b6001600160a01b038085166000908152600160209081526040808320938716835292905220829055801561068057826001600160a01b0316846001600160a01b03167f8c5be1e5ebec7d5bd14f71427d1e84f3dd0314c0f7b2291e5b200ac8c7c3b925846040516107e291815260200190565b60405180910390a350505050565b6001600160a01b03831661081b5780600260008282546108109190610adf565b9091555061088d9050565b6001600160a01b0383166000908152602081905260409020548181101561086e5760405163391434e360e21b81526001600160a01b03851660048201526024810182905260448101839052606401610389565b6001600160a01b03841660009081526020819052604090209082900390555b6001600160a01b0382166108a9576002805482900390556108c8565b6001600160a01b03821660009081526020819052604090208054820190555b816001600160a01b0316836001600160a01b03167fddf252ad1be2c89b69c2b068fc378daa952ba7f163c4a11628f55a4df523b3ef8360405161090d91815260200190565b60405180910390a3505050565b600060208083528351808285015260005b818110156109475785810183015185820160400152820161092b565b506000604082860101526040601f19601f8301168501019250505092915050565b80356001600160a01b038116811461097f57600080fd5b919050565b6000806040838503121561099757600080fd5b6109a083610968565b946020939093013593505050565b6000806000606084860312156109c357600080fd5b6109cc84610968565b92506109da60208501610968565b9150604084013590509250925092565b6000602082840312156109fc57600080fd5b5035919050565b600060208284031215610a1557600080fd5b610a1e82610968565b9392505050565b60008060408385031215610a3857600080fd5b610a4183610968565b9150610a4f60208401610968565b90509250929050565b600181811c90821680610a6c57607f821691505b602082108103610a8c57634e487b7160e01b600052602260045260246000fd5b50919050565b6020808252602d908201527f4f6e6c79207468652067616d6520636f6e74726163742063616e2063616c6c2060408201526c3a3434b990333ab731ba34b7b760991b606082015260800190565b8082018082111561035457634e487b7160e01b600052601160045260246000fdfea26469706673582212207a1b2e99ebe0c7462f3b5f73819f789d7a4c6ddc1fad135fdbb9500fe6198d7a64736f6c6343000813003360806040523480156200001157600080fd5b506040516200247a3803806200247a8339810160408190526200003491620000c4565b6040518060400160405280600981526020016820a2a6b7b739ba32b960b91b8152506040518060400160405280600381526020016241454d60e81b81525081600090816200008391906200019b565b5060016200009282826200019b565b50506000600b555042600c55600d80546001600160a01b0319166001600160a01b039290921691909117905562000267565b600060208284031215620000d757600080fd5b81516001600160a01b0381168114620000ef57600080fd5b9392505050565b634e487b7160e01b600052604160045260246000fd5b600181811c908216806200012157607f821691505b6020821081036200014257634e487b7160e01b600052602260045260246000fd5b50919050565b601f8211156200019657600081815260208120601f850160051c81016020861015620001715750805b601f850160051c820191505b8181101562000192578281556001016200017d565b5050505b505050565b81516001600160401b03811115620001b757620001b7620000f6565b620001cf81620001c884546200010c565b8462000148565b602080601f831160018114620002075760008415620001ee5750858301515b600019600386901b1c1916600185901b17855562000192565b600085815260208120601f198616915b82811015620002385788860151825594840194600190910190840162000217565b5085821015620002575787850151600019600388901b60f8161c191681555b5050505050600190811b01905550565b61220380620002776000396000f3fe608060405234801561001057600080fd5b50600436106101585760003560e01c80636352211e116100c3578063b57498dc1161007c578063b57498dc14610411578063b88d4fde14610431578063c87b56dd14610444578063dc88cf7814610457578063e289f1a714610477578063e985e9c51461048a57600080fd5b80636352211e146103b557806363df0ef7146103c857806370a08231146103db57806383197ef0146103ee57806395d89b41146103f6578063a22cb465146103fe57600080fd5b8063254496be11610115578063254496be1461020d5780633bb3a24d146102a257806342842e0e146102b5578063436882d3146102c85780634f8572c4146102e957806357d34d32146102fc57600080fd5b806301ffc9a71461015d57806306fdde0314610185578063081812fc1461019a578063095ea7b3146101c55780631e58c923146101da57806323b872dd146101fa575b600080fd5b61017061016b366004611af6565b61049d565b60405190151581526020015b60405180910390f35b61018d6104c8565b60405161017c9190611b63565b6101ad6101a8366004611b76565b61055a565b6040516001600160a01b03909116815260200161017c565b6101d86101d3366004611bab565b610583565b005b6101ed6101e8366004611bd5565b610592565b60405161017c9190611c39565b6101d8610208366004611c87565b61072b565b61026a61021b366004611bab565b60086020908152600092835260408084209091529082529020805460019091015460ff808216916101008104821691620100008204811691630100000081048216916401000000009091041686565b6040805196875260ff9586166020880152938516938601939093529083166060850152821660808401521660a082015260c00161017c565b61018d6102b0366004611b76565b6107bb565b6101d86102c3366004611c87565b6107c6565b6102db6102d6366004611d4f565b6107e6565b60405190815260200161017c565b6101d86102f7366004611c87565b610a44565b6103a861030a366004611b76565b6040805160c081018252600080825260208201819052918101829052606081018290526080810182905260a081019190915250600090815260076020908152604091829020825160c0810184528154815260019091015460ff8082169383019390935261010081048316938201939093526201000083048216606082015263010000008304821660808201526401000000009092041660a082015290565b60405161017c9190611db1565b6101ad6103c3366004611b76565b610d9a565b600d546101ad906001600160a01b031681565b6102db6103e9366004611bd5565b610da5565b6101d8610ded565b61018d610e25565b6101d861040c366004611dbf565b610e34565b6102db61041f366004611bd5565b60096020526000908152604090205481565b6101d861043f366004611dfb565b610e3f565b61018d610452366004611b76565b610e56565b61046a610465366004611bd5565b610f67565b60405161017c9190611e77565b6102db610485366004611bab565b611064565b610170610498366004611ed9565b611095565b60006001600160e01b03198216632483248360e11b14806104c257506104c2826110c3565b92915050565b6060600080546104d790611f0c565b80601f016020809104026020016040519081016040528092919081815260200182805461050390611f0c565b80156105505780601f1061052557610100808354040283529160200191610550565b820191906000526020600020905b81548152906001019060200180831161053357829003601f168201915b5050505050905090565b600061056582611113565b506000828152600460205260409020546001600160a01b03166104c2565b61058e82823361114c565b5050565b6001600160a01b0381166000908152600a60205260408120546060919067ffffffffffffffff8111156105c7576105c7611cc3565b60405190808252806020026020018201604052801561062757816020015b6040805160c08101825260008082526020808301829052928201819052606082018190526080820181905260a082015282526000199092019101816105e55790505b50905060005b6001600160a01b0384166000908152600a6020526040902054811015610724576001600160a01b0384166000908152600a60205260408120805460079291908490811061067c5761067c611f46565b600091825260208083209091015483528281019390935260409182019020815160c0810183528154815260019091015460ff80821694830194909452610100810484169282019290925262010000820483166060820152630100000082048316608082015264010000000090910490911660a0820152825183908390811061070657610706611f46565b6020026020010181905250808061071c90611f72565b91505061062d565b5092915050565b6001600160a01b03821661075a57604051633250574960e11b8152600060048201526024015b60405180910390fd5b6000610767838333611159565b9050836001600160a01b0316816001600160a01b0316146107b5576040516364283d7b60e01b81526001600160a01b0380861660048301526024820184905282166044820152606401610751565b50505050565b60606104c282610e56565b6107e183838360405180602001604052806000815250610e3f565b505050565b600d546000906001600160a01b031633146108135760405162461bcd60e51b815260040161075190611f8b565b6001600b60008282546108269190611fd8565b9250508190555060006040518060c00160405280600b54815260200161084a611252565b60ff16815260200161085a611252565b60ff16815260200161086a611252565b610875906005611fd8565b60ff168152602001610885611252565b60ff9081168252600160209283018190526001600160a01b0388166000818152600a85526040808220600b805482548088018455928552888520909201919091558383526008875281832090548352865280822087518155878701519085018054838a015160608b015160808c015160a08d01518b166401000000000264ff0000000019918c1663010000000263ff00000019938d1662010000029390931663ffff000019948d166101000261ffff1990961697909c169690961793909317919091169890981797909717969096161790945590815260099093529120549192506109709190611fd8565b6001600160a01b038516600090815260096020526040902055600b546109979085906112c4565b6109a3600b5484611329565b600b8054600090815260076020908152604091829020845181559084015160019091018054928501516060860151608087015160a09097015160ff94851661ffff1990961695909517610100928516929092029190911763ffff00001916620100009184169190910263ff0000001916176301000000958316959095029490941764ff00000000191664010000000091909216021790915554905092915050565b600d546001600160a01b03163314610a6e5760405162461bcd60e51b815260040161075190611f8b565b610a79838383611379565b600060086000856001600160a01b03166001600160a01b0316815260200190815260200160002060008381526020019081526020016000206040518060c0016040529081600082015481526020016001820160009054906101000a900460ff1660ff1660ff1681526020016001820160019054906101000a900460ff1660ff1660ff1681526020016001820160029054906101000a900460ff1660ff1660ff1681526020016001820160039054906101000a900460ff1660ff1660ff1681526020016001820160049054906101000a900460ff1660ff1660ff1681525050905060086000856001600160a01b03166001600160a01b0316815260200190815260200160002060008381526020019081526020016000206000808201600090556001820160006101000a81549060ff02191690556001820160016101000a81549060ff02191690556001820160026101000a81549060ff02191690556001820160036101000a81549060ff02191690556001820160046101000a81549060ff021916905550508060086000856001600160a01b03166001600160a01b0316815260200190815260200160002060008481526020019081526020016000206000820151816000015560208201518160010160006101000a81548160ff021916908360ff16021790555060408201518160010160016101000a81548160ff021916908360ff16021790555060608201518160010160026101000a81548160ff021916908360ff16021790555060808201518160010160036101000a81548160ff021916908360ff16021790555060a08201518160010160046101000a81548160ff021916908360ff160217905550905050600160096000866001600160a01b03166001600160a01b0316815260200190815260200160002054610d199190611feb565b6001600160a01b038086166000908152600960205260408082209390935590851681522054610d49906001611fd8565b6001600160a01b038416600090815260096020526040902055610d6c8285611429565b506001600160a01b039091166000908152600a60209081526040822080546001810182559083529120015550565b60006104c282611113565b60006001600160a01b038216610dd1576040516322718ad960e21b815260006004820152602401610751565b506001600160a01b031660009081526003602052604090205490565b600d546001600160a01b03163314610e175760405162461bcd60e51b815260040161075190611f8b565b600d546001600160a01b0316ff5b6060600180546104d790611f0c565b61058e338383611568565b610e4a84848461072b565b6107b584848484611607565b6060610e6182611113565b5060008281526006602052604081208054610e7b90611f0c565b80601f0160208091040260200160405190810160405280929190818152602001828054610ea790611f0c565b8015610ef45780601f10610ec957610100808354040283529160200191610ef4565b820191906000526020600020905b815481529060010190602001808311610ed757829003601f168201915b505050505090506000610f1260408051602081019091526000815290565b90508051600003610f24575092915050565b815115610f56578082604051602001610f3e929190611ffe565b60405160208183030381529060405292505050919050565b610f5f84611730565b949350505050565b6001600160a01b0381166000908152600a60205260408120546060919067ffffffffffffffff811115610f9c57610f9c611cc3565b604051908082528060200260200182016040528015610fcf57816020015b6060815260200190600190039081610fba5790505b50905060005b6001600160a01b0384166000908152600a6020526040902054811015610724576001600160a01b0384166000908152600a60205260409020805461103491908390811061102457611024611f46565b9060005260206000200154610e56565b82828151811061104657611046611f46565b6020026020010181905250808061105c90611f72565b915050610fd5565b600a602052816000526040600020818154811061108057600080fd5b90600052602060002001600091509150505481565b6001600160a01b03918216600090815260056020908152604080832093909416825291909152205460ff1690565b60006001600160e01b031982166380ac58cd60e01b14806110f457506001600160e01b03198216635b5e139f60e01b145b806104c257506301ffc9a760e01b6001600160e01b03198316146104c2565b6000818152600260205260408120546001600160a01b0316806104c257604051637e27328960e01b815260048101849052602401610751565b6107e183838360016117a5565b6000828152600260205260408120546001600160a01b0390811690831615611186576111868184866118ab565b6001600160a01b038116156111c4576111a36000856000806117a5565b6001600160a01b038116600090815260036020526040902080546000190190555b6001600160a01b038516156111f3576001600160a01b0385166000908152600360205260409020805460010190555b60008481526002602052604080822080546001600160a01b0319166001600160a01b0389811691821790925591518793918516917fddf252ad1be2c89b69c2b068fc378daa952ba7f163c4a11628f55a4df523b3ef91a4949350505050565b6000600a3342611263600143611feb565b60405160609390931b6bffffffffffffffffffffffff1916602084015260348301919091524060548201526074016040516020818303038152906040528051906020012060001c6112b4919061202d565b6112bf906001611fd8565b905090565b6001600160a01b0382166112ee57604051633250574960e11b815260006004820152602401610751565b60006112fc83836000611159565b90506001600160a01b038116156107e1576040516339e3563760e11b815260006004820152602401610751565b6000828152600660205260409020611341828261209d565b506040518281527ff8e1a15aba9398e019f0b49df1a4fde98ee17ae345cb5f6b5e2c27f5033e8ce79060200160405180910390a15050565b6001600160a01b0382166113a357604051633250574960e11b815260006004820152602401610751565b60006113b183836000611159565b90506001600160a01b0381166113dd57604051637e27328960e01b815260048101839052602401610751565b836001600160a01b0316816001600160a01b0316146107b5576040516364283d7b60e01b81526001600160a01b0380861660048301526024820184905282166044820152606401610751565b6000805b6001600160a01b0383166000908152600a60205260409020548110156114a0576001600160a01b0383166000908152600a6020526040902080548591908390811061147a5761147a611f46565b90600052602060002001540361148e578091505b8061149881611f72565b91505061142d565b506001600160a01b0382166000908152600a6020526040902080546114c790600190611feb565b815481106114d7576114d7611f46565b9060005260206000200154600a6000846001600160a01b03166001600160a01b03168152602001908152602001600020828154811061151857611518611f46565b60009182526020808320909101929092556001600160a01b0384168152600a9091526040902080548061154d5761154d61215d565b60019003818190600052602060002001600090559055505050565b6001600160a01b03821661159a57604051630b61174360e31b81526001600160a01b0383166004820152602401610751565b6001600160a01b03838116600081815260056020908152604080832094871680845294825291829020805460ff191686151590811790915591519182527f17307eab39ab6107e8899845ad3d59bd9653f200f220920489ca2b5937696c31910160405180910390a3505050565b6001600160a01b0383163b156107b557604051630a85bd0160e11b81526001600160a01b0384169063150b7a0290611649903390889087908790600401612173565b6020604051808303816000875af1925050508015611684575060408051601f3d908101601f19168201909252611681918101906121b0565b60015b6116ed573d8080156116b2576040519150601f19603f3d011682016040523d82523d6000602084013e6116b7565b606091505b5080516000036116e557604051633250574960e11b81526001600160a01b0385166004820152602401610751565b805181602001fd5b6001600160e01b03198116630a85bd0160e11b1461172957604051633250574960e11b81526001600160a01b0385166004820152602401610751565b5050505050565b606061173b82611113565b50600061175360408051602081019091526000815290565b90506000815111611773576040518060200160405280600081525061179e565b8061177d8461190f565b60405160200161178e929190611ffe565b6040516020818303038152906040525b9392505050565b80806117b957506001600160a01b03821615155b1561187b5760006117c984611113565b90506001600160a01b038316158015906117f55750826001600160a01b0316816001600160a01b031614155b801561180857506118068184611095565b155b156118315760405163a9fbf51f60e01b81526001600160a01b0384166004820152602401610751565b81156118795783856001600160a01b0316826001600160a01b03167f8c5be1e5ebec7d5bd14f71427d1e84f3dd0314c0f7b2291e5b200ac8c7c3b92560405160405180910390a45b505b5050600090815260046020526040902080546001600160a01b0319166001600160a01b0392909216919091179055565b6118b68383836119a2565b6107e1576001600160a01b0383166118e457604051637e27328960e01b815260048101829052602401610751565b60405163177e802f60e01b81526001600160a01b038316600482015260248101829052604401610751565b6060600061191c83611a05565b600101905060008167ffffffffffffffff81111561193c5761193c611cc3565b6040519080825280601f01601f191660200182016040528015611966576020820181803683370190505b5090508181016020015b600019016f181899199a1a9b1b9c1cb0b131b232b360811b600a86061a8153600a850494508461197057509392505050565b60006001600160a01b03831615801590610f5f5750826001600160a01b0316846001600160a01b031614806119dc57506119dc8484611095565b80610f5f5750506000908152600460205260409020546001600160a01b03908116911614919050565b60008072184f03e93ff9f4daa797ed6e38ed64bf6a1f0160401b8310611a445772184f03e93ff9f4daa797ed6e38ed64bf6a1f0160401b830492506040015b6d04ee2d6d415b85acef81000000008310611a70576d04ee2d6d415b85acef8100000000830492506020015b662386f26fc100008310611a8e57662386f26fc10000830492506010015b6305f5e1008310611aa6576305f5e100830492506008015b6127108310611aba57612710830492506004015b60648310611acc576064830492506002015b600a83106104c25760010192915050565b6001600160e01b031981168114611af357600080fd5b50565b600060208284031215611b0857600080fd5b813561179e81611add565b60005b83811015611b2e578181015183820152602001611b16565b50506000910152565b60008151808452611b4f816020860160208601611b13565b601f01601f19169290920160200192915050565b60208152600061179e6020830184611b37565b600060208284031215611b8857600080fd5b5035919050565b80356001600160a01b0381168114611ba657600080fd5b919050565b60008060408385031215611bbe57600080fd5b611bc783611b8f565b946020939093013593505050565b600060208284031215611be757600080fd5b61179e82611b8f565b8051825260ff602082015116602083015260ff604082015116604083015260ff606082015116606083015260ff608082015116608083015260ff60a08201511660a08301525050565b6020808252825182820181905260009190848201906040850190845b81811015611c7b57611c68838551611bf0565b9284019260c09290920191600101611c55565b50909695505050505050565b600080600060608486031215611c9c57600080fd5b611ca584611b8f565b9250611cb360208501611b8f565b9150604084013590509250925092565b634e487b7160e01b600052604160045260246000fd5b600067ffffffffffffffff80841115611cf457611cf4611cc3565b604051601f8501601f19908116603f01168101908282118183101715611d1c57611d1c611cc3565b81604052809350858152868686011115611d3557600080fd5b858560208301376000602087830101525050509392505050565b60008060408385031215611d6257600080fd5b611d6b83611b8f565b9150602083013567ffffffffffffffff811115611d8757600080fd5b8301601f81018513611d9857600080fd5b611da785823560208401611cd9565b9150509250929050565b60c081016104c28284611bf0565b60008060408385031215611dd257600080fd5b611ddb83611b8f565b915060208301358015158114611df057600080fd5b809150509250929050565b60008060008060808587031215611e1157600080fd5b611e1a85611b8f565b9350611e2860208601611b8f565b925060408501359150606085013567ffffffffffffffff811115611e4b57600080fd5b8501601f81018713611e5c57600080fd5b611e6b87823560208401611cd9565b91505092959194509250565b6000602080830181845280855180835260408601915060408160051b870101925083870160005b82811015611ecc57603f19888603018452611eba858351611b37565b94509285019290850190600101611e9e565b5092979650505050505050565b60008060408385031215611eec57600080fd5b611ef583611b8f565b9150611f0360208401611b8f565b90509250929050565b600181811c90821680611f2057607f821691505b602082108103611f4057634e487b7160e01b600052602260045260246000fd5b50919050565b634e487b7160e01b600052603260045260246000fd5b634e487b7160e01b600052601160045260246000fd5b600060018201611f8457611f84611f5c565b5060010190565b6020808252602d908201527f4f6e6c79207468652067616d6520636f6e74726163742063616e2063616c6c2060408201526c3a3434b990333ab731ba34b7b760991b606082015260800190565b808201808211156104c2576104c2611f5c565b818103818111156104c2576104c2611f5c565b60008351612010818460208801611b13565b835190830190612024818360208801611b13565b01949350505050565b60008261204a57634e487b7160e01b600052601260045260246000fd5b500690565b601f8211156107e157600081815260208120601f850160051c810160208610156120765750805b601f850160051c820191505b8181101561209557828155600101612082565b505050505050565b815167ffffffffffffffff8111156120b7576120b7611cc3565b6120cb816120c58454611f0c565b8461204f565b602080601f83116001811461210057600084156120e85750858301515b600019600386901b1c1916600185901b178555612095565b600085815260208120601f198616915b8281101561212f57888601518255948401946001909101908401612110565b508582101561214d5787850151600019600388901b60f8161c191681555b5050505050600190811b01905550565b634e487b7160e01b600052603160045260246000fd5b6001600160a01b03858116825284166020820152604081018390526080606082018190526000906121a690830184611b37565b9695505050505050565b6000602082840312156121c257600080fd5b815161179e81611add56fea264697066735822122008d4538193f8f748c0d852a20fdd1349b675d260b029b8ae3940d89470dbcd4e64736f6c63430008130033",
  "immutableReferences": {},
  "source": "// SPDX-License-Identifier: MIT \r\npragma solidity ^0.8.18;\r\n\r\nimport \"./AEMarket.sol\";            //NOTE: This contract also deploys the AECoinFT contract and the AEMonsterNFT contract\r\n\r\ncontract GameContract is AEMarket{\r\n    //*--------------State variables--------------\r\n\r\n    //The owner of the contract\r\n    address public owner;\r\n\r\n    //*The constructor define the account to interact with\r\n    constructor() AEMarket(){\r\n        owner = msg.sender;\r\n    }\r\n\r\n    //*--------------Modifiers--------------\r\n\r\n    //It verifies if a player has enough AECoin to buy a new AEthermon\r\n    modifier canBuyNewMonster(address player){\r\n        require(AECoinContractAddress.balanceOf(player) >= 100,\"Not enough AECoins\");\r\n        _;\r\n    }\r\n\r\n    //*--------------Main functionalities--------------\r\n\r\n    //NOTE : Ricorda che in Ethereum viene utilizzato il Wei ( 1eth = 1e18wei = 10^18wei)\r\n    //NOTE : Ricorda che msg.value  espresso in wei\r\n    //Funzione che consente all'utente di acquistare monente di gioco (100AEC = 0.005 ETH) => 1Coin = (0.005 / 100 eth) = 0.00005 eth\r\n    function purchaseGameCoins(uint256 numberOfCoins) public payable{\r\n        //Calcola il costo in eth delle monete richieste\r\n        uint256 costInEth = (numberOfCoins * 5e13); \r\n\r\n        //Verifica che l'importo inviato sia sufficente\r\n        require(msg.value >= costInEth, \"Insufficient ETH sent\");\r\n\r\n        AECoinContractAddress.purchaseCoins(msg.sender, numberOfCoins);\r\n\r\n        //Invia i guadagni al proprietario del contratto\r\n        payable(owner).transfer(msg.value);                     //*Se metti pi soldi li perdi :)\r\n    }\r\n\r\n\r\n    //*Retrive the number of coins of a player\r\n    function coinBalanceOf(address player) public view returns (uint256){\r\n        return AECoinContractAddress.balanceOf(player);\r\n    }\r\n\r\n\r\n    //*Purchase a new monster function      //NOTE: A new monster costs 100 AECoin\r\n    function buyNewMonster(string calldata tokenURI) canBuyNewMonster(msg.sender) external returns(uint256){\r\n        uint256 monsterId = AEMonsterContract.buyMonster(msg.sender,tokenURI);\r\n        AECoinContractAddress.burnFromGame(msg.sender, 100);\r\n        return monsterId;   \r\n    }\r\n\r\n\r\n    //*Destroy all \r\n    function destroy() public{\r\n        require(msg.sender == owner, \"Only the owner of the contract can call this function\");\r\n        AECoinContractAddress.destroy();\r\n        AEMonsterContract.destroy();\r\n        selfdestruct(payable(owner));\r\n    }\r\n    \r\n}",
  "sourcePath": "C:\\Users\\cschi\\Desktop\\Scuola\\Magistrale\\Secondo Anno\\Primo Semestre\\Blockchain and DLTs\\Progetto\\AetherMon\\AEtherMon\\contracts\\Game.sol",
  "compiler": {
    "name": "solc",
    "version": "0.8.19+commit.7dd6d404.Emscripten.clang"
  },
  "schemaVersion": "3.4.16",
  "updatedAt": "2024-02-06T20:56:47.326Z",
  "networkType": "ethereum",
  "devdoc": {
    "kind": "dev",
    "methods": {},
    "version": 1
  },
  "userdoc": {
    "kind": "user",
    "methods": {},
    "version": 1
  }
}