{
  "contractName": "Owner",
  "abi": [
    {
      "inputs": [],
      "stateMutability": "nonpayable",
      "type": "constructor"
    },
    {
      "inputs": [],
      "name": "getOwner",
      "outputs": [
        {
          "internalType": "address",
          "name": "",
          "type": "address"
        }
      ],
      "stateMutability": "view",
      "type": "function"
    },
    {
      "inputs": [
        {
          "internalType": "address",
          "name": "newOwner",
          "type": "address"
        }
      ],
      "name": "transferOwnership",
      "outputs": [],
      "stateMutability": "nonpayable",
      "type": "function"
    }
  ],
  "bytecode": "0x608060405234801561001057600080fd5b50600080546001600160a01b03191633179055610174806100326000396000f3fe608060405234801561001057600080fd5b50600436106100365760003560e01c8063893d20e81461003b578063f2fde38b1461005a575b600080fd5b600054604080516001600160a01b039092168252519081900360200190f35b61006d61006836600461010e565b61006f565b005b6000546001600160a01b031633146100ec5760405162461bcd60e51b815260206004820152603660248201527f4f6e6c7920746865206f776e6572206f66207468697320636f6e74726163742060448201527531b0b71031b0b636103a3434b990333ab731ba34b7b760511b606482015260840160405180910390fd5b600080546001600160a01b0319166001600160a01b0392909216919091179055565b60006020828403121561012057600080fd5b81356001600160a01b038116811461013757600080fd5b939250505056fea26469706673582212200ae0a254707edb6b68657c98a27e754d8041076fd86ef483edeb043065ac13bd64736f6c63430008130033",
  "immutableReferences": {},
  "source": "// SPDX-License-Identifier: MIT \r\npragma solidity ^0.8.18;\r\n\r\n//A contract to define a modifier for actions callable only by the owner of the contract \r\ncontract Owner{\r\n\r\n    address private _owner;\r\n\r\n    constructor() {\r\n        _owner = msg.sender;\r\n    }\r\n\r\n    modifier onlyOwner(){\r\n        require(msg.sender == _owner, \"Only the owner of this contract can call this function\");\r\n        _;\r\n    }\r\n\r\n    function getOwner() public view virtual returns (address) {\r\n        return _owner;\r\n    }\r\n\r\n    //*Usefull in case a change of owner is needed\r\n    function transferOwnership(address newOwner) public virtual onlyOwner {\r\n        _owner = newOwner;\r\n    }\r\n}",
  "sourcePath": "C:\\Users\\HP\\Desktop\\Università\\Magistrale\\2 anno\\1 Semestre\\Blockchain & DLT\\Progetto\\src\\AEtherMon\\contracts\\Owner.sol",
  "compiler": {
    "name": "solc",
    "version": "0.8.19+commit.7dd6d404.Emscripten.clang"
  },
  "schemaVersion": "3.4.16",
  "updatedAt": "2024-02-03T19:29:20.508Z",
  "devdoc": {
    "kind": "dev",
    "methods": {},
    "version": 1
  },
  "userdoc": {
    "kind": "user",
    "methods": {},
    "version": 1
  }
}